{
	"contracts/src/YieldOptimizer.sol": {
		"YieldOptimizer": {
			"abi": [
				{
					"inputs": [],
					"stateMutability": "nonpayable",
					"type": "constructor"
				},
				{
					"inputs": [
						{
							"internalType": "address",
							"name": "owner",
							"type": "address"
						}
					],
					"name": "OwnableInvalidOwner",
					"type": "error"
				},
				{
					"inputs": [
						{
							"internalType": "address",
							"name": "account",
							"type": "address"
						}
					],
					"name": "OwnableUnauthorizedAccount",
					"type": "error"
				},
				{
					"inputs": [],
					"name": "ReentrancyGuardReentrantCall",
					"type": "error"
				},
				{
					"anonymous": false,
					"inputs": [
						{
							"indexed": true,
							"internalType": "address",
							"name": "previousOwner",
							"type": "address"
						},
						{
							"indexed": true,
							"internalType": "address",
							"name": "newOwner",
							"type": "address"
						}
					],
					"name": "OwnershipTransferred",
					"type": "event"
				},
				{
					"anonymous": false,
					"inputs": [
						{
							"indexed": false,
							"internalType": "string",
							"name": "protocol",
							"type": "string"
						},
						{
							"indexed": false,
							"internalType": "address",
							"name": "newAddress",
							"type": "address"
						}
					],
					"name": "ProtocolAddressUpdated",
					"type": "event"
				},
				{
					"anonymous": false,
					"inputs": [
						{
							"indexed": true,
							"internalType": "address",
							"name": "user",
							"type": "address"
						},
						{
							"indexed": false,
							"internalType": "uint256",
							"name": "totalValue",
							"type": "uint256"
						}
					],
					"name": "Rebalanced",
					"type": "event"
				},
				{
					"anonymous": false,
					"inputs": [
						{
							"indexed": true,
							"internalType": "address",
							"name": "user",
							"type": "address"
						},
						{
							"indexed": false,
							"internalType": "uint256",
							"name": "amount",
							"type": "uint256"
						}
					],
					"name": "Withdrawn",
					"type": "event"
				},
				{
					"anonymous": false,
					"inputs": [
						{
							"indexed": true,
							"internalType": "address",
							"name": "user",
							"type": "address"
						},
						{
							"indexed": false,
							"internalType": "uint256",
							"name": "amount",
							"type": "uint256"
						},
						{
							"indexed": false,
							"internalType": "uint8",
							"name": "riskScore",
							"type": "uint8"
						}
					],
					"name": "YieldOptimized",
					"type": "event"
				},
				{
					"anonymous": false,
					"inputs": [
						{
							"indexed": false,
							"internalType": "uint256",
							"name": "benqiAPY",
							"type": "uint256"
						},
						{
							"indexed": false,
							"internalType": "uint256",
							"name": "traderJoeAPY",
							"type": "uint256"
						},
						{
							"indexed": false,
							"internalType": "uint256",
							"name": "yieldYakAPY",
							"type": "uint256"
						}
					],
					"name": "YieldsUpdated",
					"type": "event"
				},
				{
					"inputs": [],
					"name": "BASIS_POINTS",
					"outputs": [
						{
							"internalType": "uint256",
							"name": "",
							"type": "uint256"
						}
					],
					"stateMutability": "view",
					"type": "function"
				},
				{
					"inputs": [],
					"name": "MIN_DEPOSIT",
					"outputs": [
						{
							"internalType": "uint256",
							"name": "",
							"type": "uint256"
						}
					],
					"stateMutability": "view",
					"type": "function"
				},
				{
					"inputs": [],
					"name": "REBALANCE_THRESHOLD",
					"outputs": [
						{
							"internalType": "uint256",
							"name": "",
							"type": "uint256"
						}
					],
					"stateMutability": "view",
					"type": "function"
				},
				{
					"inputs": [],
					"name": "benqiComptroller",
					"outputs": [
						{
							"internalType": "address",
							"name": "",
							"type": "address"
						}
					],
					"stateMutability": "view",
					"type": "function"
				},
				{
					"inputs": [],
					"name": "currentYields",
					"outputs": [
						{
							"internalType": "uint256",
							"name": "benqiAPY",
							"type": "uint256"
						},
						{
							"internalType": "uint256",
							"name": "traderJoeAPY",
							"type": "uint256"
						},
						{
							"internalType": "uint256",
							"name": "yieldYakAPY",
							"type": "uint256"
						},
						{
							"internalType": "uint256",
							"name": "lastUpdated",
							"type": "uint256"
						}
					],
					"stateMutability": "view",
					"type": "function"
				},
				{
					"inputs": [],
					"name": "emergencyWithdraw",
					"outputs": [],
					"stateMutability": "nonpayable",
					"type": "function"
				},
				{
					"inputs": [],
					"name": "getCurrentYields",
					"outputs": [
						{
							"internalType": "uint256",
							"name": "benqiAPY",
							"type": "uint256"
						},
						{
							"internalType": "uint256",
							"name": "traderJoeAPY",
							"type": "uint256"
						},
						{
							"internalType": "uint256",
							"name": "yieldYakAPY",
							"type": "uint256"
						},
						{
							"internalType": "uint256",
							"name": "lastUpdated",
							"type": "uint256"
						}
					],
					"stateMutability": "view",
					"type": "function"
				},
				{
					"inputs": [
						{
							"internalType": "address",
							"name": "user",
							"type": "address"
						}
					],
					"name": "getRebalanceRecommendation",
					"outputs": [
						{
							"internalType": "bool",
							"name": "shouldRebalance",
							"type": "bool"
						},
						{
							"internalType": "uint256",
							"name": "newBenqiAllocation",
							"type": "uint256"
						},
						{
							"internalType": "uint256",
							"name": "newTraderJoeAllocation",
							"type": "uint256"
						},
						{
							"internalType": "uint256",
							"name": "newYieldYakAllocation",
							"type": "uint256"
						}
					],
					"stateMutability": "view",
					"type": "function"
				},
				{
					"inputs": [
						{
							"internalType": "address",
							"name": "user",
							"type": "address"
						}
					],
					"name": "getUserPortfolio",
					"outputs": [
						{
							"components": [
								{
									"internalType": "uint8",
									"name": "riskScore",
									"type": "uint8"
								},
								{
									"internalType": "uint256",
									"name": "totalDeposited",
									"type": "uint256"
								},
								{
									"internalType": "uint256",
									"name": "lastRebalance",
									"type": "uint256"
								},
								{
									"internalType": "bool",
									"name": "autoRebalance",
									"type": "bool"
								}
							],
							"internalType": "struct YieldOptimizer.UserProfile",
							"name": "profile",
							"type": "tuple"
						},
						{
							"components": [
								{
									"internalType": "uint256",
									"name": "benqiAmount",
									"type": "uint256"
								},
								{
									"internalType": "uint256",
									"name": "traderJoeAmount",
									"type": "uint256"
								},
								{
									"internalType": "uint256",
									"name": "yieldYakAmount",
									"type": "uint256"
								}
							],
							"internalType": "struct YieldOptimizer.ProtocolAllocation",
							"name": "allocation",
							"type": "tuple"
						},
						{
							"internalType": "uint256",
							"name": "estimatedValue",
							"type": "uint256"
						}
					],
					"stateMutability": "view",
					"type": "function"
				},
				{
					"inputs": [
						{
							"internalType": "uint8",
							"name": "_riskScore",
							"type": "uint8"
						}
					],
					"name": "optimizeYield",
					"outputs": [],
					"stateMutability": "payable",
					"type": "function"
				},
				{
					"inputs": [],
					"name": "owner",
					"outputs": [
						{
							"internalType": "address",
							"name": "",
							"type": "address"
						}
					],
					"stateMutability": "view",
					"type": "function"
				},
				{
					"inputs": [],
					"name": "rebalance",
					"outputs": [],
					"stateMutability": "nonpayable",
					"type": "function"
				},
				{
					"inputs": [],
					"name": "renounceOwnership",
					"outputs": [],
					"stateMutability": "nonpayable",
					"type": "function"
				},
				{
					"inputs": [],
					"name": "traderJoeRouter",
					"outputs": [
						{
							"internalType": "address",
							"name": "",
							"type": "address"
						}
					],
					"stateMutability": "view",
					"type": "function"
				},
				{
					"inputs": [
						{
							"internalType": "address",
							"name": "newOwner",
							"type": "address"
						}
					],
					"name": "transferOwnership",
					"outputs": [],
					"stateMutability": "nonpayable",
					"type": "function"
				},
				{
					"inputs": [
						{
							"internalType": "string",
							"name": "protocol",
							"type": "string"
						},
						{
							"internalType": "address",
							"name": "newAddress",
							"type": "address"
						}
					],
					"name": "updateProtocolAddress",
					"outputs": [],
					"stateMutability": "nonpayable",
					"type": "function"
				},
				{
					"inputs": [
						{
							"internalType": "uint256",
							"name": "_benqiAPY",
							"type": "uint256"
						},
						{
							"internalType": "uint256",
							"name": "_traderJoeAPY",
							"type": "uint256"
						},
						{
							"internalType": "uint256",
							"name": "_yieldYakAPY",
							"type": "uint256"
						}
					],
					"name": "updateYields",
					"outputs": [],
					"stateMutability": "nonpayable",
					"type": "function"
				},
				{
					"inputs": [
						{
							"internalType": "address",
							"name": "",
							"type": "address"
						}
					],
					"name": "userAllocations",
					"outputs": [
						{
							"internalType": "uint256",
							"name": "benqiAmount",
							"type": "uint256"
						},
						{
							"internalType": "uint256",
							"name": "traderJoeAmount",
							"type": "uint256"
						},
						{
							"internalType": "uint256",
							"name": "yieldYakAmount",
							"type": "uint256"
						}
					],
					"stateMutability": "view",
					"type": "function"
				},
				{
					"inputs": [
						{
							"internalType": "address",
							"name": "",
							"type": "address"
						}
					],
					"name": "userProfiles",
					"outputs": [
						{
							"internalType": "uint8",
							"name": "riskScore",
							"type": "uint8"
						},
						{
							"internalType": "uint256",
							"name": "totalDeposited",
							"type": "uint256"
						},
						{
							"internalType": "uint256",
							"name": "lastRebalance",
							"type": "uint256"
						},
						{
							"internalType": "bool",
							"name": "autoRebalance",
							"type": "bool"
						}
					],
					"stateMutability": "view",
					"type": "function"
				},
				{
					"inputs": [],
					"name": "yieldYakFarm",
					"outputs": [
						{
							"internalType": "address",
							"name": "",
							"type": "address"
						}
					],
					"stateMutability": "view",
					"type": "function"
				}
			],
			"devdoc": {
				"errors": {
					"OwnableInvalidOwner(address)": [
						{
							"details": "The owner is not a valid owner account. (eg. `address(0)`)"
						}
					],
					"OwnableUnauthorizedAccount(address)": [
						{
							"details": "The caller account is not authorized to perform an operation."
						}
					],
					"ReentrancyGuardReentrantCall()": [
						{
							"details": "Unauthorized reentrant call."
						}
					]
				},
				"kind": "dev",
				"methods": {
					"emergencyWithdraw()": {
						"details": "Emergency withdrawal function"
					},
					"getCurrentYields()": {
						"details": "Get current yields from all protocols"
					},
					"getRebalanceRecommendation(address)": {
						"details": "Calculate recommended rebalancing for a user"
					},
					"getUserPortfolio(address)": {
						"details": "Get user's complete portfolio information"
					},
					"optimizeYield(uint8)": {
						"details": "Main function to optimize yield based on user's risk profile",
						"params": {
							"_riskScore": "Risk score from 0 (conservative) to 100 (aggressive)"
						}
					},
					"owner()": {
						"details": "Returns the address of the current owner."
					},
					"rebalance()": {
						"details": "Execute rebalancing for a user"
					},
					"renounceOwnership()": {
						"details": "Leaves the contract without owner. It will not be possible to call `onlyOwner` functions. Can only be called by the current owner. NOTE: Renouncing ownership will leave the contract without an owner, thereby disabling any functionality that is only available to the owner."
					},
					"transferOwnership(address)": {
						"details": "Transfers ownership of the contract to a new account (`newOwner`). Can only be called by the current owner."
					}
				},
				"version": 1
			},
			"evm": {
				"assembly": "    /* \"contracts/src/YieldOptimizer.sol\":405:15630  contract YieldOptimizer is Ownable, ReentrancyGuard {... */\n  mstore(0x40, 0x80)\n    /* \"contracts/src/YieldOptimizer.sol\":2327:2673  constructor() Ownable(msg.sender) {... */\n  callvalue\n  dup1\n  iszero\n  tag_1\n  jumpi\n  0x00\n  dup1\n  revert\ntag_1:\n  pop\n    /* \"contracts/src/YieldOptimizer.sol\":2349:2359  msg.sender */\n  caller\n    /* \"@openzeppelin/contracts/access/Ownable.sol\":1297:1298  0 */\n  0x00\n    /* \"@openzeppelin/contracts/access/Ownable.sol\":1273:1299  initialOwner == address(0) */\n  0xffffffffffffffffffffffffffffffffffffffff\n  and\n    /* \"@openzeppelin/contracts/access/Ownable.sol\":1273:1285  initialOwner */\n  dup2\n    /* \"@openzeppelin/contracts/access/Ownable.sol\":1273:1299  initialOwner == address(0) */\n  0xffffffffffffffffffffffffffffffffffffffff\n  and\n  sub\n    /* \"@openzeppelin/contracts/access/Ownable.sol\":1269:1364  if (initialOwner == address(0)) {... */\n  tag_6\n  jumpi\n    /* \"@openzeppelin/contracts/access/Ownable.sol\":1350:1351  0 */\n  0x00\n    /* \"@openzeppelin/contracts/access/Ownable.sol\":1322:1353  OwnableInvalidOwner(address(0)) */\n  mload(0x40)\n  0x1e4fbdf700000000000000000000000000000000000000000000000000000000\n  dup2\n  mstore\n  0x04\n  add\n  tag_7\n  swap2\n  swap1\n  tag_8\n  jump\t// in\ntag_7:\n  mload(0x40)\n  dup1\n  swap2\n  sub\n  swap1\n  revert\n    /* \"@openzeppelin/contracts/access/Ownable.sol\":1269:1364  if (initialOwner == address(0)) {... */\ntag_6:\n    /* \"@openzeppelin/contracts/access/Ownable.sol\":1373:1405  _transferOwnership(initialOwner) */\n  tag_9\n    /* \"@openzeppelin/contracts/access/Ownable.sol\":1392:1404  initialOwner */\n  dup2\n    /* \"@openzeppelin/contracts/access/Ownable.sol\":1373:1391  _transferOwnership */\n  shl(0x20, tag_10)\n    /* \"@openzeppelin/contracts/access/Ownable.sol\":1373:1405  _transferOwnership(initialOwner) */\n  0x20\n  shr\n  jump\t// in\ntag_9:\n    /* \"@openzeppelin/contracts/access/Ownable.sol\":1225:1412  constructor(address initialOwner) {... */\n  pop\n    /* \"@openzeppelin/contracts/utils/ReentrancyGuard.sol\":1857:1858  1 */\n  0x01\n    /* \"@openzeppelin/contracts/utils/ReentrancyGuard.sol\":2061:2068  _status */\n  dup1\n    /* \"@openzeppelin/contracts/utils/ReentrancyGuard.sol\":2061:2082  _status = NOT_ENTERED */\n  dup2\n  swap1\n  sstore\n  pop\n    /* \"contracts/src/YieldOptimizer.sol\":2468:2666  YieldData({... */\n  mload(0x40)\n  dup1\n  0x80\n  add\n  0x40\n  mstore\n  dup1\n    /* \"contracts/src/YieldOptimizer.sol\":2502:2505  500 */\n  0x01f4\n    /* \"contracts/src/YieldOptimizer.sol\":2468:2666  YieldData({... */\n  dup2\n  mstore\n  0x20\n  add\n    /* \"contracts/src/YieldOptimizer.sol\":2550:2553  800 */\n  0x0320\n    /* \"contracts/src/YieldOptimizer.sol\":2468:2666  YieldData({... */\n  dup2\n  mstore\n  0x20\n  add\n    /* \"contracts/src/YieldOptimizer.sol\":2595:2599  1200 */\n  0x04b0\n    /* \"contracts/src/YieldOptimizer.sol\":2468:2666  YieldData({... */\n  dup2\n  mstore\n  0x20\n  add\n    /* \"contracts/src/YieldOptimizer.sol\":2640:2655  block.timestamp */\n  timestamp\n    /* \"contracts/src/YieldOptimizer.sol\":2468:2666  YieldData({... */\n  dup2\n  mstore\n  pop\n    /* \"contracts/src/YieldOptimizer.sol\":2452:2465  currentYields */\n  0x04\n    /* \"contracts/src/YieldOptimizer.sol\":2452:2666  currentYields = YieldData({... */\n  0x00\n  dup3\n  add\n  mload\n  dup2\n  0x00\n  add\n  sstore\n  0x20\n  dup3\n  add\n  mload\n  dup2\n  0x01\n  add\n  sstore\n  0x40\n  dup3\n  add\n  mload\n  dup2\n  0x02\n  add\n  sstore\n  0x60\n  dup3\n  add\n  mload\n  dup2\n  0x03\n  add\n  sstore\n  swap1\n  pop\n  pop\n    /* \"contracts/src/YieldOptimizer.sol\":405:15630  contract YieldOptimizer is Ownable, ReentrancyGuard {... */\n  jump(tag_13)\n    /* \"@openzeppelin/contracts/access/Ownable.sol\":2912:3099  function _transferOwnership(address newOwner) internal virtual {... */\ntag_10:\n    /* \"@openzeppelin/contracts/access/Ownable.sol\":2985:3001  address oldOwner */\n  0x00\n    /* \"@openzeppelin/contracts/access/Ownable.sol\":3004:3010  _owner */\n  dup1\n  0x00\n  swap1\n  sload\n  swap1\n  0x0100\n  exp\n  swap1\n  div\n  0xffffffffffffffffffffffffffffffffffffffff\n  and\n    /* \"@openzeppelin/contracts/access/Ownable.sol\":2985:3010  address oldOwner = _owner */\n  swap1\n  pop\n    /* \"@openzeppelin/contracts/access/Ownable.sol\":3029:3037  newOwner */\n  dup2\n    /* \"@openzeppelin/contracts/access/Ownable.sol\":3020:3026  _owner */\n  0x00\n  dup1\n    /* \"@openzeppelin/contracts/access/Ownable.sol\":3020:3037  _owner = newOwner */\n  0x0100\n  exp\n  dup2\n  sload\n  dup2\n  0xffffffffffffffffffffffffffffffffffffffff\n  mul\n  not\n  and\n  swap1\n  dup4\n  0xffffffffffffffffffffffffffffffffffffffff\n  and\n  mul\n  or\n  swap1\n  sstore\n  pop\n    /* \"@openzeppelin/contracts/access/Ownable.sol\":3083:3091  newOwner */\n  dup2\n    /* \"@openzeppelin/contracts/access/Ownable.sol\":3052:3092  OwnershipTransferred(oldOwner, newOwner) */\n  0xffffffffffffffffffffffffffffffffffffffff\n  and\n    /* \"@openzeppelin/contracts/access/Ownable.sol\":3073:3081  oldOwner */\n  dup2\n    /* \"@openzeppelin/contracts/access/Ownable.sol\":3052:3092  OwnershipTransferred(oldOwner, newOwner) */\n  0xffffffffffffffffffffffffffffffffffffffff\n  and\n  0x8be0079c531659141344cd1fd0a4f28419497f9722a3daafe3b4186f6b6457e0\n  mload(0x40)\n  mload(0x40)\n  dup1\n  swap2\n  sub\n  swap1\n  log3\n    /* \"@openzeppelin/contracts/access/Ownable.sol\":2975:3099  {... */\n  pop\n    /* \"@openzeppelin/contracts/access/Ownable.sol\":2912:3099  function _transferOwnership(address newOwner) internal virtual {... */\n  pop\n  jump\t// out\n    /* \"#utility.yul\":7:133   */\ntag_15:\n    /* \"#utility.yul\":44:51   */\n  0x00\n    /* \"#utility.yul\":84:126   */\n  0xffffffffffffffffffffffffffffffffffffffff\n    /* \"#utility.yul\":77:82   */\n  dup3\n    /* \"#utility.yul\":73:127   */\n  and\n    /* \"#utility.yul\":62:127   */\n  swap1\n  pop\n    /* \"#utility.yul\":7:133   */\n  swap2\n  swap1\n  pop\n  jump\t// out\n    /* \"#utility.yul\":139:235   */\ntag_16:\n    /* \"#utility.yul\":176:183   */\n  0x00\n    /* \"#utility.yul\":205:229   */\n  tag_21\n    /* \"#utility.yul\":223:228   */\n  dup3\n    /* \"#utility.yul\":205:229   */\n  tag_15\n  jump\t// in\ntag_21:\n    /* \"#utility.yul\":194:229   */\n  swap1\n  pop\n    /* \"#utility.yul\":139:235   */\n  swap2\n  swap1\n  pop\n  jump\t// out\n    /* \"#utility.yul\":241:359   */\ntag_17:\n    /* \"#utility.yul\":328:352   */\n  tag_23\n    /* \"#utility.yul\":346:351   */\n  dup2\n    /* \"#utility.yul\":328:352   */\n  tag_16\n  jump\t// in\ntag_23:\n    /* \"#utility.yul\":323:326   */\n  dup3\n    /* \"#utility.yul\":316:353   */\n  mstore\n    /* \"#utility.yul\":241:359   */\n  pop\n  pop\n  jump\t// out\n    /* \"#utility.yul\":365:587   */\ntag_8:\n    /* \"#utility.yul\":458:462   */\n  0x00\n    /* \"#utility.yul\":496:498   */\n  0x20\n    /* \"#utility.yul\":485:494   */\n  dup3\n    /* \"#utility.yul\":481:499   */\n  add\n    /* \"#utility.yul\":473:499   */\n  swap1\n  pop\n    /* \"#utility.yul\":509:580   */\n  tag_25\n    /* \"#utility.yul\":577:578   */\n  0x00\n    /* \"#utility.yul\":566:575   */\n  dup4\n    /* \"#utility.yul\":562:579   */\n  add\n    /* \"#utility.yul\":553:559   */\n  dup5\n    /* \"#utility.yul\":509:580   */\n  tag_17\n  jump\t// in\ntag_25:\n    /* \"#utility.yul\":365:587   */\n  swap3\n  swap2\n  pop\n  pop\n  jump\t// out\n    /* \"contracts/src/YieldOptimizer.sol\":405:15630  contract YieldOptimizer is Ownable, ReentrancyGuard {... */\ntag_13:\n  dataSize(sub_0)\n  dup1\n  dataOffset(sub_0)\n  0x00\n  codecopy\n  0x00\n  return\nstop\n\nsub_0: assembly {\n        /* \"contracts/src/YieldOptimizer.sol\":405:15630  contract YieldOptimizer is Ownable, ReentrancyGuard {... */\n      mstore(0x40, 0x80)\n      jumpi(tag_1, lt(calldatasize, 0x04))\n      shr(0xe0, calldataload(0x00))\n      dup1\n      0x7d7c2a1c\n      gt\n      tag_22\n      jumpi\n      dup1\n      0xd076e8b4\n      gt\n      tag_23\n      jumpi\n      dup1\n      0xd076e8b4\n      eq\n      tag_17\n      jumpi\n      dup1\n      0xdb2e21bc\n      eq\n      tag_18\n      jumpi\n      dup1\n      0xe1e158a5\n      eq\n      tag_19\n      jumpi\n      dup1\n      0xe1f1c4a7\n      eq\n      tag_20\n      jumpi\n      dup1\n      0xf2fde38b\n      eq\n      tag_21\n      jumpi\n      jump(tag_1)\n    tag_23:\n      dup1\n      0x7d7c2a1c\n      eq\n      tag_12\n      jumpi\n      dup1\n      0x8ccbe9f5\n      eq\n      tag_13\n      jumpi\n      dup1\n      0x8da5cb5b\n      eq\n      tag_14\n      jumpi\n      dup1\n      0x99e32287\n      eq\n      tag_15\n      jumpi\n      dup1\n      0xc85b967d\n      eq\n      tag_16\n      jumpi\n      jump(tag_1)\n    tag_22:\n      dup1\n      0x2faff427\n      gt\n      tag_24\n      jumpi\n      dup1\n      0x2faff427\n      eq\n      tag_7\n      jumpi\n      dup1\n      0x324be9ef\n      eq\n      tag_8\n      jumpi\n      dup1\n      0x332d56d7\n      eq\n      tag_9\n      jumpi\n      dup1\n      0x4c0c87ff\n      eq\n      tag_10\n      jumpi\n      dup1\n      0x715018a6\n      eq\n      tag_11\n      jumpi\n      jump(tag_1)\n    tag_24:\n      dup1\n      0x349f3a\n      eq\n      tag_2\n      jumpi\n      dup1\n      0x071a8ef5\n      eq\n      tag_3\n      jumpi\n      dup1\n      0x1edb27e9\n      eq\n      tag_4\n      jumpi\n      dup1\n      0x22a16952\n      eq\n      tag_5\n      jumpi\n      dup1\n      0x2ab8895f\n      eq\n      tag_6\n      jumpi\n    tag_1:\n      0x00\n      dup1\n      revert\n        /* \"contracts/src/YieldOptimizer.sol\":2846:3430  function optimizeYield(uint8 _riskScore) external payable nonReentrant {... */\n    tag_2:\n      tag_25\n      0x04\n      dup1\n      calldatasize\n      sub\n      dup2\n      add\n      swap1\n      tag_26\n      swap2\n      swap1\n      tag_27\n      jump\t// in\n    tag_26:\n      tag_28\n      jump\t// in\n    tag_25:\n      stop\n        /* \"contracts/src/YieldOptimizer.sol\":1647:1674  address public yieldYakFarm */\n    tag_3:\n      callvalue\n      dup1\n      iszero\n      tag_29\n      jumpi\n      0x00\n      dup1\n      revert\n    tag_29:\n      pop\n      tag_30\n      tag_31\n      jump\t// in\n    tag_30:\n      mload(0x40)\n      tag_32\n      swap2\n      swap1\n      tag_33\n      jump\t// in\n    tag_32:\n      mload(0x40)\n      dup1\n      swap2\n      sub\n      swap1\n      return\n        /* \"contracts/src/YieldOptimizer.sol\":5919:6376  function getUserPortfolio(address user) external view returns (... */\n    tag_4:\n      callvalue\n      dup1\n      iszero\n      tag_34\n      jumpi\n      0x00\n      dup1\n      revert\n    tag_34:\n      pop\n      tag_35\n      0x04\n      dup1\n      calldatasize\n      sub\n      dup2\n      add\n      swap1\n      tag_36\n      swap2\n      swap1\n      tag_37\n      jump\t// in\n    tag_36:\n      tag_38\n      jump\t// in\n    tag_35:\n      mload(0x40)\n      tag_39\n      swap4\n      swap3\n      swap2\n      swap1\n      tag_40\n      jump\t// in\n    tag_39:\n      mload(0x40)\n      dup1\n      swap2\n      sub\n      swap1\n      return\n        /* \"contracts/src/YieldOptimizer.sol\":5484:5843  function getCurrentYields() external view returns (... */\n    tag_5:\n      callvalue\n      dup1\n      iszero\n      tag_41\n      jumpi\n      0x00\n      dup1\n      revert\n    tag_41:\n      pop\n      tag_42\n      tag_43\n      jump\t// in\n    tag_42:\n      mload(0x40)\n      tag_44\n      swap5\n      swap4\n      swap3\n      swap2\n      swap1\n      tag_45\n      jump\t// in\n    tag_44:\n      mload(0x40)\n      dup1\n      swap2\n      sub\n      swap1\n      return\n        /* \"contracts/src/YieldOptimizer.sol\":6455:7465  function getRebalanceRecommendation(address user) external view returns (... */\n    tag_6:\n      callvalue\n      dup1\n      iszero\n      tag_46\n      jumpi\n      0x00\n      dup1\n      revert\n    tag_46:\n      pop\n      tag_47\n      0x04\n      dup1\n      calldatasize\n      sub\n      dup2\n      add\n      swap1\n      tag_48\n      swap2\n      swap1\n      tag_37\n      jump\t// in\n    tag_48:\n      tag_49\n      jump\t// in\n    tag_47:\n      mload(0x40)\n      tag_50\n      swap5\n      swap4\n      swap3\n      swap2\n      swap1\n      tag_51\n      jump\t// in\n    tag_50:\n      mload(0x40)\n      dup1\n      swap2\n      sub\n      swap1\n      return\n        /* \"contracts/src/YieldOptimizer.sol\":1574:1604  address public traderJoeRouter */\n    tag_7:\n      callvalue\n      dup1\n      iszero\n      tag_52\n      jumpi\n      0x00\n      dup1\n      revert\n    tag_52:\n      pop\n      tag_53\n      tag_54\n      jump\t// in\n    tag_53:\n      mload(0x40)\n      tag_55\n      swap2\n      swap1\n      tag_33\n      jump\t// in\n    tag_55:\n      mload(0x40)\n      dup1\n      swap2\n      sub\n      swap1\n      return\n        /* \"contracts/src/YieldOptimizer.sol\":1610:1641  address public benqiComptroller */\n    tag_8:\n      callvalue\n      dup1\n      iszero\n      tag_56\n      jumpi\n      0x00\n      dup1\n      revert\n    tag_56:\n      pop\n      tag_57\n      tag_58\n      jump\t// in\n    tag_57:\n      mload(0x40)\n      tag_59\n      swap2\n      swap1\n      tag_33\n      jump\t// in\n    tag_59:\n      mload(0x40)\n      dup1\n      swap2\n      sub\n      swap1\n      return\n        /* \"contracts/src/YieldOptimizer.sol\":1338:1389  mapping(address => UserProfile) public userProfiles */\n    tag_9:\n      callvalue\n      dup1\n      iszero\n      tag_60\n      jumpi\n      0x00\n      dup1\n      revert\n    tag_60:\n      pop\n      tag_61\n      0x04\n      dup1\n      calldatasize\n      sub\n      dup2\n      add\n      swap1\n      tag_62\n      swap2\n      swap1\n      tag_37\n      jump\t// in\n    tag_62:\n      tag_63\n      jump\t// in\n    tag_61:\n      mload(0x40)\n      tag_64\n      swap5\n      swap4\n      swap3\n      swap2\n      swap1\n      tag_65\n      jump\t// in\n    tag_64:\n      mload(0x40)\n      dup1\n      swap2\n      sub\n      swap1\n      return\n        /* \"contracts/src/YieldOptimizer.sol\":1395:1456  mapping(address => ProtocolAllocation) public userAllocations */\n    tag_10:\n      callvalue\n      dup1\n      iszero\n      tag_66\n      jumpi\n      0x00\n      dup1\n      revert\n    tag_66:\n      pop\n      tag_67\n      0x04\n      dup1\n      calldatasize\n      sub\n      dup2\n      add\n      swap1\n      tag_68\n      swap2\n      swap1\n      tag_37\n      jump\t// in\n    tag_68:\n      tag_69\n      jump\t// in\n    tag_67:\n      mload(0x40)\n      tag_70\n      swap4\n      swap3\n      swap2\n      swap1\n      tag_71\n      jump\t// in\n    tag_70:\n      mload(0x40)\n      dup1\n      swap2\n      sub\n      swap1\n      return\n        /* \"@openzeppelin/contracts/access/Ownable.sol\":2293:2394  function renounceOwnership() public virtual onlyOwner {... */\n    tag_11:\n      callvalue\n      dup1\n      iszero\n      tag_72\n      jumpi\n      0x00\n      dup1\n      revert\n    tag_72:\n      pop\n      tag_73\n      tag_74\n      jump\t// in\n    tag_73:\n      stop\n        /* \"contracts/src/YieldOptimizer.sol\":7530:8301  function rebalance() external nonReentrant {... */\n    tag_12:\n      callvalue\n      dup1\n      iszero\n      tag_75\n      jumpi\n      0x00\n      dup1\n      revert\n    tag_75:\n      pop\n      tag_76\n      tag_77\n      jump\t// in\n    tag_76:\n      stop\n        /* \"contracts/src/YieldOptimizer.sol\":1462:1492  YieldData public currentYields */\n    tag_13:\n      callvalue\n      dup1\n      iszero\n      tag_78\n      jumpi\n      0x00\n      dup1\n      revert\n    tag_78:\n      pop\n      tag_79\n      tag_80\n      jump\t// in\n    tag_79:\n      mload(0x40)\n      tag_81\n      swap5\n      swap4\n      swap3\n      swap2\n      swap1\n      tag_45\n      jump\t// in\n    tag_81:\n      mload(0x40)\n      dup1\n      swap2\n      sub\n      swap1\n      return\n        /* \"@openzeppelin/contracts/access/Ownable.sol\":1638:1723  function owner() public view virtual returns (address) {... */\n    tag_14:\n      callvalue\n      dup1\n      iszero\n      tag_82\n      jumpi\n      0x00\n      dup1\n      revert\n    tag_82:\n      pop\n      tag_83\n      tag_84\n      jump\t// in\n    tag_83:\n      mload(0x40)\n      tag_85\n      swap2\n      swap1\n      tag_33\n      jump\t// in\n    tag_85:\n      mload(0x40)\n      dup1\n      swap2\n      sub\n      swap1\n      return\n        /* \"contracts/src/YieldOptimizer.sol\":15240:15628  function updateYields(uint256 _benqiAPY, uint256 _traderJoeAPY, uint256 _yieldYakAPY) external onlyOwner {... */\n    tag_15:\n      callvalue\n      dup1\n      iszero\n      tag_86\n      jumpi\n      0x00\n      dup1\n      revert\n    tag_86:\n      pop\n      tag_87\n      0x04\n      dup1\n      calldatasize\n      sub\n      dup2\n      add\n      swap1\n      tag_88\n      swap2\n      swap1\n      tag_89\n      jump\t// in\n    tag_88:\n      tag_90\n      jump\t// in\n    tag_87:\n      stop\n        /* \"contracts/src/YieldOptimizer.sol\":1778:1827  uint256 public constant REBALANCE_THRESHOLD = 500 */\n    tag_16:\n      callvalue\n      dup1\n      iszero\n      tag_91\n      jumpi\n      0x00\n      dup1\n      revert\n    tag_91:\n      pop\n      tag_92\n      tag_93\n      jump\t// in\n    tag_92:\n      mload(0x40)\n      tag_94\n      swap2\n      swap1\n      tag_95\n      jump\t// in\n    tag_94:\n      mload(0x40)\n      dup1\n      swap2\n      sub\n      swap1\n      return\n        /* \"contracts/src/YieldOptimizer.sol\":14568:15234  function updateProtocolAddress(string calldata protocol, address newAddress) external onlyOwner {... */\n    tag_17:\n      callvalue\n      dup1\n      iszero\n      tag_96\n      jumpi\n      0x00\n      dup1\n      revert\n    tag_96:\n      pop\n      tag_97\n      0x04\n      dup1\n      calldatasize\n      sub\n      dup2\n      add\n      swap1\n      tag_98\n      swap2\n      swap1\n      tag_99\n      jump\t// in\n    tag_98:\n      tag_100\n      jump\t// in\n    tag_97:\n      stop\n        /* \"contracts/src/YieldOptimizer.sol\":8365:9631  function emergencyWithdraw() external nonReentrant {... */\n    tag_18:\n      callvalue\n      dup1\n      iszero\n      tag_101\n      jumpi\n      0x00\n      dup1\n      revert\n    tag_101:\n      pop\n      tag_102\n      tag_103\n      jump\t// in\n    tag_102:\n      stop\n        /* \"contracts/src/YieldOptimizer.sol\":1702:1750  uint256 public constant MIN_DEPOSIT = 0.01 ether */\n    tag_19:\n      callvalue\n      dup1\n      iszero\n      tag_104\n      jumpi\n      0x00\n      dup1\n      revert\n    tag_104:\n      pop\n      tag_105\n      tag_106\n      jump\t// in\n    tag_105:\n      mload(0x40)\n      tag_107\n      swap2\n      swap1\n      tag_95\n      jump\t// in\n    tag_107:\n      mload(0x40)\n      dup1\n      swap2\n      sub\n      swap1\n      return\n        /* \"contracts/src/YieldOptimizer.sol\":1865:1909  uint256 public constant BASIS_POINTS = 10000 */\n    tag_20:\n      callvalue\n      dup1\n      iszero\n      tag_108\n      jumpi\n      0x00\n      dup1\n      revert\n    tag_108:\n      pop\n      tag_109\n      tag_110\n      jump\t// in\n    tag_109:\n      mload(0x40)\n      tag_111\n      swap2\n      swap1\n      tag_95\n      jump\t// in\n    tag_111:\n      mload(0x40)\n      dup1\n      swap2\n      sub\n      swap1\n      return\n        /* \"@openzeppelin/contracts/access/Ownable.sol\":2543:2758  function transferOwnership(address newOwner) public virtual onlyOwner {... */\n    tag_21:\n      callvalue\n      dup1\n      iszero\n      tag_112\n      jumpi\n      0x00\n      dup1\n      revert\n    tag_112:\n      pop\n      tag_113\n      0x04\n      dup1\n      calldatasize\n      sub\n      dup2\n      add\n      swap1\n      tag_114\n      swap2\n      swap1\n      tag_37\n      jump\t// in\n    tag_114:\n      tag_115\n      jump\t// in\n    tag_113:\n      stop\n        /* \"contracts/src/YieldOptimizer.sol\":2846:3430  function optimizeYield(uint8 _riskScore) external payable nonReentrant {... */\n    tag_28:\n        /* \"@openzeppelin/contracts/utils/ReentrancyGuard.sol\":2500:2521  _nonReentrantBefore() */\n      tag_117\n        /* \"@openzeppelin/contracts/utils/ReentrancyGuard.sol\":2500:2519  _nonReentrantBefore */\n      tag_118\n        /* \"@openzeppelin/contracts/utils/ReentrancyGuard.sol\":2500:2521  _nonReentrantBefore() */\n      jump\t// in\n    tag_117:\n        /* \"contracts/src/YieldOptimizer.sol\":1740:1750  0.01 ether */\n      0x2386f26fc10000\n        /* \"contracts/src/YieldOptimizer.sol\":2935:2944  msg.value */\n      callvalue\n        /* \"contracts/src/YieldOptimizer.sol\":2935:2959  msg.value >= MIN_DEPOSIT */\n      lt\n      iszero\n        /* \"contracts/src/YieldOptimizer.sol\":2927:2981  require(msg.value >= MIN_DEPOSIT, \"Deposit too small\") */\n      tag_120\n      jumpi\n      mload(0x40)\n      0x08c379a000000000000000000000000000000000000000000000000000000000\n      dup2\n      mstore\n      0x04\n      add\n      tag_121\n      swap1\n      tag_122\n      jump\t// in\n    tag_121:\n      mload(0x40)\n      dup1\n      swap2\n      sub\n      swap1\n      revert\n    tag_120:\n        /* \"contracts/src/YieldOptimizer.sol\":3013:3016  100 */\n      0x64\n        /* \"contracts/src/YieldOptimizer.sol\":2999:3009  _riskScore */\n      dup2\n        /* \"contracts/src/YieldOptimizer.sol\":2999:3016  _riskScore <= 100 */\n      0xff\n      and\n      gt\n      iszero\n        /* \"contracts/src/YieldOptimizer.sol\":2991:3039  require(_riskScore <= 100, \"Invalid risk score\") */\n      tag_123\n      jumpi\n      mload(0x40)\n      0x08c379a000000000000000000000000000000000000000000000000000000000\n      dup2\n      mstore\n      0x04\n      add\n      tag_124\n      swap1\n      tag_125\n      jump\t// in\n    tag_124:\n      mload(0x40)\n      dup1\n      swap2\n      sub\n      swap1\n      revert\n    tag_123:\n        /* \"contracts/src/YieldOptimizer.sol\":3050:3077  UserProfile storage profile */\n      0x00\n        /* \"contracts/src/YieldOptimizer.sol\":3080:3092  userProfiles */\n      0x02\n        /* \"contracts/src/YieldOptimizer.sol\":3080:3104  userProfiles[msg.sender] */\n      0x00\n        /* \"contracts/src/YieldOptimizer.sol\":3093:3103  msg.sender */\n      caller\n        /* \"contracts/src/YieldOptimizer.sol\":3080:3104  userProfiles[msg.sender] */\n      0xffffffffffffffffffffffffffffffffffffffff\n      and\n      0xffffffffffffffffffffffffffffffffffffffff\n      and\n      dup2\n      mstore\n      0x20\n      add\n      swap1\n      dup2\n      mstore\n      0x20\n      add\n      0x00\n      keccak256\n        /* \"contracts/src/YieldOptimizer.sol\":3050:3104  UserProfile storage profile = userProfiles[msg.sender] */\n      swap1\n      pop\n        /* \"contracts/src/YieldOptimizer.sol\":3134:3144  _riskScore */\n      dup2\n        /* \"contracts/src/YieldOptimizer.sol\":3114:3121  profile */\n      dup2\n        /* \"contracts/src/YieldOptimizer.sol\":3114:3131  profile.riskScore */\n      0x00\n      add\n      0x00\n        /* \"contracts/src/YieldOptimizer.sol\":3114:3144  profile.riskScore = _riskScore */\n      0x0100\n      exp\n      dup2\n      sload\n      dup2\n      0xff\n      mul\n      not\n      and\n      swap1\n      dup4\n      0xff\n      and\n      mul\n      or\n      swap1\n      sstore\n      pop\n        /* \"contracts/src/YieldOptimizer.sol\":3180:3189  msg.value */\n      callvalue\n        /* \"contracts/src/YieldOptimizer.sol\":3154:3161  profile */\n      dup2\n        /* \"contracts/src/YieldOptimizer.sol\":3154:3176  profile.totalDeposited */\n      0x01\n      add\n      0x00\n        /* \"contracts/src/YieldOptimizer.sol\":3154:3189  profile.totalDeposited += msg.value */\n      dup3\n      dup3\n      sload\n      tag_126\n      swap2\n      swap1\n      tag_127\n      jump\t// in\n    tag_126:\n      swap3\n      pop\n      pop\n      dup2\n      swap1\n      sstore\n      pop\n        /* \"contracts/src/YieldOptimizer.sol\":3223:3238  block.timestamp */\n      timestamp\n        /* \"contracts/src/YieldOptimizer.sol\":3199:3206  profile */\n      dup2\n        /* \"contracts/src/YieldOptimizer.sol\":3199:3220  profile.lastRebalance */\n      0x02\n      add\n        /* \"contracts/src/YieldOptimizer.sol\":3199:3238  profile.lastRebalance = block.timestamp */\n      dup2\n      swap1\n      sstore\n      pop\n        /* \"contracts/src/YieldOptimizer.sol\":3301:3350  _allocateFunds(msg.sender, msg.value, _riskScore) */\n      tag_128\n        /* \"contracts/src/YieldOptimizer.sol\":3316:3326  msg.sender */\n      caller\n        /* \"contracts/src/YieldOptimizer.sol\":3328:3337  msg.value */\n      callvalue\n        /* \"contracts/src/YieldOptimizer.sol\":3339:3349  _riskScore */\n      dup5\n        /* \"contracts/src/YieldOptimizer.sol\":3301:3315  _allocateFunds */\n      tag_129\n        /* \"contracts/src/YieldOptimizer.sol\":3301:3350  _allocateFunds(msg.sender, msg.value, _riskScore) */\n      jump\t// in\n    tag_128:\n        /* \"contracts/src/YieldOptimizer.sol\":3389:3399  msg.sender */\n      caller\n        /* \"contracts/src/YieldOptimizer.sol\":3374:3423  YieldOptimized(msg.sender, msg.value, _riskScore) */\n      0xffffffffffffffffffffffffffffffffffffffff\n      and\n      0x0ffa6b713fe8ff42bd695a98451844fdf6abd6dd3999ab520f344f84aff7d2a0\n        /* \"contracts/src/YieldOptimizer.sol\":3401:3410  msg.value */\n      callvalue\n        /* \"contracts/src/YieldOptimizer.sol\":3412:3422  _riskScore */\n      dup5\n        /* \"contracts/src/YieldOptimizer.sol\":3374:3423  YieldOptimized(msg.sender, msg.value, _riskScore) */\n      mload(0x40)\n      tag_130\n      swap3\n      swap2\n      swap1\n      tag_131\n      jump\t// in\n    tag_130:\n      mload(0x40)\n      dup1\n      swap2\n      sub\n      swap1\n      log2\n        /* \"contracts/src/YieldOptimizer.sol\":2917:3430  {... */\n      pop\n        /* \"@openzeppelin/contracts/utils/ReentrancyGuard.sol\":2542:2562  _nonReentrantAfter() */\n      tag_132\n        /* \"@openzeppelin/contracts/utils/ReentrancyGuard.sol\":2542:2560  _nonReentrantAfter */\n      tag_133\n        /* \"@openzeppelin/contracts/utils/ReentrancyGuard.sol\":2542:2562  _nonReentrantAfter() */\n      jump\t// in\n    tag_132:\n        /* \"contracts/src/YieldOptimizer.sol\":2846:3430  function optimizeYield(uint8 _riskScore) external payable nonReentrant {... */\n      pop\n      jump\t// out\n        /* \"contracts/src/YieldOptimizer.sol\":1647:1674  address public yieldYakFarm */\n    tag_31:\n      0x0a\n      0x00\n      swap1\n      sload\n      swap1\n      0x0100\n      exp\n      swap1\n      div\n      0xffffffffffffffffffffffffffffffffffffffff\n      and\n      dup2\n      jump\t// out\n        /* \"contracts/src/YieldOptimizer.sol\":5919:6376  function getUserPortfolio(address user) external view returns (... */\n    tag_38:\n        /* \"contracts/src/YieldOptimizer.sol\":5991:6017  UserProfile memory profile */\n      tag_134\n      tag_135\n      jump\t// in\n    tag_134:\n        /* \"contracts/src/YieldOptimizer.sol\":6027:6063  ProtocolAllocation memory allocation */\n      tag_136\n      tag_137\n      jump\t// in\n    tag_136:\n        /* \"contracts/src/YieldOptimizer.sol\":6073:6095  uint256 estimatedValue */\n      0x00\n        /* \"contracts/src/YieldOptimizer.sol\":6122:6134  userProfiles */\n      0x02\n        /* \"contracts/src/YieldOptimizer.sol\":6122:6140  userProfiles[user] */\n      0x00\n        /* \"contracts/src/YieldOptimizer.sol\":6135:6139  user */\n      dup6\n        /* \"contracts/src/YieldOptimizer.sol\":6122:6140  userProfiles[user] */\n      0xffffffffffffffffffffffffffffffffffffffff\n      and\n      0xffffffffffffffffffffffffffffffffffffffff\n      and\n      dup2\n      mstore\n      0x20\n      add\n      swap1\n      dup2\n      mstore\n      0x20\n      add\n      0x00\n      keccak256\n        /* \"contracts/src/YieldOptimizer.sol\":6112:6140  profile = userProfiles[user] */\n      mload(0x40)\n      dup1\n      0x80\n      add\n      0x40\n      mstore\n      swap1\n      dup2\n      0x00\n      dup3\n      add\n      0x00\n      swap1\n      sload\n      swap1\n      0x0100\n      exp\n      swap1\n      div\n      0xff\n      and\n      0xff\n      and\n      0xff\n      and\n      dup2\n      mstore\n      0x20\n      add\n      0x01\n      dup3\n      add\n      sload\n      dup2\n      mstore\n      0x20\n      add\n      0x02\n      dup3\n      add\n      sload\n      dup2\n      mstore\n      0x20\n      add\n      0x03\n      dup3\n      add\n      0x00\n      swap1\n      sload\n      swap1\n      0x0100\n      exp\n      swap1\n      div\n      0xff\n      and\n      iszero\n      iszero\n      iszero\n      iszero\n      dup2\n      mstore\n      pop\n      pop\n      swap3\n      pop\n        /* \"contracts/src/YieldOptimizer.sol\":6163:6178  userAllocations */\n      0x03\n        /* \"contracts/src/YieldOptimizer.sol\":6163:6184  userAllocations[user] */\n      0x00\n        /* \"contracts/src/YieldOptimizer.sol\":6179:6183  user */\n      dup6\n        /* \"contracts/src/YieldOptimizer.sol\":6163:6184  userAllocations[user] */\n      0xffffffffffffffffffffffffffffffffffffffff\n      and\n      0xffffffffffffffffffffffffffffffffffffffff\n      and\n      dup2\n      mstore\n      0x20\n      add\n      swap1\n      dup2\n      mstore\n      0x20\n      add\n      0x00\n      keccak256\n        /* \"contracts/src/YieldOptimizer.sol\":6150:6184  allocation = userAllocations[user] */\n      mload(0x40)\n      dup1\n      0x60\n      add\n      0x40\n      mstore\n      swap1\n      dup2\n      0x00\n      dup3\n      add\n      sload\n      dup2\n      mstore\n      0x20\n      add\n      0x01\n      dup3\n      add\n      sload\n      dup2\n      mstore\n      0x20\n      add\n      0x02\n      dup3\n      add\n      sload\n      dup2\n      mstore\n      pop\n      pop\n      swap2\n      pop\n        /* \"contracts/src/YieldOptimizer.sol\":6344:6354  allocation */\n      dup2\n        /* \"contracts/src/YieldOptimizer.sol\":6344:6369  allocation.yieldYakAmount */\n      0x40\n      add\n      mload\n        /* \"contracts/src/YieldOptimizer.sol\":6315:6325  allocation */\n      dup3\n        /* \"contracts/src/YieldOptimizer.sol\":6315:6341  allocation.traderJoeAmount */\n      0x20\n      add\n      mload\n        /* \"contracts/src/YieldOptimizer.sol\":6290:6300  allocation */\n      dup4\n        /* \"contracts/src/YieldOptimizer.sol\":6290:6312  allocation.benqiAmount */\n      0x00\n      add\n      mload\n        /* \"contracts/src/YieldOptimizer.sol\":6290:6341  allocation.benqiAmount + allocation.traderJoeAmount */\n      tag_139\n      swap2\n      swap1\n      tag_127\n      jump\t// in\n    tag_139:\n        /* \"contracts/src/YieldOptimizer.sol\":6290:6369  allocation.benqiAmount + allocation.traderJoeAmount + allocation.yieldYakAmount */\n      tag_140\n      swap2\n      swap1\n      tag_127\n      jump\t// in\n    tag_140:\n        /* \"contracts/src/YieldOptimizer.sol\":6273:6369  estimatedValue = allocation.benqiAmount + allocation.traderJoeAmount + allocation.yieldYakAmount */\n      swap1\n      pop\n        /* \"contracts/src/YieldOptimizer.sol\":5919:6376  function getUserPortfolio(address user) external view returns (... */\n      swap2\n      swap4\n      swap1\n      swap3\n      pop\n      jump\t// out\n        /* \"contracts/src/YieldOptimizer.sol\":5484:5843  function getCurrentYields() external view returns (... */\n    tag_43:\n        /* \"contracts/src/YieldOptimizer.sol\":5544:5560  uint256 benqiAPY */\n      0x00\n        /* \"contracts/src/YieldOptimizer.sol\":5570:5590  uint256 traderJoeAPY */\n      dup1\n        /* \"contracts/src/YieldOptimizer.sol\":5600:5619  uint256 yieldYakAPY */\n      0x00\n        /* \"contracts/src/YieldOptimizer.sol\":5629:5648  uint256 lastUpdated */\n      dup1\n        /* \"contracts/src/YieldOptimizer.sol\":5686:5699  currentYields */\n      0x04\n        /* \"contracts/src/YieldOptimizer.sol\":5686:5708  currentYields.benqiAPY */\n      0x00\n      add\n      sload\n        /* \"contracts/src/YieldOptimizer.sol\":5722:5735  currentYields */\n      0x04\n        /* \"contracts/src/YieldOptimizer.sol\":5722:5748  currentYields.traderJoeAPY */\n      0x01\n      add\n      sload\n        /* \"contracts/src/YieldOptimizer.sol\":5762:5775  currentYields */\n      0x04\n        /* \"contracts/src/YieldOptimizer.sol\":5762:5787  currentYields.yieldYakAPY */\n      0x02\n      add\n      sload\n        /* \"contracts/src/YieldOptimizer.sol\":5801:5814  currentYields */\n      0x04\n        /* \"contracts/src/YieldOptimizer.sol\":5801:5826  currentYields.lastUpdated */\n      0x03\n      add\n      sload\n        /* \"contracts/src/YieldOptimizer.sol\":5665:5836  return (... */\n      swap4\n      pop\n      swap4\n      pop\n      swap4\n      pop\n      swap4\n      pop\n        /* \"contracts/src/YieldOptimizer.sol\":5484:5843  function getCurrentYields() external view returns (... */\n      swap1\n      swap2\n      swap3\n      swap4\n      jump\t// out\n        /* \"contracts/src/YieldOptimizer.sol\":6455:7465  function getRebalanceRecommendation(address user) external view returns (... */\n    tag_49:\n        /* \"contracts/src/YieldOptimizer.sol\":6537:6557  bool shouldRebalance */\n      0x00\n        /* \"contracts/src/YieldOptimizer.sol\":6567:6593  uint256 newBenqiAllocation */\n      dup1\n        /* \"contracts/src/YieldOptimizer.sol\":6603:6633  uint256 newTraderJoeAllocation */\n      0x00\n        /* \"contracts/src/YieldOptimizer.sol\":6643:6672  uint256 newYieldYakAllocation */\n      dup1\n        /* \"contracts/src/YieldOptimizer.sol\":6689:6715  UserProfile memory profile */\n      0x00\n        /* \"contracts/src/YieldOptimizer.sol\":6718:6730  userProfiles */\n      0x02\n        /* \"contracts/src/YieldOptimizer.sol\":6718:6736  userProfiles[user] */\n      0x00\n        /* \"contracts/src/YieldOptimizer.sol\":6731:6735  user */\n      dup8\n        /* \"contracts/src/YieldOptimizer.sol\":6718:6736  userProfiles[user] */\n      0xffffffffffffffffffffffffffffffffffffffff\n      and\n      0xffffffffffffffffffffffffffffffffffffffff\n      and\n      dup2\n      mstore\n      0x20\n      add\n      swap1\n      dup2\n      mstore\n      0x20\n      add\n      0x00\n      keccak256\n        /* \"contracts/src/YieldOptimizer.sol\":6689:6736  UserProfile memory profile = userProfiles[user] */\n      mload(0x40)\n      dup1\n      0x80\n      add\n      0x40\n      mstore\n      swap1\n      dup2\n      0x00\n      dup3\n      add\n      0x00\n      swap1\n      sload\n      swap1\n      0x0100\n      exp\n      swap1\n      div\n      0xff\n      and\n      0xff\n      and\n      0xff\n      and\n      dup2\n      mstore\n      0x20\n      add\n      0x01\n      dup3\n      add\n      sload\n      dup2\n      mstore\n      0x20\n      add\n      0x02\n      dup3\n      add\n      sload\n      dup2\n      mstore\n      0x20\n      add\n      0x03\n      dup3\n      add\n      0x00\n      swap1\n      sload\n      swap1\n      0x0100\n      exp\n      swap1\n      div\n      0xff\n      and\n      iszero\n      iszero\n      iszero\n      iszero\n      dup2\n      mstore\n      pop\n      pop\n      swap1\n      pop\n        /* \"contracts/src/YieldOptimizer.sol\":6746:6779  ProtocolAllocation memory current */\n      0x00\n        /* \"contracts/src/YieldOptimizer.sol\":6782:6797  userAllocations */\n      0x03\n        /* \"contracts/src/YieldOptimizer.sol\":6782:6803  userAllocations[user] */\n      0x00\n        /* \"contracts/src/YieldOptimizer.sol\":6798:6802  user */\n      dup9\n        /* \"contracts/src/YieldOptimizer.sol\":6782:6803  userAllocations[user] */\n      0xffffffffffffffffffffffffffffffffffffffff\n      and\n      0xffffffffffffffffffffffffffffffffffffffff\n      and\n      dup2\n      mstore\n      0x20\n      add\n      swap1\n      dup2\n      mstore\n      0x20\n      add\n      0x00\n      keccak256\n        /* \"contracts/src/YieldOptimizer.sol\":6746:6803  ProtocolAllocation memory current = userAllocations[user] */\n      mload(0x40)\n      dup1\n      0x60\n      add\n      0x40\n      mstore\n      swap1\n      dup2\n      0x00\n      dup3\n      add\n      sload\n      dup2\n      mstore\n      0x20\n      add\n      0x01\n      dup3\n      add\n      sload\n      dup2\n      mstore\n      0x20\n      add\n      0x02\n      dup3\n      add\n      sload\n      dup2\n      mstore\n      pop\n      pop\n      swap1\n      pop\n        /* \"contracts/src/YieldOptimizer.sol\":6852:6853  0 */\n      0x00\n        /* \"contracts/src/YieldOptimizer.sol\":6826:6833  profile */\n      dup3\n        /* \"contracts/src/YieldOptimizer.sol\":6826:6848  profile.totalDeposited */\n      0x20\n      add\n      mload\n        /* \"contracts/src/YieldOptimizer.sol\":6826:6853  profile.totalDeposited == 0 */\n      sub\n        /* \"contracts/src/YieldOptimizer.sol\":6822:6903  if (profile.totalDeposited == 0) {... */\n      tag_143\n      jumpi\n        /* \"contracts/src/YieldOptimizer.sol\":6877:6882  false */\n      0x00\n        /* \"contracts/src/YieldOptimizer.sol\":6884:6885  0 */\n      dup1\n        /* \"contracts/src/YieldOptimizer.sol\":6887:6888  0 */\n      0x00\n        /* \"contracts/src/YieldOptimizer.sol\":6890:6891  0 */\n      dup1\n        /* \"contracts/src/YieldOptimizer.sol\":6869:6892  return (false, 0, 0, 0) */\n      swap6\n      pop\n      swap6\n      pop\n      swap6\n      pop\n      swap6\n      pop\n      pop\n      pop\n      jump(tag_142)\n        /* \"contracts/src/YieldOptimizer.sol\":6822:6903  if (profile.totalDeposited == 0) {... */\n    tag_143:\n        /* \"contracts/src/YieldOptimizer.sol\":6976:6994  uint256 totalValue */\n      0x00\n        /* \"contracts/src/YieldOptimizer.sol\":7045:7052  current */\n      dup2\n        /* \"contracts/src/YieldOptimizer.sol\":7045:7067  current.yieldYakAmount */\n      0x40\n      add\n      mload\n        /* \"contracts/src/YieldOptimizer.sol\":7019:7026  current */\n      dup3\n        /* \"contracts/src/YieldOptimizer.sol\":7019:7042  current.traderJoeAmount */\n      0x20\n      add\n      mload\n        /* \"contracts/src/YieldOptimizer.sol\":6997:7004  current */\n      dup4\n        /* \"contracts/src/YieldOptimizer.sol\":6997:7016  current.benqiAmount */\n      0x00\n      add\n      mload\n        /* \"contracts/src/YieldOptimizer.sol\":6997:7042  current.benqiAmount + current.traderJoeAmount */\n      tag_144\n      swap2\n      swap1\n      tag_127\n      jump\t// in\n    tag_144:\n        /* \"contracts/src/YieldOptimizer.sol\":6997:7067  current.benqiAmount + current.traderJoeAmount + current.yieldYakAmount */\n      tag_145\n      swap2\n      swap1\n      tag_127\n      jump\t// in\n    tag_145:\n        /* \"contracts/src/YieldOptimizer.sol\":6976:7067  uint256 totalValue = current.benqiAmount + current.traderJoeAmount + current.yieldYakAmount */\n      swap1\n      pop\n        /* \"contracts/src/YieldOptimizer.sol\":7169:7227  _calculateOptimalAllocation(totalValue, profile.riskScore) */\n      tag_146\n        /* \"contracts/src/YieldOptimizer.sol\":7197:7207  totalValue */\n      dup2\n        /* \"contracts/src/YieldOptimizer.sol\":7209:7216  profile */\n      dup5\n        /* \"contracts/src/YieldOptimizer.sol\":7209:7226  profile.riskScore */\n      0x00\n      add\n      mload\n        /* \"contracts/src/YieldOptimizer.sol\":7169:7196  _calculateOptimalAllocation */\n      tag_147\n        /* \"contracts/src/YieldOptimizer.sol\":7169:7227  _calculateOptimalAllocation(totalValue, profile.riskScore) */\n      jump\t// in\n    tag_146:\n        /* \"contracts/src/YieldOptimizer.sol\":7086:7227  (newBenqiAllocation, newTraderJoeAllocation, newYieldYakAllocation) = ... */\n      dup1\n      swap7\n      pop\n      dup2\n      swap8\n      pop\n      dup3\n      swap9\n      pop\n      pop\n      pop\n      pop\n        /* \"contracts/src/YieldOptimizer.sol\":7354:7458  _shouldRebalance(current, newBenqiAllocation, newTraderJoeAllocation, newYieldYakAllocation, totalValue) */\n      tag_148\n        /* \"contracts/src/YieldOptimizer.sol\":7371:7378  current */\n      dup3\n        /* \"contracts/src/YieldOptimizer.sol\":7380:7398  newBenqiAllocation */\n      dup8\n        /* \"contracts/src/YieldOptimizer.sol\":7400:7422  newTraderJoeAllocation */\n      dup8\n        /* \"contracts/src/YieldOptimizer.sol\":7424:7445  newYieldYakAllocation */\n      dup8\n        /* \"contracts/src/YieldOptimizer.sol\":7447:7457  totalValue */\n      dup6\n        /* \"contracts/src/YieldOptimizer.sol\":7354:7370  _shouldRebalance */\n      tag_149\n        /* \"contracts/src/YieldOptimizer.sol\":7354:7458  _shouldRebalance(current, newBenqiAllocation, newTraderJoeAllocation, newYieldYakAllocation, totalValue) */\n      jump\t// in\n    tag_148:\n        /* \"contracts/src/YieldOptimizer.sol\":7336:7458  shouldRebalance = _shouldRebalance(current, newBenqiAllocation, newTraderJoeAllocation, newYieldYakAllocation, totalValue) */\n      swap7\n      pop\n        /* \"contracts/src/YieldOptimizer.sol\":6679:7465  {... */\n      pop\n      pop\n      pop\n        /* \"contracts/src/YieldOptimizer.sol\":6455:7465  function getRebalanceRecommendation(address user) external view returns (... */\n    tag_142:\n      swap2\n      swap4\n      pop\n      swap2\n      swap4\n      jump\t// out\n        /* \"contracts/src/YieldOptimizer.sol\":1574:1604  address public traderJoeRouter */\n    tag_54:\n      0x08\n      0x00\n      swap1\n      sload\n      swap1\n      0x0100\n      exp\n      swap1\n      div\n      0xffffffffffffffffffffffffffffffffffffffff\n      and\n      dup2\n      jump\t// out\n        /* \"contracts/src/YieldOptimizer.sol\":1610:1641  address public benqiComptroller */\n    tag_58:\n      0x09\n      0x00\n      swap1\n      sload\n      swap1\n      0x0100\n      exp\n      swap1\n      div\n      0xffffffffffffffffffffffffffffffffffffffff\n      and\n      dup2\n      jump\t// out\n        /* \"contracts/src/YieldOptimizer.sol\":1338:1389  mapping(address => UserProfile) public userProfiles */\n    tag_63:\n      mstore(0x20, 0x02)\n      dup1\n      0x00\n      mstore\n      keccak256(0x00, 0x40)\n      0x00\n      swap2\n      pop\n      swap1\n      pop\n      dup1\n      0x00\n      add\n      0x00\n      swap1\n      sload\n      swap1\n      0x0100\n      exp\n      swap1\n      div\n      0xff\n      and\n      swap1\n      dup1\n      0x01\n      add\n      sload\n      swap1\n      dup1\n      0x02\n      add\n      sload\n      swap1\n      dup1\n      0x03\n      add\n      0x00\n      swap1\n      sload\n      swap1\n      0x0100\n      exp\n      swap1\n      div\n      0xff\n      and\n      swap1\n      pop\n      dup5\n      jump\t// out\n        /* \"contracts/src/YieldOptimizer.sol\":1395:1456  mapping(address => ProtocolAllocation) public userAllocations */\n    tag_69:\n      mstore(0x20, 0x03)\n      dup1\n      0x00\n      mstore\n      keccak256(0x00, 0x40)\n      0x00\n      swap2\n      pop\n      swap1\n      pop\n      dup1\n      0x00\n      add\n      sload\n      swap1\n      dup1\n      0x01\n      add\n      sload\n      swap1\n      dup1\n      0x02\n      add\n      sload\n      swap1\n      pop\n      dup4\n      jump\t// out\n        /* \"@openzeppelin/contracts/access/Ownable.sol\":2293:2394  function renounceOwnership() public virtual onlyOwner {... */\n    tag_74:\n        /* \"@openzeppelin/contracts/access/Ownable.sol\":1531:1544  _checkOwner() */\n      tag_151\n        /* \"@openzeppelin/contracts/access/Ownable.sol\":1531:1542  _checkOwner */\n      tag_152\n        /* \"@openzeppelin/contracts/access/Ownable.sol\":1531:1544  _checkOwner() */\n      jump\t// in\n    tag_151:\n        /* \"@openzeppelin/contracts/access/Ownable.sol\":2357:2387  _transferOwnership(address(0)) */\n      tag_154\n        /* \"@openzeppelin/contracts/access/Ownable.sol\":2384:2385  0 */\n      0x00\n        /* \"@openzeppelin/contracts/access/Ownable.sol\":2357:2375  _transferOwnership */\n      tag_155\n        /* \"@openzeppelin/contracts/access/Ownable.sol\":2357:2387  _transferOwnership(address(0)) */\n      jump\t// in\n    tag_154:\n        /* \"@openzeppelin/contracts/access/Ownable.sol\":2293:2394  function renounceOwnership() public virtual onlyOwner {... */\n      jump\t// out\n        /* \"contracts/src/YieldOptimizer.sol\":7530:8301  function rebalance() external nonReentrant {... */\n    tag_77:\n        /* \"@openzeppelin/contracts/utils/ReentrancyGuard.sol\":2500:2521  _nonReentrantBefore() */\n      tag_157\n        /* \"@openzeppelin/contracts/utils/ReentrancyGuard.sol\":2500:2519  _nonReentrantBefore */\n      tag_118\n        /* \"@openzeppelin/contracts/utils/ReentrancyGuard.sol\":2500:2521  _nonReentrantBefore() */\n      jump\t// in\n    tag_157:\n        /* \"contracts/src/YieldOptimizer.sol\":7583:7610  UserProfile storage profile */\n      0x00\n        /* \"contracts/src/YieldOptimizer.sol\":7613:7625  userProfiles */\n      0x02\n        /* \"contracts/src/YieldOptimizer.sol\":7613:7637  userProfiles[msg.sender] */\n      0x00\n        /* \"contracts/src/YieldOptimizer.sol\":7626:7636  msg.sender */\n      caller\n        /* \"contracts/src/YieldOptimizer.sol\":7613:7637  userProfiles[msg.sender] */\n      0xffffffffffffffffffffffffffffffffffffffff\n      and\n      0xffffffffffffffffffffffffffffffffffffffff\n      and\n      dup2\n      mstore\n      0x20\n      add\n      swap1\n      dup2\n      mstore\n      0x20\n      add\n      0x00\n      keccak256\n        /* \"contracts/src/YieldOptimizer.sol\":7583:7637  UserProfile storage profile = userProfiles[msg.sender] */\n      swap1\n      pop\n        /* \"contracts/src/YieldOptimizer.sol\":7680:7681  0 */\n      0x00\n        /* \"contracts/src/YieldOptimizer.sol\":7655:7662  profile */\n      dup2\n        /* \"contracts/src/YieldOptimizer.sol\":7655:7677  profile.totalDeposited */\n      0x01\n      add\n      sload\n        /* \"contracts/src/YieldOptimizer.sol\":7655:7681  profile.totalDeposited > 0 */\n      gt\n        /* \"contracts/src/YieldOptimizer.sol\":7647:7710  require(profile.totalDeposited > 0, \"No deposits to rebalance\") */\n      tag_159\n      jumpi\n      mload(0x40)\n      0x08c379a000000000000000000000000000000000000000000000000000000000\n      dup2\n      mstore\n      0x04\n      add\n      tag_160\n      swap1\n      tag_161\n      jump\t// in\n    tag_160:\n      mload(0x40)\n      dup1\n      swap2\n      sub\n      swap1\n      revert\n    tag_159:\n        /* \"contracts/src/YieldOptimizer.sol\":7721:7758  ProtocolAllocation storage allocation */\n      0x00\n        /* \"contracts/src/YieldOptimizer.sol\":7761:7776  userAllocations */\n      0x03\n        /* \"contracts/src/YieldOptimizer.sol\":7761:7788  userAllocations[msg.sender] */\n      0x00\n        /* \"contracts/src/YieldOptimizer.sol\":7777:7787  msg.sender */\n      caller\n        /* \"contracts/src/YieldOptimizer.sol\":7761:7788  userAllocations[msg.sender] */\n      0xffffffffffffffffffffffffffffffffffffffff\n      and\n      0xffffffffffffffffffffffffffffffffffffffff\n      and\n      dup2\n      mstore\n      0x20\n      add\n      swap1\n      dup2\n      mstore\n      0x20\n      add\n      0x00\n      keccak256\n        /* \"contracts/src/YieldOptimizer.sol\":7721:7788  ProtocolAllocation storage allocation = userAllocations[msg.sender] */\n      swap1\n      pop\n        /* \"contracts/src/YieldOptimizer.sol\":7798:7816  uint256 totalValue */\n      0x00\n        /* \"contracts/src/YieldOptimizer.sol\":7873:7883  allocation */\n      dup2\n        /* \"contracts/src/YieldOptimizer.sol\":7873:7898  allocation.yieldYakAmount */\n      0x02\n      add\n      sload\n        /* \"contracts/src/YieldOptimizer.sol\":7844:7854  allocation */\n      dup3\n        /* \"contracts/src/YieldOptimizer.sol\":7844:7870  allocation.traderJoeAmount */\n      0x01\n      add\n      sload\n        /* \"contracts/src/YieldOptimizer.sol\":7819:7829  allocation */\n      dup4\n        /* \"contracts/src/YieldOptimizer.sol\":7819:7841  allocation.benqiAmount */\n      0x00\n      add\n      sload\n        /* \"contracts/src/YieldOptimizer.sol\":7819:7870  allocation.benqiAmount + allocation.traderJoeAmount */\n      tag_162\n      swap2\n      swap1\n      tag_127\n      jump\t// in\n    tag_162:\n        /* \"contracts/src/YieldOptimizer.sol\":7819:7898  allocation.benqiAmount + allocation.traderJoeAmount + allocation.yieldYakAmount */\n      tag_163\n      swap2\n      swap1\n      tag_127\n      jump\t// in\n    tag_163:\n        /* \"contracts/src/YieldOptimizer.sol\":7798:7898  uint256 totalValue = allocation.benqiAmount + allocation.traderJoeAmount + allocation.yieldYakAmount */\n      swap1\n      pop\n        /* \"contracts/src/YieldOptimizer.sol\":7910:7926  uint256 newBenqi */\n      0x00\n        /* \"contracts/src/YieldOptimizer.sol\":7928:7948  uint256 newTraderJoe */\n      dup1\n        /* \"contracts/src/YieldOptimizer.sol\":7950:7969  uint256 newYieldYak */\n      0x00\n        /* \"contracts/src/YieldOptimizer.sol\":7986:8044  _calculateOptimalAllocation(totalValue, profile.riskScore) */\n      tag_164\n        /* \"contracts/src/YieldOptimizer.sol\":8014:8024  totalValue */\n      dup5\n        /* \"contracts/src/YieldOptimizer.sol\":8026:8033  profile */\n      dup8\n        /* \"contracts/src/YieldOptimizer.sol\":8026:8043  profile.riskScore */\n      0x00\n      add\n      0x00\n      swap1\n      sload\n      swap1\n      0x0100\n      exp\n      swap1\n      div\n      0xff\n      and\n        /* \"contracts/src/YieldOptimizer.sol\":7986:8013  _calculateOptimalAllocation */\n      tag_147\n        /* \"contracts/src/YieldOptimizer.sol\":7986:8044  _calculateOptimalAllocation(totalValue, profile.riskScore) */\n      jump\t// in\n    tag_164:\n        /* \"contracts/src/YieldOptimizer.sol\":7909:8044  (uint256 newBenqi, uint256 newTraderJoe, uint256 newYieldYak) = ... */\n      swap3\n      pop\n      swap3\n      pop\n      swap3\n      pop\n        /* \"contracts/src/YieldOptimizer.sol\":8117:8195  _executeRebalance(msg.sender, allocation, newBenqi, newTraderJoe, newYieldYak) */\n      tag_165\n        /* \"contracts/src/YieldOptimizer.sol\":8135:8145  msg.sender */\n      caller\n        /* \"contracts/src/YieldOptimizer.sol\":8147:8157  allocation */\n      dup7\n        /* \"contracts/src/YieldOptimizer.sol\":8159:8167  newBenqi */\n      dup6\n        /* \"contracts/src/YieldOptimizer.sol\":8169:8181  newTraderJoe */\n      dup6\n        /* \"contracts/src/YieldOptimizer.sol\":8183:8194  newYieldYak */\n      dup6\n        /* \"contracts/src/YieldOptimizer.sol\":8117:8134  _executeRebalance */\n      tag_166\n        /* \"contracts/src/YieldOptimizer.sol\":8117:8195  _executeRebalance(msg.sender, allocation, newBenqi, newTraderJoe, newYieldYak) */\n      jump\t// in\n    tag_165:\n        /* \"contracts/src/YieldOptimizer.sol\":8230:8245  block.timestamp */\n      timestamp\n        /* \"contracts/src/YieldOptimizer.sol\":8206:8213  profile */\n      dup7\n        /* \"contracts/src/YieldOptimizer.sol\":8206:8227  profile.lastRebalance */\n      0x02\n      add\n        /* \"contracts/src/YieldOptimizer.sol\":8206:8245  profile.lastRebalance = block.timestamp */\n      dup2\n      swap1\n      sstore\n      pop\n        /* \"contracts/src/YieldOptimizer.sol\":8271:8281  msg.sender */\n      caller\n        /* \"contracts/src/YieldOptimizer.sol\":8260:8294  Rebalanced(msg.sender, totalValue) */\n      0xffffffffffffffffffffffffffffffffffffffff\n      and\n      0x1427d1942829759938581ce754fd0f7f116bfb7a4b77f80f0cb32cd62c2138c7\n        /* \"contracts/src/YieldOptimizer.sol\":8283:8293  totalValue */\n      dup6\n        /* \"contracts/src/YieldOptimizer.sol\":8260:8294  Rebalanced(msg.sender, totalValue) */\n      mload(0x40)\n      tag_167\n      swap2\n      swap1\n      tag_95\n      jump\t// in\n    tag_167:\n      mload(0x40)\n      dup1\n      swap2\n      sub\n      swap1\n      log2\n        /* \"contracts/src/YieldOptimizer.sol\":7573:8301  {... */\n      pop\n      pop\n      pop\n      pop\n      pop\n      pop\n        /* \"@openzeppelin/contracts/utils/ReentrancyGuard.sol\":2542:2562  _nonReentrantAfter() */\n      tag_168\n        /* \"@openzeppelin/contracts/utils/ReentrancyGuard.sol\":2542:2560  _nonReentrantAfter */\n      tag_133\n        /* \"@openzeppelin/contracts/utils/ReentrancyGuard.sol\":2542:2562  _nonReentrantAfter() */\n      jump\t// in\n    tag_168:\n        /* \"contracts/src/YieldOptimizer.sol\":7530:8301  function rebalance() external nonReentrant {... */\n      jump\t// out\n        /* \"contracts/src/YieldOptimizer.sol\":1462:1492  YieldData public currentYields */\n    tag_80:\n      0x04\n      dup1\n      0x00\n      add\n      sload\n      swap1\n      dup1\n      0x01\n      add\n      sload\n      swap1\n      dup1\n      0x02\n      add\n      sload\n      swap1\n      dup1\n      0x03\n      add\n      sload\n      swap1\n      pop\n      dup5\n      jump\t// out\n        /* \"@openzeppelin/contracts/access/Ownable.sol\":1638:1723  function owner() public view virtual returns (address) {... */\n    tag_84:\n        /* \"@openzeppelin/contracts/access/Ownable.sol\":1684:1691  address */\n      0x00\n        /* \"@openzeppelin/contracts/access/Ownable.sol\":1710:1716  _owner */\n      dup1\n      0x00\n      swap1\n      sload\n      swap1\n      0x0100\n      exp\n      swap1\n      div\n      0xffffffffffffffffffffffffffffffffffffffff\n      and\n        /* \"@openzeppelin/contracts/access/Ownable.sol\":1703:1716  return _owner */\n      swap1\n      pop\n        /* \"@openzeppelin/contracts/access/Ownable.sol\":1638:1723  function owner() public view virtual returns (address) {... */\n      swap1\n      jump\t// out\n        /* \"contracts/src/YieldOptimizer.sol\":15240:15628  function updateYields(uint256 _benqiAPY, uint256 _traderJoeAPY, uint256 _yieldYakAPY) external onlyOwner {... */\n    tag_90:\n        /* \"@openzeppelin/contracts/access/Ownable.sol\":1531:1544  _checkOwner() */\n      tag_171\n        /* \"@openzeppelin/contracts/access/Ownable.sol\":1531:1542  _checkOwner */\n      tag_152\n        /* \"@openzeppelin/contracts/access/Ownable.sol\":1531:1544  _checkOwner() */\n      jump\t// in\n    tag_171:\n        /* \"contracts/src/YieldOptimizer.sol\":15380:15389  _benqiAPY */\n      dup3\n        /* \"contracts/src/YieldOptimizer.sol\":15355:15368  currentYields */\n      0x04\n        /* \"contracts/src/YieldOptimizer.sol\":15355:15377  currentYields.benqiAPY */\n      0x00\n      add\n        /* \"contracts/src/YieldOptimizer.sol\":15355:15389  currentYields.benqiAPY = _benqiAPY */\n      dup2\n      swap1\n      sstore\n      pop\n        /* \"contracts/src/YieldOptimizer.sol\":15428:15441  _traderJoeAPY */\n      dup2\n        /* \"contracts/src/YieldOptimizer.sol\":15399:15412  currentYields */\n      0x04\n        /* \"contracts/src/YieldOptimizer.sol\":15399:15425  currentYields.traderJoeAPY */\n      0x01\n      add\n        /* \"contracts/src/YieldOptimizer.sol\":15399:15441  currentYields.traderJoeAPY = _traderJoeAPY */\n      dup2\n      swap1\n      sstore\n      pop\n        /* \"contracts/src/YieldOptimizer.sol\":15479:15491  _yieldYakAPY */\n      dup1\n        /* \"contracts/src/YieldOptimizer.sol\":15451:15464  currentYields */\n      0x04\n        /* \"contracts/src/YieldOptimizer.sol\":15451:15476  currentYields.yieldYakAPY */\n      0x02\n      add\n        /* \"contracts/src/YieldOptimizer.sol\":15451:15491  currentYields.yieldYakAPY = _yieldYakAPY */\n      dup2\n      swap1\n      sstore\n      pop\n        /* \"contracts/src/YieldOptimizer.sol\":15529:15544  block.timestamp */\n      timestamp\n        /* \"contracts/src/YieldOptimizer.sol\":15501:15514  currentYields */\n      0x04\n        /* \"contracts/src/YieldOptimizer.sol\":15501:15526  currentYields.lastUpdated */\n      0x03\n      add\n        /* \"contracts/src/YieldOptimizer.sol\":15501:15544  currentYields.lastUpdated = block.timestamp */\n      dup2\n      swap1\n      sstore\n      pop\n        /* \"contracts/src/YieldOptimizer.sol\":15568:15621  YieldsUpdated(_benqiAPY, _traderJoeAPY, _yieldYakAPY) */\n      0xeb5e818d5254a980eae621ccdcf791eb702d2f526caf4d0833b622e27964d549\n        /* \"contracts/src/YieldOptimizer.sol\":15582:15591  _benqiAPY */\n      dup4\n        /* \"contracts/src/YieldOptimizer.sol\":15593:15606  _traderJoeAPY */\n      dup4\n        /* \"contracts/src/YieldOptimizer.sol\":15608:15620  _yieldYakAPY */\n      dup4\n        /* \"contracts/src/YieldOptimizer.sol\":15568:15621  YieldsUpdated(_benqiAPY, _traderJoeAPY, _yieldYakAPY) */\n      mload(0x40)\n      tag_173\n      swap4\n      swap3\n      swap2\n      swap1\n      tag_71\n      jump\t// in\n    tag_173:\n      mload(0x40)\n      dup1\n      swap2\n      sub\n      swap1\n      log1\n        /* \"contracts/src/YieldOptimizer.sol\":15240:15628  function updateYields(uint256 _benqiAPY, uint256 _traderJoeAPY, uint256 _yieldYakAPY) external onlyOwner {... */\n      pop\n      pop\n      pop\n      jump\t// out\n        /* \"contracts/src/YieldOptimizer.sol\":1778:1827  uint256 public constant REBALANCE_THRESHOLD = 500 */\n    tag_93:\n        /* \"contracts/src/YieldOptimizer.sol\":1824:1827  500 */\n      0x01f4\n        /* \"contracts/src/YieldOptimizer.sol\":1778:1827  uint256 public constant REBALANCE_THRESHOLD = 500 */\n      dup2\n      jump\t// out\n        /* \"contracts/src/YieldOptimizer.sol\":14568:15234  function updateProtocolAddress(string calldata protocol, address newAddress) external onlyOwner {... */\n    tag_100:\n        /* \"@openzeppelin/contracts/access/Ownable.sol\":1531:1544  _checkOwner() */\n      tag_175\n        /* \"@openzeppelin/contracts/access/Ownable.sol\":1531:1542  _checkOwner */\n      tag_152\n        /* \"@openzeppelin/contracts/access/Ownable.sol\":1531:1544  _checkOwner() */\n      jump\t// in\n    tag_175:\n        /* \"contracts/src/YieldOptimizer.sol\":14674:14694  bytes32 protocolHash */\n      0x00\n        /* \"contracts/src/YieldOptimizer.sol\":14724:14732  protocol */\n      dup4\n      dup4\n        /* \"contracts/src/YieldOptimizer.sol\":14707:14733  abi.encodePacked(protocol) */\n      add(0x20, mload(0x40))\n      tag_177\n      swap3\n      swap2\n      swap1\n      tag_178\n      jump\t// in\n    tag_177:\n      mload(0x40)\n      0x20\n      dup2\n      dup4\n      sub\n      sub\n      dup2\n      mstore\n      swap1\n      0x40\n      mstore\n        /* \"contracts/src/YieldOptimizer.sol\":14697:14734  keccak256(abi.encodePacked(protocol)) */\n      dup1\n      mload\n      swap1\n      0x20\n      add\n      keccak256\n        /* \"contracts/src/YieldOptimizer.sol\":14674:14734  bytes32 protocolHash = keccak256(abi.encodePacked(protocol)) */\n      swap1\n      pop\n        /* \"contracts/src/YieldOptimizer.sol\":14783:14812  abi.encodePacked(\"traderjoe\") */\n      add(0x20, mload(0x40))\n      tag_179\n      swap1\n      tag_180\n      jump\t// in\n    tag_179:\n      mload(0x40)\n      0x20\n      dup2\n      dup4\n      sub\n      sub\n      dup2\n      mstore\n      swap1\n      0x40\n      mstore\n        /* \"contracts/src/YieldOptimizer.sol\":14773:14813  keccak256(abi.encodePacked(\"traderjoe\")) */\n      dup1\n      mload\n      swap1\n      0x20\n      add\n      keccak256\n        /* \"contracts/src/YieldOptimizer.sol\":14757:14769  protocolHash */\n      dup2\n        /* \"contracts/src/YieldOptimizer.sol\":14757:14813  protocolHash == keccak256(abi.encodePacked(\"traderjoe\")) */\n      sub\n        /* \"contracts/src/YieldOptimizer.sol\":14753:15160  if (protocolHash == keccak256(abi.encodePacked(\"traderjoe\"))) {... */\n      tag_181\n      jumpi\n        /* \"contracts/src/YieldOptimizer.sol\":14847:14857  newAddress */\n      dup2\n        /* \"contracts/src/YieldOptimizer.sol\":14829:14844  traderJoeRouter */\n      0x08\n      0x00\n        /* \"contracts/src/YieldOptimizer.sol\":14829:14857  traderJoeRouter = newAddress */\n      0x0100\n      exp\n      dup2\n      sload\n      dup2\n      0xffffffffffffffffffffffffffffffffffffffff\n      mul\n      not\n      and\n      swap1\n      dup4\n      0xffffffffffffffffffffffffffffffffffffffff\n      and\n      mul\n      or\n      swap1\n      sstore\n      pop\n        /* \"contracts/src/YieldOptimizer.sol\":14753:15160  if (protocolHash == keccak256(abi.encodePacked(\"traderjoe\"))) {... */\n      jump(tag_182)\n    tag_181:\n        /* \"contracts/src/YieldOptimizer.sol\":14904:14929  abi.encodePacked(\"benqi\") */\n      add(0x20, mload(0x40))\n      tag_183\n      swap1\n      tag_184\n      jump\t// in\n    tag_183:\n      mload(0x40)\n      0x20\n      dup2\n      dup4\n      sub\n      sub\n      dup2\n      mstore\n      swap1\n      0x40\n      mstore\n        /* \"contracts/src/YieldOptimizer.sol\":14894:14930  keccak256(abi.encodePacked(\"benqi\")) */\n      dup1\n      mload\n      swap1\n      0x20\n      add\n      keccak256\n        /* \"contracts/src/YieldOptimizer.sol\":14878:14890  protocolHash */\n      dup2\n        /* \"contracts/src/YieldOptimizer.sol\":14878:14930  protocolHash == keccak256(abi.encodePacked(\"benqi\")) */\n      sub\n        /* \"contracts/src/YieldOptimizer.sol\":14874:15160  if (protocolHash == keccak256(abi.encodePacked(\"benqi\"))) {... */\n      tag_185\n      jumpi\n        /* \"contracts/src/YieldOptimizer.sol\":14965:14975  newAddress */\n      dup2\n        /* \"contracts/src/YieldOptimizer.sol\":14946:14962  benqiComptroller */\n      0x09\n      0x00\n        /* \"contracts/src/YieldOptimizer.sol\":14946:14975  benqiComptroller = newAddress */\n      0x0100\n      exp\n      dup2\n      sload\n      dup2\n      0xffffffffffffffffffffffffffffffffffffffff\n      mul\n      not\n      and\n      swap1\n      dup4\n      0xffffffffffffffffffffffffffffffffffffffff\n      and\n      mul\n      or\n      swap1\n      sstore\n      pop\n        /* \"contracts/src/YieldOptimizer.sol\":14874:15160  if (protocolHash == keccak256(abi.encodePacked(\"benqi\"))) {... */\n      jump(tag_186)\n    tag_185:\n        /* \"contracts/src/YieldOptimizer.sol\":15022:15050  abi.encodePacked(\"yieldyak\") */\n      add(0x20, mload(0x40))\n      tag_187\n      swap1\n      tag_188\n      jump\t// in\n    tag_187:\n      mload(0x40)\n      0x20\n      dup2\n      dup4\n      sub\n      sub\n      dup2\n      mstore\n      swap1\n      0x40\n      mstore\n        /* \"contracts/src/YieldOptimizer.sol\":15012:15051  keccak256(abi.encodePacked(\"yieldyak\")) */\n      dup1\n      mload\n      swap1\n      0x20\n      add\n      keccak256\n        /* \"contracts/src/YieldOptimizer.sol\":14996:15008  protocolHash */\n      dup2\n        /* \"contracts/src/YieldOptimizer.sol\":14996:15051  protocolHash == keccak256(abi.encodePacked(\"yieldyak\")) */\n      sub\n        /* \"contracts/src/YieldOptimizer.sol\":14992:15160  if (protocolHash == keccak256(abi.encodePacked(\"yieldyak\"))) {... */\n      tag_189\n      jumpi\n        /* \"contracts/src/YieldOptimizer.sol\":15082:15092  newAddress */\n      dup2\n        /* \"contracts/src/YieldOptimizer.sol\":15067:15079  yieldYakFarm */\n      0x0a\n      0x00\n        /* \"contracts/src/YieldOptimizer.sol\":15067:15092  yieldYakFarm = newAddress */\n      0x0100\n      exp\n      dup2\n      sload\n      dup2\n      0xffffffffffffffffffffffffffffffffffffffff\n      mul\n      not\n      and\n      swap1\n      dup4\n      0xffffffffffffffffffffffffffffffffffffffff\n      and\n      mul\n      or\n      swap1\n      sstore\n      pop\n        /* \"contracts/src/YieldOptimizer.sol\":14992:15160  if (protocolHash == keccak256(abi.encodePacked(\"yieldyak\"))) {... */\n      jump(tag_190)\n    tag_189:\n        /* \"contracts/src/YieldOptimizer.sol\":15123:15149  revert(\"Invalid protocol\") */\n      mload(0x40)\n      0x08c379a000000000000000000000000000000000000000000000000000000000\n      dup2\n      mstore\n      0x04\n      add\n      tag_191\n      swap1\n      tag_192\n      jump\t// in\n    tag_191:\n      mload(0x40)\n      dup1\n      swap2\n      sub\n      swap1\n      revert\n        /* \"contracts/src/YieldOptimizer.sol\":14992:15160  if (protocolHash == keccak256(abi.encodePacked(\"yieldyak\"))) {... */\n    tag_190:\n        /* \"contracts/src/YieldOptimizer.sol\":14874:15160  if (protocolHash == keccak256(abi.encodePacked(\"benqi\"))) {... */\n    tag_186:\n        /* \"contracts/src/YieldOptimizer.sol\":14753:15160  if (protocolHash == keccak256(abi.encodePacked(\"traderjoe\"))) {... */\n    tag_182:\n        /* \"contracts/src/YieldOptimizer.sol\":15183:15227  ProtocolAddressUpdated(protocol, newAddress) */\n      0x50df56c33b3bd3dac7a2db51a3f7c8bdaabf78a57ff1fab3a72992006a77e69e\n        /* \"contracts/src/YieldOptimizer.sol\":15206:15214  protocol */\n      dup5\n      dup5\n        /* \"contracts/src/YieldOptimizer.sol\":15216:15226  newAddress */\n      dup5\n        /* \"contracts/src/YieldOptimizer.sol\":15183:15227  ProtocolAddressUpdated(protocol, newAddress) */\n      mload(0x40)\n      tag_193\n      swap4\n      swap3\n      swap2\n      swap1\n      tag_194\n      jump\t// in\n    tag_193:\n      mload(0x40)\n      dup1\n      swap2\n      sub\n      swap1\n      log1\n        /* \"contracts/src/YieldOptimizer.sol\":14664:15234  {... */\n      pop\n        /* \"contracts/src/YieldOptimizer.sol\":14568:15234  function updateProtocolAddress(string calldata protocol, address newAddress) external onlyOwner {... */\n      pop\n      pop\n      pop\n      jump\t// out\n        /* \"contracts/src/YieldOptimizer.sol\":8365:9631  function emergencyWithdraw() external nonReentrant {... */\n    tag_103:\n        /* \"@openzeppelin/contracts/utils/ReentrancyGuard.sol\":2500:2521  _nonReentrantBefore() */\n      tag_196\n        /* \"@openzeppelin/contracts/utils/ReentrancyGuard.sol\":2500:2519  _nonReentrantBefore */\n      tag_118\n        /* \"@openzeppelin/contracts/utils/ReentrancyGuard.sol\":2500:2521  _nonReentrantBefore() */\n      jump\t// in\n    tag_196:\n        /* \"contracts/src/YieldOptimizer.sol\":8426:8463  ProtocolAllocation storage allocation */\n      0x00\n        /* \"contracts/src/YieldOptimizer.sol\":8466:8481  userAllocations */\n      0x03\n        /* \"contracts/src/YieldOptimizer.sol\":8466:8493  userAllocations[msg.sender] */\n      0x00\n        /* \"contracts/src/YieldOptimizer.sol\":8482:8492  msg.sender */\n      caller\n        /* \"contracts/src/YieldOptimizer.sol\":8466:8493  userAllocations[msg.sender] */\n      0xffffffffffffffffffffffffffffffffffffffff\n      and\n      0xffffffffffffffffffffffffffffffffffffffff\n      and\n      dup2\n      mstore\n      0x20\n      add\n      swap1\n      dup2\n      mstore\n      0x20\n      add\n      0x00\n      keccak256\n        /* \"contracts/src/YieldOptimizer.sol\":8426:8493  ProtocolAllocation storage allocation = userAllocations[msg.sender] */\n      swap1\n      pop\n        /* \"contracts/src/YieldOptimizer.sol\":8503:8530  UserProfile storage profile */\n      0x00\n        /* \"contracts/src/YieldOptimizer.sol\":8533:8545  userProfiles */\n      0x02\n        /* \"contracts/src/YieldOptimizer.sol\":8533:8557  userProfiles[msg.sender] */\n      0x00\n        /* \"contracts/src/YieldOptimizer.sol\":8546:8556  msg.sender */\n      caller\n        /* \"contracts/src/YieldOptimizer.sol\":8533:8557  userProfiles[msg.sender] */\n      0xffffffffffffffffffffffffffffffffffffffff\n      and\n      0xffffffffffffffffffffffffffffffffffffffff\n      and\n      dup2\n      mstore\n      0x20\n      add\n      swap1\n      dup2\n      mstore\n      0x20\n      add\n      0x00\n      keccak256\n        /* \"contracts/src/YieldOptimizer.sol\":8503:8557  UserProfile storage profile = userProfiles[msg.sender] */\n      swap1\n      pop\n        /* \"contracts/src/YieldOptimizer.sol\":8576:8598  uint256 totalWithdrawn */\n      0x00\n        /* \"contracts/src/YieldOptimizer.sol\":8681:8682  0 */\n      dup1\n        /* \"contracts/src/YieldOptimizer.sol\":8656:8666  allocation */\n      dup4\n        /* \"contracts/src/YieldOptimizer.sol\":8656:8678  allocation.benqiAmount */\n      0x00\n      add\n      sload\n        /* \"contracts/src/YieldOptimizer.sol\":8656:8682  allocation.benqiAmount > 0 */\n      gt\n        /* \"contracts/src/YieldOptimizer.sol\":8652:8809  if (allocation.benqiAmount > 0) {... */\n      iszero\n      tag_198\n      jumpi\n        /* \"contracts/src/YieldOptimizer.sol\":8716:8758  _withdrawFromBenqi(allocation.benqiAmount) */\n      tag_199\n        /* \"contracts/src/YieldOptimizer.sol\":8735:8745  allocation */\n      dup4\n        /* \"contracts/src/YieldOptimizer.sol\":8735:8757  allocation.benqiAmount */\n      0x00\n      add\n      sload\n        /* \"contracts/src/YieldOptimizer.sol\":8716:8734  _withdrawFromBenqi */\n      tag_200\n        /* \"contracts/src/YieldOptimizer.sol\":8716:8758  _withdrawFromBenqi(allocation.benqiAmount) */\n      jump\t// in\n    tag_199:\n        /* \"contracts/src/YieldOptimizer.sol\":8698:8758  totalWithdrawn += _withdrawFromBenqi(allocation.benqiAmount) */\n      dup2\n      tag_201\n      swap2\n      swap1\n      tag_127\n      jump\t// in\n    tag_201:\n      swap1\n      pop\n        /* \"contracts/src/YieldOptimizer.sol\":8797:8798  0 */\n      0x00\n        /* \"contracts/src/YieldOptimizer.sol\":8772:8782  allocation */\n      dup4\n        /* \"contracts/src/YieldOptimizer.sol\":8772:8794  allocation.benqiAmount */\n      0x00\n      add\n        /* \"contracts/src/YieldOptimizer.sol\":8772:8798  allocation.benqiAmount = 0 */\n      dup2\n      swap1\n      sstore\n      pop\n        /* \"contracts/src/YieldOptimizer.sol\":8652:8809  if (allocation.benqiAmount > 0) {... */\n    tag_198:\n        /* \"contracts/src/YieldOptimizer.sol\":8851:8852  0 */\n      0x00\n        /* \"contracts/src/YieldOptimizer.sol\":8822:8832  allocation */\n      dup4\n        /* \"contracts/src/YieldOptimizer.sol\":8822:8848  allocation.traderJoeAmount */\n      0x01\n      add\n      sload\n        /* \"contracts/src/YieldOptimizer.sol\":8822:8852  allocation.traderJoeAmount > 0 */\n      gt\n        /* \"contracts/src/YieldOptimizer.sol\":8818:8991  if (allocation.traderJoeAmount > 0) {... */\n      iszero\n      tag_202\n      jumpi\n        /* \"contracts/src/YieldOptimizer.sol\":8886:8936  _withdrawFromTraderJoe(allocation.traderJoeAmount) */\n      tag_203\n        /* \"contracts/src/YieldOptimizer.sol\":8909:8919  allocation */\n      dup4\n        /* \"contracts/src/YieldOptimizer.sol\":8909:8935  allocation.traderJoeAmount */\n      0x01\n      add\n      sload\n        /* \"contracts/src/YieldOptimizer.sol\":8886:8908  _withdrawFromTraderJoe */\n      tag_204\n        /* \"contracts/src/YieldOptimizer.sol\":8886:8936  _withdrawFromTraderJoe(allocation.traderJoeAmount) */\n      jump\t// in\n    tag_203:\n        /* \"contracts/src/YieldOptimizer.sol\":8868:8936  totalWithdrawn += _withdrawFromTraderJoe(allocation.traderJoeAmount) */\n      dup2\n      tag_205\n      swap2\n      swap1\n      tag_127\n      jump\t// in\n    tag_205:\n      swap1\n      pop\n        /* \"contracts/src/YieldOptimizer.sol\":8979:8980  0 */\n      0x00\n        /* \"contracts/src/YieldOptimizer.sol\":8950:8960  allocation */\n      dup4\n        /* \"contracts/src/YieldOptimizer.sol\":8950:8976  allocation.traderJoeAmount */\n      0x01\n      add\n        /* \"contracts/src/YieldOptimizer.sol\":8950:8980  allocation.traderJoeAmount = 0 */\n      dup2\n      swap1\n      sstore\n      pop\n        /* \"contracts/src/YieldOptimizer.sol\":8818:8991  if (allocation.traderJoeAmount > 0) {... */\n    tag_202:\n        /* \"contracts/src/YieldOptimizer.sol\":9032:9033  0 */\n      0x00\n        /* \"contracts/src/YieldOptimizer.sol\":9004:9014  allocation */\n      dup4\n        /* \"contracts/src/YieldOptimizer.sol\":9004:9029  allocation.yieldYakAmount */\n      0x02\n      add\n      sload\n        /* \"contracts/src/YieldOptimizer.sol\":9004:9033  allocation.yieldYakAmount > 0 */\n      gt\n        /* \"contracts/src/YieldOptimizer.sol\":9000:9169  if (allocation.yieldYakAmount > 0) {... */\n      iszero\n      tag_206\n      jumpi\n        /* \"contracts/src/YieldOptimizer.sol\":9067:9115  _withdrawFromYieldYak(allocation.yieldYakAmount) */\n      tag_207\n        /* \"contracts/src/YieldOptimizer.sol\":9089:9099  allocation */\n      dup4\n        /* \"contracts/src/YieldOptimizer.sol\":9089:9114  allocation.yieldYakAmount */\n      0x02\n      add\n      sload\n        /* \"contracts/src/YieldOptimizer.sol\":9067:9088  _withdrawFromYieldYak */\n      tag_208\n        /* \"contracts/src/YieldOptimizer.sol\":9067:9115  _withdrawFromYieldYak(allocation.yieldYakAmount) */\n      jump\t// in\n    tag_207:\n        /* \"contracts/src/YieldOptimizer.sol\":9049:9115  totalWithdrawn += _withdrawFromYieldYak(allocation.yieldYakAmount) */\n      dup2\n      tag_209\n      swap2\n      swap1\n      tag_127\n      jump\t// in\n    tag_209:\n      swap1\n      pop\n        /* \"contracts/src/YieldOptimizer.sol\":9157:9158  0 */\n      0x00\n        /* \"contracts/src/YieldOptimizer.sol\":9129:9139  allocation */\n      dup4\n        /* \"contracts/src/YieldOptimizer.sol\":9129:9154  allocation.yieldYakAmount */\n      0x02\n      add\n        /* \"contracts/src/YieldOptimizer.sol\":9129:9158  allocation.yieldYakAmount = 0 */\n      dup2\n      swap1\n      sstore\n      pop\n        /* \"contracts/src/YieldOptimizer.sol\":9000:9169  if (allocation.yieldYakAmount > 0) {... */\n    tag_206:\n        /* \"contracts/src/YieldOptimizer.sol\":9204:9205  0 */\n      0x00\n        /* \"contracts/src/YieldOptimizer.sol\":9179:9186  profile */\n      dup3\n        /* \"contracts/src/YieldOptimizer.sol\":9179:9201  profile.totalDeposited */\n      0x01\n      add\n        /* \"contracts/src/YieldOptimizer.sol\":9179:9205  profile.totalDeposited = 0 */\n      dup2\n      swap1\n      sstore\n      pop\n        /* \"contracts/src/YieldOptimizer.sol\":9280:9303  uint256 contractBalance */\n      0x00\n        /* \"contracts/src/YieldOptimizer.sol\":9306:9327  address(this).balance */\n      selfbalance\n        /* \"contracts/src/YieldOptimizer.sol\":9280:9327  uint256 contractBalance = address(this).balance */\n      swap1\n      pop\n        /* \"contracts/src/YieldOptimizer.sol\":9337:9355  uint256 toTransfer */\n      0x00\n        /* \"contracts/src/YieldOptimizer.sol\":9375:9390  contractBalance */\n      dup2\n        /* \"contracts/src/YieldOptimizer.sol\":9358:9372  totalWithdrawn */\n      dup4\n        /* \"contracts/src/YieldOptimizer.sol\":9358:9390  totalWithdrawn > contractBalance */\n      gt\n        /* \"contracts/src/YieldOptimizer.sol\":9358:9425  totalWithdrawn > contractBalance ? contractBalance : totalWithdrawn */\n      tag_210\n      jumpi\n        /* \"contracts/src/YieldOptimizer.sol\":9411:9425  totalWithdrawn */\n      dup3\n        /* \"contracts/src/YieldOptimizer.sol\":9358:9425  totalWithdrawn > contractBalance ? contractBalance : totalWithdrawn */\n      jump(tag_211)\n    tag_210:\n        /* \"contracts/src/YieldOptimizer.sol\":9393:9408  contractBalance */\n      dup2\n        /* \"contracts/src/YieldOptimizer.sol\":9358:9425  totalWithdrawn > contractBalance ? contractBalance : totalWithdrawn */\n    tag_211:\n        /* \"contracts/src/YieldOptimizer.sol\":9337:9425  uint256 toTransfer = totalWithdrawn > contractBalance ? contractBalance : totalWithdrawn */\n      swap1\n      pop\n        /* \"contracts/src/YieldOptimizer.sol\":9505:9506  0 */\n      0x00\n        /* \"contracts/src/YieldOptimizer.sol\":9492:9502  toTransfer */\n      dup2\n        /* \"contracts/src/YieldOptimizer.sol\":9492:9506  toTransfer > 0 */\n      gt\n        /* \"contracts/src/YieldOptimizer.sol\":9488:9625  if (toTransfer > 0) {... */\n      iszero\n      tag_212\n      jumpi\n        /* \"contracts/src/YieldOptimizer.sol\":9530:9540  msg.sender */\n      caller\n        /* \"contracts/src/YieldOptimizer.sol\":9522:9550  payable(msg.sender).transfer */\n      0xffffffffffffffffffffffffffffffffffffffff\n      and\n        /* \"contracts/src/YieldOptimizer.sol\":9522:9562  payable(msg.sender).transfer(toTransfer) */\n      0x08fc\n        /* \"contracts/src/YieldOptimizer.sol\":9551:9561  toTransfer */\n      dup3\n        /* \"contracts/src/YieldOptimizer.sol\":9522:9562  payable(msg.sender).transfer(toTransfer) */\n      swap1\n      dup2\n      iszero\n      mul\n      swap1\n      mload(0x40)\n      0x00\n      mload(0x40)\n      dup1\n      dup4\n      sub\n      dup2\n      dup6\n      dup9\n      dup9\n      call\n      swap4\n      pop\n      pop\n      pop\n      pop\n      iszero\n      dup1\n      iszero\n      tag_214\n      jumpi\n      returndatasize\n      0x00\n      dup1\n      returndatacopy\n      revert(0x00, returndatasize)\n    tag_214:\n      pop\n        /* \"contracts/src/YieldOptimizer.sol\":9591:9601  msg.sender */\n      caller\n        /* \"contracts/src/YieldOptimizer.sol\":9581:9614  Withdrawn(msg.sender, toTransfer) */\n      0xffffffffffffffffffffffffffffffffffffffff\n      and\n      0x7084f5476618d8e60b11ef0d7d3f06914655adb8793e28ff7f018d4c76d505d5\n        /* \"contracts/src/YieldOptimizer.sol\":9603:9613  toTransfer */\n      dup3\n        /* \"contracts/src/YieldOptimizer.sol\":9581:9614  Withdrawn(msg.sender, toTransfer) */\n      mload(0x40)\n      tag_215\n      swap2\n      swap1\n      tag_95\n      jump\t// in\n    tag_215:\n      mload(0x40)\n      dup1\n      swap2\n      sub\n      swap1\n      log2\n        /* \"contracts/src/YieldOptimizer.sol\":9488:9625  if (toTransfer > 0) {... */\n    tag_212:\n        /* \"contracts/src/YieldOptimizer.sol\":8416:9631  {... */\n      pop\n      pop\n      pop\n      pop\n      pop\n        /* \"@openzeppelin/contracts/utils/ReentrancyGuard.sol\":2542:2562  _nonReentrantAfter() */\n      tag_216\n        /* \"@openzeppelin/contracts/utils/ReentrancyGuard.sol\":2542:2560  _nonReentrantAfter */\n      tag_133\n        /* \"@openzeppelin/contracts/utils/ReentrancyGuard.sol\":2542:2562  _nonReentrantAfter() */\n      jump\t// in\n    tag_216:\n        /* \"contracts/src/YieldOptimizer.sol\":8365:9631  function emergencyWithdraw() external nonReentrant {... */\n      jump\t// out\n        /* \"contracts/src/YieldOptimizer.sol\":1702:1750  uint256 public constant MIN_DEPOSIT = 0.01 ether */\n    tag_106:\n        /* \"contracts/src/YieldOptimizer.sol\":1740:1750  0.01 ether */\n      0x2386f26fc10000\n        /* \"contracts/src/YieldOptimizer.sol\":1702:1750  uint256 public constant MIN_DEPOSIT = 0.01 ether */\n      dup2\n      jump\t// out\n        /* \"contracts/src/YieldOptimizer.sol\":1865:1909  uint256 public constant BASIS_POINTS = 10000 */\n    tag_110:\n        /* \"contracts/src/YieldOptimizer.sol\":1904:1909  10000 */\n      0x2710\n        /* \"contracts/src/YieldOptimizer.sol\":1865:1909  uint256 public constant BASIS_POINTS = 10000 */\n      dup2\n      jump\t// out\n        /* \"@openzeppelin/contracts/access/Ownable.sol\":2543:2758  function transferOwnership(address newOwner) public virtual onlyOwner {... */\n    tag_115:\n        /* \"@openzeppelin/contracts/access/Ownable.sol\":1531:1544  _checkOwner() */\n      tag_218\n        /* \"@openzeppelin/contracts/access/Ownable.sol\":1531:1542  _checkOwner */\n      tag_152\n        /* \"@openzeppelin/contracts/access/Ownable.sol\":1531:1544  _checkOwner() */\n      jump\t// in\n    tag_218:\n        /* \"@openzeppelin/contracts/access/Ownable.sol\":2647:2648  0 */\n      0x00\n        /* \"@openzeppelin/contracts/access/Ownable.sol\":2627:2649  newOwner == address(0) */\n      0xffffffffffffffffffffffffffffffffffffffff\n      and\n        /* \"@openzeppelin/contracts/access/Ownable.sol\":2627:2635  newOwner */\n      dup2\n        /* \"@openzeppelin/contracts/access/Ownable.sol\":2627:2649  newOwner == address(0) */\n      0xffffffffffffffffffffffffffffffffffffffff\n      and\n      sub\n        /* \"@openzeppelin/contracts/access/Ownable.sol\":2623:2714  if (newOwner == address(0)) {... */\n      tag_220\n      jumpi\n        /* \"@openzeppelin/contracts/access/Ownable.sol\":2700:2701  0 */\n      0x00\n        /* \"@openzeppelin/contracts/access/Ownable.sol\":2672:2703  OwnableInvalidOwner(address(0)) */\n      mload(0x40)\n      0x1e4fbdf700000000000000000000000000000000000000000000000000000000\n      dup2\n      mstore\n      0x04\n      add\n      tag_221\n      swap2\n      swap1\n      tag_33\n      jump\t// in\n    tag_221:\n      mload(0x40)\n      dup1\n      swap2\n      sub\n      swap1\n      revert\n        /* \"@openzeppelin/contracts/access/Ownable.sol\":2623:2714  if (newOwner == address(0)) {... */\n    tag_220:\n        /* \"@openzeppelin/contracts/access/Ownable.sol\":2723:2751  _transferOwnership(newOwner) */\n      tag_222\n        /* \"@openzeppelin/contracts/access/Ownable.sol\":2742:2750  newOwner */\n      dup2\n        /* \"@openzeppelin/contracts/access/Ownable.sol\":2723:2741  _transferOwnership */\n      tag_155\n        /* \"@openzeppelin/contracts/access/Ownable.sol\":2723:2751  _transferOwnership(newOwner) */\n      jump\t// in\n    tag_222:\n        /* \"@openzeppelin/contracts/access/Ownable.sol\":2543:2758  function transferOwnership(address newOwner) public virtual onlyOwner {... */\n      pop\n      jump\t// out\n        /* \"@openzeppelin/contracts/utils/ReentrancyGuard.sol\":2575:2882  function _nonReentrantBefore() private {... */\n    tag_118:\n        /* \"@openzeppelin/contracts/utils/ReentrancyGuard.sol\":1899:1900  2 */\n      0x02\n        /* \"@openzeppelin/contracts/utils/ReentrancyGuard.sol\":2702:2709  _status */\n      sload(0x01)\n        /* \"@openzeppelin/contracts/utils/ReentrancyGuard.sol\":2702:2720  _status == ENTERED */\n      sub\n        /* \"@openzeppelin/contracts/utils/ReentrancyGuard.sol\":2698:2784  if (_status == ENTERED) {... */\n      tag_224\n      jumpi\n        /* \"@openzeppelin/contracts/utils/ReentrancyGuard.sol\":2743:2773  ReentrancyGuardReentrantCall() */\n      mload(0x40)\n      0x3ee5aeb500000000000000000000000000000000000000000000000000000000\n      dup2\n      mstore\n      0x04\n      add\n      mload(0x40)\n      dup1\n      swap2\n      sub\n      swap1\n      revert\n        /* \"@openzeppelin/contracts/utils/ReentrancyGuard.sol\":2698:2784  if (_status == ENTERED) {... */\n    tag_224:\n        /* \"@openzeppelin/contracts/utils/ReentrancyGuard.sol\":1899:1900  2 */\n      0x02\n        /* \"@openzeppelin/contracts/utils/ReentrancyGuard.sol\":2858:2865  _status */\n      0x01\n        /* \"@openzeppelin/contracts/utils/ReentrancyGuard.sol\":2858:2875  _status = ENTERED */\n      dup2\n      swap1\n      sstore\n      pop\n        /* \"@openzeppelin/contracts/utils/ReentrancyGuard.sol\":2575:2882  function _nonReentrantBefore() private {... */\n      jump\t// out\n        /* \"contracts/src/YieldOptimizer.sol\":3706:5412  function _allocateFunds(address user, uint256 amount, uint8 riskScore) internal {... */\n    tag_129:\n        /* \"contracts/src/YieldOptimizer.sol\":3796:3833  ProtocolAllocation storage allocation */\n      0x00\n        /* \"contracts/src/YieldOptimizer.sol\":3836:3851  userAllocations */\n      0x03\n        /* \"contracts/src/YieldOptimizer.sol\":3836:3857  userAllocations[user] */\n      0x00\n        /* \"contracts/src/YieldOptimizer.sol\":3852:3856  user */\n      dup6\n        /* \"contracts/src/YieldOptimizer.sol\":3836:3857  userAllocations[user] */\n      0xffffffffffffffffffffffffffffffffffffffff\n      and\n      0xffffffffffffffffffffffffffffffffffffffff\n      and\n      dup2\n      mstore\n      0x20\n      add\n      swap1\n      dup2\n      mstore\n      0x20\n      add\n      0x00\n      keccak256\n        /* \"contracts/src/YieldOptimizer.sol\":3796:3857  ProtocolAllocation storage allocation = userAllocations[user] */\n      swap1\n      pop\n        /* \"contracts/src/YieldOptimizer.sol\":3876:3899  uint256 benqiAllocation */\n      0x00\n        /* \"contracts/src/YieldOptimizer.sol\":3909:3936  uint256 traderJoeAllocation */\n      dup1\n        /* \"contracts/src/YieldOptimizer.sol\":3946:3972  uint256 yieldYakAllocation */\n      0x00\n        /* \"contracts/src/YieldOptimizer.sol\":4000:4002  33 */\n      0x21\n        /* \"contracts/src/YieldOptimizer.sol\":3987:3996  riskScore */\n      dup6\n        /* \"contracts/src/YieldOptimizer.sol\":3987:4002  riskScore <= 33 */\n      0xff\n      and\n      gt\n        /* \"contracts/src/YieldOptimizer.sol\":3983:4846  if (riskScore <= 33) {... */\n      tag_226\n      jumpi\n        /* \"contracts/src/YieldOptimizer.sol\":1904:1909  10000 */\n      0x2710\n        /* \"contracts/src/YieldOptimizer.sol\":4085:4089  7000 */\n      0x1b58\n        /* \"contracts/src/YieldOptimizer.sol\":4076:4082  amount */\n      dup8\n        /* \"contracts/src/YieldOptimizer.sol\":4076:4089  amount * 7000 */\n      tag_227\n      swap2\n      swap1\n      tag_228\n      jump\t// in\n    tag_227:\n        /* \"contracts/src/YieldOptimizer.sol\":4075:4105  (amount * 7000) / BASIS_POINTS */\n      tag_229\n      swap2\n      swap1\n      tag_230\n      jump\t// in\n    tag_229:\n        /* \"contracts/src/YieldOptimizer.sol\":4057:4105  benqiAllocation = (amount * 7000) / BASIS_POINTS */\n      swap3\n      pop\n        /* \"contracts/src/YieldOptimizer.sol\":1904:1909  10000 */\n      0x2710\n        /* \"contracts/src/YieldOptimizer.sol\":4163:4167  3000 */\n      0x0bb8\n        /* \"contracts/src/YieldOptimizer.sol\":4154:4160  amount */\n      dup8\n        /* \"contracts/src/YieldOptimizer.sol\":4154:4167  amount * 3000 */\n      tag_231\n      swap2\n      swap1\n      tag_228\n      jump\t// in\n    tag_231:\n        /* \"contracts/src/YieldOptimizer.sol\":4153:4183  (amount * 3000) / BASIS_POINTS */\n      tag_232\n      swap2\n      swap1\n      tag_230\n      jump\t// in\n    tag_232:\n        /* \"contracts/src/YieldOptimizer.sol\":4131:4183  traderJoeAllocation = (amount * 3000) / BASIS_POINTS */\n      swap2\n      pop\n        /* \"contracts/src/YieldOptimizer.sol\":4226:4227  0 */\n      0x00\n        /* \"contracts/src/YieldOptimizer.sol\":4205:4227  yieldYakAllocation = 0 */\n      swap1\n      pop\n        /* \"contracts/src/YieldOptimizer.sol\":3983:4846  if (riskScore <= 33) {... */\n      jump(tag_233)\n    tag_226:\n        /* \"contracts/src/YieldOptimizer.sol\":4298:4300  66 */\n      0x42\n        /* \"contracts/src/YieldOptimizer.sol\":4285:4294  riskScore */\n      dup6\n        /* \"contracts/src/YieldOptimizer.sol\":4285:4300  riskScore <= 66 */\n      0xff\n      and\n      gt\n        /* \"contracts/src/YieldOptimizer.sol\":4281:4846  if (riskScore <= 66) {... */\n      tag_234\n      jumpi\n        /* \"contracts/src/YieldOptimizer.sol\":1904:1909  10000 */\n      0x2710\n        /* \"contracts/src/YieldOptimizer.sol\":4379:4383  4000 */\n      0x0fa0\n        /* \"contracts/src/YieldOptimizer.sol\":4370:4376  amount */\n      dup8\n        /* \"contracts/src/YieldOptimizer.sol\":4370:4383  amount * 4000 */\n      tag_235\n      swap2\n      swap1\n      tag_228\n      jump\t// in\n    tag_235:\n        /* \"contracts/src/YieldOptimizer.sol\":4369:4399  (amount * 4000) / BASIS_POINTS */\n      tag_236\n      swap2\n      swap1\n      tag_230\n      jump\t// in\n    tag_236:\n        /* \"contracts/src/YieldOptimizer.sol\":4351:4399  benqiAllocation = (amount * 4000) / BASIS_POINTS */\n      swap3\n      pop\n        /* \"contracts/src/YieldOptimizer.sol\":1904:1909  10000 */\n      0x2710\n        /* \"contracts/src/YieldOptimizer.sol\":4457:4461  4000 */\n      0x0fa0\n        /* \"contracts/src/YieldOptimizer.sol\":4448:4454  amount */\n      dup8\n        /* \"contracts/src/YieldOptimizer.sol\":4448:4461  amount * 4000 */\n      tag_237\n      swap2\n      swap1\n      tag_228\n      jump\t// in\n    tag_237:\n        /* \"contracts/src/YieldOptimizer.sol\":4447:4477  (amount * 4000) / BASIS_POINTS */\n      tag_238\n      swap2\n      swap1\n      tag_230\n      jump\t// in\n    tag_238:\n        /* \"contracts/src/YieldOptimizer.sol\":4425:4477  traderJoeAllocation = (amount * 4000) / BASIS_POINTS */\n      swap2\n      pop\n        /* \"contracts/src/YieldOptimizer.sol\":1904:1909  10000 */\n      0x2710\n        /* \"contracts/src/YieldOptimizer.sol\":4530:4534  2000 */\n      0x07d0\n        /* \"contracts/src/YieldOptimizer.sol\":4521:4527  amount */\n      dup8\n        /* \"contracts/src/YieldOptimizer.sol\":4521:4534  amount * 2000 */\n      tag_239\n      swap2\n      swap1\n      tag_228\n      jump\t// in\n    tag_239:\n        /* \"contracts/src/YieldOptimizer.sol\":4520:4550  (amount * 2000) / BASIS_POINTS */\n      tag_240\n      swap2\n      swap1\n      tag_230\n      jump\t// in\n    tag_240:\n        /* \"contracts/src/YieldOptimizer.sol\":4499:4550  yieldYakAllocation = (amount * 2000) / BASIS_POINTS */\n      swap1\n      pop\n        /* \"contracts/src/YieldOptimizer.sol\":4281:4846  if (riskScore <= 66) {... */\n      jump(tag_241)\n    tag_234:\n        /* \"contracts/src/YieldOptimizer.sol\":1904:1909  10000 */\n      0x2710\n        /* \"contracts/src/YieldOptimizer.sol\":4655:4659  2000 */\n      0x07d0\n        /* \"contracts/src/YieldOptimizer.sol\":4646:4652  amount */\n      dup8\n        /* \"contracts/src/YieldOptimizer.sol\":4646:4659  amount * 2000 */\n      tag_242\n      swap2\n      swap1\n      tag_228\n      jump\t// in\n    tag_242:\n        /* \"contracts/src/YieldOptimizer.sol\":4645:4675  (amount * 2000) / BASIS_POINTS */\n      tag_243\n      swap2\n      swap1\n      tag_230\n      jump\t// in\n    tag_243:\n        /* \"contracts/src/YieldOptimizer.sol\":4627:4675  benqiAllocation = (amount * 2000) / BASIS_POINTS */\n      swap3\n      pop\n        /* \"contracts/src/YieldOptimizer.sol\":1904:1909  10000 */\n      0x2710\n        /* \"contracts/src/YieldOptimizer.sol\":4733:4737  3000 */\n      0x0bb8\n        /* \"contracts/src/YieldOptimizer.sol\":4724:4730  amount */\n      dup8\n        /* \"contracts/src/YieldOptimizer.sol\":4724:4737  amount * 3000 */\n      tag_244\n      swap2\n      swap1\n      tag_228\n      jump\t// in\n    tag_244:\n        /* \"contracts/src/YieldOptimizer.sol\":4723:4753  (amount * 3000) / BASIS_POINTS */\n      tag_245\n      swap2\n      swap1\n      tag_230\n      jump\t// in\n    tag_245:\n        /* \"contracts/src/YieldOptimizer.sol\":4701:4753  traderJoeAllocation = (amount * 3000) / BASIS_POINTS */\n      swap2\n      pop\n        /* \"contracts/src/YieldOptimizer.sol\":1904:1909  10000 */\n      0x2710\n        /* \"contracts/src/YieldOptimizer.sol\":4806:4810  5000 */\n      0x1388\n        /* \"contracts/src/YieldOptimizer.sol\":4797:4803  amount */\n      dup8\n        /* \"contracts/src/YieldOptimizer.sol\":4797:4810  amount * 5000 */\n      tag_246\n      swap2\n      swap1\n      tag_228\n      jump\t// in\n    tag_246:\n        /* \"contracts/src/YieldOptimizer.sol\":4796:4826  (amount * 5000) / BASIS_POINTS */\n      tag_247\n      swap2\n      swap1\n      tag_230\n      jump\t// in\n    tag_247:\n        /* \"contracts/src/YieldOptimizer.sol\":4775:4826  yieldYakAllocation = (amount * 5000) / BASIS_POINTS */\n      swap1\n      pop\n        /* \"contracts/src/YieldOptimizer.sol\":4281:4846  if (riskScore <= 66) {... */\n    tag_241:\n        /* \"contracts/src/YieldOptimizer.sol\":3983:4846  if (riskScore <= 33) {... */\n    tag_233:\n        /* \"contracts/src/YieldOptimizer.sol\":4927:4942  benqiAllocation */\n      dup3\n        /* \"contracts/src/YieldOptimizer.sol\":4901:4911  allocation */\n      dup5\n        /* \"contracts/src/YieldOptimizer.sol\":4901:4923  allocation.benqiAmount */\n      0x00\n      add\n      0x00\n        /* \"contracts/src/YieldOptimizer.sol\":4901:4942  allocation.benqiAmount += benqiAllocation */\n      dup3\n      dup3\n      sload\n      tag_248\n      swap2\n      swap1\n      tag_127\n      jump\t// in\n    tag_248:\n      swap3\n      pop\n      pop\n      dup2\n      swap1\n      sstore\n      pop\n        /* \"contracts/src/YieldOptimizer.sol\":4982:5001  traderJoeAllocation */\n      dup2\n        /* \"contracts/src/YieldOptimizer.sol\":4952:4962  allocation */\n      dup5\n        /* \"contracts/src/YieldOptimizer.sol\":4952:4978  allocation.traderJoeAmount */\n      0x01\n      add\n      0x00\n        /* \"contracts/src/YieldOptimizer.sol\":4952:5001  allocation.traderJoeAmount += traderJoeAllocation */\n      dup3\n      dup3\n      sload\n      tag_249\n      swap2\n      swap1\n      tag_127\n      jump\t// in\n    tag_249:\n      swap3\n      pop\n      pop\n      dup2\n      swap1\n      sstore\n      pop\n        /* \"contracts/src/YieldOptimizer.sol\":5040:5058  yieldYakAllocation */\n      dup1\n        /* \"contracts/src/YieldOptimizer.sol\":5011:5021  allocation */\n      dup5\n        /* \"contracts/src/YieldOptimizer.sol\":5011:5036  allocation.yieldYakAmount */\n      0x02\n      add\n      0x00\n        /* \"contracts/src/YieldOptimizer.sol\":5011:5058  allocation.yieldYakAmount += yieldYakAllocation */\n      dup3\n      dup3\n      sload\n      tag_250\n      swap2\n      swap1\n      tag_127\n      jump\t// in\n    tag_250:\n      swap3\n      pop\n      pop\n      dup2\n      swap1\n      sstore\n      pop\n        /* \"contracts/src/YieldOptimizer.sol\":5143:5144  0 */\n      0x00\n        /* \"contracts/src/YieldOptimizer.sol\":5125:5140  benqiAllocation */\n      dup4\n        /* \"contracts/src/YieldOptimizer.sol\":5125:5144  benqiAllocation > 0 */\n      gt\n        /* \"contracts/src/YieldOptimizer.sol\":5121:5203  if (benqiAllocation > 0) {... */\n      iszero\n      tag_251\n      jumpi\n        /* \"contracts/src/YieldOptimizer.sol\":5160:5192  _depositToBenqi(benqiAllocation) */\n      tag_252\n        /* \"contracts/src/YieldOptimizer.sol\":5176:5191  benqiAllocation */\n      dup4\n        /* \"contracts/src/YieldOptimizer.sol\":5160:5175  _depositToBenqi */\n      tag_253\n        /* \"contracts/src/YieldOptimizer.sol\":5160:5192  _depositToBenqi(benqiAllocation) */\n      jump\t// in\n    tag_252:\n        /* \"contracts/src/YieldOptimizer.sol\":5121:5203  if (benqiAllocation > 0) {... */\n    tag_251:\n        /* \"contracts/src/YieldOptimizer.sol\":5238:5239  0 */\n      0x00\n        /* \"contracts/src/YieldOptimizer.sol\":5216:5235  traderJoeAllocation */\n      dup3\n        /* \"contracts/src/YieldOptimizer.sol\":5216:5239  traderJoeAllocation > 0 */\n      gt\n        /* \"contracts/src/YieldOptimizer.sol\":5212:5306  if (traderJoeAllocation > 0) {... */\n      iszero\n      tag_254\n      jumpi\n        /* \"contracts/src/YieldOptimizer.sol\":5255:5295  _depositToTraderJoe(traderJoeAllocation) */\n      tag_255\n        /* \"contracts/src/YieldOptimizer.sol\":5275:5294  traderJoeAllocation */\n      dup3\n        /* \"contracts/src/YieldOptimizer.sol\":5255:5274  _depositToTraderJoe */\n      tag_256\n        /* \"contracts/src/YieldOptimizer.sol\":5255:5295  _depositToTraderJoe(traderJoeAllocation) */\n      jump\t// in\n    tag_255:\n        /* \"contracts/src/YieldOptimizer.sol\":5212:5306  if (traderJoeAllocation > 0) {... */\n    tag_254:\n        /* \"contracts/src/YieldOptimizer.sol\":5340:5341  0 */\n      0x00\n        /* \"contracts/src/YieldOptimizer.sol\":5319:5337  yieldYakAllocation */\n      dup2\n        /* \"contracts/src/YieldOptimizer.sol\":5319:5341  yieldYakAllocation > 0 */\n      gt\n        /* \"contracts/src/YieldOptimizer.sol\":5315:5406  if (yieldYakAllocation > 0) {... */\n      iszero\n      tag_257\n      jumpi\n        /* \"contracts/src/YieldOptimizer.sol\":5357:5395  _depositToYieldYak(yieldYakAllocation) */\n      tag_258\n        /* \"contracts/src/YieldOptimizer.sol\":5376:5394  yieldYakAllocation */\n      dup2\n        /* \"contracts/src/YieldOptimizer.sol\":5357:5375  _depositToYieldYak */\n      tag_259\n        /* \"contracts/src/YieldOptimizer.sol\":5357:5395  _depositToYieldYak(yieldYakAllocation) */\n      jump\t// in\n    tag_258:\n        /* \"contracts/src/YieldOptimizer.sol\":5315:5406  if (yieldYakAllocation > 0) {... */\n    tag_257:\n        /* \"contracts/src/YieldOptimizer.sol\":3786:5412  {... */\n      pop\n      pop\n      pop\n      pop\n        /* \"contracts/src/YieldOptimizer.sol\":3706:5412  function _allocateFunds(address user, uint256 amount, uint8 riskScore) internal {... */\n      pop\n      pop\n      pop\n      jump\t// out\n        /* \"@openzeppelin/contracts/utils/ReentrancyGuard.sol\":2888:3096  function _nonReentrantAfter() private {... */\n    tag_133:\n        /* \"@openzeppelin/contracts/utils/ReentrancyGuard.sol\":1857:1858  1 */\n      0x01\n        /* \"@openzeppelin/contracts/utils/ReentrancyGuard.sol\":3068:3075  _status */\n      dup1\n        /* \"@openzeppelin/contracts/utils/ReentrancyGuard.sol\":3068:3089  _status = NOT_ENTERED */\n      dup2\n      swap1\n      sstore\n      pop\n        /* \"@openzeppelin/contracts/utils/ReentrancyGuard.sol\":2888:3096  function _nonReentrantAfter() private {... */\n      jump\t// out\n        /* \"contracts/src/YieldOptimizer.sol\":11502:12287  function _calculateOptimalAllocation(uint256 totalAmount, uint8 riskScore) ... */\n    tag_147:\n        /* \"contracts/src/YieldOptimizer.sol\":11627:11640  uint256 benqi */\n      0x00\n        /* \"contracts/src/YieldOptimizer.sol\":11642:11659  uint256 traderJoe */\n      dup1\n        /* \"contracts/src/YieldOptimizer.sol\":11661:11677  uint256 yieldYak */\n      0x00\n        /* \"contracts/src/YieldOptimizer.sol\":11711:11713  33 */\n      0x21\n        /* \"contracts/src/YieldOptimizer.sol\":11698:11707  riskScore */\n      dup5\n        /* \"contracts/src/YieldOptimizer.sol\":11698:11713  riskScore <= 33 */\n      0xff\n      and\n      gt\n        /* \"contracts/src/YieldOptimizer.sol\":11694:12281  if (riskScore <= 33) {... */\n      tag_262\n      jumpi\n        /* \"contracts/src/YieldOptimizer.sol\":1904:1909  10000 */\n      0x2710\n        /* \"contracts/src/YieldOptimizer.sol\":11752:11756  7000 */\n      0x1b58\n        /* \"contracts/src/YieldOptimizer.sol\":11738:11749  totalAmount */\n      dup7\n        /* \"contracts/src/YieldOptimizer.sol\":11738:11756  totalAmount * 7000 */\n      tag_263\n      swap2\n      swap1\n      tag_228\n      jump\t// in\n    tag_263:\n        /* \"contracts/src/YieldOptimizer.sol\":11737:11772  (totalAmount * 7000) / BASIS_POINTS */\n      tag_264\n      swap2\n      swap1\n      tag_230\n      jump\t// in\n    tag_264:\n        /* \"contracts/src/YieldOptimizer.sol\":11729:11772  benqi = (totalAmount * 7000) / BASIS_POINTS */\n      swap3\n      pop\n        /* \"contracts/src/YieldOptimizer.sol\":1904:1909  10000 */\n      0x2710\n        /* \"contracts/src/YieldOptimizer.sol\":11813:11817  3000 */\n      0x0bb8\n        /* \"contracts/src/YieldOptimizer.sol\":11799:11810  totalAmount */\n      dup7\n        /* \"contracts/src/YieldOptimizer.sol\":11799:11817  totalAmount * 3000 */\n      tag_265\n      swap2\n      swap1\n      tag_228\n      jump\t// in\n    tag_265:\n        /* \"contracts/src/YieldOptimizer.sol\":11798:11833  (totalAmount * 3000) / BASIS_POINTS */\n      tag_266\n      swap2\n      swap1\n      tag_230\n      jump\t// in\n    tag_266:\n        /* \"contracts/src/YieldOptimizer.sol\":11786:11833  traderJoe = (totalAmount * 3000) / BASIS_POINTS */\n      swap2\n      pop\n        /* \"contracts/src/YieldOptimizer.sol\":11858:11859  0 */\n      0x00\n        /* \"contracts/src/YieldOptimizer.sol\":11847:11859  yieldYak = 0 */\n      swap1\n      pop\n        /* \"contracts/src/YieldOptimizer.sol\":11694:12281  if (riskScore <= 33) {... */\n      jump(tag_267)\n    tag_262:\n        /* \"contracts/src/YieldOptimizer.sol\":11893:11895  66 */\n      0x42\n        /* \"contracts/src/YieldOptimizer.sol\":11880:11889  riskScore */\n      dup5\n        /* \"contracts/src/YieldOptimizer.sol\":11880:11895  riskScore <= 66 */\n      0xff\n      and\n      gt\n        /* \"contracts/src/YieldOptimizer.sol\":11876:12281  if (riskScore <= 66) {... */\n      tag_268\n      jumpi\n        /* \"contracts/src/YieldOptimizer.sol\":1904:1909  10000 */\n      0x2710\n        /* \"contracts/src/YieldOptimizer.sol\":11934:11938  4000 */\n      0x0fa0\n        /* \"contracts/src/YieldOptimizer.sol\":11920:11931  totalAmount */\n      dup7\n        /* \"contracts/src/YieldOptimizer.sol\":11920:11938  totalAmount * 4000 */\n      tag_269\n      swap2\n      swap1\n      tag_228\n      jump\t// in\n    tag_269:\n        /* \"contracts/src/YieldOptimizer.sol\":11919:11954  (totalAmount * 4000) / BASIS_POINTS */\n      tag_270\n      swap2\n      swap1\n      tag_230\n      jump\t// in\n    tag_270:\n        /* \"contracts/src/YieldOptimizer.sol\":11911:11954  benqi = (totalAmount * 4000) / BASIS_POINTS */\n      swap3\n      pop\n        /* \"contracts/src/YieldOptimizer.sol\":1904:1909  10000 */\n      0x2710\n        /* \"contracts/src/YieldOptimizer.sol\":11995:11999  4000 */\n      0x0fa0\n        /* \"contracts/src/YieldOptimizer.sol\":11981:11992  totalAmount */\n      dup7\n        /* \"contracts/src/YieldOptimizer.sol\":11981:11999  totalAmount * 4000 */\n      tag_271\n      swap2\n      swap1\n      tag_228\n      jump\t// in\n    tag_271:\n        /* \"contracts/src/YieldOptimizer.sol\":11980:12015  (totalAmount * 4000) / BASIS_POINTS */\n      tag_272\n      swap2\n      swap1\n      tag_230\n      jump\t// in\n    tag_272:\n        /* \"contracts/src/YieldOptimizer.sol\":11968:12015  traderJoe = (totalAmount * 4000) / BASIS_POINTS */\n      swap2\n      pop\n        /* \"contracts/src/YieldOptimizer.sol\":1904:1909  10000 */\n      0x2710\n        /* \"contracts/src/YieldOptimizer.sol\":12055:12059  2000 */\n      0x07d0\n        /* \"contracts/src/YieldOptimizer.sol\":12041:12052  totalAmount */\n      dup7\n        /* \"contracts/src/YieldOptimizer.sol\":12041:12059  totalAmount * 2000 */\n      tag_273\n      swap2\n      swap1\n      tag_228\n      jump\t// in\n    tag_273:\n        /* \"contracts/src/YieldOptimizer.sol\":12040:12075  (totalAmount * 2000) / BASIS_POINTS */\n      tag_274\n      swap2\n      swap1\n      tag_230\n      jump\t// in\n    tag_274:\n        /* \"contracts/src/YieldOptimizer.sol\":12029:12075  yieldYak = (totalAmount * 2000) / BASIS_POINTS */\n      swap1\n      pop\n        /* \"contracts/src/YieldOptimizer.sol\":11876:12281  if (riskScore <= 66) {... */\n      jump(tag_275)\n    tag_268:\n        /* \"contracts/src/YieldOptimizer.sol\":1904:1909  10000 */\n      0x2710\n        /* \"contracts/src/YieldOptimizer.sol\":12129:12133  2000 */\n      0x07d0\n        /* \"contracts/src/YieldOptimizer.sol\":12115:12126  totalAmount */\n      dup7\n        /* \"contracts/src/YieldOptimizer.sol\":12115:12133  totalAmount * 2000 */\n      tag_276\n      swap2\n      swap1\n      tag_228\n      jump\t// in\n    tag_276:\n        /* \"contracts/src/YieldOptimizer.sol\":12114:12149  (totalAmount * 2000) / BASIS_POINTS */\n      tag_277\n      swap2\n      swap1\n      tag_230\n      jump\t// in\n    tag_277:\n        /* \"contracts/src/YieldOptimizer.sol\":12106:12149  benqi = (totalAmount * 2000) / BASIS_POINTS */\n      swap3\n      pop\n        /* \"contracts/src/YieldOptimizer.sol\":1904:1909  10000 */\n      0x2710\n        /* \"contracts/src/YieldOptimizer.sol\":12190:12194  3000 */\n      0x0bb8\n        /* \"contracts/src/YieldOptimizer.sol\":12176:12187  totalAmount */\n      dup7\n        /* \"contracts/src/YieldOptimizer.sol\":12176:12194  totalAmount * 3000 */\n      tag_278\n      swap2\n      swap1\n      tag_228\n      jump\t// in\n    tag_278:\n        /* \"contracts/src/YieldOptimizer.sol\":12175:12210  (totalAmount * 3000) / BASIS_POINTS */\n      tag_279\n      swap2\n      swap1\n      tag_230\n      jump\t// in\n    tag_279:\n        /* \"contracts/src/YieldOptimizer.sol\":12163:12210  traderJoe = (totalAmount * 3000) / BASIS_POINTS */\n      swap2\n      pop\n        /* \"contracts/src/YieldOptimizer.sol\":1904:1909  10000 */\n      0x2710\n        /* \"contracts/src/YieldOptimizer.sol\":12250:12254  5000 */\n      0x1388\n        /* \"contracts/src/YieldOptimizer.sol\":12236:12247  totalAmount */\n      dup7\n        /* \"contracts/src/YieldOptimizer.sol\":12236:12254  totalAmount * 5000 */\n      tag_280\n      swap2\n      swap1\n      tag_228\n      jump\t// in\n    tag_280:\n        /* \"contracts/src/YieldOptimizer.sol\":12235:12270  (totalAmount * 5000) / BASIS_POINTS */\n      tag_281\n      swap2\n      swap1\n      tag_230\n      jump\t// in\n    tag_281:\n        /* \"contracts/src/YieldOptimizer.sol\":12224:12270  yieldYak = (totalAmount * 5000) / BASIS_POINTS */\n      swap1\n      pop\n        /* \"contracts/src/YieldOptimizer.sol\":11876:12281  if (riskScore <= 66) {... */\n    tag_275:\n        /* \"contracts/src/YieldOptimizer.sol\":11694:12281  if (riskScore <= 33) {... */\n    tag_267:\n        /* \"contracts/src/YieldOptimizer.sol\":11502:12287  function _calculateOptimalAllocation(uint256 totalAmount, uint8 riskScore) ... */\n      swap3\n      pop\n      swap3\n      pop\n      swap3\n      jump\t// out\n        /* \"contracts/src/YieldOptimizer.sol\":12293:12822  function _shouldRebalance(... */\n    tag_149:\n        /* \"contracts/src/YieldOptimizer.sol\":12513:12517  bool */\n      0x00\n        /* \"contracts/src/YieldOptimizer.sol\":12529:12546  uint256 benqiDiff */\n      dup1\n        /* \"contracts/src/YieldOptimizer.sol\":12571:12582  targetBenqi */\n      dup6\n        /* \"contracts/src/YieldOptimizer.sol\":12549:12556  current */\n      dup8\n        /* \"contracts/src/YieldOptimizer.sol\":12549:12568  current.benqiAmount */\n      0x00\n      add\n      mload\n        /* \"contracts/src/YieldOptimizer.sol\":12549:12582  current.benqiAmount > targetBenqi */\n      gt\n        /* \"contracts/src/YieldOptimizer.sol\":12549:12680  current.benqiAmount > targetBenqi ? ... */\n      tag_283\n      jumpi\n        /* \"contracts/src/YieldOptimizer.sol\":12661:12668  current */\n      dup7\n        /* \"contracts/src/YieldOptimizer.sol\":12661:12680  current.benqiAmount */\n      0x00\n      add\n      mload\n        /* \"contracts/src/YieldOptimizer.sol\":12647:12658  targetBenqi */\n      dup7\n        /* \"contracts/src/YieldOptimizer.sol\":12647:12680  targetBenqi - current.benqiAmount */\n      tag_284\n      swap2\n      swap1\n      tag_285\n      jump\t// in\n    tag_284:\n        /* \"contracts/src/YieldOptimizer.sol\":12549:12680  current.benqiAmount > targetBenqi ? ... */\n      jump(tag_286)\n    tag_283:\n        /* \"contracts/src/YieldOptimizer.sol\":12620:12631  targetBenqi */\n      dup6\n        /* \"contracts/src/YieldOptimizer.sol\":12598:12605  current */\n      dup8\n        /* \"contracts/src/YieldOptimizer.sol\":12598:12617  current.benqiAmount */\n      0x00\n      add\n      mload\n        /* \"contracts/src/YieldOptimizer.sol\":12598:12631  current.benqiAmount - targetBenqi */\n      tag_287\n      swap2\n      swap1\n      tag_285\n      jump\t// in\n    tag_287:\n        /* \"contracts/src/YieldOptimizer.sol\":12549:12680  current.benqiAmount > targetBenqi ? ... */\n    tag_286:\n        /* \"contracts/src/YieldOptimizer.sol\":12529:12680  uint256 benqiDiff = current.benqiAmount > targetBenqi ? ... */\n      swap1\n      pop\n        /* \"contracts/src/YieldOptimizer.sol\":12699:12716  uint256 threshold */\n      0x00\n        /* \"contracts/src/YieldOptimizer.sol\":1904:1909  10000 */\n      0x2710\n        /* \"contracts/src/YieldOptimizer.sol\":1824:1827  500 */\n      0x01f4\n        /* \"contracts/src/YieldOptimizer.sol\":12720:12730  totalValue */\n      dup6\n        /* \"contracts/src/YieldOptimizer.sol\":12720:12752  totalValue * REBALANCE_THRESHOLD */\n      tag_288\n      swap2\n      swap1\n      tag_228\n      jump\t// in\n    tag_288:\n        /* \"contracts/src/YieldOptimizer.sol\":12719:12768  (totalValue * REBALANCE_THRESHOLD) / BASIS_POINTS */\n      tag_289\n      swap2\n      swap1\n      tag_230\n      jump\t// in\n    tag_289:\n        /* \"contracts/src/YieldOptimizer.sol\":12699:12768  uint256 threshold = (totalValue * REBALANCE_THRESHOLD) / BASIS_POINTS */\n      swap1\n      pop\n        /* \"contracts/src/YieldOptimizer.sol\":12806:12815  threshold */\n      dup1\n        /* \"contracts/src/YieldOptimizer.sol\":12794:12803  benqiDiff */\n      dup3\n        /* \"contracts/src/YieldOptimizer.sol\":12794:12815  benqiDiff > threshold */\n      gt\n        /* \"contracts/src/YieldOptimizer.sol\":12787:12815  return benqiDiff > threshold */\n      swap3\n      pop\n      pop\n      pop\n        /* \"contracts/src/YieldOptimizer.sol\":12293:12822  function _shouldRebalance(... */\n      swap6\n      swap5\n      pop\n      pop\n      pop\n      pop\n      pop\n      jump\t// out\n        /* \"@openzeppelin/contracts/access/Ownable.sol\":1796:1958  function _checkOwner() internal view virtual {... */\n    tag_152:\n        /* \"@openzeppelin/contracts/access/Ownable.sol\":1866:1878  _msgSender() */\n      tag_291\n        /* \"@openzeppelin/contracts/access/Ownable.sol\":1866:1876  _msgSender */\n      tag_292\n        /* \"@openzeppelin/contracts/access/Ownable.sol\":1866:1878  _msgSender() */\n      jump\t// in\n    tag_291:\n        /* \"@openzeppelin/contracts/access/Ownable.sol\":1855:1878  owner() != _msgSender() */\n      0xffffffffffffffffffffffffffffffffffffffff\n      and\n        /* \"@openzeppelin/contracts/access/Ownable.sol\":1855:1862  owner() */\n      tag_293\n        /* \"@openzeppelin/contracts/access/Ownable.sol\":1855:1860  owner */\n      tag_84\n        /* \"@openzeppelin/contracts/access/Ownable.sol\":1855:1862  owner() */\n      jump\t// in\n    tag_293:\n        /* \"@openzeppelin/contracts/access/Ownable.sol\":1855:1878  owner() != _msgSender() */\n      0xffffffffffffffffffffffffffffffffffffffff\n      and\n      eq\n        /* \"@openzeppelin/contracts/access/Ownable.sol\":1851:1952  if (owner() != _msgSender()) {... */\n      tag_294\n      jumpi\n        /* \"@openzeppelin/contracts/access/Ownable.sol\":1928:1940  _msgSender() */\n      tag_295\n        /* \"@openzeppelin/contracts/access/Ownable.sol\":1928:1938  _msgSender */\n      tag_292\n        /* \"@openzeppelin/contracts/access/Ownable.sol\":1928:1940  _msgSender() */\n      jump\t// in\n    tag_295:\n        /* \"@openzeppelin/contracts/access/Ownable.sol\":1901:1941  OwnableUnauthorizedAccount(_msgSender()) */\n      mload(0x40)\n      0x118cdaa700000000000000000000000000000000000000000000000000000000\n      dup2\n      mstore\n      0x04\n      add\n      tag_296\n      swap2\n      swap1\n      tag_33\n      jump\t// in\n    tag_296:\n      mload(0x40)\n      dup1\n      swap2\n      sub\n      swap1\n      revert\n        /* \"@openzeppelin/contracts/access/Ownable.sol\":1851:1952  if (owner() != _msgSender()) {... */\n    tag_294:\n        /* \"@openzeppelin/contracts/access/Ownable.sol\":1796:1958  function _checkOwner() internal view virtual {... */\n      jump\t// out\n        /* \"@openzeppelin/contracts/access/Ownable.sol\":2912:3099  function _transferOwnership(address newOwner) internal virtual {... */\n    tag_155:\n        /* \"@openzeppelin/contracts/access/Ownable.sol\":2985:3001  address oldOwner */\n      0x00\n        /* \"@openzeppelin/contracts/access/Ownable.sol\":3004:3010  _owner */\n      dup1\n      0x00\n      swap1\n      sload\n      swap1\n      0x0100\n      exp\n      swap1\n      div\n      0xffffffffffffffffffffffffffffffffffffffff\n      and\n        /* \"@openzeppelin/contracts/access/Ownable.sol\":2985:3010  address oldOwner = _owner */\n      swap1\n      pop\n        /* \"@openzeppelin/contracts/access/Ownable.sol\":3029:3037  newOwner */\n      dup2\n        /* \"@openzeppelin/contracts/access/Ownable.sol\":3020:3026  _owner */\n      0x00\n      dup1\n        /* \"@openzeppelin/contracts/access/Ownable.sol\":3020:3037  _owner = newOwner */\n      0x0100\n      exp\n      dup2\n      sload\n      dup2\n      0xffffffffffffffffffffffffffffffffffffffff\n      mul\n      not\n      and\n      swap1\n      dup4\n      0xffffffffffffffffffffffffffffffffffffffff\n      and\n      mul\n      or\n      swap1\n      sstore\n      pop\n        /* \"@openzeppelin/contracts/access/Ownable.sol\":3083:3091  newOwner */\n      dup2\n        /* \"@openzeppelin/contracts/access/Ownable.sol\":3052:3092  OwnershipTransferred(oldOwner, newOwner) */\n      0xffffffffffffffffffffffffffffffffffffffff\n      and\n        /* \"@openzeppelin/contracts/access/Ownable.sol\":3073:3081  oldOwner */\n      dup2\n        /* \"@openzeppelin/contracts/access/Ownable.sol\":3052:3092  OwnershipTransferred(oldOwner, newOwner) */\n      0xffffffffffffffffffffffffffffffffffffffff\n      and\n      0x8be0079c531659141344cd1fd0a4f28419497f9722a3daafe3b4186f6b6457e0\n      mload(0x40)\n      mload(0x40)\n      dup1\n      swap2\n      sub\n      swap1\n      log3\n        /* \"@openzeppelin/contracts/access/Ownable.sol\":2975:3099  {... */\n      pop\n        /* \"@openzeppelin/contracts/access/Ownable.sol\":2912:3099  function _transferOwnership(address newOwner) internal virtual {... */\n      pop\n      jump\t// out\n        /* \"contracts/src/YieldOptimizer.sol\":12828:14539  function _executeRebalance(... */\n    tag_166:\n        /* \"contracts/src/YieldOptimizer.sol\":13112:13128  int256 benqiDiff */\n      0x00\n        /* \"contracts/src/YieldOptimizer.sol\":13160:13167  current */\n      dup5\n        /* \"contracts/src/YieldOptimizer.sol\":13160:13179  current.benqiAmount */\n      0x00\n      add\n      sload\n        /* \"contracts/src/YieldOptimizer.sol\":13138:13149  targetBenqi */\n      dup5\n        /* \"contracts/src/YieldOptimizer.sol\":13131:13180  int256(targetBenqi) - int256(current.benqiAmount) */\n      tag_299\n      swap2\n      swap1\n      tag_300\n      jump\t// in\n    tag_299:\n        /* \"contracts/src/YieldOptimizer.sol\":13112:13180  int256 benqiDiff = int256(targetBenqi) - int256(current.benqiAmount) */\n      swap1\n      pop\n        /* \"contracts/src/YieldOptimizer.sol\":13190:13210  int256 traderJoeDiff */\n      0x00\n        /* \"contracts/src/YieldOptimizer.sol\":13246:13253  current */\n      dup6\n        /* \"contracts/src/YieldOptimizer.sol\":13246:13269  current.traderJoeAmount */\n      0x01\n      add\n      sload\n        /* \"contracts/src/YieldOptimizer.sol\":13220:13235  targetTraderJoe */\n      dup5\n        /* \"contracts/src/YieldOptimizer.sol\":13213:13270  int256(targetTraderJoe) - int256(current.traderJoeAmount) */\n      tag_301\n      swap2\n      swap1\n      tag_300\n      jump\t// in\n    tag_301:\n        /* \"contracts/src/YieldOptimizer.sol\":13190:13270  int256 traderJoeDiff = int256(targetTraderJoe) - int256(current.traderJoeAmount) */\n      swap1\n      pop\n        /* \"contracts/src/YieldOptimizer.sol\":13280:13299  int256 yieldYakDiff */\n      0x00\n        /* \"contracts/src/YieldOptimizer.sol\":13334:13341  current */\n      dup7\n        /* \"contracts/src/YieldOptimizer.sol\":13334:13356  current.yieldYakAmount */\n      0x02\n      add\n      sload\n        /* \"contracts/src/YieldOptimizer.sol\":13309:13323  targetYieldYak */\n      dup5\n        /* \"contracts/src/YieldOptimizer.sol\":13302:13357  int256(targetYieldYak) - int256(current.yieldYakAmount) */\n      tag_302\n      swap2\n      swap1\n      tag_300\n      jump\t// in\n    tag_302:\n        /* \"contracts/src/YieldOptimizer.sol\":13280:13357  int256 yieldYakDiff = int256(targetYieldYak) - int256(current.yieldYakAmount) */\n      swap1\n      pop\n        /* \"contracts/src/YieldOptimizer.sol\":13376:13398  uint256 totalWithdrawn */\n      0x00\n        /* \"contracts/src/YieldOptimizer.sol\":13495:13496  0 */\n      dup1\n        /* \"contracts/src/YieldOptimizer.sol\":13483:13492  benqiDiff */\n      dup5\n        /* \"contracts/src/YieldOptimizer.sol\":13483:13496  benqiDiff < 0 */\n      slt\n        /* \"contracts/src/YieldOptimizer.sol\":13479:13633  if (benqiDiff < 0) {... */\n      iszero\n      tag_303\n      jumpi\n        /* \"contracts/src/YieldOptimizer.sol\":13512:13534  uint256 withdrawAmount */\n      0x00\n        /* \"contracts/src/YieldOptimizer.sol\":13546:13555  benqiDiff */\n      dup5\n        /* \"contracts/src/YieldOptimizer.sol\":13545:13555  -benqiDiff */\n      tag_304\n      swap1\n      tag_305\n      jump\t// in\n    tag_304:\n        /* \"contracts/src/YieldOptimizer.sol\":13512:13556  uint256 withdrawAmount = uint256(-benqiDiff) */\n      swap1\n      pop\n        /* \"contracts/src/YieldOptimizer.sol\":13588:13622  _withdrawFromBenqi(withdrawAmount) */\n      tag_306\n        /* \"contracts/src/YieldOptimizer.sol\":13607:13621  withdrawAmount */\n      dup2\n        /* \"contracts/src/YieldOptimizer.sol\":13588:13606  _withdrawFromBenqi */\n      tag_200\n        /* \"contracts/src/YieldOptimizer.sol\":13588:13622  _withdrawFromBenqi(withdrawAmount) */\n      jump\t// in\n    tag_306:\n        /* \"contracts/src/YieldOptimizer.sol\":13570:13622  totalWithdrawn += _withdrawFromBenqi(withdrawAmount) */\n      dup3\n      tag_307\n      swap2\n      swap1\n      tag_127\n      jump\t// in\n    tag_307:\n      swap2\n      pop\n        /* \"contracts/src/YieldOptimizer.sol\":13498:13633  {... */\n      pop\n        /* \"contracts/src/YieldOptimizer.sol\":13479:13633  if (benqiDiff < 0) {... */\n    tag_303:\n        /* \"contracts/src/YieldOptimizer.sol\":13662:13663  0 */\n      0x00\n        /* \"contracts/src/YieldOptimizer.sol\":13646:13659  traderJoeDiff */\n      dup4\n        /* \"contracts/src/YieldOptimizer.sol\":13646:13663  traderJoeDiff < 0 */\n      slt\n        /* \"contracts/src/YieldOptimizer.sol\":13642:13808  if (traderJoeDiff < 0) {... */\n      iszero\n      tag_308\n      jumpi\n        /* \"contracts/src/YieldOptimizer.sol\":13679:13701  uint256 withdrawAmount */\n      0x00\n        /* \"contracts/src/YieldOptimizer.sol\":13713:13726  traderJoeDiff */\n      dup4\n        /* \"contracts/src/YieldOptimizer.sol\":13712:13726  -traderJoeDiff */\n      tag_309\n      swap1\n      tag_305\n      jump\t// in\n    tag_309:\n        /* \"contracts/src/YieldOptimizer.sol\":13679:13727  uint256 withdrawAmount = uint256(-traderJoeDiff) */\n      swap1\n      pop\n        /* \"contracts/src/YieldOptimizer.sol\":13759:13797  _withdrawFromTraderJoe(withdrawAmount) */\n      tag_310\n        /* \"contracts/src/YieldOptimizer.sol\":13782:13796  withdrawAmount */\n      dup2\n        /* \"contracts/src/YieldOptimizer.sol\":13759:13781  _withdrawFromTraderJoe */\n      tag_204\n        /* \"contracts/src/YieldOptimizer.sol\":13759:13797  _withdrawFromTraderJoe(withdrawAmount) */\n      jump\t// in\n    tag_310:\n        /* \"contracts/src/YieldOptimizer.sol\":13741:13797  totalWithdrawn += _withdrawFromTraderJoe(withdrawAmount) */\n      dup3\n      tag_311\n      swap2\n      swap1\n      tag_127\n      jump\t// in\n    tag_311:\n      swap2\n      pop\n        /* \"contracts/src/YieldOptimizer.sol\":13665:13808  {... */\n      pop\n        /* \"contracts/src/YieldOptimizer.sol\":13642:13808  if (traderJoeDiff < 0) {... */\n    tag_308:\n        /* \"contracts/src/YieldOptimizer.sol\":13836:13837  0 */\n      0x00\n        /* \"contracts/src/YieldOptimizer.sol\":13821:13833  yieldYakDiff */\n      dup3\n        /* \"contracts/src/YieldOptimizer.sol\":13821:13837  yieldYakDiff < 0 */\n      slt\n        /* \"contracts/src/YieldOptimizer.sol\":13817:13980  if (yieldYakDiff < 0) {... */\n      iszero\n      tag_312\n      jumpi\n        /* \"contracts/src/YieldOptimizer.sol\":13853:13875  uint256 withdrawAmount */\n      0x00\n        /* \"contracts/src/YieldOptimizer.sol\":13887:13899  yieldYakDiff */\n      dup3\n        /* \"contracts/src/YieldOptimizer.sol\":13886:13899  -yieldYakDiff */\n      tag_313\n      swap1\n      tag_305\n      jump\t// in\n    tag_313:\n        /* \"contracts/src/YieldOptimizer.sol\":13853:13900  uint256 withdrawAmount = uint256(-yieldYakDiff) */\n      swap1\n      pop\n        /* \"contracts/src/YieldOptimizer.sol\":13932:13969  _withdrawFromYieldYak(withdrawAmount) */\n      tag_314\n        /* \"contracts/src/YieldOptimizer.sol\":13954:13968  withdrawAmount */\n      dup2\n        /* \"contracts/src/YieldOptimizer.sol\":13932:13953  _withdrawFromYieldYak */\n      tag_208\n        /* \"contracts/src/YieldOptimizer.sol\":13932:13969  _withdrawFromYieldYak(withdrawAmount) */\n      jump\t// in\n    tag_314:\n        /* \"contracts/src/YieldOptimizer.sol\":13914:13969  totalWithdrawn += _withdrawFromYieldYak(withdrawAmount) */\n      dup3\n      tag_315\n      swap2\n      swap1\n      tag_127\n      jump\t// in\n    tag_315:\n      swap2\n      pop\n        /* \"contracts/src/YieldOptimizer.sol\":13839:13980  {... */\n      pop\n        /* \"contracts/src/YieldOptimizer.sol\":13817:13980  if (yieldYakDiff < 0) {... */\n    tag_312:\n        /* \"contracts/src/YieldOptimizer.sol\":14070:14071  0 */\n      0x00\n        /* \"contracts/src/YieldOptimizer.sol\":14058:14067  benqiDiff */\n      dup5\n        /* \"contracts/src/YieldOptimizer.sol\":14058:14071  benqiDiff > 0 */\n      sgt\n        /* \"contracts/src/YieldOptimizer.sol\":14054:14133  if (benqiDiff > 0) {... */\n      iszero\n      tag_316\n      jumpi\n        /* \"contracts/src/YieldOptimizer.sol\":14087:14122  _depositToBenqi(uint256(benqiDiff)) */\n      tag_317\n        /* \"contracts/src/YieldOptimizer.sol\":14111:14120  benqiDiff */\n      dup5\n        /* \"contracts/src/YieldOptimizer.sol\":14087:14102  _depositToBenqi */\n      tag_253\n        /* \"contracts/src/YieldOptimizer.sol\":14087:14122  _depositToBenqi(uint256(benqiDiff)) */\n      jump\t// in\n    tag_317:\n        /* \"contracts/src/YieldOptimizer.sol\":14054:14133  if (benqiDiff > 0) {... */\n    tag_316:\n        /* \"contracts/src/YieldOptimizer.sol\":14162:14163  0 */\n      0x00\n        /* \"contracts/src/YieldOptimizer.sol\":14146:14159  traderJoeDiff */\n      dup4\n        /* \"contracts/src/YieldOptimizer.sol\":14146:14163  traderJoeDiff > 0 */\n      sgt\n        /* \"contracts/src/YieldOptimizer.sol\":14142:14233  if (traderJoeDiff > 0) {... */\n      iszero\n      tag_318\n      jumpi\n        /* \"contracts/src/YieldOptimizer.sol\":14179:14222  _depositToTraderJoe(uint256(traderJoeDiff)) */\n      tag_319\n        /* \"contracts/src/YieldOptimizer.sol\":14207:14220  traderJoeDiff */\n      dup4\n        /* \"contracts/src/YieldOptimizer.sol\":14179:14198  _depositToTraderJoe */\n      tag_256\n        /* \"contracts/src/YieldOptimizer.sol\":14179:14222  _depositToTraderJoe(uint256(traderJoeDiff)) */\n      jump\t// in\n    tag_319:\n        /* \"contracts/src/YieldOptimizer.sol\":14142:14233  if (traderJoeDiff > 0) {... */\n    tag_318:\n        /* \"contracts/src/YieldOptimizer.sol\":14261:14262  0 */\n      0x00\n        /* \"contracts/src/YieldOptimizer.sol\":14246:14258  yieldYakDiff */\n      dup3\n        /* \"contracts/src/YieldOptimizer.sol\":14246:14262  yieldYakDiff > 0 */\n      sgt\n        /* \"contracts/src/YieldOptimizer.sol\":14242:14330  if (yieldYakDiff > 0) {... */\n      iszero\n      tag_320\n      jumpi\n        /* \"contracts/src/YieldOptimizer.sol\":14278:14319  _depositToYieldYak(uint256(yieldYakDiff)) */\n      tag_321\n        /* \"contracts/src/YieldOptimizer.sol\":14305:14317  yieldYakDiff */\n      dup3\n        /* \"contracts/src/YieldOptimizer.sol\":14278:14296  _depositToYieldYak */\n      tag_259\n        /* \"contracts/src/YieldOptimizer.sol\":14278:14319  _depositToYieldYak(uint256(yieldYakDiff)) */\n      jump\t// in\n    tag_321:\n        /* \"contracts/src/YieldOptimizer.sol\":14242:14330  if (yieldYakDiff > 0) {... */\n    tag_320:\n        /* \"contracts/src/YieldOptimizer.sol\":14421:14432  targetBenqi */\n      dup7\n        /* \"contracts/src/YieldOptimizer.sol\":14399:14406  current */\n      dup9\n        /* \"contracts/src/YieldOptimizer.sol\":14399:14418  current.benqiAmount */\n      0x00\n      add\n        /* \"contracts/src/YieldOptimizer.sol\":14399:14432  current.benqiAmount = targetBenqi */\n      dup2\n      swap1\n      sstore\n      pop\n        /* \"contracts/src/YieldOptimizer.sol\":14468:14483  targetTraderJoe */\n      dup6\n        /* \"contracts/src/YieldOptimizer.sol\":14442:14449  current */\n      dup9\n        /* \"contracts/src/YieldOptimizer.sol\":14442:14465  current.traderJoeAmount */\n      0x01\n      add\n        /* \"contracts/src/YieldOptimizer.sol\":14442:14483  current.traderJoeAmount = targetTraderJoe */\n      dup2\n      swap1\n      sstore\n      pop\n        /* \"contracts/src/YieldOptimizer.sol\":14518:14532  targetYieldYak */\n      dup5\n        /* \"contracts/src/YieldOptimizer.sol\":14493:14500  current */\n      dup9\n        /* \"contracts/src/YieldOptimizer.sol\":14493:14515  current.yieldYakAmount */\n      0x02\n      add\n        /* \"contracts/src/YieldOptimizer.sol\":14493:14532  current.yieldYakAmount = targetYieldYak */\n      dup2\n      swap1\n      sstore\n      pop\n        /* \"contracts/src/YieldOptimizer.sol\":13030:14539  {... */\n      pop\n      pop\n      pop\n      pop\n        /* \"contracts/src/YieldOptimizer.sol\":12828:14539  function _executeRebalance(... */\n      pop\n      pop\n      pop\n      pop\n      pop\n      jump\t// out\n        /* \"contracts/src/YieldOptimizer.sol\":10221:10635  function _withdrawFromBenqi(uint256 amount) view  internal returns (uint256) {... */\n    tag_200:\n        /* \"contracts/src/YieldOptimizer.sol\":10289:10296  uint256 */\n      0x00\n        /* \"contracts/src/YieldOptimizer.sol\":10513:10536  uint256 withdrawnAmount */\n      dup1\n        /* \"contracts/src/YieldOptimizer.sol\":10591:10596  10000 */\n      0x2710\n        /* \"contracts/src/YieldOptimizer.sol\":10583:10586  365 */\n      0x016d\n        /* \"contracts/src/YieldOptimizer.sol\":10558:10571  currentYields */\n      0x04\n        /* \"contracts/src/YieldOptimizer.sol\":10558:10580  currentYields.benqiAPY */\n      0x00\n      add\n      sload\n        /* \"contracts/src/YieldOptimizer.sol\":10558:10586  currentYields.benqiAPY / 365 */\n      tag_323\n      swap2\n      swap1\n      tag_230\n      jump\t// in\n    tag_323:\n        /* \"contracts/src/YieldOptimizer.sol\":10550:10555  10000 */\n      0x2710\n        /* \"contracts/src/YieldOptimizer.sol\":10550:10586  10000 + currentYields.benqiAPY / 365 */\n      tag_324\n      swap2\n      swap1\n      tag_127\n      jump\t// in\n    tag_324:\n        /* \"contracts/src/YieldOptimizer.sol\":10540:10546  amount */\n      dup5\n        /* \"contracts/src/YieldOptimizer.sol\":10540:10587  amount * (10000 + currentYields.benqiAPY / 365) */\n      tag_325\n      swap2\n      swap1\n      tag_228\n      jump\t// in\n    tag_325:\n        /* \"contracts/src/YieldOptimizer.sol\":10539:10596  (amount * (10000 + currentYields.benqiAPY / 365)) / 10000 */\n      tag_326\n      swap2\n      swap1\n      tag_230\n      jump\t// in\n    tag_326:\n        /* \"contracts/src/YieldOptimizer.sol\":10513:10596  uint256 withdrawnAmount = (amount * (10000 + currentYields.benqiAPY / 365)) / 10000 */\n      swap1\n      pop\n        /* \"contracts/src/YieldOptimizer.sol\":10613:10628  withdrawnAmount */\n      dup1\n        /* \"contracts/src/YieldOptimizer.sol\":10606:10628  return withdrawnAmount */\n      swap2\n      pop\n      pop\n        /* \"contracts/src/YieldOptimizer.sol\":10221:10635  function _withdrawFromBenqi(uint256 amount) view  internal returns (uint256) {... */\n      swap2\n      swap1\n      pop\n      jump\t// out\n        /* \"contracts/src/YieldOptimizer.sol\":10641:11064  function _withdrawFromTraderJoe(uint256 amount) view  internal returns (uint256) {... */\n    tag_204:\n        /* \"contracts/src/YieldOptimizer.sol\":10713:10720  uint256 */\n      0x00\n        /* \"contracts/src/YieldOptimizer.sol\":10938:10961  uint256 withdrawnAmount */\n      dup1\n        /* \"contracts/src/YieldOptimizer.sol\":11020:11025  10000 */\n      0x2710\n        /* \"contracts/src/YieldOptimizer.sol\":11012:11015  365 */\n      0x016d\n        /* \"contracts/src/YieldOptimizer.sol\":10983:10996  currentYields */\n      0x04\n        /* \"contracts/src/YieldOptimizer.sol\":10983:11009  currentYields.traderJoeAPY */\n      0x01\n      add\n      sload\n        /* \"contracts/src/YieldOptimizer.sol\":10983:11015  currentYields.traderJoeAPY / 365 */\n      tag_328\n      swap2\n      swap1\n      tag_230\n      jump\t// in\n    tag_328:\n        /* \"contracts/src/YieldOptimizer.sol\":10975:10980  10000 */\n      0x2710\n        /* \"contracts/src/YieldOptimizer.sol\":10975:11015  10000 + currentYields.traderJoeAPY / 365 */\n      tag_329\n      swap2\n      swap1\n      tag_127\n      jump\t// in\n    tag_329:\n        /* \"contracts/src/YieldOptimizer.sol\":10965:10971  amount */\n      dup5\n        /* \"contracts/src/YieldOptimizer.sol\":10965:11016  amount * (10000 + currentYields.traderJoeAPY / 365) */\n      tag_330\n      swap2\n      swap1\n      tag_228\n      jump\t// in\n    tag_330:\n        /* \"contracts/src/YieldOptimizer.sol\":10964:11025  (amount * (10000 + currentYields.traderJoeAPY / 365)) / 10000 */\n      tag_331\n      swap2\n      swap1\n      tag_230\n      jump\t// in\n    tag_331:\n        /* \"contracts/src/YieldOptimizer.sol\":10938:11025  uint256 withdrawnAmount = (amount * (10000 + currentYields.traderJoeAPY / 365)) / 10000 */\n      swap1\n      pop\n        /* \"contracts/src/YieldOptimizer.sol\":11042:11057  withdrawnAmount */\n      dup1\n        /* \"contracts/src/YieldOptimizer.sol\":11035:11057  return withdrawnAmount */\n      swap2\n      pop\n      pop\n        /* \"contracts/src/YieldOptimizer.sol\":10641:11064  function _withdrawFromTraderJoe(uint256 amount) view  internal returns (uint256) {... */\n      swap2\n      swap1\n      pop\n      jump\t// out\n        /* \"contracts/src/YieldOptimizer.sol\":11070:11496  function _withdrawFromYieldYak(uint256 amount) view  internal returns (uint256) {... */\n    tag_208:\n        /* \"contracts/src/YieldOptimizer.sol\":11141:11148  uint256 */\n      0x00\n        /* \"contracts/src/YieldOptimizer.sol\":11371:11394  uint256 withdrawnAmount */\n      dup1\n        /* \"contracts/src/YieldOptimizer.sol\":11452:11457  10000 */\n      0x2710\n        /* \"contracts/src/YieldOptimizer.sol\":11444:11447  365 */\n      0x016d\n        /* \"contracts/src/YieldOptimizer.sol\":11416:11429  currentYields */\n      0x04\n        /* \"contracts/src/YieldOptimizer.sol\":11416:11441  currentYields.yieldYakAPY */\n      0x02\n      add\n      sload\n        /* \"contracts/src/YieldOptimizer.sol\":11416:11447  currentYields.yieldYakAPY / 365 */\n      tag_333\n      swap2\n      swap1\n      tag_230\n      jump\t// in\n    tag_333:\n        /* \"contracts/src/YieldOptimizer.sol\":11408:11413  10000 */\n      0x2710\n        /* \"contracts/src/YieldOptimizer.sol\":11408:11447  10000 + currentYields.yieldYakAPY / 365 */\n      tag_334\n      swap2\n      swap1\n      tag_127\n      jump\t// in\n    tag_334:\n        /* \"contracts/src/YieldOptimizer.sol\":11398:11404  amount */\n      dup5\n        /* \"contracts/src/YieldOptimizer.sol\":11398:11448  amount * (10000 + currentYields.yieldYakAPY / 365) */\n      tag_335\n      swap2\n      swap1\n      tag_228\n      jump\t// in\n    tag_335:\n        /* \"contracts/src/YieldOptimizer.sol\":11397:11457  (amount * (10000 + currentYields.yieldYakAPY / 365)) / 10000 */\n      tag_336\n      swap2\n      swap1\n      tag_230\n      jump\t// in\n    tag_336:\n        /* \"contracts/src/YieldOptimizer.sol\":11371:11457  uint256 withdrawnAmount = (amount * (10000 + currentYields.yieldYakAPY / 365)) / 10000 */\n      swap1\n      pop\n        /* \"contracts/src/YieldOptimizer.sol\":11474:11489  withdrawnAmount */\n      dup1\n        /* \"contracts/src/YieldOptimizer.sol\":11467:11489  return withdrawnAmount */\n      swap2\n      pop\n      pop\n        /* \"contracts/src/YieldOptimizer.sol\":11070:11496  function _withdrawFromYieldYak(uint256 amount) view  internal returns (uint256) {... */\n      swap2\n      swap1\n      pop\n      jump\t// out\n        /* \"contracts/src/YieldOptimizer.sol\":9696:9860  function _depositToBenqi(uint256 amount) internal {... */\n    tag_253:\n      pop\n      jump\t// out\n        /* \"contracts/src/YieldOptimizer.sol\":9866:10035  function _depositToTraderJoe(uint256 amount) internal {... */\n    tag_256:\n      pop\n      jump\t// out\n        /* \"contracts/src/YieldOptimizer.sol\":10041:10215  function _depositToYieldYak(uint256 amount) internal {... */\n    tag_259:\n      pop\n      jump\t// out\n        /* \"@openzeppelin/contracts/utils/Context.sol\":656:752  function _msgSender() internal view virtual returns (address) {... */\n    tag_292:\n        /* \"@openzeppelin/contracts/utils/Context.sol\":709:716  address */\n      0x00\n        /* \"@openzeppelin/contracts/utils/Context.sol\":735:745  msg.sender */\n      caller\n        /* \"@openzeppelin/contracts/utils/Context.sol\":728:745  return msg.sender */\n      swap1\n      pop\n        /* \"@openzeppelin/contracts/utils/Context.sol\":656:752  function _msgSender() internal view virtual returns (address) {... */\n      swap1\n      jump\t// out\n    tag_135:\n      mload(0x40)\n      dup1\n      0x80\n      add\n      0x40\n      mstore\n      dup1\n      and(0xff, 0x00)\n      dup2\n      mstore\n      0x20\n      add\n      0x00\n      dup2\n      mstore\n      0x20\n      add\n      0x00\n      dup2\n      mstore\n      0x20\n      add\n      iszero(iszero(0x00))\n      dup2\n      mstore\n      pop\n      swap1\n      jump\t// out\n    tag_137:\n      mload(0x40)\n      dup1\n      0x60\n      add\n      0x40\n      mstore\n      dup1\n      0x00\n      dup2\n      mstore\n      0x20\n      add\n      0x00\n      dup2\n      mstore\n      0x20\n      add\n      0x00\n      dup2\n      mstore\n      pop\n      swap1\n      jump\t// out\n        /* \"#utility.yul\":88:205   */\n    tag_342:\n        /* \"#utility.yul\":197:198   */\n      0x00\n        /* \"#utility.yul\":194:195   */\n      dup1\n        /* \"#utility.yul\":187:199   */\n      revert\n        /* \"#utility.yul\":211:328   */\n    tag_343:\n        /* \"#utility.yul\":320:321   */\n      0x00\n        /* \"#utility.yul\":317:318   */\n      dup1\n        /* \"#utility.yul\":310:322   */\n      revert\n        /* \"#utility.yul\":334:420   */\n    tag_344:\n        /* \"#utility.yul\":369:376   */\n      0x00\n        /* \"#utility.yul\":409:413   */\n      0xff\n        /* \"#utility.yul\":402:407   */\n      dup3\n        /* \"#utility.yul\":398:414   */\n      and\n        /* \"#utility.yul\":387:414   */\n      swap1\n      pop\n        /* \"#utility.yul\":334:420   */\n      swap2\n      swap1\n      pop\n      jump\t// out\n        /* \"#utility.yul\":426:544   */\n    tag_345:\n        /* \"#utility.yul\":497:519   */\n      tag_397\n        /* \"#utility.yul\":513:518   */\n      dup2\n        /* \"#utility.yul\":497:519   */\n      tag_344\n      jump\t// in\n    tag_397:\n        /* \"#utility.yul\":490:495   */\n      dup2\n        /* \"#utility.yul\":487:520   */\n      eq\n        /* \"#utility.yul\":477:538   */\n      tag_398\n      jumpi\n        /* \"#utility.yul\":534:535   */\n      0x00\n        /* \"#utility.yul\":531:532   */\n      dup1\n        /* \"#utility.yul\":524:536   */\n      revert\n        /* \"#utility.yul\":477:538   */\n    tag_398:\n        /* \"#utility.yul\":426:544   */\n      pop\n      jump\t// out\n        /* \"#utility.yul\":550:685   */\n    tag_346:\n        /* \"#utility.yul\":594:599   */\n      0x00\n        /* \"#utility.yul\":632:638   */\n      dup2\n        /* \"#utility.yul\":619:639   */\n      calldataload\n        /* \"#utility.yul\":610:639   */\n      swap1\n      pop\n        /* \"#utility.yul\":648:679   */\n      tag_400\n        /* \"#utility.yul\":673:678   */\n      dup2\n        /* \"#utility.yul\":648:679   */\n      tag_345\n      jump\t// in\n    tag_400:\n        /* \"#utility.yul\":550:685   */\n      swap3\n      swap2\n      pop\n      pop\n      jump\t// out\n        /* \"#utility.yul\":691:1016   */\n    tag_27:\n        /* \"#utility.yul\":748:754   */\n      0x00\n        /* \"#utility.yul\":797:799   */\n      0x20\n        /* \"#utility.yul\":785:794   */\n      dup3\n        /* \"#utility.yul\":776:783   */\n      dup5\n        /* \"#utility.yul\":772:795   */\n      sub\n        /* \"#utility.yul\":768:800   */\n      slt\n        /* \"#utility.yul\":765:884   */\n      iszero\n      tag_402\n      jumpi\n        /* \"#utility.yul\":803:882   */\n      tag_403\n      tag_342\n      jump\t// in\n    tag_403:\n        /* \"#utility.yul\":765:884   */\n    tag_402:\n        /* \"#utility.yul\":923:924   */\n      0x00\n        /* \"#utility.yul\":948:999   */\n      tag_404\n        /* \"#utility.yul\":991:998   */\n      dup5\n        /* \"#utility.yul\":982:988   */\n      dup3\n        /* \"#utility.yul\":971:980   */\n      dup6\n        /* \"#utility.yul\":967:989   */\n      add\n        /* \"#utility.yul\":948:999   */\n      tag_346\n      jump\t// in\n    tag_404:\n        /* \"#utility.yul\":938:999   */\n      swap2\n      pop\n        /* \"#utility.yul\":894:1009   */\n      pop\n        /* \"#utility.yul\":691:1016   */\n      swap3\n      swap2\n      pop\n      pop\n      jump\t// out\n        /* \"#utility.yul\":1022:1148   */\n    tag_347:\n        /* \"#utility.yul\":1059:1066   */\n      0x00\n        /* \"#utility.yul\":1099:1141   */\n      0xffffffffffffffffffffffffffffffffffffffff\n        /* \"#utility.yul\":1092:1097   */\n      dup3\n        /* \"#utility.yul\":1088:1142   */\n      and\n        /* \"#utility.yul\":1077:1142   */\n      swap1\n      pop\n        /* \"#utility.yul\":1022:1148   */\n      swap2\n      swap1\n      pop\n      jump\t// out\n        /* \"#utility.yul\":1154:1250   */\n    tag_348:\n        /* \"#utility.yul\":1191:1198   */\n      0x00\n        /* \"#utility.yul\":1220:1244   */\n      tag_407\n        /* \"#utility.yul\":1238:1243   */\n      dup3\n        /* \"#utility.yul\":1220:1244   */\n      tag_347\n      jump\t// in\n    tag_407:\n        /* \"#utility.yul\":1209:1244   */\n      swap1\n      pop\n        /* \"#utility.yul\":1154:1250   */\n      swap2\n      swap1\n      pop\n      jump\t// out\n        /* \"#utility.yul\":1256:1374   */\n    tag_349:\n        /* \"#utility.yul\":1343:1367   */\n      tag_409\n        /* \"#utility.yul\":1361:1366   */\n      dup2\n        /* \"#utility.yul\":1343:1367   */\n      tag_348\n      jump\t// in\n    tag_409:\n        /* \"#utility.yul\":1338:1341   */\n      dup3\n        /* \"#utility.yul\":1331:1368   */\n      mstore\n        /* \"#utility.yul\":1256:1374   */\n      pop\n      pop\n      jump\t// out\n        /* \"#utility.yul\":1380:1602   */\n    tag_33:\n        /* \"#utility.yul\":1473:1477   */\n      0x00\n        /* \"#utility.yul\":1511:1513   */\n      0x20\n        /* \"#utility.yul\":1500:1509   */\n      dup3\n        /* \"#utility.yul\":1496:1514   */\n      add\n        /* \"#utility.yul\":1488:1514   */\n      swap1\n      pop\n        /* \"#utility.yul\":1524:1595   */\n      tag_411\n        /* \"#utility.yul\":1592:1593   */\n      0x00\n        /* \"#utility.yul\":1581:1590   */\n      dup4\n        /* \"#utility.yul\":1577:1594   */\n      add\n        /* \"#utility.yul\":1568:1574   */\n      dup5\n        /* \"#utility.yul\":1524:1595   */\n      tag_349\n      jump\t// in\n    tag_411:\n        /* \"#utility.yul\":1380:1602   */\n      swap3\n      swap2\n      pop\n      pop\n      jump\t// out\n        /* \"#utility.yul\":1608:1730   */\n    tag_350:\n        /* \"#utility.yul\":1681:1705   */\n      tag_413\n        /* \"#utility.yul\":1699:1704   */\n      dup2\n        /* \"#utility.yul\":1681:1705   */\n      tag_348\n      jump\t// in\n    tag_413:\n        /* \"#utility.yul\":1674:1679   */\n      dup2\n        /* \"#utility.yul\":1671:1706   */\n      eq\n        /* \"#utility.yul\":1661:1724   */\n      tag_414\n      jumpi\n        /* \"#utility.yul\":1720:1721   */\n      0x00\n        /* \"#utility.yul\":1717:1718   */\n      dup1\n        /* \"#utility.yul\":1710:1722   */\n      revert\n        /* \"#utility.yul\":1661:1724   */\n    tag_414:\n        /* \"#utility.yul\":1608:1730   */\n      pop\n      jump\t// out\n        /* \"#utility.yul\":1736:1875   */\n    tag_351:\n        /* \"#utility.yul\":1782:1787   */\n      0x00\n        /* \"#utility.yul\":1820:1826   */\n      dup2\n        /* \"#utility.yul\":1807:1827   */\n      calldataload\n        /* \"#utility.yul\":1798:1827   */\n      swap1\n      pop\n        /* \"#utility.yul\":1836:1869   */\n      tag_416\n        /* \"#utility.yul\":1863:1868   */\n      dup2\n        /* \"#utility.yul\":1836:1869   */\n      tag_350\n      jump\t// in\n    tag_416:\n        /* \"#utility.yul\":1736:1875   */\n      swap3\n      swap2\n      pop\n      pop\n      jump\t// out\n        /* \"#utility.yul\":1881:2210   */\n    tag_37:\n        /* \"#utility.yul\":1940:1946   */\n      0x00\n        /* \"#utility.yul\":1989:1991   */\n      0x20\n        /* \"#utility.yul\":1977:1986   */\n      dup3\n        /* \"#utility.yul\":1968:1975   */\n      dup5\n        /* \"#utility.yul\":1964:1987   */\n      sub\n        /* \"#utility.yul\":1960:1992   */\n      slt\n        /* \"#utility.yul\":1957:2076   */\n      iszero\n      tag_418\n      jumpi\n        /* \"#utility.yul\":1995:2074   */\n      tag_419\n      tag_342\n      jump\t// in\n    tag_419:\n        /* \"#utility.yul\":1957:2076   */\n    tag_418:\n        /* \"#utility.yul\":2115:2116   */\n      0x00\n        /* \"#utility.yul\":2140:2193   */\n      tag_420\n        /* \"#utility.yul\":2185:2192   */\n      dup5\n        /* \"#utility.yul\":2176:2182   */\n      dup3\n        /* \"#utility.yul\":2165:2174   */\n      dup6\n        /* \"#utility.yul\":2161:2183   */\n      add\n        /* \"#utility.yul\":2140:2193   */\n      tag_351\n      jump\t// in\n    tag_420:\n        /* \"#utility.yul\":2130:2193   */\n      swap2\n      pop\n        /* \"#utility.yul\":2086:2203   */\n      pop\n        /* \"#utility.yul\":1881:2210   */\n      swap3\n      swap2\n      pop\n      pop\n      jump\t// out\n        /* \"#utility.yul\":2216:2318   */\n    tag_352:\n        /* \"#utility.yul\":2289:2311   */\n      tag_422\n        /* \"#utility.yul\":2305:2310   */\n      dup2\n        /* \"#utility.yul\":2289:2311   */\n      tag_344\n      jump\t// in\n    tag_422:\n        /* \"#utility.yul\":2284:2287   */\n      dup3\n        /* \"#utility.yul\":2277:2312   */\n      mstore\n        /* \"#utility.yul\":2216:2318   */\n      pop\n      pop\n      jump\t// out\n        /* \"#utility.yul\":2324:2401   */\n    tag_353:\n        /* \"#utility.yul\":2361:2368   */\n      0x00\n        /* \"#utility.yul\":2390:2395   */\n      dup2\n        /* \"#utility.yul\":2379:2395   */\n      swap1\n      pop\n        /* \"#utility.yul\":2324:2401   */\n      swap2\n      swap1\n      pop\n      jump\t// out\n        /* \"#utility.yul\":2407:2515   */\n    tag_354:\n        /* \"#utility.yul\":2484:2508   */\n      tag_425\n        /* \"#utility.yul\":2502:2507   */\n      dup2\n        /* \"#utility.yul\":2484:2508   */\n      tag_353\n      jump\t// in\n    tag_425:\n        /* \"#utility.yul\":2479:2482   */\n      dup3\n        /* \"#utility.yul\":2472:2509   */\n      mstore\n        /* \"#utility.yul\":2407:2515   */\n      pop\n      pop\n      jump\t// out\n        /* \"#utility.yul\":2521:2611   */\n    tag_355:\n        /* \"#utility.yul\":2555:2562   */\n      0x00\n        /* \"#utility.yul\":2598:2603   */\n      dup2\n        /* \"#utility.yul\":2591:2604   */\n      iszero\n        /* \"#utility.yul\":2584:2605   */\n      iszero\n        /* \"#utility.yul\":2573:2605   */\n      swap1\n      pop\n        /* \"#utility.yul\":2521:2611   */\n      swap2\n      swap1\n      pop\n      jump\t// out\n        /* \"#utility.yul\":2617:2716   */\n    tag_356:\n        /* \"#utility.yul\":2688:2709   */\n      tag_428\n        /* \"#utility.yul\":2703:2708   */\n      dup2\n        /* \"#utility.yul\":2688:2709   */\n      tag_355\n      jump\t// in\n    tag_428:\n        /* \"#utility.yul\":2683:2686   */\n      dup3\n        /* \"#utility.yul\":2676:2710   */\n      mstore\n        /* \"#utility.yul\":2617:2716   */\n      pop\n      pop\n      jump\t// out\n        /* \"#utility.yul\":2800:3684   */\n    tag_357:\n        /* \"#utility.yul\":2953:2957   */\n      0x80\n        /* \"#utility.yul\":2948:2951   */\n      dup3\n        /* \"#utility.yul\":2944:2958   */\n      add\n        /* \"#utility.yul\":3045:3049   */\n      0x00\n        /* \"#utility.yul\":3038:3043   */\n      dup3\n        /* \"#utility.yul\":3034:3050   */\n      add\n        /* \"#utility.yul\":3028:3051   */\n      mload\n        /* \"#utility.yul\":3064:3123   */\n      tag_430\n        /* \"#utility.yul\":3117:3121   */\n      0x00\n        /* \"#utility.yul\":3112:3115   */\n      dup6\n        /* \"#utility.yul\":3108:3122   */\n      add\n        /* \"#utility.yul\":3094:3106   */\n      dup3\n        /* \"#utility.yul\":3064:3123   */\n      tag_352\n      jump\t// in\n    tag_430:\n        /* \"#utility.yul\":2968:3133   */\n      pop\n        /* \"#utility.yul\":3225:3229   */\n      0x20\n        /* \"#utility.yul\":3218:3223   */\n      dup3\n        /* \"#utility.yul\":3214:3230   */\n      add\n        /* \"#utility.yul\":3208:3231   */\n      mload\n        /* \"#utility.yul\":3244:3307   */\n      tag_431\n        /* \"#utility.yul\":3301:3305   */\n      0x20\n        /* \"#utility.yul\":3296:3299   */\n      dup6\n        /* \"#utility.yul\":3292:3306   */\n      add\n        /* \"#utility.yul\":3278:3290   */\n      dup3\n        /* \"#utility.yul\":3244:3307   */\n      tag_354\n      jump\t// in\n    tag_431:\n        /* \"#utility.yul\":3143:3317   */\n      pop\n        /* \"#utility.yul\":3408:3412   */\n      0x40\n        /* \"#utility.yul\":3401:3406   */\n      dup3\n        /* \"#utility.yul\":3397:3413   */\n      add\n        /* \"#utility.yul\":3391:3414   */\n      mload\n        /* \"#utility.yul\":3427:3490   */\n      tag_432\n        /* \"#utility.yul\":3484:3488   */\n      0x40\n        /* \"#utility.yul\":3479:3482   */\n      dup6\n        /* \"#utility.yul\":3475:3489   */\n      add\n        /* \"#utility.yul\":3461:3473   */\n      dup3\n        /* \"#utility.yul\":3427:3490   */\n      tag_354\n      jump\t// in\n    tag_432:\n        /* \"#utility.yul\":3327:3500   */\n      pop\n        /* \"#utility.yul\":3591:3595   */\n      0x60\n        /* \"#utility.yul\":3584:3589   */\n      dup3\n        /* \"#utility.yul\":3580:3596   */\n      add\n        /* \"#utility.yul\":3574:3597   */\n      mload\n        /* \"#utility.yul\":3610:3667   */\n      tag_433\n        /* \"#utility.yul\":3661:3665   */\n      0x60\n        /* \"#utility.yul\":3656:3659   */\n      dup6\n        /* \"#utility.yul\":3652:3666   */\n      add\n        /* \"#utility.yul\":3638:3650   */\n      dup3\n        /* \"#utility.yul\":3610:3667   */\n      tag_356\n      jump\t// in\n    tag_433:\n        /* \"#utility.yul\":3510:3677   */\n      pop\n        /* \"#utility.yul\":2922:3684   */\n      pop\n        /* \"#utility.yul\":2800:3684   */\n      pop\n      pop\n      jump\t// out\n        /* \"#utility.yul\":3782:4511   */\n    tag_358:\n        /* \"#utility.yul\":3949:3953   */\n      0x60\n        /* \"#utility.yul\":3944:3947   */\n      dup3\n        /* \"#utility.yul\":3940:3954   */\n      add\n        /* \"#utility.yul\":4043:4047   */\n      0x00\n        /* \"#utility.yul\":4036:4041   */\n      dup3\n        /* \"#utility.yul\":4032:4048   */\n      add\n        /* \"#utility.yul\":4026:4049   */\n      mload\n        /* \"#utility.yul\":4062:4125   */\n      tag_435\n        /* \"#utility.yul\":4119:4123   */\n      0x00\n        /* \"#utility.yul\":4114:4117   */\n      dup6\n        /* \"#utility.yul\":4110:4124   */\n      add\n        /* \"#utility.yul\":4096:4108   */\n      dup3\n        /* \"#utility.yul\":4062:4125   */\n      tag_354\n      jump\t// in\n    tag_435:\n        /* \"#utility.yul\":3964:4135   */\n      pop\n        /* \"#utility.yul\":4228:4232   */\n      0x20\n        /* \"#utility.yul\":4221:4226   */\n      dup3\n        /* \"#utility.yul\":4217:4233   */\n      add\n        /* \"#utility.yul\":4211:4234   */\n      mload\n        /* \"#utility.yul\":4247:4310   */\n      tag_436\n        /* \"#utility.yul\":4304:4308   */\n      0x20\n        /* \"#utility.yul\":4299:4302   */\n      dup6\n        /* \"#utility.yul\":4295:4309   */\n      add\n        /* \"#utility.yul\":4281:4293   */\n      dup3\n        /* \"#utility.yul\":4247:4310   */\n      tag_354\n      jump\t// in\n    tag_436:\n        /* \"#utility.yul\":4145:4320   */\n      pop\n        /* \"#utility.yul\":4412:4416   */\n      0x40\n        /* \"#utility.yul\":4405:4410   */\n      dup3\n        /* \"#utility.yul\":4401:4417   */\n      add\n        /* \"#utility.yul\":4395:4418   */\n      mload\n        /* \"#utility.yul\":4431:4494   */\n      tag_437\n        /* \"#utility.yul\":4488:4492   */\n      0x40\n        /* \"#utility.yul\":4483:4486   */\n      dup6\n        /* \"#utility.yul\":4479:4493   */\n      add\n        /* \"#utility.yul\":4465:4477   */\n      dup3\n        /* \"#utility.yul\":4431:4494   */\n      tag_354\n      jump\t// in\n    tag_437:\n        /* \"#utility.yul\":4330:4504   */\n      pop\n        /* \"#utility.yul\":3918:4511   */\n      pop\n        /* \"#utility.yul\":3782:4511   */\n      pop\n      pop\n      jump\t// out\n        /* \"#utility.yul\":4517:4635   */\n    tag_359:\n        /* \"#utility.yul\":4604:4628   */\n      tag_439\n        /* \"#utility.yul\":4622:4627   */\n      dup2\n        /* \"#utility.yul\":4604:4628   */\n      tag_353\n      jump\t// in\n    tag_439:\n        /* \"#utility.yul\":4599:4602   */\n      dup3\n        /* \"#utility.yul\":4592:4629   */\n      mstore\n        /* \"#utility.yul\":4517:4635   */\n      pop\n      pop\n      jump\t// out\n        /* \"#utility.yul\":4641:5338   */\n    tag_40:\n        /* \"#utility.yul\":4916:4920   */\n      0x00\n        /* \"#utility.yul\":4954:4957   */\n      0x0100\n        /* \"#utility.yul\":4943:4952   */\n      dup3\n        /* \"#utility.yul\":4939:4958   */\n      add\n        /* \"#utility.yul\":4931:4958   */\n      swap1\n      pop\n        /* \"#utility.yul\":4968:5095   */\n      tag_441\n        /* \"#utility.yul\":5092:5093   */\n      0x00\n        /* \"#utility.yul\":5081:5090   */\n      dup4\n        /* \"#utility.yul\":5077:5094   */\n      add\n        /* \"#utility.yul\":5068:5074   */\n      dup7\n        /* \"#utility.yul\":4968:5095   */\n      tag_357\n      jump\t// in\n    tag_441:\n        /* \"#utility.yul\":5105:5248   */\n      tag_442\n        /* \"#utility.yul\":5243:5246   */\n      0x80\n        /* \"#utility.yul\":5232:5241   */\n      dup4\n        /* \"#utility.yul\":5228:5247   */\n      add\n        /* \"#utility.yul\":5219:5225   */\n      dup6\n        /* \"#utility.yul\":5105:5248   */\n      tag_358\n      jump\t// in\n    tag_442:\n        /* \"#utility.yul\":5258:5331   */\n      tag_443\n        /* \"#utility.yul\":5326:5329   */\n      0xe0\n        /* \"#utility.yul\":5315:5324   */\n      dup4\n        /* \"#utility.yul\":5311:5330   */\n      add\n        /* \"#utility.yul\":5302:5308   */\n      dup5\n        /* \"#utility.yul\":5258:5331   */\n      tag_359\n      jump\t// in\n    tag_443:\n        /* \"#utility.yul\":4641:5338   */\n      swap5\n      swap4\n      pop\n      pop\n      pop\n      pop\n      jump\t// out\n        /* \"#utility.yul\":5344:5897   */\n    tag_45:\n        /* \"#utility.yul\":5521:5525   */\n      0x00\n        /* \"#utility.yul\":5559:5562   */\n      0x80\n        /* \"#utility.yul\":5548:5557   */\n      dup3\n        /* \"#utility.yul\":5544:5563   */\n      add\n        /* \"#utility.yul\":5536:5563   */\n      swap1\n      pop\n        /* \"#utility.yul\":5573:5644   */\n      tag_445\n        /* \"#utility.yul\":5641:5642   */\n      0x00\n        /* \"#utility.yul\":5630:5639   */\n      dup4\n        /* \"#utility.yul\":5626:5643   */\n      add\n        /* \"#utility.yul\":5617:5623   */\n      dup8\n        /* \"#utility.yul\":5573:5644   */\n      tag_359\n      jump\t// in\n    tag_445:\n        /* \"#utility.yul\":5654:5726   */\n      tag_446\n        /* \"#utility.yul\":5722:5724   */\n      0x20\n        /* \"#utility.yul\":5711:5720   */\n      dup4\n        /* \"#utility.yul\":5707:5725   */\n      add\n        /* \"#utility.yul\":5698:5704   */\n      dup7\n        /* \"#utility.yul\":5654:5726   */\n      tag_359\n      jump\t// in\n    tag_446:\n        /* \"#utility.yul\":5736:5808   */\n      tag_447\n        /* \"#utility.yul\":5804:5806   */\n      0x40\n        /* \"#utility.yul\":5793:5802   */\n      dup4\n        /* \"#utility.yul\":5789:5807   */\n      add\n        /* \"#utility.yul\":5780:5786   */\n      dup6\n        /* \"#utility.yul\":5736:5808   */\n      tag_359\n      jump\t// in\n    tag_447:\n        /* \"#utility.yul\":5818:5890   */\n      tag_448\n        /* \"#utility.yul\":5886:5888   */\n      0x60\n        /* \"#utility.yul\":5875:5884   */\n      dup4\n        /* \"#utility.yul\":5871:5889   */\n      add\n        /* \"#utility.yul\":5862:5868   */\n      dup5\n        /* \"#utility.yul\":5818:5890   */\n      tag_359\n      jump\t// in\n    tag_448:\n        /* \"#utility.yul\":5344:5897   */\n      swap6\n      swap5\n      pop\n      pop\n      pop\n      pop\n      pop\n      jump\t// out\n        /* \"#utility.yul\":5903:6012   */\n    tag_360:\n        /* \"#utility.yul\":5984:6005   */\n      tag_450\n        /* \"#utility.yul\":5999:6004   */\n      dup2\n        /* \"#utility.yul\":5984:6005   */\n      tag_355\n      jump\t// in\n    tag_450:\n        /* \"#utility.yul\":5979:5982   */\n      dup3\n        /* \"#utility.yul\":5972:6006   */\n      mstore\n        /* \"#utility.yul\":5903:6012   */\n      pop\n      pop\n      jump\t// out\n        /* \"#utility.yul\":6018:6559   */\n    tag_51:\n        /* \"#utility.yul\":6189:6193   */\n      0x00\n        /* \"#utility.yul\":6227:6230   */\n      0x80\n        /* \"#utility.yul\":6216:6225   */\n      dup3\n        /* \"#utility.yul\":6212:6231   */\n      add\n        /* \"#utility.yul\":6204:6231   */\n      swap1\n      pop\n        /* \"#utility.yul\":6241:6306   */\n      tag_452\n        /* \"#utility.yul\":6303:6304   */\n      0x00\n        /* \"#utility.yul\":6292:6301   */\n      dup4\n        /* \"#utility.yul\":6288:6305   */\n      add\n        /* \"#utility.yul\":6279:6285   */\n      dup8\n        /* \"#utility.yul\":6241:6306   */\n      tag_360\n      jump\t// in\n    tag_452:\n        /* \"#utility.yul\":6316:6388   */\n      tag_453\n        /* \"#utility.yul\":6384:6386   */\n      0x20\n        /* \"#utility.yul\":6373:6382   */\n      dup4\n        /* \"#utility.yul\":6369:6387   */\n      add\n        /* \"#utility.yul\":6360:6366   */\n      dup7\n        /* \"#utility.yul\":6316:6388   */\n      tag_359\n      jump\t// in\n    tag_453:\n        /* \"#utility.yul\":6398:6470   */\n      tag_454\n        /* \"#utility.yul\":6466:6468   */\n      0x40\n        /* \"#utility.yul\":6455:6464   */\n      dup4\n        /* \"#utility.yul\":6451:6469   */\n      add\n        /* \"#utility.yul\":6442:6448   */\n      dup6\n        /* \"#utility.yul\":6398:6470   */\n      tag_359\n      jump\t// in\n    tag_454:\n        /* \"#utility.yul\":6480:6552   */\n      tag_455\n        /* \"#utility.yul\":6548:6550   */\n      0x60\n        /* \"#utility.yul\":6537:6546   */\n      dup4\n        /* \"#utility.yul\":6533:6551   */\n      add\n        /* \"#utility.yul\":6524:6530   */\n      dup5\n        /* \"#utility.yul\":6480:6552   */\n      tag_359\n      jump\t// in\n    tag_455:\n        /* \"#utility.yul\":6018:6559   */\n      swap6\n      swap5\n      pop\n      pop\n      pop\n      pop\n      pop\n      jump\t// out\n        /* \"#utility.yul\":6565:6677   */\n    tag_361:\n        /* \"#utility.yul\":6648:6670   */\n      tag_457\n        /* \"#utility.yul\":6664:6669   */\n      dup2\n        /* \"#utility.yul\":6648:6670   */\n      tag_344\n      jump\t// in\n    tag_457:\n        /* \"#utility.yul\":6643:6646   */\n      dup3\n        /* \"#utility.yul\":6636:6671   */\n      mstore\n        /* \"#utility.yul\":6565:6677   */\n      pop\n      pop\n      jump\t// out\n        /* \"#utility.yul\":6683:7216   */\n    tag_65:\n        /* \"#utility.yul\":6850:6854   */\n      0x00\n        /* \"#utility.yul\":6888:6891   */\n      0x80\n        /* \"#utility.yul\":6877:6886   */\n      dup3\n        /* \"#utility.yul\":6873:6892   */\n      add\n        /* \"#utility.yul\":6865:6892   */\n      swap1\n      pop\n        /* \"#utility.yul\":6902:6969   */\n      tag_459\n        /* \"#utility.yul\":6966:6967   */\n      0x00\n        /* \"#utility.yul\":6955:6964   */\n      dup4\n        /* \"#utility.yul\":6951:6968   */\n      add\n        /* \"#utility.yul\":6942:6948   */\n      dup8\n        /* \"#utility.yul\":6902:6969   */\n      tag_361\n      jump\t// in\n    tag_459:\n        /* \"#utility.yul\":6979:7051   */\n      tag_460\n        /* \"#utility.yul\":7047:7049   */\n      0x20\n        /* \"#utility.yul\":7036:7045   */\n      dup4\n        /* \"#utility.yul\":7032:7050   */\n      add\n        /* \"#utility.yul\":7023:7029   */\n      dup7\n        /* \"#utility.yul\":6979:7051   */\n      tag_359\n      jump\t// in\n    tag_460:\n        /* \"#utility.yul\":7061:7133   */\n      tag_461\n        /* \"#utility.yul\":7129:7131   */\n      0x40\n        /* \"#utility.yul\":7118:7127   */\n      dup4\n        /* \"#utility.yul\":7114:7132   */\n      add\n        /* \"#utility.yul\":7105:7111   */\n      dup6\n        /* \"#utility.yul\":7061:7133   */\n      tag_359\n      jump\t// in\n    tag_461:\n        /* \"#utility.yul\":7143:7209   */\n      tag_462\n        /* \"#utility.yul\":7205:7207   */\n      0x60\n        /* \"#utility.yul\":7194:7203   */\n      dup4\n        /* \"#utility.yul\":7190:7208   */\n      add\n        /* \"#utility.yul\":7181:7187   */\n      dup5\n        /* \"#utility.yul\":7143:7209   */\n      tag_360\n      jump\t// in\n    tag_462:\n        /* \"#utility.yul\":6683:7216   */\n      swap6\n      swap5\n      pop\n      pop\n      pop\n      pop\n      pop\n      jump\t// out\n        /* \"#utility.yul\":7222:7664   */\n    tag_71:\n        /* \"#utility.yul\":7371:7375   */\n      0x00\n        /* \"#utility.yul\":7409:7411   */\n      0x60\n        /* \"#utility.yul\":7398:7407   */\n      dup3\n        /* \"#utility.yul\":7394:7412   */\n      add\n        /* \"#utility.yul\":7386:7412   */\n      swap1\n      pop\n        /* \"#utility.yul\":7422:7493   */\n      tag_464\n        /* \"#utility.yul\":7490:7491   */\n      0x00\n        /* \"#utility.yul\":7479:7488   */\n      dup4\n        /* \"#utility.yul\":7475:7492   */\n      add\n        /* \"#utility.yul\":7466:7472   */\n      dup7\n        /* \"#utility.yul\":7422:7493   */\n      tag_359\n      jump\t// in\n    tag_464:\n        /* \"#utility.yul\":7503:7575   */\n      tag_465\n        /* \"#utility.yul\":7571:7573   */\n      0x20\n        /* \"#utility.yul\":7560:7569   */\n      dup4\n        /* \"#utility.yul\":7556:7574   */\n      add\n        /* \"#utility.yul\":7547:7553   */\n      dup6\n        /* \"#utility.yul\":7503:7575   */\n      tag_359\n      jump\t// in\n    tag_465:\n        /* \"#utility.yul\":7585:7657   */\n      tag_466\n        /* \"#utility.yul\":7653:7655   */\n      0x40\n        /* \"#utility.yul\":7642:7651   */\n      dup4\n        /* \"#utility.yul\":7638:7656   */\n      add\n        /* \"#utility.yul\":7629:7635   */\n      dup5\n        /* \"#utility.yul\":7585:7657   */\n      tag_359\n      jump\t// in\n    tag_466:\n        /* \"#utility.yul\":7222:7664   */\n      swap5\n      swap4\n      pop\n      pop\n      pop\n      pop\n      jump\t// out\n        /* \"#utility.yul\":7670:7792   */\n    tag_362:\n        /* \"#utility.yul\":7743:7767   */\n      tag_468\n        /* \"#utility.yul\":7761:7766   */\n      dup2\n        /* \"#utility.yul\":7743:7767   */\n      tag_353\n      jump\t// in\n    tag_468:\n        /* \"#utility.yul\":7736:7741   */\n      dup2\n        /* \"#utility.yul\":7733:7768   */\n      eq\n        /* \"#utility.yul\":7723:7786   */\n      tag_469\n      jumpi\n        /* \"#utility.yul\":7782:7783   */\n      0x00\n        /* \"#utility.yul\":7779:7780   */\n      dup1\n        /* \"#utility.yul\":7772:7784   */\n      revert\n        /* \"#utility.yul\":7723:7786   */\n    tag_469:\n        /* \"#utility.yul\":7670:7792   */\n      pop\n      jump\t// out\n        /* \"#utility.yul\":7798:7937   */\n    tag_363:\n        /* \"#utility.yul\":7844:7849   */\n      0x00\n        /* \"#utility.yul\":7882:7888   */\n      dup2\n        /* \"#utility.yul\":7869:7889   */\n      calldataload\n        /* \"#utility.yul\":7860:7889   */\n      swap1\n      pop\n        /* \"#utility.yul\":7898:7931   */\n      tag_471\n        /* \"#utility.yul\":7925:7930   */\n      dup2\n        /* \"#utility.yul\":7898:7931   */\n      tag_362\n      jump\t// in\n    tag_471:\n        /* \"#utility.yul\":7798:7937   */\n      swap3\n      swap2\n      pop\n      pop\n      jump\t// out\n        /* \"#utility.yul\":7943:8562   */\n    tag_89:\n        /* \"#utility.yul\":8020:8026   */\n      0x00\n        /* \"#utility.yul\":8028:8034   */\n      dup1\n        /* \"#utility.yul\":8036:8042   */\n      0x00\n        /* \"#utility.yul\":8085:8087   */\n      0x60\n        /* \"#utility.yul\":8073:8082   */\n      dup5\n        /* \"#utility.yul\":8064:8071   */\n      dup7\n        /* \"#utility.yul\":8060:8083   */\n      sub\n        /* \"#utility.yul\":8056:8088   */\n      slt\n        /* \"#utility.yul\":8053:8172   */\n      iszero\n      tag_473\n      jumpi\n        /* \"#utility.yul\":8091:8170   */\n      tag_474\n      tag_342\n      jump\t// in\n    tag_474:\n        /* \"#utility.yul\":8053:8172   */\n    tag_473:\n        /* \"#utility.yul\":8211:8212   */\n      0x00\n        /* \"#utility.yul\":8236:8289   */\n      tag_475\n        /* \"#utility.yul\":8281:8288   */\n      dup7\n        /* \"#utility.yul\":8272:8278   */\n      dup3\n        /* \"#utility.yul\":8261:8270   */\n      dup8\n        /* \"#utility.yul\":8257:8279   */\n      add\n        /* \"#utility.yul\":8236:8289   */\n      tag_363\n      jump\t// in\n    tag_475:\n        /* \"#utility.yul\":8226:8289   */\n      swap4\n      pop\n        /* \"#utility.yul\":8182:8299   */\n      pop\n        /* \"#utility.yul\":8338:8340   */\n      0x20\n        /* \"#utility.yul\":8364:8417   */\n      tag_476\n        /* \"#utility.yul\":8409:8416   */\n      dup7\n        /* \"#utility.yul\":8400:8406   */\n      dup3\n        /* \"#utility.yul\":8389:8398   */\n      dup8\n        /* \"#utility.yul\":8385:8407   */\n      add\n        /* \"#utility.yul\":8364:8417   */\n      tag_363\n      jump\t// in\n    tag_476:\n        /* \"#utility.yul\":8354:8417   */\n      swap3\n      pop\n        /* \"#utility.yul\":8309:8427   */\n      pop\n        /* \"#utility.yul\":8466:8468   */\n      0x40\n        /* \"#utility.yul\":8492:8545   */\n      tag_477\n        /* \"#utility.yul\":8537:8544   */\n      dup7\n        /* \"#utility.yul\":8528:8534   */\n      dup3\n        /* \"#utility.yul\":8517:8526   */\n      dup8\n        /* \"#utility.yul\":8513:8535   */\n      add\n        /* \"#utility.yul\":8492:8545   */\n      tag_363\n      jump\t// in\n    tag_477:\n        /* \"#utility.yul\":8482:8545   */\n      swap2\n      pop\n        /* \"#utility.yul\":8437:8555   */\n      pop\n        /* \"#utility.yul\":7943:8562   */\n      swap3\n      pop\n      swap3\n      pop\n      swap3\n      jump\t// out\n        /* \"#utility.yul\":8568:8790   */\n    tag_95:\n        /* \"#utility.yul\":8661:8665   */\n      0x00\n        /* \"#utility.yul\":8699:8701   */\n      0x20\n        /* \"#utility.yul\":8688:8697   */\n      dup3\n        /* \"#utility.yul\":8684:8702   */\n      add\n        /* \"#utility.yul\":8676:8702   */\n      swap1\n      pop\n        /* \"#utility.yul\":8712:8783   */\n      tag_479\n        /* \"#utility.yul\":8780:8781   */\n      0x00\n        /* \"#utility.yul\":8769:8778   */\n      dup4\n        /* \"#utility.yul\":8765:8782   */\n      add\n        /* \"#utility.yul\":8756:8762   */\n      dup5\n        /* \"#utility.yul\":8712:8783   */\n      tag_359\n      jump\t// in\n    tag_479:\n        /* \"#utility.yul\":8568:8790   */\n      swap3\n      swap2\n      pop\n      pop\n      jump\t// out\n        /* \"#utility.yul\":8796:8913   */\n    tag_364:\n        /* \"#utility.yul\":8905:8906   */\n      0x00\n        /* \"#utility.yul\":8902:8903   */\n      dup1\n        /* \"#utility.yul\":8895:8907   */\n      revert\n        /* \"#utility.yul\":8919:9036   */\n    tag_365:\n        /* \"#utility.yul\":9028:9029   */\n      0x00\n        /* \"#utility.yul\":9025:9026   */\n      dup1\n        /* \"#utility.yul\":9018:9030   */\n      revert\n        /* \"#utility.yul\":9042:9159   */\n    tag_366:\n        /* \"#utility.yul\":9151:9152   */\n      0x00\n        /* \"#utility.yul\":9148:9149   */\n      dup1\n        /* \"#utility.yul\":9141:9153   */\n      revert\n        /* \"#utility.yul\":9179:9732   */\n    tag_367:\n        /* \"#utility.yul\":9237:9245   */\n      0x00\n        /* \"#utility.yul\":9247:9253   */\n      dup1\n        /* \"#utility.yul\":9297:9300   */\n      dup4\n        /* \"#utility.yul\":9290:9294   */\n      0x1f\n        /* \"#utility.yul\":9282:9288   */\n      dup5\n        /* \"#utility.yul\":9278:9295   */\n      add\n        /* \"#utility.yul\":9274:9301   */\n      slt\n        /* \"#utility.yul\":9264:9386   */\n      tag_484\n      jumpi\n        /* \"#utility.yul\":9305:9384   */\n      tag_485\n      tag_364\n      jump\t// in\n    tag_485:\n        /* \"#utility.yul\":9264:9386   */\n    tag_484:\n        /* \"#utility.yul\":9418:9424   */\n      dup3\n        /* \"#utility.yul\":9405:9425   */\n      calldataload\n        /* \"#utility.yul\":9395:9425   */\n      swap1\n      pop\n        /* \"#utility.yul\":9448:9466   */\n      0xffffffffffffffff\n        /* \"#utility.yul\":9440:9446   */\n      dup2\n        /* \"#utility.yul\":9437:9467   */\n      gt\n        /* \"#utility.yul\":9434:9551   */\n      iszero\n      tag_486\n      jumpi\n        /* \"#utility.yul\":9470:9549   */\n      tag_487\n      tag_365\n      jump\t// in\n    tag_487:\n        /* \"#utility.yul\":9434:9551   */\n    tag_486:\n        /* \"#utility.yul\":9584:9588   */\n      0x20\n        /* \"#utility.yul\":9576:9582   */\n      dup4\n        /* \"#utility.yul\":9572:9589   */\n      add\n        /* \"#utility.yul\":9560:9589   */\n      swap2\n      pop\n        /* \"#utility.yul\":9638:9641   */\n      dup4\n        /* \"#utility.yul\":9630:9634   */\n      0x01\n        /* \"#utility.yul\":9622:9628   */\n      dup3\n        /* \"#utility.yul\":9618:9635   */\n      mul\n        /* \"#utility.yul\":9608:9616   */\n      dup4\n        /* \"#utility.yul\":9604:9636   */\n      add\n        /* \"#utility.yul\":9601:9642   */\n      gt\n        /* \"#utility.yul\":9598:9726   */\n      iszero\n      tag_488\n      jumpi\n        /* \"#utility.yul\":9645:9724   */\n      tag_489\n      tag_366\n      jump\t// in\n    tag_489:\n        /* \"#utility.yul\":9598:9726   */\n    tag_488:\n        /* \"#utility.yul\":9179:9732   */\n      swap3\n      pop\n      swap3\n      swap1\n      pop\n      jump\t// out\n        /* \"#utility.yul\":9738:10412   */\n    tag_99:\n        /* \"#utility.yul\":9818:9824   */\n      0x00\n        /* \"#utility.yul\":9826:9832   */\n      dup1\n        /* \"#utility.yul\":9834:9840   */\n      0x00\n        /* \"#utility.yul\":9883:9885   */\n      0x40\n        /* \"#utility.yul\":9871:9880   */\n      dup5\n        /* \"#utility.yul\":9862:9869   */\n      dup7\n        /* \"#utility.yul\":9858:9881   */\n      sub\n        /* \"#utility.yul\":9854:9886   */\n      slt\n        /* \"#utility.yul\":9851:9970   */\n      iszero\n      tag_491\n      jumpi\n        /* \"#utility.yul\":9889:9968   */\n      tag_492\n      tag_342\n      jump\t// in\n    tag_492:\n        /* \"#utility.yul\":9851:9970   */\n    tag_491:\n        /* \"#utility.yul\":10037:10038   */\n      0x00\n        /* \"#utility.yul\":10026:10035   */\n      dup5\n        /* \"#utility.yul\":10022:10039   */\n      add\n        /* \"#utility.yul\":10009:10040   */\n      calldataload\n        /* \"#utility.yul\":10067:10085   */\n      0xffffffffffffffff\n        /* \"#utility.yul\":10059:10065   */\n      dup2\n        /* \"#utility.yul\":10056:10086   */\n      gt\n        /* \"#utility.yul\":10053:10170   */\n      iszero\n      tag_493\n      jumpi\n        /* \"#utility.yul\":10089:10168   */\n      tag_494\n      tag_343\n      jump\t// in\n    tag_494:\n        /* \"#utility.yul\":10053:10170   */\n    tag_493:\n        /* \"#utility.yul\":10202:10267   */\n      tag_495\n        /* \"#utility.yul\":10259:10266   */\n      dup7\n        /* \"#utility.yul\":10250:10256   */\n      dup3\n        /* \"#utility.yul\":10239:10248   */\n      dup8\n        /* \"#utility.yul\":10235:10257   */\n      add\n        /* \"#utility.yul\":10202:10267   */\n      tag_367\n      jump\t// in\n    tag_495:\n        /* \"#utility.yul\":10184:10267   */\n      swap4\n      pop\n      swap4\n      pop\n        /* \"#utility.yul\":9980:10277   */\n      pop\n        /* \"#utility.yul\":10316:10318   */\n      0x20\n        /* \"#utility.yul\":10342:10395   */\n      tag_496\n        /* \"#utility.yul\":10387:10394   */\n      dup7\n        /* \"#utility.yul\":10378:10384   */\n      dup3\n        /* \"#utility.yul\":10367:10376   */\n      dup8\n        /* \"#utility.yul\":10363:10385   */\n      add\n        /* \"#utility.yul\":10342:10395   */\n      tag_351\n      jump\t// in\n    tag_496:\n        /* \"#utility.yul\":10332:10395   */\n      swap2\n      pop\n        /* \"#utility.yul\":10287:10405   */\n      pop\n        /* \"#utility.yul\":9738:10412   */\n      swap3\n      pop\n      swap3\n      pop\n      swap3\n      jump\t// out\n        /* \"#utility.yul\":10418:10587   */\n    tag_368:\n        /* \"#utility.yul\":10502:10513   */\n      0x00\n        /* \"#utility.yul\":10536:10542   */\n      dup3\n        /* \"#utility.yul\":10531:10534   */\n      dup3\n        /* \"#utility.yul\":10524:10543   */\n      mstore\n        /* \"#utility.yul\":10576:10580   */\n      0x20\n        /* \"#utility.yul\":10571:10574   */\n      dup3\n        /* \"#utility.yul\":10567:10581   */\n      add\n        /* \"#utility.yul\":10552:10581   */\n      swap1\n      pop\n        /* \"#utility.yul\":10418:10587   */\n      swap3\n      swap2\n      pop\n      pop\n      jump\t// out\n        /* \"#utility.yul\":10593:10760   */\n    tag_369:\n        /* \"#utility.yul\":10733:10752   */\n      0x4465706f73697420746f6f20736d616c6c000000000000000000000000000000\n        /* \"#utility.yul\":10729:10730   */\n      0x00\n        /* \"#utility.yul\":10721:10727   */\n      dup3\n        /* \"#utility.yul\":10717:10731   */\n      add\n        /* \"#utility.yul\":10710:10753   */\n      mstore\n        /* \"#utility.yul\":10593:10760   */\n      pop\n      jump\t// out\n        /* \"#utility.yul\":10766:11132   */\n    tag_370:\n        /* \"#utility.yul\":10908:10911   */\n      0x00\n        /* \"#utility.yul\":10929:10996   */\n      tag_500\n        /* \"#utility.yul\":10993:10995   */\n      0x11\n        /* \"#utility.yul\":10988:10991   */\n      dup4\n        /* \"#utility.yul\":10929:10996   */\n      tag_368\n      jump\t// in\n    tag_500:\n        /* \"#utility.yul\":10922:10996   */\n      swap2\n      pop\n        /* \"#utility.yul\":11005:11098   */\n      tag_501\n        /* \"#utility.yul\":11094:11097   */\n      dup3\n        /* \"#utility.yul\":11005:11098   */\n      tag_369\n      jump\t// in\n    tag_501:\n        /* \"#utility.yul\":11123:11125   */\n      0x20\n        /* \"#utility.yul\":11118:11121   */\n      dup3\n        /* \"#utility.yul\":11114:11126   */\n      add\n        /* \"#utility.yul\":11107:11126   */\n      swap1\n      pop\n        /* \"#utility.yul\":10766:11132   */\n      swap2\n      swap1\n      pop\n      jump\t// out\n        /* \"#utility.yul\":11138:11557   */\n    tag_122:\n        /* \"#utility.yul\":11304:11308   */\n      0x00\n        /* \"#utility.yul\":11342:11344   */\n      0x20\n        /* \"#utility.yul\":11331:11340   */\n      dup3\n        /* \"#utility.yul\":11327:11345   */\n      add\n        /* \"#utility.yul\":11319:11345   */\n      swap1\n      pop\n        /* \"#utility.yul\":11391:11400   */\n      dup2\n        /* \"#utility.yul\":11385:11389   */\n      dup2\n        /* \"#utility.yul\":11381:11401   */\n      sub\n        /* \"#utility.yul\":11377:11378   */\n      0x00\n        /* \"#utility.yul\":11366:11375   */\n      dup4\n        /* \"#utility.yul\":11362:11379   */\n      add\n        /* \"#utility.yul\":11355:11402   */\n      mstore\n        /* \"#utility.yul\":11419:11550   */\n      tag_503\n        /* \"#utility.yul\":11545:11549   */\n      dup2\n        /* \"#utility.yul\":11419:11550   */\n      tag_370\n      jump\t// in\n    tag_503:\n        /* \"#utility.yul\":11411:11550   */\n      swap1\n      pop\n        /* \"#utility.yul\":11138:11557   */\n      swap2\n      swap1\n      pop\n      jump\t// out\n        /* \"#utility.yul\":11563:11731   */\n    tag_371:\n        /* \"#utility.yul\":11703:11723   */\n      0x496e76616c6964207269736b2073636f72650000000000000000000000000000\n        /* \"#utility.yul\":11699:11700   */\n      0x00\n        /* \"#utility.yul\":11691:11697   */\n      dup3\n        /* \"#utility.yul\":11687:11701   */\n      add\n        /* \"#utility.yul\":11680:11724   */\n      mstore\n        /* \"#utility.yul\":11563:11731   */\n      pop\n      jump\t// out\n        /* \"#utility.yul\":11737:12103   */\n    tag_372:\n        /* \"#utility.yul\":11879:11882   */\n      0x00\n        /* \"#utility.yul\":11900:11967   */\n      tag_506\n        /* \"#utility.yul\":11964:11966   */\n      0x12\n        /* \"#utility.yul\":11959:11962   */\n      dup4\n        /* \"#utility.yul\":11900:11967   */\n      tag_368\n      jump\t// in\n    tag_506:\n        /* \"#utility.yul\":11893:11967   */\n      swap2\n      pop\n        /* \"#utility.yul\":11976:12069   */\n      tag_507\n        /* \"#utility.yul\":12065:12068   */\n      dup3\n        /* \"#utility.yul\":11976:12069   */\n      tag_371\n      jump\t// in\n    tag_507:\n        /* \"#utility.yul\":12094:12096   */\n      0x20\n        /* \"#utility.yul\":12089:12092   */\n      dup3\n        /* \"#utility.yul\":12085:12097   */\n      add\n        /* \"#utility.yul\":12078:12097   */\n      swap1\n      pop\n        /* \"#utility.yul\":11737:12103   */\n      swap2\n      swap1\n      pop\n      jump\t// out\n        /* \"#utility.yul\":12109:12528   */\n    tag_125:\n        /* \"#utility.yul\":12275:12279   */\n      0x00\n        /* \"#utility.yul\":12313:12315   */\n      0x20\n        /* \"#utility.yul\":12302:12311   */\n      dup3\n        /* \"#utility.yul\":12298:12316   */\n      add\n        /* \"#utility.yul\":12290:12316   */\n      swap1\n      pop\n        /* \"#utility.yul\":12362:12371   */\n      dup2\n        /* \"#utility.yul\":12356:12360   */\n      dup2\n        /* \"#utility.yul\":12352:12372   */\n      sub\n        /* \"#utility.yul\":12348:12349   */\n      0x00\n        /* \"#utility.yul\":12337:12346   */\n      dup4\n        /* \"#utility.yul\":12333:12350   */\n      add\n        /* \"#utility.yul\":12326:12373   */\n      mstore\n        /* \"#utility.yul\":12390:12521   */\n      tag_509\n        /* \"#utility.yul\":12516:12520   */\n      dup2\n        /* \"#utility.yul\":12390:12521   */\n      tag_372\n      jump\t// in\n    tag_509:\n        /* \"#utility.yul\":12382:12521   */\n      swap1\n      pop\n        /* \"#utility.yul\":12109:12528   */\n      swap2\n      swap1\n      pop\n      jump\t// out\n        /* \"#utility.yul\":12534:12714   */\n    tag_373:\n        /* \"#utility.yul\":12582:12659   */\n      0x4e487b7100000000000000000000000000000000000000000000000000000000\n        /* \"#utility.yul\":12579:12580   */\n      0x00\n        /* \"#utility.yul\":12572:12660   */\n      mstore\n        /* \"#utility.yul\":12679:12683   */\n      0x11\n        /* \"#utility.yul\":12676:12677   */\n      0x04\n        /* \"#utility.yul\":12669:12684   */\n      mstore\n        /* \"#utility.yul\":12703:12707   */\n      0x24\n        /* \"#utility.yul\":12700:12701   */\n      0x00\n        /* \"#utility.yul\":12693:12708   */\n      revert\n        /* \"#utility.yul\":12720:12911   */\n    tag_127:\n        /* \"#utility.yul\":12760:12763   */\n      0x00\n        /* \"#utility.yul\":12779:12799   */\n      tag_512\n        /* \"#utility.yul\":12797:12798   */\n      dup3\n        /* \"#utility.yul\":12779:12799   */\n      tag_353\n      jump\t// in\n    tag_512:\n        /* \"#utility.yul\":12774:12799   */\n      swap2\n      pop\n        /* \"#utility.yul\":12813:12833   */\n      tag_513\n        /* \"#utility.yul\":12831:12832   */\n      dup4\n        /* \"#utility.yul\":12813:12833   */\n      tag_353\n      jump\t// in\n    tag_513:\n        /* \"#utility.yul\":12808:12833   */\n      swap3\n      pop\n        /* \"#utility.yul\":12856:12857   */\n      dup3\n        /* \"#utility.yul\":12853:12854   */\n      dup3\n        /* \"#utility.yul\":12849:12858   */\n      add\n        /* \"#utility.yul\":12842:12858   */\n      swap1\n      pop\n        /* \"#utility.yul\":12877:12880   */\n      dup1\n        /* \"#utility.yul\":12874:12875   */\n      dup3\n        /* \"#utility.yul\":12871:12881   */\n      gt\n        /* \"#utility.yul\":12868:12904   */\n      iszero\n      tag_514\n      jumpi\n        /* \"#utility.yul\":12884:12902   */\n      tag_515\n      tag_373\n      jump\t// in\n    tag_515:\n        /* \"#utility.yul\":12868:12904   */\n    tag_514:\n        /* \"#utility.yul\":12720:12911   */\n      swap3\n      swap2\n      pop\n      pop\n      jump\t// out\n        /* \"#utility.yul\":12917:13241   */\n    tag_131:\n        /* \"#utility.yul\":13034:13038   */\n      0x00\n        /* \"#utility.yul\":13072:13074   */\n      0x40\n        /* \"#utility.yul\":13061:13070   */\n      dup3\n        /* \"#utility.yul\":13057:13075   */\n      add\n        /* \"#utility.yul\":13049:13075   */\n      swap1\n      pop\n        /* \"#utility.yul\":13085:13156   */\n      tag_517\n        /* \"#utility.yul\":13153:13154   */\n      0x00\n        /* \"#utility.yul\":13142:13151   */\n      dup4\n        /* \"#utility.yul\":13138:13155   */\n      add\n        /* \"#utility.yul\":13129:13135   */\n      dup6\n        /* \"#utility.yul\":13085:13156   */\n      tag_359\n      jump\t// in\n    tag_517:\n        /* \"#utility.yul\":13166:13234   */\n      tag_518\n        /* \"#utility.yul\":13230:13232   */\n      0x20\n        /* \"#utility.yul\":13219:13228   */\n      dup4\n        /* \"#utility.yul\":13215:13233   */\n      add\n        /* \"#utility.yul\":13206:13212   */\n      dup5\n        /* \"#utility.yul\":13166:13234   */\n      tag_361\n      jump\t// in\n    tag_518:\n        /* \"#utility.yul\":12917:13241   */\n      swap4\n      swap3\n      pop\n      pop\n      pop\n      jump\t// out\n        /* \"#utility.yul\":13247:13421   */\n    tag_374:\n        /* \"#utility.yul\":13387:13413   */\n      0x4e6f206465706f7369747320746f20726562616c616e63650000000000000000\n        /* \"#utility.yul\":13383:13384   */\n      0x00\n        /* \"#utility.yul\":13375:13381   */\n      dup3\n        /* \"#utility.yul\":13371:13385   */\n      add\n        /* \"#utility.yul\":13364:13414   */\n      mstore\n        /* \"#utility.yul\":13247:13421   */\n      pop\n      jump\t// out\n        /* \"#utility.yul\":13427:13793   */\n    tag_375:\n        /* \"#utility.yul\":13569:13572   */\n      0x00\n        /* \"#utility.yul\":13590:13657   */\n      tag_521\n        /* \"#utility.yul\":13654:13656   */\n      0x18\n        /* \"#utility.yul\":13649:13652   */\n      dup4\n        /* \"#utility.yul\":13590:13657   */\n      tag_368\n      jump\t// in\n    tag_521:\n        /* \"#utility.yul\":13583:13657   */\n      swap2\n      pop\n        /* \"#utility.yul\":13666:13759   */\n      tag_522\n        /* \"#utility.yul\":13755:13758   */\n      dup3\n        /* \"#utility.yul\":13666:13759   */\n      tag_374\n      jump\t// in\n    tag_522:\n        /* \"#utility.yul\":13784:13786   */\n      0x20\n        /* \"#utility.yul\":13779:13782   */\n      dup3\n        /* \"#utility.yul\":13775:13787   */\n      add\n        /* \"#utility.yul\":13768:13787   */\n      swap1\n      pop\n        /* \"#utility.yul\":13427:13793   */\n      swap2\n      swap1\n      pop\n      jump\t// out\n        /* \"#utility.yul\":13799:14218   */\n    tag_161:\n        /* \"#utility.yul\":13965:13969   */\n      0x00\n        /* \"#utility.yul\":14003:14005   */\n      0x20\n        /* \"#utility.yul\":13992:14001   */\n      dup3\n        /* \"#utility.yul\":13988:14006   */\n      add\n        /* \"#utility.yul\":13980:14006   */\n      swap1\n      pop\n        /* \"#utility.yul\":14052:14061   */\n      dup2\n        /* \"#utility.yul\":14046:14050   */\n      dup2\n        /* \"#utility.yul\":14042:14062   */\n      sub\n        /* \"#utility.yul\":14038:14039   */\n      0x00\n        /* \"#utility.yul\":14027:14036   */\n      dup4\n        /* \"#utility.yul\":14023:14040   */\n      add\n        /* \"#utility.yul\":14016:14063   */\n      mstore\n        /* \"#utility.yul\":14080:14211   */\n      tag_524\n        /* \"#utility.yul\":14206:14210   */\n      dup2\n        /* \"#utility.yul\":14080:14211   */\n      tag_375\n      jump\t// in\n    tag_524:\n        /* \"#utility.yul\":14072:14211   */\n      swap1\n      pop\n        /* \"#utility.yul\":13799:14218   */\n      swap2\n      swap1\n      pop\n      jump\t// out\n        /* \"#utility.yul\":14224:14372   */\n    tag_376:\n        /* \"#utility.yul\":14326:14337   */\n      0x00\n        /* \"#utility.yul\":14363:14366   */\n      dup2\n        /* \"#utility.yul\":14348:14366   */\n      swap1\n      pop\n        /* \"#utility.yul\":14224:14372   */\n      swap3\n      swap2\n      pop\n      pop\n      jump\t// out\n        /* \"#utility.yul\":14378:14524   */\n    tag_377:\n        /* \"#utility.yul\":14475:14481   */\n      dup3\n        /* \"#utility.yul\":14470:14473   */\n      dup2\n        /* \"#utility.yul\":14465:14468   */\n      dup4\n        /* \"#utility.yul\":14452:14482   */\n      calldatacopy\n        /* \"#utility.yul\":14516:14517   */\n      0x00\n        /* \"#utility.yul\":14507:14513   */\n      dup4\n        /* \"#utility.yul\":14502:14505   */\n      dup4\n        /* \"#utility.yul\":14498:14514   */\n      add\n        /* \"#utility.yul\":14491:14518   */\n      mstore\n        /* \"#utility.yul\":14378:14524   */\n      pop\n      pop\n      pop\n      jump\t// out\n        /* \"#utility.yul\":14554:14884   */\n    tag_378:\n        /* \"#utility.yul\":14670:14673   */\n      0x00\n        /* \"#utility.yul\":14691:14780   */\n      tag_528\n        /* \"#utility.yul\":14773:14779   */\n      dup4\n        /* \"#utility.yul\":14768:14771   */\n      dup6\n        /* \"#utility.yul\":14691:14780   */\n      tag_376\n      jump\t// in\n    tag_528:\n        /* \"#utility.yul\":14684:14780   */\n      swap4\n      pop\n        /* \"#utility.yul\":14790:14846   */\n      tag_529\n        /* \"#utility.yul\":14839:14845   */\n      dup4\n        /* \"#utility.yul\":14834:14837   */\n      dup6\n        /* \"#utility.yul\":14827:14832   */\n      dup5\n        /* \"#utility.yul\":14790:14846   */\n      tag_377\n      jump\t// in\n    tag_529:\n        /* \"#utility.yul\":14871:14877   */\n      dup3\n        /* \"#utility.yul\":14866:14869   */\n      dup5\n        /* \"#utility.yul\":14862:14878   */\n      add\n        /* \"#utility.yul\":14855:14878   */\n      swap1\n      pop\n        /* \"#utility.yul\":14554:14884   */\n      swap4\n      swap3\n      pop\n      pop\n      pop\n      jump\t// out\n        /* \"#utility.yul\":14890:15185   */\n    tag_178:\n        /* \"#utility.yul\":15032:15035   */\n      0x00\n        /* \"#utility.yul\":15054:15159   */\n      tag_531\n        /* \"#utility.yul\":15155:15158   */\n      dup3\n        /* \"#utility.yul\":15146:15152   */\n      dup5\n        /* \"#utility.yul\":15138:15144   */\n      dup7\n        /* \"#utility.yul\":15054:15159   */\n      tag_378\n      jump\t// in\n    tag_531:\n        /* \"#utility.yul\":15047:15159   */\n      swap2\n      pop\n        /* \"#utility.yul\":15176:15179   */\n      dup2\n        /* \"#utility.yul\":15169:15179   */\n      swap1\n      pop\n        /* \"#utility.yul\":14890:15185   */\n      swap4\n      swap3\n      pop\n      pop\n      pop\n      jump\t// out\n        /* \"#utility.yul\":15191:15350   */\n    tag_379:\n        /* \"#utility.yul\":15331:15342   */\n      0x7472616465726a6f650000000000000000000000000000000000000000000000\n        /* \"#utility.yul\":15327:15328   */\n      0x00\n        /* \"#utility.yul\":15319:15325   */\n      dup3\n        /* \"#utility.yul\":15315:15329   */\n      add\n        /* \"#utility.yul\":15308:15343   */\n      mstore\n        /* \"#utility.yul\":15191:15350   */\n      pop\n      jump\t// out\n        /* \"#utility.yul\":15356:15756   */\n    tag_380:\n        /* \"#utility.yul\":15516:15519   */\n      0x00\n        /* \"#utility.yul\":15537:15621   */\n      tag_534\n        /* \"#utility.yul\":15619:15620   */\n      0x09\n        /* \"#utility.yul\":15614:15617   */\n      dup4\n        /* \"#utility.yul\":15537:15621   */\n      tag_376\n      jump\t// in\n    tag_534:\n        /* \"#utility.yul\":15530:15621   */\n      swap2\n      pop\n        /* \"#utility.yul\":15630:15723   */\n      tag_535\n        /* \"#utility.yul\":15719:15722   */\n      dup3\n        /* \"#utility.yul\":15630:15723   */\n      tag_379\n      jump\t// in\n    tag_535:\n        /* \"#utility.yul\":15748:15749   */\n      0x09\n        /* \"#utility.yul\":15743:15746   */\n      dup3\n        /* \"#utility.yul\":15739:15750   */\n      add\n        /* \"#utility.yul\":15732:15750   */\n      swap1\n      pop\n        /* \"#utility.yul\":15356:15756   */\n      swap2\n      swap1\n      pop\n      jump\t// out\n        /* \"#utility.yul\":15762:16143   */\n    tag_180:\n        /* \"#utility.yul\":15947:15950   */\n      0x00\n        /* \"#utility.yul\":15969:16117   */\n      tag_537\n        /* \"#utility.yul\":16113:16116   */\n      dup3\n        /* \"#utility.yul\":15969:16117   */\n      tag_380\n      jump\t// in\n    tag_537:\n        /* \"#utility.yul\":15962:16117   */\n      swap2\n      pop\n        /* \"#utility.yul\":16134:16137   */\n      dup2\n        /* \"#utility.yul\":16127:16137   */\n      swap1\n      pop\n        /* \"#utility.yul\":15762:16143   */\n      swap2\n      swap1\n      pop\n      jump\t// out\n        /* \"#utility.yul\":16149:16304   */\n    tag_381:\n        /* \"#utility.yul\":16289:16296   */\n      0x62656e7169000000000000000000000000000000000000000000000000000000\n        /* \"#utility.yul\":16285:16286   */\n      0x00\n        /* \"#utility.yul\":16277:16283   */\n      dup3\n        /* \"#utility.yul\":16273:16287   */\n      add\n        /* \"#utility.yul\":16266:16297   */\n      mstore\n        /* \"#utility.yul\":16149:16304   */\n      pop\n      jump\t// out\n        /* \"#utility.yul\":16310:16710   */\n    tag_382:\n        /* \"#utility.yul\":16470:16473   */\n      0x00\n        /* \"#utility.yul\":16491:16575   */\n      tag_540\n        /* \"#utility.yul\":16573:16574   */\n      0x05\n        /* \"#utility.yul\":16568:16571   */\n      dup4\n        /* \"#utility.yul\":16491:16575   */\n      tag_376\n      jump\t// in\n    tag_540:\n        /* \"#utility.yul\":16484:16575   */\n      swap2\n      pop\n        /* \"#utility.yul\":16584:16677   */\n      tag_541\n        /* \"#utility.yul\":16673:16676   */\n      dup3\n        /* \"#utility.yul\":16584:16677   */\n      tag_381\n      jump\t// in\n    tag_541:\n        /* \"#utility.yul\":16702:16703   */\n      0x05\n        /* \"#utility.yul\":16697:16700   */\n      dup3\n        /* \"#utility.yul\":16693:16704   */\n      add\n        /* \"#utility.yul\":16686:16704   */\n      swap1\n      pop\n        /* \"#utility.yul\":16310:16710   */\n      swap2\n      swap1\n      pop\n      jump\t// out\n        /* \"#utility.yul\":16716:17097   */\n    tag_184:\n        /* \"#utility.yul\":16901:16904   */\n      0x00\n        /* \"#utility.yul\":16923:17071   */\n      tag_543\n        /* \"#utility.yul\":17067:17070   */\n      dup3\n        /* \"#utility.yul\":16923:17071   */\n      tag_382\n      jump\t// in\n    tag_543:\n        /* \"#utility.yul\":16916:17071   */\n      swap2\n      pop\n        /* \"#utility.yul\":17088:17091   */\n      dup2\n        /* \"#utility.yul\":17081:17091   */\n      swap1\n      pop\n        /* \"#utility.yul\":16716:17097   */\n      swap2\n      swap1\n      pop\n      jump\t// out\n        /* \"#utility.yul\":17103:17261   */\n    tag_383:\n        /* \"#utility.yul\":17243:17253   */\n      0x7969656c6479616b000000000000000000000000000000000000000000000000\n        /* \"#utility.yul\":17239:17240   */\n      0x00\n        /* \"#utility.yul\":17231:17237   */\n      dup3\n        /* \"#utility.yul\":17227:17241   */\n      add\n        /* \"#utility.yul\":17220:17254   */\n      mstore\n        /* \"#utility.yul\":17103:17261   */\n      pop\n      jump\t// out\n        /* \"#utility.yul\":17267:17667   */\n    tag_384:\n        /* \"#utility.yul\":17427:17430   */\n      0x00\n        /* \"#utility.yul\":17448:17532   */\n      tag_546\n        /* \"#utility.yul\":17530:17531   */\n      0x08\n        /* \"#utility.yul\":17525:17528   */\n      dup4\n        /* \"#utility.yul\":17448:17532   */\n      tag_376\n      jump\t// in\n    tag_546:\n        /* \"#utility.yul\":17441:17532   */\n      swap2\n      pop\n        /* \"#utility.yul\":17541:17634   */\n      tag_547\n        /* \"#utility.yul\":17630:17633   */\n      dup3\n        /* \"#utility.yul\":17541:17634   */\n      tag_383\n      jump\t// in\n    tag_547:\n        /* \"#utility.yul\":17659:17660   */\n      0x08\n        /* \"#utility.yul\":17654:17657   */\n      dup3\n        /* \"#utility.yul\":17650:17661   */\n      add\n        /* \"#utility.yul\":17643:17661   */\n      swap1\n      pop\n        /* \"#utility.yul\":17267:17667   */\n      swap2\n      swap1\n      pop\n      jump\t// out\n        /* \"#utility.yul\":17673:18054   */\n    tag_188:\n        /* \"#utility.yul\":17858:17861   */\n      0x00\n        /* \"#utility.yul\":17880:18028   */\n      tag_549\n        /* \"#utility.yul\":18024:18027   */\n      dup3\n        /* \"#utility.yul\":17880:18028   */\n      tag_384\n      jump\t// in\n    tag_549:\n        /* \"#utility.yul\":17873:18028   */\n      swap2\n      pop\n        /* \"#utility.yul\":18045:18048   */\n      dup2\n        /* \"#utility.yul\":18038:18048   */\n      swap1\n      pop\n        /* \"#utility.yul\":17673:18054   */\n      swap2\n      swap1\n      pop\n      jump\t// out\n        /* \"#utility.yul\":18060:18226   */\n    tag_385:\n        /* \"#utility.yul\":18200:18218   */\n      0x496e76616c69642070726f746f636f6c00000000000000000000000000000000\n        /* \"#utility.yul\":18196:18197   */\n      0x00\n        /* \"#utility.yul\":18188:18194   */\n      dup3\n        /* \"#utility.yul\":18184:18198   */\n      add\n        /* \"#utility.yul\":18177:18219   */\n      mstore\n        /* \"#utility.yul\":18060:18226   */\n      pop\n      jump\t// out\n        /* \"#utility.yul\":18232:18598   */\n    tag_386:\n        /* \"#utility.yul\":18374:18377   */\n      0x00\n        /* \"#utility.yul\":18395:18462   */\n      tag_552\n        /* \"#utility.yul\":18459:18461   */\n      0x10\n        /* \"#utility.yul\":18454:18457   */\n      dup4\n        /* \"#utility.yul\":18395:18462   */\n      tag_368\n      jump\t// in\n    tag_552:\n        /* \"#utility.yul\":18388:18462   */\n      swap2\n      pop\n        /* \"#utility.yul\":18471:18564   */\n      tag_553\n        /* \"#utility.yul\":18560:18563   */\n      dup3\n        /* \"#utility.yul\":18471:18564   */\n      tag_385\n      jump\t// in\n    tag_553:\n        /* \"#utility.yul\":18589:18591   */\n      0x20\n        /* \"#utility.yul\":18584:18587   */\n      dup3\n        /* \"#utility.yul\":18580:18592   */\n      add\n        /* \"#utility.yul\":18573:18592   */\n      swap1\n      pop\n        /* \"#utility.yul\":18232:18598   */\n      swap2\n      swap1\n      pop\n      jump\t// out\n        /* \"#utility.yul\":18604:19023   */\n    tag_192:\n        /* \"#utility.yul\":18770:18774   */\n      0x00\n        /* \"#utility.yul\":18808:18810   */\n      0x20\n        /* \"#utility.yul\":18797:18806   */\n      dup3\n        /* \"#utility.yul\":18793:18811   */\n      add\n        /* \"#utility.yul\":18785:18811   */\n      swap1\n      pop\n        /* \"#utility.yul\":18857:18866   */\n      dup2\n        /* \"#utility.yul\":18851:18855   */\n      dup2\n        /* \"#utility.yul\":18847:18867   */\n      sub\n        /* \"#utility.yul\":18843:18844   */\n      0x00\n        /* \"#utility.yul\":18832:18841   */\n      dup4\n        /* \"#utility.yul\":18828:18845   */\n      add\n        /* \"#utility.yul\":18821:18868   */\n      mstore\n        /* \"#utility.yul\":18885:19016   */\n      tag_555\n        /* \"#utility.yul\":19011:19015   */\n      dup2\n        /* \"#utility.yul\":18885:19016   */\n      tag_386\n      jump\t// in\n    tag_555:\n        /* \"#utility.yul\":18877:19016   */\n      swap1\n      pop\n        /* \"#utility.yul\":18604:19023   */\n      swap2\n      swap1\n      pop\n      jump\t// out\n        /* \"#utility.yul\":19029:19131   */\n    tag_387:\n        /* \"#utility.yul\":19070:19076   */\n      0x00\n        /* \"#utility.yul\":19121:19123   */\n      0x1f\n        /* \"#utility.yul\":19117:19124   */\n      not\n        /* \"#utility.yul\":19112:19114   */\n      0x1f\n        /* \"#utility.yul\":19105:19110   */\n      dup4\n        /* \"#utility.yul\":19101:19115   */\n      add\n        /* \"#utility.yul\":19097:19125   */\n      and\n        /* \"#utility.yul\":19087:19125   */\n      swap1\n      pop\n        /* \"#utility.yul\":19029:19131   */\n      swap2\n      swap1\n      pop\n      jump\t// out\n        /* \"#utility.yul\":19161:19478   */\n    tag_388:\n        /* \"#utility.yul\":19259:19262   */\n      0x00\n        /* \"#utility.yul\":19280:19351   */\n      tag_558\n        /* \"#utility.yul\":19344:19350   */\n      dup4\n        /* \"#utility.yul\":19339:19342   */\n      dup6\n        /* \"#utility.yul\":19280:19351   */\n      tag_368\n      jump\t// in\n    tag_558:\n        /* \"#utility.yul\":19273:19351   */\n      swap4\n      pop\n        /* \"#utility.yul\":19361:19417   */\n      tag_559\n        /* \"#utility.yul\":19410:19416   */\n      dup4\n        /* \"#utility.yul\":19405:19408   */\n      dup6\n        /* \"#utility.yul\":19398:19403   */\n      dup5\n        /* \"#utility.yul\":19361:19417   */\n      tag_377\n      jump\t// in\n    tag_559:\n        /* \"#utility.yul\":19442:19471   */\n      tag_560\n        /* \"#utility.yul\":19464:19470   */\n      dup4\n        /* \"#utility.yul\":19442:19471   */\n      tag_387\n      jump\t// in\n    tag_560:\n        /* \"#utility.yul\":19437:19440   */\n      dup5\n        /* \"#utility.yul\":19433:19472   */\n      add\n        /* \"#utility.yul\":19426:19472   */\n      swap1\n      pop\n        /* \"#utility.yul\":19161:19478   */\n      swap4\n      swap3\n      pop\n      pop\n      pop\n      jump\t// out\n        /* \"#utility.yul\":19484:19927   */\n    tag_194:\n        /* \"#utility.yul\":19635:19639   */\n      0x00\n        /* \"#utility.yul\":19673:19675   */\n      0x40\n        /* \"#utility.yul\":19662:19671   */\n      dup3\n        /* \"#utility.yul\":19658:19676   */\n      add\n        /* \"#utility.yul\":19650:19676   */\n      swap1\n      pop\n        /* \"#utility.yul\":19722:19731   */\n      dup2\n        /* \"#utility.yul\":19716:19720   */\n      dup2\n        /* \"#utility.yul\":19712:19732   */\n      sub\n        /* \"#utility.yul\":19708:19709   */\n      0x00\n        /* \"#utility.yul\":19697:19706   */\n      dup4\n        /* \"#utility.yul\":19693:19710   */\n      add\n        /* \"#utility.yul\":19686:19733   */\n      mstore\n        /* \"#utility.yul\":19750:19838   */\n      tag_562\n        /* \"#utility.yul\":19833:19837   */\n      dup2\n        /* \"#utility.yul\":19824:19830   */\n      dup6\n        /* \"#utility.yul\":19816:19822   */\n      dup8\n        /* \"#utility.yul\":19750:19838   */\n      tag_388\n      jump\t// in\n    tag_562:\n        /* \"#utility.yul\":19742:19838   */\n      swap1\n      pop\n        /* \"#utility.yul\":19848:19920   */\n      tag_563\n        /* \"#utility.yul\":19916:19918   */\n      0x20\n        /* \"#utility.yul\":19905:19914   */\n      dup4\n        /* \"#utility.yul\":19901:19919   */\n      add\n        /* \"#utility.yul\":19892:19898   */\n      dup5\n        /* \"#utility.yul\":19848:19920   */\n      tag_349\n      jump\t// in\n    tag_563:\n        /* \"#utility.yul\":19484:19927   */\n      swap5\n      swap4\n      pop\n      pop\n      pop\n      pop\n      jump\t// out\n        /* \"#utility.yul\":19933:20343   */\n    tag_228:\n        /* \"#utility.yul\":19973:19980   */\n      0x00\n        /* \"#utility.yul\":19996:20016   */\n      tag_565\n        /* \"#utility.yul\":20014:20015   */\n      dup3\n        /* \"#utility.yul\":19996:20016   */\n      tag_353\n      jump\t// in\n    tag_565:\n        /* \"#utility.yul\":19991:20016   */\n      swap2\n      pop\n        /* \"#utility.yul\":20030:20050   */\n      tag_566\n        /* \"#utility.yul\":20048:20049   */\n      dup4\n        /* \"#utility.yul\":20030:20050   */\n      tag_353\n      jump\t// in\n    tag_566:\n        /* \"#utility.yul\":20025:20050   */\n      swap3\n      pop\n        /* \"#utility.yul\":20085:20086   */\n      dup3\n        /* \"#utility.yul\":20082:20083   */\n      dup3\n        /* \"#utility.yul\":20078:20087   */\n      mul\n        /* \"#utility.yul\":20107:20137   */\n      tag_567\n        /* \"#utility.yul\":20125:20136   */\n      dup2\n        /* \"#utility.yul\":20107:20137   */\n      tag_353\n      jump\t// in\n    tag_567:\n        /* \"#utility.yul\":20096:20137   */\n      swap2\n      pop\n        /* \"#utility.yul\":20286:20287   */\n      dup3\n        /* \"#utility.yul\":20277:20284   */\n      dup3\n        /* \"#utility.yul\":20273:20288   */\n      div\n        /* \"#utility.yul\":20270:20271   */\n      dup5\n        /* \"#utility.yul\":20267:20289   */\n      eq\n        /* \"#utility.yul\":20247:20248   */\n      dup4\n        /* \"#utility.yul\":20240:20249   */\n      iszero\n        /* \"#utility.yul\":20220:20303   */\n      or\n        /* \"#utility.yul\":20197:20336   */\n      tag_568\n      jumpi\n        /* \"#utility.yul\":20316:20334   */\n      tag_569\n      tag_373\n      jump\t// in\n    tag_569:\n        /* \"#utility.yul\":20197:20336   */\n    tag_568:\n        /* \"#utility.yul\":19981:20343   */\n      pop\n        /* \"#utility.yul\":19933:20343   */\n      swap3\n      swap2\n      pop\n      pop\n      jump\t// out\n        /* \"#utility.yul\":20349:20529   */\n    tag_389:\n        /* \"#utility.yul\":20397:20474   */\n      0x4e487b7100000000000000000000000000000000000000000000000000000000\n        /* \"#utility.yul\":20394:20395   */\n      0x00\n        /* \"#utility.yul\":20387:20475   */\n      mstore\n        /* \"#utility.yul\":20494:20498   */\n      0x12\n        /* \"#utility.yul\":20491:20492   */\n      0x04\n        /* \"#utility.yul\":20484:20499   */\n      mstore\n        /* \"#utility.yul\":20518:20522   */\n      0x24\n        /* \"#utility.yul\":20515:20516   */\n      0x00\n        /* \"#utility.yul\":20508:20523   */\n      revert\n        /* \"#utility.yul\":20535:20720   */\n    tag_230:\n        /* \"#utility.yul\":20575:20576   */\n      0x00\n        /* \"#utility.yul\":20592:20612   */\n      tag_572\n        /* \"#utility.yul\":20610:20611   */\n      dup3\n        /* \"#utility.yul\":20592:20612   */\n      tag_353\n      jump\t// in\n    tag_572:\n        /* \"#utility.yul\":20587:20612   */\n      swap2\n      pop\n        /* \"#utility.yul\":20626:20646   */\n      tag_573\n        /* \"#utility.yul\":20644:20645   */\n      dup4\n        /* \"#utility.yul\":20626:20646   */\n      tag_353\n      jump\t// in\n    tag_573:\n        /* \"#utility.yul\":20621:20646   */\n      swap3\n      pop\n        /* \"#utility.yul\":20665:20666   */\n      dup3\n        /* \"#utility.yul\":20655:20690   */\n      tag_574\n      jumpi\n        /* \"#utility.yul\":20670:20688   */\n      tag_575\n      tag_389\n      jump\t// in\n    tag_575:\n        /* \"#utility.yul\":20655:20690   */\n    tag_574:\n        /* \"#utility.yul\":20712:20713   */\n      dup3\n        /* \"#utility.yul\":20709:20710   */\n      dup3\n        /* \"#utility.yul\":20705:20714   */\n      div\n        /* \"#utility.yul\":20700:20714   */\n      swap1\n      pop\n        /* \"#utility.yul\":20535:20720   */\n      swap3\n      swap2\n      pop\n      pop\n      jump\t// out\n        /* \"#utility.yul\":20726:20920   */\n    tag_285:\n        /* \"#utility.yul\":20766:20770   */\n      0x00\n        /* \"#utility.yul\":20786:20806   */\n      tag_577\n        /* \"#utility.yul\":20804:20805   */\n      dup3\n        /* \"#utility.yul\":20786:20806   */\n      tag_353\n      jump\t// in\n    tag_577:\n        /* \"#utility.yul\":20781:20806   */\n      swap2\n      pop\n        /* \"#utility.yul\":20820:20840   */\n      tag_578\n        /* \"#utility.yul\":20838:20839   */\n      dup4\n        /* \"#utility.yul\":20820:20840   */\n      tag_353\n      jump\t// in\n    tag_578:\n        /* \"#utility.yul\":20815:20840   */\n      swap3\n      pop\n        /* \"#utility.yul\":20864:20865   */\n      dup3\n        /* \"#utility.yul\":20861:20862   */\n      dup3\n        /* \"#utility.yul\":20857:20866   */\n      sub\n        /* \"#utility.yul\":20849:20866   */\n      swap1\n      pop\n        /* \"#utility.yul\":20888:20889   */\n      dup2\n        /* \"#utility.yul\":20882:20886   */\n      dup2\n        /* \"#utility.yul\":20879:20890   */\n      gt\n        /* \"#utility.yul\":20876:20913   */\n      iszero\n      tag_579\n      jumpi\n        /* \"#utility.yul\":20893:20911   */\n      tag_580\n      tag_373\n      jump\t// in\n    tag_580:\n        /* \"#utility.yul\":20876:20913   */\n    tag_579:\n        /* \"#utility.yul\":20726:20920   */\n      swap3\n      swap2\n      pop\n      pop\n      jump\t// out\n        /* \"#utility.yul\":20926:21002   */\n    tag_390:\n        /* \"#utility.yul\":20962:20969   */\n      0x00\n        /* \"#utility.yul\":20991:20996   */\n      dup2\n        /* \"#utility.yul\":20980:20996   */\n      swap1\n      pop\n        /* \"#utility.yul\":20926:21002   */\n      swap2\n      swap1\n      pop\n      jump\t// out\n        /* \"#utility.yul\":21008:21380   */\n    tag_300:\n        /* \"#utility.yul\":21047:21051   */\n      0x00\n        /* \"#utility.yul\":21067:21086   */\n      tag_583\n        /* \"#utility.yul\":21084:21085   */\n      dup3\n        /* \"#utility.yul\":21067:21086   */\n      tag_390\n      jump\t// in\n    tag_583:\n        /* \"#utility.yul\":21062:21086   */\n      swap2\n      pop\n        /* \"#utility.yul\":21100:21119   */\n      tag_584\n        /* \"#utility.yul\":21117:21118   */\n      dup4\n        /* \"#utility.yul\":21100:21119   */\n      tag_390\n      jump\t// in\n    tag_584:\n        /* \"#utility.yul\":21095:21119   */\n      swap3\n      pop\n        /* \"#utility.yul\":21143:21144   */\n      dup3\n        /* \"#utility.yul\":21140:21141   */\n      dup3\n        /* \"#utility.yul\":21136:21145   */\n      sub\n        /* \"#utility.yul\":21128:21145   */\n      swap1\n      pop\n        /* \"#utility.yul\":21337:21338   */\n      dup2\n        /* \"#utility.yul\":21331:21335   */\n      dup2\n        /* \"#utility.yul\":21327:21339   */\n      slt\n        /* \"#utility.yul\":21323:21324   */\n      0x00\n        /* \"#utility.yul\":21320:21321   */\n      dup5\n        /* \"#utility.yul\":21316:21325   */\n      slt\n        /* \"#utility.yul\":21312:21340   */\n      and\n        /* \"#utility.yul\":21295:21296   */\n      dup3\n        /* \"#utility.yul\":21289:21293   */\n      dup3\n        /* \"#utility.yul\":21285:21297   */\n      sgt\n        /* \"#utility.yul\":21280:21281   */\n      0x00\n        /* \"#utility.yul\":21277:21278   */\n      dup6\n        /* \"#utility.yul\":21273:21282   */\n      slt\n        /* \"#utility.yul\":21266:21283   */\n      iszero\n        /* \"#utility.yul\":21262:21298   */\n      and\n        /* \"#utility.yul\":21246:21350   */\n      or\n        /* \"#utility.yul\":21243:21373   */\n      iszero\n      tag_585\n      jumpi\n        /* \"#utility.yul\":21353:21371   */\n      tag_586\n      tag_373\n      jump\t// in\n    tag_586:\n        /* \"#utility.yul\":21243:21373   */\n    tag_585:\n        /* \"#utility.yul\":21008:21380   */\n      swap3\n      swap2\n      pop\n      pop\n      jump\t// out\n        /* \"#utility.yul\":21386:21614   */\n    tag_305:\n        /* \"#utility.yul\":21421:21424   */\n      0x00\n        /* \"#utility.yul\":21444:21467   */\n      tag_588\n        /* \"#utility.yul\":21461:21466   */\n      dup3\n        /* \"#utility.yul\":21444:21467   */\n      tag_390\n      jump\t// in\n    tag_588:\n        /* \"#utility.yul\":21435:21467   */\n      swap2\n      pop\n        /* \"#utility.yul\":21489:21555   */\n      0x8000000000000000000000000000000000000000000000000000000000000000\n        /* \"#utility.yul\":21482:21487   */\n      dup3\n        /* \"#utility.yul\":21479:21556   */\n      sub\n        /* \"#utility.yul\":21476:21579   */\n      tag_589\n      jumpi\n        /* \"#utility.yul\":21559:21577   */\n      tag_590\n      tag_373\n      jump\t// in\n    tag_590:\n        /* \"#utility.yul\":21476:21579   */\n    tag_589:\n        /* \"#utility.yul\":21602:21607   */\n      dup2\n        /* \"#utility.yul\":21599:21600   */\n      0x00\n        /* \"#utility.yul\":21595:21608   */\n      sub\n        /* \"#utility.yul\":21588:21608   */\n      swap1\n      pop\n        /* \"#utility.yul\":21386:21614   */\n      swap2\n      swap1\n      pop\n      jump\t// out\n\n    auxdata: 0xa26469706673582212204a5c8aa158035cca3c72094780a69ffce4d89a1998c0e19f6f1a3562c247690164736f6c63430008170033\n}\n",
				"bytecode": {
					"linkReferences": {},
					"object": "608060405234801562000010575f80fd5b50335f73ffffffffffffffffffffffffffffffffffffffff168173ffffffffffffffffffffffffffffffffffffffff160362000085575f6040517f1e4fbdf70000000000000000000000000000000000000000000000000000000081526004016200007c9190620001fa565b60405180910390fd5b6200009681620000f660201b60201c565b506001808190555060405180608001604052806101f4815260200161032081526020016104b081526020014281525060045f820151815f015560208201518160010155604082015181600201556060820151816003015590505062000215565b5f805f9054906101000a900473ffffffffffffffffffffffffffffffffffffffff169050815f806101000a81548173ffffffffffffffffffffffffffffffffffffffff021916908373ffffffffffffffffffffffffffffffffffffffff1602179055508173ffffffffffffffffffffffffffffffffffffffff168173ffffffffffffffffffffffffffffffffffffffff167f8be0079c531659141344cd1fd0a4f28419497f9722a3daafe3b4186f6b6457e060405160405180910390a35050565b5f73ffffffffffffffffffffffffffffffffffffffff82169050919050565b5f620001e282620001b7565b9050919050565b620001f481620001d6565b82525050565b5f6020820190506200020f5f830184620001e9565b92915050565b6121d580620002235f395ff3fe60806040526004361061011d575f3560e01c80637d7c2a1c1161009f578063d076e8b411610063578063d076e8b4146103b7578063db2e21bc146103df578063e1e158a5146103f5578063e1f1c4a71461041f578063f2fde38b146104495761011d565b80637d7c2a1c146102f85780638ccbe9f51461030e5780638da5cb5b1461033b57806399e3228714610365578063c85b967d1461038d5761011d565b80632faff427116100e65780632faff42714610211578063324be9ef1461023b578063332d56d7146102655780634c0c87ff146102a4578063715018a6146102e25761011d565b8062349f3a14610121578063071a8ef51461013d5780631edb27e91461016757806322a16952146101a55780632ab8895f146101d2575b5f80fd5b61013b600480360381019061013691906117d0565b610471565b005b348015610148575f80fd5b506101516105ef565b60405161015e919061183a565b60405180910390f35b348015610172575f80fd5b5061018d6004803603810190610188919061187d565b610614565b60405161019c9392919061198b565b60405180910390f35b3480156101b0575f80fd5b506101b961074a565b6040516101c994939291906119c1565b60405180910390f35b3480156101dd575f80fd5b506101f860048036038101906101f3919061187d565b610773565b6040516102089493929190611a13565b60405180910390f35b34801561021c575f80fd5b506102256108e9565b604051610232919061183a565b60405180910390f35b348015610246575f80fd5b5061024f61090e565b60405161025c919061183a565b60405180910390f35b348015610270575f80fd5b5061028b6004803603810190610286919061187d565b610933565b60405161029b9493929190611a65565b60405180910390f35b3480156102af575f80fd5b506102ca60048036038101906102c5919061187d565b610977565b6040516102d993929190611aa8565b60405180910390f35b3480156102ed575f80fd5b506102f661099d565b005b348015610303575f80fd5b5061030c6109b0565b005b348015610319575f80fd5b50610322610b39565b60405161033294939291906119c1565b60405180910390f35b348015610346575f80fd5b5061034f610b56565b60405161035c919061183a565b60405180910390f35b348015610370575f80fd5b5061038b60048036038101906103869190611b07565b610b7d565b005b348015610398575f80fd5b506103a1610bec565b6040516103ae9190611b57565b60405180910390f35b3480156103c2575f80fd5b506103dd60048036038101906103d89190611bd1565b610bf2565b005b3480156103ea575f80fd5b506103f3610df4565b005b348015610400575f80fd5b50610409610fd3565b6040516104169190611b57565b60405180910390f35b34801561042a575f80fd5b50610433610fde565b6040516104409190611b57565b60405180910390f35b348015610454575f80fd5b5061046f600480360381019061046a919061187d565b610fe4565b005b610479611068565b662386f26fc100003410156104c3576040517f08c379a00000000000000000000000000000000000000000000000000000000081526004016104ba90611c88565b60405180910390fd5b60648160ff16111561050a576040517f08c379a000000000000000000000000000000000000000000000000000000000815260040161050190611cf0565b60405180910390fd5b5f60025f3373ffffffffffffffffffffffffffffffffffffffff1673ffffffffffffffffffffffffffffffffffffffff1681526020019081526020015f20905081815f015f6101000a81548160ff021916908360ff16021790555034816001015f8282546105789190611d3b565b925050819055504281600201819055506105933334846110ae565b3373ffffffffffffffffffffffffffffffffffffffff167f0ffa6b713fe8ff42bd695a98451844fdf6abd6dd3999ab520f344f84aff7d2a034846040516105db929190611d6e565b60405180910390a2506105ec61128a565b50565b600a5f9054906101000a900473ffffffffffffffffffffffffffffffffffffffff1681565b61061c61174b565b610624611774565b5f60025f8573ffffffffffffffffffffffffffffffffffffffff1673ffffffffffffffffffffffffffffffffffffffff1681526020019081526020015f206040518060800160405290815f82015f9054906101000a900460ff1660ff1660ff1681526020016001820154815260200160028201548152602001600382015f9054906101000a900460ff161515151581525050925060035f8573ffffffffffffffffffffffffffffffffffffffff1673ffffffffffffffffffffffffffffffffffffffff1681526020019081526020015f206040518060600160405290815f820154815260200160018201548152602001600282015481525050915081604001518260200151835f01516107379190611d3b565b6107419190611d3b565b90509193909250565b5f805f8060045f0154600460010154600460020154600460030154935093509350935090919293565b5f805f805f60025f8773ffffffffffffffffffffffffffffffffffffffff1673ffffffffffffffffffffffffffffffffffffffff1681526020019081526020015f206040518060800160405290815f82015f9054906101000a900460ff1660ff1660ff1681526020016001820154815260200160028201548152602001600382015f9054906101000a900460ff16151515158152505090505f60035f8873ffffffffffffffffffffffffffffffffffffffff1673ffffffffffffffffffffffffffffffffffffffff1681526020019081526020015f206040518060600160405290815f82015481526020016001820154815260200160028201548152505090505f826020015103610891575f805f80955095509550955050506108e2565b5f81604001518260200151835f01516108aa9190611d3b565b6108b49190611d3b565b90506108c381845f0151611293565b8096508197508298505050506108dc82878787856113aa565b96505050505b9193509193565b60085f9054906101000a900473ffffffffffffffffffffffffffffffffffffffff1681565b60095f9054906101000a900473ffffffffffffffffffffffffffffffffffffffff1681565b6002602052805f5260405f205f91509050805f015f9054906101000a900460ff1690806001015490806002015490806003015f9054906101000a900460ff16905084565b6003602052805f5260405f205f91509050805f0154908060010154908060020154905083565b6109a561140a565b6109ae5f611491565b565b6109b8611068565b5f60025f3373ffffffffffffffffffffffffffffffffffffffff1673ffffffffffffffffffffffffffffffffffffffff1681526020019081526020015f2090505f816001015411610a3e576040517f08c379a0000000000000000000000000000000000000000000000000000000008152600401610a3590611ddf565b60405180910390fd5b5f60035f3373ffffffffffffffffffffffffffffffffffffffff1673ffffffffffffffffffffffffffffffffffffffff1681526020019081526020015f2090505f81600201548260010154835f0154610a979190611d3b565b610aa19190611d3b565b90505f805f610abf84875f015f9054906101000a900460ff16611293565b925092509250610ad23386858585611552565b4286600201819055503373ffffffffffffffffffffffffffffffffffffffff167f1427d1942829759938581ce754fd0f7f116bfb7a4b77f80f0cb32cd62c2138c785604051610b219190611b57565b60405180910390a2505050505050610b3761128a565b565b6004805f0154908060010154908060020154908060030154905084565b5f805f9054906101000a900473ffffffffffffffffffffffffffffffffffffffff16905090565b610b8561140a565b8260045f01819055508160046001018190555080600460020181905550426004600301819055507feb5e818d5254a980eae621ccdcf791eb702d2f526caf4d0833b622e27964d549838383604051610bdf93929190611aa8565b60405180910390a1505050565b6101f481565b610bfa61140a565b5f8383604051602001610c0e929190611e39565b604051602081830303815290604052805190602001209050604051602001610c3590611e9b565b604051602081830303815290604052805190602001208103610c96578160085f6101000a81548173ffffffffffffffffffffffffffffffffffffffff021916908373ffffffffffffffffffffffffffffffffffffffff160217905550610db3565b604051602001610ca590611ef9565b604051602081830303815290604052805190602001208103610d06578160095f6101000a81548173ffffffffffffffffffffffffffffffffffffffff021916908373ffffffffffffffffffffffffffffffffffffffff160217905550610db2565b604051602001610d1590611f57565b604051602081830303815290604052805190602001208103610d765781600a5f6101000a81548173ffffffffffffffffffffffffffffffffffffffff021916908373ffffffffffffffffffffffffffffffffffffffff160217905550610db1565b6040517f08c379a0000000000000000000000000000000000000000000000000000000008152600401610da890611fb5565b60405180910390fd5b5b5b7f50df56c33b3bd3dac7a2db51a3f7c8bdaabf78a57ff1fab3a72992006a77e69e848484604051610de69392919061200f565b60405180910390a150505050565b610dfc611068565b5f60035f3373ffffffffffffffffffffffffffffffffffffffff1673ffffffffffffffffffffffffffffffffffffffff1681526020019081526020015f2090505f60025f3373ffffffffffffffffffffffffffffffffffffffff1673ffffffffffffffffffffffffffffffffffffffff1681526020019081526020015f2090505f80835f01541115610eaa57610e94835f015461166d565b81610e9f9190611d3b565b90505f835f01819055505b5f83600101541115610eda57610ec383600101546116b1565b81610ece9190611d3b565b90505f83600101819055505b5f83600201541115610f0a57610ef383600201546116f6565b81610efe9190611d3b565b90505f83600201819055505b5f82600101819055505f4790505f818311610f255782610f27565b815b90505f811115610fc4573373ffffffffffffffffffffffffffffffffffffffff166108fc8290811502906040515f60405180830381858888f19350505050158015610f74573d5f803e3d5ffd5b503373ffffffffffffffffffffffffffffffffffffffff167f7084f5476618d8e60b11ef0d7d3f06914655adb8793e28ff7f018d4c76d505d582604051610fbb9190611b57565b60405180910390a25b5050505050610fd161128a565b565b662386f26fc1000081565b61271081565b610fec61140a565b5f73ffffffffffffffffffffffffffffffffffffffff168173ffffffffffffffffffffffffffffffffffffffff160361105c575f6040517f1e4fbdf7000000000000000000000000000000000000000000000000000000008152600401611053919061183a565b60405180910390fd5b61106581611491565b50565b6002600154036110a4576040517f3ee5aeb500000000000000000000000000000000000000000000000000000000815260040160405180910390fd5b6002600181905550565b5f60035f8573ffffffffffffffffffffffffffffffffffffffff1673ffffffffffffffffffffffffffffffffffffffff1681526020019081526020015f2090505f805f60218560ff161161113e57612710611b588761110d919061203f565b61111791906120ad565b9250612710610bb88761112a919061203f565b61113491906120ad565b91505f90506111fe565b60428560ff16116111a557612710610fa08761115a919061203f565b61116491906120ad565b9250612710610fa087611177919061203f565b61118191906120ad565b91506127106107d087611194919061203f565b61119e91906120ad565b90506111fd565b6127106107d0876111b6919061203f565b6111c091906120ad565b9250612710610bb8876111d3919061203f565b6111dd91906120ad565b9150612710611388876111f0919061203f565b6111fa91906120ad565b90505b5b82845f015f8282546112109190611d3b565b9250508190555081846001015f82825461122a9190611d3b565b9250508190555080846002015f8282546112449190611d3b565b925050819055505f83111561125d5761125c8361173b565b5b5f82111561126f5761126e8261173e565b5b5f8111156112815761128081611741565b5b50505050505050565b60018081905550565b5f805f60218460ff16116112e357612710611b58866112b2919061203f565b6112bc91906120ad565b9250612710610bb8866112cf919061203f565b6112d991906120ad565b91505f90506113a3565b60428460ff161161134a57612710610fa0866112ff919061203f565b61130991906120ad565b9250612710610fa08661131c919061203f565b61132691906120ad565b91506127106107d086611339919061203f565b61134391906120ad565b90506113a2565b6127106107d08661135b919061203f565b61136591906120ad565b9250612710610bb886611378919061203f565b61138291906120ad565b915061271061138886611395919061203f565b61139f91906120ad565b90505b5b9250925092565b5f8085875f0151116113ca57865f0151866113c591906120dd565b6113da565b85875f01516113d991906120dd565b5b90505f6127106101f4856113ee919061203f565b6113f891906120ad565b90508082119250505095945050505050565b611412611744565b73ffffffffffffffffffffffffffffffffffffffff16611430610b56565b73ffffffffffffffffffffffffffffffffffffffff161461148f57611453611744565b6040517f118cdaa7000000000000000000000000000000000000000000000000000000008152600401611486919061183a565b60405180910390fd5b565b5f805f9054906101000a900473ffffffffffffffffffffffffffffffffffffffff169050815f806101000a81548173ffffffffffffffffffffffffffffffffffffffff021916908373ffffffffffffffffffffffffffffffffffffffff1602179055508173ffffffffffffffffffffffffffffffffffffffff168173ffffffffffffffffffffffffffffffffffffffff167f8be0079c531659141344cd1fd0a4f28419497f9722a3daafe3b4186f6b6457e060405160405180910390a35050565b5f845f0154846115629190612119565b90505f8560010154846115759190612119565b90505f8660020154846115889190612119565b90505f808412156115b8575f8461159e90612159565b90506115a98161166d565b826115b49190611d3b565b9150505b5f8312156115e5575f836115cb90612159565b90506115d6816116b1565b826115e19190611d3b565b9150505b5f821215611612575f826115f890612159565b9050611603816116f6565b8261160e9190611d3b565b9150505b5f841315611624576116238461173b565b5b5f831315611636576116358361173e565b5b5f8213156116485761164782611741565b5b86885f0181905550858860010181905550848860020181905550505050505050505050565b5f8061271061016d60045f015461168491906120ad565b6127106116919190611d3b565b8461169c919061203f565b6116a691906120ad565b905080915050919050565b5f8061271061016d6004600101546116c991906120ad565b6127106116d69190611d3b565b846116e1919061203f565b6116eb91906120ad565b905080915050919050565b5f8061271061016d60046002015461170e91906120ad565b61271061171b9190611d3b565b84611726919061203f565b61173091906120ad565b905080915050919050565b50565b50565b50565b5f33905090565b60405180608001604052805f60ff1681526020015f81526020015f81526020015f151581525090565b60405180606001604052805f81526020015f81526020015f81525090565b5f80fd5b5f80fd5b5f60ff82169050919050565b6117af8161179a565b81146117b9575f80fd5b50565b5f813590506117ca816117a6565b92915050565b5f602082840312156117e5576117e4611792565b5b5f6117f2848285016117bc565b91505092915050565b5f73ffffffffffffffffffffffffffffffffffffffff82169050919050565b5f611824826117fb565b9050919050565b6118348161181a565b82525050565b5f60208201905061184d5f83018461182b565b92915050565b61185c8161181a565b8114611866575f80fd5b50565b5f8135905061187781611853565b92915050565b5f6020828403121561189257611891611792565b5b5f61189f84828501611869565b91505092915050565b6118b18161179a565b82525050565b5f819050919050565b6118c9816118b7565b82525050565b5f8115159050919050565b6118e3816118cf565b82525050565b608082015f8201516118fd5f8501826118a8565b50602082015161191060208501826118c0565b50604082015161192360408501826118c0565b50606082015161193660608501826118da565b50505050565b606082015f8201516119505f8501826118c0565b50602082015161196360208501826118c0565b50604082015161197660408501826118c0565b50505050565b611985816118b7565b82525050565b5f6101008201905061199f5f8301866118e9565b6119ac608083018561193c565b6119b960e083018461197c565b949350505050565b5f6080820190506119d45f83018761197c565b6119e1602083018661197c565b6119ee604083018561197c565b6119fb606083018461197c565b95945050505050565b611a0d816118cf565b82525050565b5f608082019050611a265f830187611a04565b611a33602083018661197c565b611a40604083018561197c565b611a4d606083018461197c565b95945050505050565b611a5f8161179a565b82525050565b5f608082019050611a785f830187611a56565b611a85602083018661197c565b611a92604083018561197c565b611a9f6060830184611a04565b95945050505050565b5f606082019050611abb5f83018661197c565b611ac8602083018561197c565b611ad5604083018461197c565b949350505050565b611ae6816118b7565b8114611af0575f80fd5b50565b5f81359050611b0181611add565b92915050565b5f805f60608486031215611b1e57611b1d611792565b5b5f611b2b86828701611af3565b9350506020611b3c86828701611af3565b9250506040611b4d86828701611af3565b9150509250925092565b5f602082019050611b6a5f83018461197c565b92915050565b5f80fd5b5f80fd5b5f80fd5b5f8083601f840112611b9157611b90611b70565b5b8235905067ffffffffffffffff811115611bae57611bad611b74565b5b602083019150836001820283011115611bca57611bc9611b78565b5b9250929050565b5f805f60408486031215611be857611be7611792565b5b5f84013567ffffffffffffffff811115611c0557611c04611796565b5b611c1186828701611b7c565b93509350506020611c2486828701611869565b9150509250925092565b5f82825260208201905092915050565b7f4465706f73697420746f6f20736d616c6c0000000000000000000000000000005f82015250565b5f611c72601183611c2e565b9150611c7d82611c3e565b602082019050919050565b5f6020820190508181035f830152611c9f81611c66565b9050919050565b7f496e76616c6964207269736b2073636f726500000000000000000000000000005f82015250565b5f611cda601283611c2e565b9150611ce582611ca6565b602082019050919050565b5f6020820190508181035f830152611d0781611cce565b9050919050565b7f4e487b71000000000000000000000000000000000000000000000000000000005f52601160045260245ffd5b5f611d45826118b7565b9150611d50836118b7565b9250828201905080821115611d6857611d67611d0e565b5b92915050565b5f604082019050611d815f83018561197c565b611d8e6020830184611a56565b9392505050565b7f4e6f206465706f7369747320746f20726562616c616e636500000000000000005f82015250565b5f611dc9601883611c2e565b9150611dd482611d95565b602082019050919050565b5f6020820190508181035f830152611df681611dbd565b9050919050565b5f81905092915050565b828183375f83830152505050565b5f611e208385611dfd565b9350611e2d838584611e07565b82840190509392505050565b5f611e45828486611e15565b91508190509392505050565b7f7472616465726a6f6500000000000000000000000000000000000000000000005f82015250565b5f611e85600983611dfd565b9150611e9082611e51565b600982019050919050565b5f611ea582611e79565b9150819050919050565b7f62656e71690000000000000000000000000000000000000000000000000000005f82015250565b5f611ee3600583611dfd565b9150611eee82611eaf565b600582019050919050565b5f611f0382611ed7565b9150819050919050565b7f7969656c6479616b0000000000000000000000000000000000000000000000005f82015250565b5f611f41600883611dfd565b9150611f4c82611f0d565b600882019050919050565b5f611f6182611f35565b9150819050919050565b7f496e76616c69642070726f746f636f6c000000000000000000000000000000005f82015250565b5f611f9f601083611c2e565b9150611faa82611f6b565b602082019050919050565b5f6020820190508181035f830152611fcc81611f93565b9050919050565b5f601f19601f8301169050919050565b5f611fee8385611c2e565b9350611ffb838584611e07565b61200483611fd3565b840190509392505050565b5f6040820190508181035f830152612028818587611fe3565b9050612037602083018461182b565b949350505050565b5f612049826118b7565b9150612054836118b7565b9250828202612062816118b7565b9150828204841483151761207957612078611d0e565b5b5092915050565b7f4e487b71000000000000000000000000000000000000000000000000000000005f52601260045260245ffd5b5f6120b7826118b7565b91506120c2836118b7565b9250826120d2576120d1612080565b5b828204905092915050565b5f6120e7826118b7565b91506120f2836118b7565b925082820390508181111561210a57612109611d0e565b5b92915050565b5f819050919050565b5f61212382612110565b915061212e83612110565b925082820390508181125f8412168282135f85121516171561215357612152611d0e565b5b92915050565b5f61216382612110565b91507f8000000000000000000000000000000000000000000000000000000000000000820361219557612194611d0e565b5b815f03905091905056fea26469706673582212204a5c8aa158035cca3c72094780a69ffce4d89a1998c0e19f6f1a3562c247690164736f6c63430008170033",
					"opcodes": "PUSH1 0x80 PUSH1 0x40 MSTORE CALLVALUE DUP1 ISZERO PUSH3 0x10 JUMPI PUSH0 DUP1 REVERT JUMPDEST POP CALLER PUSH0 PUSH20 0xFFFFFFFFFFFFFFFFFFFFFFFFFFFFFFFFFFFFFFFF AND DUP2 PUSH20 0xFFFFFFFFFFFFFFFFFFFFFFFFFFFFFFFFFFFFFFFF AND SUB PUSH3 0x85 JUMPI PUSH0 PUSH1 0x40 MLOAD PUSH32 0x1E4FBDF700000000000000000000000000000000000000000000000000000000 DUP2 MSTORE PUSH1 0x4 ADD PUSH3 0x7C SWAP2 SWAP1 PUSH3 0x1FA JUMP JUMPDEST PUSH1 0x40 MLOAD DUP1 SWAP2 SUB SWAP1 REVERT JUMPDEST PUSH3 0x96 DUP2 PUSH3 0xF6 PUSH1 0x20 SHL PUSH1 0x20 SHR JUMP JUMPDEST POP PUSH1 0x1 DUP1 DUP2 SWAP1 SSTORE POP PUSH1 0x40 MLOAD DUP1 PUSH1 0x80 ADD PUSH1 0x40 MSTORE DUP1 PUSH2 0x1F4 DUP2 MSTORE PUSH1 0x20 ADD PUSH2 0x320 DUP2 MSTORE PUSH1 0x20 ADD PUSH2 0x4B0 DUP2 MSTORE PUSH1 0x20 ADD TIMESTAMP DUP2 MSTORE POP PUSH1 0x4 PUSH0 DUP3 ADD MLOAD DUP2 PUSH0 ADD SSTORE PUSH1 0x20 DUP3 ADD MLOAD DUP2 PUSH1 0x1 ADD SSTORE PUSH1 0x40 DUP3 ADD MLOAD DUP2 PUSH1 0x2 ADD SSTORE PUSH1 0x60 DUP3 ADD MLOAD DUP2 PUSH1 0x3 ADD SSTORE SWAP1 POP POP PUSH3 0x215 JUMP JUMPDEST PUSH0 DUP1 PUSH0 SWAP1 SLOAD SWAP1 PUSH2 0x100 EXP SWAP1 DIV PUSH20 0xFFFFFFFFFFFFFFFFFFFFFFFFFFFFFFFFFFFFFFFF AND SWAP1 POP DUP2 PUSH0 DUP1 PUSH2 0x100 EXP DUP2 SLOAD DUP2 PUSH20 0xFFFFFFFFFFFFFFFFFFFFFFFFFFFFFFFFFFFFFFFF MUL NOT AND SWAP1 DUP4 PUSH20 0xFFFFFFFFFFFFFFFFFFFFFFFFFFFFFFFFFFFFFFFF AND MUL OR SWAP1 SSTORE POP DUP2 PUSH20 0xFFFFFFFFFFFFFFFFFFFFFFFFFFFFFFFFFFFFFFFF AND DUP2 PUSH20 0xFFFFFFFFFFFFFFFFFFFFFFFFFFFFFFFFFFFFFFFF AND PUSH32 0x8BE0079C531659141344CD1FD0A4F28419497F9722A3DAAFE3B4186F6B6457E0 PUSH1 0x40 MLOAD PUSH1 0x40 MLOAD DUP1 SWAP2 SUB SWAP1 LOG3 POP POP JUMP JUMPDEST PUSH0 PUSH20 0xFFFFFFFFFFFFFFFFFFFFFFFFFFFFFFFFFFFFFFFF DUP3 AND SWAP1 POP SWAP2 SWAP1 POP JUMP JUMPDEST PUSH0 PUSH3 0x1E2 DUP3 PUSH3 0x1B7 JUMP JUMPDEST SWAP1 POP SWAP2 SWAP1 POP JUMP JUMPDEST PUSH3 0x1F4 DUP2 PUSH3 0x1D6 JUMP JUMPDEST DUP3 MSTORE POP POP JUMP JUMPDEST PUSH0 PUSH1 0x20 DUP3 ADD SWAP1 POP PUSH3 0x20F PUSH0 DUP4 ADD DUP5 PUSH3 0x1E9 JUMP JUMPDEST SWAP3 SWAP2 POP POP JUMP JUMPDEST PUSH2 0x21D5 DUP1 PUSH3 0x223 PUSH0 CODECOPY PUSH0 RETURN INVALID PUSH1 0x80 PUSH1 0x40 MSTORE PUSH1 0x4 CALLDATASIZE LT PUSH2 0x11D JUMPI PUSH0 CALLDATALOAD PUSH1 0xE0 SHR DUP1 PUSH4 0x7D7C2A1C GT PUSH2 0x9F JUMPI DUP1 PUSH4 0xD076E8B4 GT PUSH2 0x63 JUMPI DUP1 PUSH4 0xD076E8B4 EQ PUSH2 0x3B7 JUMPI DUP1 PUSH4 0xDB2E21BC EQ PUSH2 0x3DF JUMPI DUP1 PUSH4 0xE1E158A5 EQ PUSH2 0x3F5 JUMPI DUP1 PUSH4 0xE1F1C4A7 EQ PUSH2 0x41F JUMPI DUP1 PUSH4 0xF2FDE38B EQ PUSH2 0x449 JUMPI PUSH2 0x11D JUMP JUMPDEST DUP1 PUSH4 0x7D7C2A1C EQ PUSH2 0x2F8 JUMPI DUP1 PUSH4 0x8CCBE9F5 EQ PUSH2 0x30E JUMPI DUP1 PUSH4 0x8DA5CB5B EQ PUSH2 0x33B JUMPI DUP1 PUSH4 0x99E32287 EQ PUSH2 0x365 JUMPI DUP1 PUSH4 0xC85B967D EQ PUSH2 0x38D JUMPI PUSH2 0x11D JUMP JUMPDEST DUP1 PUSH4 0x2FAFF427 GT PUSH2 0xE6 JUMPI DUP1 PUSH4 0x2FAFF427 EQ PUSH2 0x211 JUMPI DUP1 PUSH4 0x324BE9EF EQ PUSH2 0x23B JUMPI DUP1 PUSH4 0x332D56D7 EQ PUSH2 0x265 JUMPI DUP1 PUSH4 0x4C0C87FF EQ PUSH2 0x2A4 JUMPI DUP1 PUSH4 0x715018A6 EQ PUSH2 0x2E2 JUMPI PUSH2 0x11D JUMP JUMPDEST DUP1 PUSH3 0x349F3A EQ PUSH2 0x121 JUMPI DUP1 PUSH4 0x71A8EF5 EQ PUSH2 0x13D JUMPI DUP1 PUSH4 0x1EDB27E9 EQ PUSH2 0x167 JUMPI DUP1 PUSH4 0x22A16952 EQ PUSH2 0x1A5 JUMPI DUP1 PUSH4 0x2AB8895F EQ PUSH2 0x1D2 JUMPI JUMPDEST PUSH0 DUP1 REVERT JUMPDEST PUSH2 0x13B PUSH1 0x4 DUP1 CALLDATASIZE SUB DUP2 ADD SWAP1 PUSH2 0x136 SWAP2 SWAP1 PUSH2 0x17D0 JUMP JUMPDEST PUSH2 0x471 JUMP JUMPDEST STOP JUMPDEST CALLVALUE DUP1 ISZERO PUSH2 0x148 JUMPI PUSH0 DUP1 REVERT JUMPDEST POP PUSH2 0x151 PUSH2 0x5EF JUMP JUMPDEST PUSH1 0x40 MLOAD PUSH2 0x15E SWAP2 SWAP1 PUSH2 0x183A JUMP JUMPDEST PUSH1 0x40 MLOAD DUP1 SWAP2 SUB SWAP1 RETURN JUMPDEST CALLVALUE DUP1 ISZERO PUSH2 0x172 JUMPI PUSH0 DUP1 REVERT JUMPDEST POP PUSH2 0x18D PUSH1 0x4 DUP1 CALLDATASIZE SUB DUP2 ADD SWAP1 PUSH2 0x188 SWAP2 SWAP1 PUSH2 0x187D JUMP JUMPDEST PUSH2 0x614 JUMP JUMPDEST PUSH1 0x40 MLOAD PUSH2 0x19C SWAP4 SWAP3 SWAP2 SWAP1 PUSH2 0x198B JUMP JUMPDEST PUSH1 0x40 MLOAD DUP1 SWAP2 SUB SWAP1 RETURN JUMPDEST CALLVALUE DUP1 ISZERO PUSH2 0x1B0 JUMPI PUSH0 DUP1 REVERT JUMPDEST POP PUSH2 0x1B9 PUSH2 0x74A JUMP JUMPDEST PUSH1 0x40 MLOAD PUSH2 0x1C9 SWAP5 SWAP4 SWAP3 SWAP2 SWAP1 PUSH2 0x19C1 JUMP JUMPDEST PUSH1 0x40 MLOAD DUP1 SWAP2 SUB SWAP1 RETURN JUMPDEST CALLVALUE DUP1 ISZERO PUSH2 0x1DD JUMPI PUSH0 DUP1 REVERT JUMPDEST POP PUSH2 0x1F8 PUSH1 0x4 DUP1 CALLDATASIZE SUB DUP2 ADD SWAP1 PUSH2 0x1F3 SWAP2 SWAP1 PUSH2 0x187D JUMP JUMPDEST PUSH2 0x773 JUMP JUMPDEST PUSH1 0x40 MLOAD PUSH2 0x208 SWAP5 SWAP4 SWAP3 SWAP2 SWAP1 PUSH2 0x1A13 JUMP JUMPDEST PUSH1 0x40 MLOAD DUP1 SWAP2 SUB SWAP1 RETURN JUMPDEST CALLVALUE DUP1 ISZERO PUSH2 0x21C JUMPI PUSH0 DUP1 REVERT JUMPDEST POP PUSH2 0x225 PUSH2 0x8E9 JUMP JUMPDEST PUSH1 0x40 MLOAD PUSH2 0x232 SWAP2 SWAP1 PUSH2 0x183A JUMP JUMPDEST PUSH1 0x40 MLOAD DUP1 SWAP2 SUB SWAP1 RETURN JUMPDEST CALLVALUE DUP1 ISZERO PUSH2 0x246 JUMPI PUSH0 DUP1 REVERT JUMPDEST POP PUSH2 0x24F PUSH2 0x90E JUMP JUMPDEST PUSH1 0x40 MLOAD PUSH2 0x25C SWAP2 SWAP1 PUSH2 0x183A JUMP JUMPDEST PUSH1 0x40 MLOAD DUP1 SWAP2 SUB SWAP1 RETURN JUMPDEST CALLVALUE DUP1 ISZERO PUSH2 0x270 JUMPI PUSH0 DUP1 REVERT JUMPDEST POP PUSH2 0x28B PUSH1 0x4 DUP1 CALLDATASIZE SUB DUP2 ADD SWAP1 PUSH2 0x286 SWAP2 SWAP1 PUSH2 0x187D JUMP JUMPDEST PUSH2 0x933 JUMP JUMPDEST PUSH1 0x40 MLOAD PUSH2 0x29B SWAP5 SWAP4 SWAP3 SWAP2 SWAP1 PUSH2 0x1A65 JUMP JUMPDEST PUSH1 0x40 MLOAD DUP1 SWAP2 SUB SWAP1 RETURN JUMPDEST CALLVALUE DUP1 ISZERO PUSH2 0x2AF JUMPI PUSH0 DUP1 REVERT JUMPDEST POP PUSH2 0x2CA PUSH1 0x4 DUP1 CALLDATASIZE SUB DUP2 ADD SWAP1 PUSH2 0x2C5 SWAP2 SWAP1 PUSH2 0x187D JUMP JUMPDEST PUSH2 0x977 JUMP JUMPDEST PUSH1 0x40 MLOAD PUSH2 0x2D9 SWAP4 SWAP3 SWAP2 SWAP1 PUSH2 0x1AA8 JUMP JUMPDEST PUSH1 0x40 MLOAD DUP1 SWAP2 SUB SWAP1 RETURN JUMPDEST CALLVALUE DUP1 ISZERO PUSH2 0x2ED JUMPI PUSH0 DUP1 REVERT JUMPDEST POP PUSH2 0x2F6 PUSH2 0x99D JUMP JUMPDEST STOP JUMPDEST CALLVALUE DUP1 ISZERO PUSH2 0x303 JUMPI PUSH0 DUP1 REVERT JUMPDEST POP PUSH2 0x30C PUSH2 0x9B0 JUMP JUMPDEST STOP JUMPDEST CALLVALUE DUP1 ISZERO PUSH2 0x319 JUMPI PUSH0 DUP1 REVERT JUMPDEST POP PUSH2 0x322 PUSH2 0xB39 JUMP JUMPDEST PUSH1 0x40 MLOAD PUSH2 0x332 SWAP5 SWAP4 SWAP3 SWAP2 SWAP1 PUSH2 0x19C1 JUMP JUMPDEST PUSH1 0x40 MLOAD DUP1 SWAP2 SUB SWAP1 RETURN JUMPDEST CALLVALUE DUP1 ISZERO PUSH2 0x346 JUMPI PUSH0 DUP1 REVERT JUMPDEST POP PUSH2 0x34F PUSH2 0xB56 JUMP JUMPDEST PUSH1 0x40 MLOAD PUSH2 0x35C SWAP2 SWAP1 PUSH2 0x183A JUMP JUMPDEST PUSH1 0x40 MLOAD DUP1 SWAP2 SUB SWAP1 RETURN JUMPDEST CALLVALUE DUP1 ISZERO PUSH2 0x370 JUMPI PUSH0 DUP1 REVERT JUMPDEST POP PUSH2 0x38B PUSH1 0x4 DUP1 CALLDATASIZE SUB DUP2 ADD SWAP1 PUSH2 0x386 SWAP2 SWAP1 PUSH2 0x1B07 JUMP JUMPDEST PUSH2 0xB7D JUMP JUMPDEST STOP JUMPDEST CALLVALUE DUP1 ISZERO PUSH2 0x398 JUMPI PUSH0 DUP1 REVERT JUMPDEST POP PUSH2 0x3A1 PUSH2 0xBEC JUMP JUMPDEST PUSH1 0x40 MLOAD PUSH2 0x3AE SWAP2 SWAP1 PUSH2 0x1B57 JUMP JUMPDEST PUSH1 0x40 MLOAD DUP1 SWAP2 SUB SWAP1 RETURN JUMPDEST CALLVALUE DUP1 ISZERO PUSH2 0x3C2 JUMPI PUSH0 DUP1 REVERT JUMPDEST POP PUSH2 0x3DD PUSH1 0x4 DUP1 CALLDATASIZE SUB DUP2 ADD SWAP1 PUSH2 0x3D8 SWAP2 SWAP1 PUSH2 0x1BD1 JUMP JUMPDEST PUSH2 0xBF2 JUMP JUMPDEST STOP JUMPDEST CALLVALUE DUP1 ISZERO PUSH2 0x3EA JUMPI PUSH0 DUP1 REVERT JUMPDEST POP PUSH2 0x3F3 PUSH2 0xDF4 JUMP JUMPDEST STOP JUMPDEST CALLVALUE DUP1 ISZERO PUSH2 0x400 JUMPI PUSH0 DUP1 REVERT JUMPDEST POP PUSH2 0x409 PUSH2 0xFD3 JUMP JUMPDEST PUSH1 0x40 MLOAD PUSH2 0x416 SWAP2 SWAP1 PUSH2 0x1B57 JUMP JUMPDEST PUSH1 0x40 MLOAD DUP1 SWAP2 SUB SWAP1 RETURN JUMPDEST CALLVALUE DUP1 ISZERO PUSH2 0x42A JUMPI PUSH0 DUP1 REVERT JUMPDEST POP PUSH2 0x433 PUSH2 0xFDE JUMP JUMPDEST PUSH1 0x40 MLOAD PUSH2 0x440 SWAP2 SWAP1 PUSH2 0x1B57 JUMP JUMPDEST PUSH1 0x40 MLOAD DUP1 SWAP2 SUB SWAP1 RETURN JUMPDEST CALLVALUE DUP1 ISZERO PUSH2 0x454 JUMPI PUSH0 DUP1 REVERT JUMPDEST POP PUSH2 0x46F PUSH1 0x4 DUP1 CALLDATASIZE SUB DUP2 ADD SWAP1 PUSH2 0x46A SWAP2 SWAP1 PUSH2 0x187D JUMP JUMPDEST PUSH2 0xFE4 JUMP JUMPDEST STOP JUMPDEST PUSH2 0x479 PUSH2 0x1068 JUMP JUMPDEST PUSH7 0x2386F26FC10000 CALLVALUE LT ISZERO PUSH2 0x4C3 JUMPI PUSH1 0x40 MLOAD PUSH32 0x8C379A000000000000000000000000000000000000000000000000000000000 DUP2 MSTORE PUSH1 0x4 ADD PUSH2 0x4BA SWAP1 PUSH2 0x1C88 JUMP JUMPDEST PUSH1 0x40 MLOAD DUP1 SWAP2 SUB SWAP1 REVERT JUMPDEST PUSH1 0x64 DUP2 PUSH1 0xFF AND GT ISZERO PUSH2 0x50A JUMPI PUSH1 0x40 MLOAD PUSH32 0x8C379A000000000000000000000000000000000000000000000000000000000 DUP2 MSTORE PUSH1 0x4 ADD PUSH2 0x501 SWAP1 PUSH2 0x1CF0 JUMP JUMPDEST PUSH1 0x40 MLOAD DUP1 SWAP2 SUB SWAP1 REVERT JUMPDEST PUSH0 PUSH1 0x2 PUSH0 CALLER PUSH20 0xFFFFFFFFFFFFFFFFFFFFFFFFFFFFFFFFFFFFFFFF AND PUSH20 0xFFFFFFFFFFFFFFFFFFFFFFFFFFFFFFFFFFFFFFFF AND DUP2 MSTORE PUSH1 0x20 ADD SWAP1 DUP2 MSTORE PUSH1 0x20 ADD PUSH0 KECCAK256 SWAP1 POP DUP2 DUP2 PUSH0 ADD PUSH0 PUSH2 0x100 EXP DUP2 SLOAD DUP2 PUSH1 0xFF MUL NOT AND SWAP1 DUP4 PUSH1 0xFF AND MUL OR SWAP1 SSTORE POP CALLVALUE DUP2 PUSH1 0x1 ADD PUSH0 DUP3 DUP3 SLOAD PUSH2 0x578 SWAP2 SWAP1 PUSH2 0x1D3B JUMP JUMPDEST SWAP3 POP POP DUP2 SWAP1 SSTORE POP TIMESTAMP DUP2 PUSH1 0x2 ADD DUP2 SWAP1 SSTORE POP PUSH2 0x593 CALLER CALLVALUE DUP5 PUSH2 0x10AE JUMP JUMPDEST CALLER PUSH20 0xFFFFFFFFFFFFFFFFFFFFFFFFFFFFFFFFFFFFFFFF AND PUSH32 0xFFA6B713FE8FF42BD695A98451844FDF6ABD6DD3999AB520F344F84AFF7D2A0 CALLVALUE DUP5 PUSH1 0x40 MLOAD PUSH2 0x5DB SWAP3 SWAP2 SWAP1 PUSH2 0x1D6E JUMP JUMPDEST PUSH1 0x40 MLOAD DUP1 SWAP2 SUB SWAP1 LOG2 POP PUSH2 0x5EC PUSH2 0x128A JUMP JUMPDEST POP JUMP JUMPDEST PUSH1 0xA PUSH0 SWAP1 SLOAD SWAP1 PUSH2 0x100 EXP SWAP1 DIV PUSH20 0xFFFFFFFFFFFFFFFFFFFFFFFFFFFFFFFFFFFFFFFF AND DUP2 JUMP JUMPDEST PUSH2 0x61C PUSH2 0x174B JUMP JUMPDEST PUSH2 0x624 PUSH2 0x1774 JUMP JUMPDEST PUSH0 PUSH1 0x2 PUSH0 DUP6 PUSH20 0xFFFFFFFFFFFFFFFFFFFFFFFFFFFFFFFFFFFFFFFF AND PUSH20 0xFFFFFFFFFFFFFFFFFFFFFFFFFFFFFFFFFFFFFFFF AND DUP2 MSTORE PUSH1 0x20 ADD SWAP1 DUP2 MSTORE PUSH1 0x20 ADD PUSH0 KECCAK256 PUSH1 0x40 MLOAD DUP1 PUSH1 0x80 ADD PUSH1 0x40 MSTORE SWAP1 DUP2 PUSH0 DUP3 ADD PUSH0 SWAP1 SLOAD SWAP1 PUSH2 0x100 EXP SWAP1 DIV PUSH1 0xFF AND PUSH1 0xFF AND PUSH1 0xFF AND DUP2 MSTORE PUSH1 0x20 ADD PUSH1 0x1 DUP3 ADD SLOAD DUP2 MSTORE PUSH1 0x20 ADD PUSH1 0x2 DUP3 ADD SLOAD DUP2 MSTORE PUSH1 0x20 ADD PUSH1 0x3 DUP3 ADD PUSH0 SWAP1 SLOAD SWAP1 PUSH2 0x100 EXP SWAP1 DIV PUSH1 0xFF AND ISZERO ISZERO ISZERO ISZERO DUP2 MSTORE POP POP SWAP3 POP PUSH1 0x3 PUSH0 DUP6 PUSH20 0xFFFFFFFFFFFFFFFFFFFFFFFFFFFFFFFFFFFFFFFF AND PUSH20 0xFFFFFFFFFFFFFFFFFFFFFFFFFFFFFFFFFFFFFFFF AND DUP2 MSTORE PUSH1 0x20 ADD SWAP1 DUP2 MSTORE PUSH1 0x20 ADD PUSH0 KECCAK256 PUSH1 0x40 MLOAD DUP1 PUSH1 0x60 ADD PUSH1 0x40 MSTORE SWAP1 DUP2 PUSH0 DUP3 ADD SLOAD DUP2 MSTORE PUSH1 0x20 ADD PUSH1 0x1 DUP3 ADD SLOAD DUP2 MSTORE PUSH1 0x20 ADD PUSH1 0x2 DUP3 ADD SLOAD DUP2 MSTORE POP POP SWAP2 POP DUP2 PUSH1 0x40 ADD MLOAD DUP3 PUSH1 0x20 ADD MLOAD DUP4 PUSH0 ADD MLOAD PUSH2 0x737 SWAP2 SWAP1 PUSH2 0x1D3B JUMP JUMPDEST PUSH2 0x741 SWAP2 SWAP1 PUSH2 0x1D3B JUMP JUMPDEST SWAP1 POP SWAP2 SWAP4 SWAP1 SWAP3 POP JUMP JUMPDEST PUSH0 DUP1 PUSH0 DUP1 PUSH1 0x4 PUSH0 ADD SLOAD PUSH1 0x4 PUSH1 0x1 ADD SLOAD PUSH1 0x4 PUSH1 0x2 ADD SLOAD PUSH1 0x4 PUSH1 0x3 ADD SLOAD SWAP4 POP SWAP4 POP SWAP4 POP SWAP4 POP SWAP1 SWAP2 SWAP3 SWAP4 JUMP JUMPDEST PUSH0 DUP1 PUSH0 DUP1 PUSH0 PUSH1 0x2 PUSH0 DUP8 PUSH20 0xFFFFFFFFFFFFFFFFFFFFFFFFFFFFFFFFFFFFFFFF AND PUSH20 0xFFFFFFFFFFFFFFFFFFFFFFFFFFFFFFFFFFFFFFFF AND DUP2 MSTORE PUSH1 0x20 ADD SWAP1 DUP2 MSTORE PUSH1 0x20 ADD PUSH0 KECCAK256 PUSH1 0x40 MLOAD DUP1 PUSH1 0x80 ADD PUSH1 0x40 MSTORE SWAP1 DUP2 PUSH0 DUP3 ADD PUSH0 SWAP1 SLOAD SWAP1 PUSH2 0x100 EXP SWAP1 DIV PUSH1 0xFF AND PUSH1 0xFF AND PUSH1 0xFF AND DUP2 MSTORE PUSH1 0x20 ADD PUSH1 0x1 DUP3 ADD SLOAD DUP2 MSTORE PUSH1 0x20 ADD PUSH1 0x2 DUP3 ADD SLOAD DUP2 MSTORE PUSH1 0x20 ADD PUSH1 0x3 DUP3 ADD PUSH0 SWAP1 SLOAD SWAP1 PUSH2 0x100 EXP SWAP1 DIV PUSH1 0xFF AND ISZERO ISZERO ISZERO ISZERO DUP2 MSTORE POP POP SWAP1 POP PUSH0 PUSH1 0x3 PUSH0 DUP9 PUSH20 0xFFFFFFFFFFFFFFFFFFFFFFFFFFFFFFFFFFFFFFFF AND PUSH20 0xFFFFFFFFFFFFFFFFFFFFFFFFFFFFFFFFFFFFFFFF AND DUP2 MSTORE PUSH1 0x20 ADD SWAP1 DUP2 MSTORE PUSH1 0x20 ADD PUSH0 KECCAK256 PUSH1 0x40 MLOAD DUP1 PUSH1 0x60 ADD PUSH1 0x40 MSTORE SWAP1 DUP2 PUSH0 DUP3 ADD SLOAD DUP2 MSTORE PUSH1 0x20 ADD PUSH1 0x1 DUP3 ADD SLOAD DUP2 MSTORE PUSH1 0x20 ADD PUSH1 0x2 DUP3 ADD SLOAD DUP2 MSTORE POP POP SWAP1 POP PUSH0 DUP3 PUSH1 0x20 ADD MLOAD SUB PUSH2 0x891 JUMPI PUSH0 DUP1 PUSH0 DUP1 SWAP6 POP SWAP6 POP SWAP6 POP SWAP6 POP POP POP PUSH2 0x8E2 JUMP JUMPDEST PUSH0 DUP2 PUSH1 0x40 ADD MLOAD DUP3 PUSH1 0x20 ADD MLOAD DUP4 PUSH0 ADD MLOAD PUSH2 0x8AA SWAP2 SWAP1 PUSH2 0x1D3B JUMP JUMPDEST PUSH2 0x8B4 SWAP2 SWAP1 PUSH2 0x1D3B JUMP JUMPDEST SWAP1 POP PUSH2 0x8C3 DUP2 DUP5 PUSH0 ADD MLOAD PUSH2 0x1293 JUMP JUMPDEST DUP1 SWAP7 POP DUP2 SWAP8 POP DUP3 SWAP9 POP POP POP POP PUSH2 0x8DC DUP3 DUP8 DUP8 DUP8 DUP6 PUSH2 0x13AA JUMP JUMPDEST SWAP7 POP POP POP POP JUMPDEST SWAP2 SWAP4 POP SWAP2 SWAP4 JUMP JUMPDEST PUSH1 0x8 PUSH0 SWAP1 SLOAD SWAP1 PUSH2 0x100 EXP SWAP1 DIV PUSH20 0xFFFFFFFFFFFFFFFFFFFFFFFFFFFFFFFFFFFFFFFF AND DUP2 JUMP JUMPDEST PUSH1 0x9 PUSH0 SWAP1 SLOAD SWAP1 PUSH2 0x100 EXP SWAP1 DIV PUSH20 0xFFFFFFFFFFFFFFFFFFFFFFFFFFFFFFFFFFFFFFFF AND DUP2 JUMP JUMPDEST PUSH1 0x2 PUSH1 0x20 MSTORE DUP1 PUSH0 MSTORE PUSH1 0x40 PUSH0 KECCAK256 PUSH0 SWAP2 POP SWAP1 POP DUP1 PUSH0 ADD PUSH0 SWAP1 SLOAD SWAP1 PUSH2 0x100 EXP SWAP1 DIV PUSH1 0xFF AND SWAP1 DUP1 PUSH1 0x1 ADD SLOAD SWAP1 DUP1 PUSH1 0x2 ADD SLOAD SWAP1 DUP1 PUSH1 0x3 ADD PUSH0 SWAP1 SLOAD SWAP1 PUSH2 0x100 EXP SWAP1 DIV PUSH1 0xFF AND SWAP1 POP DUP5 JUMP JUMPDEST PUSH1 0x3 PUSH1 0x20 MSTORE DUP1 PUSH0 MSTORE PUSH1 0x40 PUSH0 KECCAK256 PUSH0 SWAP2 POP SWAP1 POP DUP1 PUSH0 ADD SLOAD SWAP1 DUP1 PUSH1 0x1 ADD SLOAD SWAP1 DUP1 PUSH1 0x2 ADD SLOAD SWAP1 POP DUP4 JUMP JUMPDEST PUSH2 0x9A5 PUSH2 0x140A JUMP JUMPDEST PUSH2 0x9AE PUSH0 PUSH2 0x1491 JUMP JUMPDEST JUMP JUMPDEST PUSH2 0x9B8 PUSH2 0x1068 JUMP JUMPDEST PUSH0 PUSH1 0x2 PUSH0 CALLER PUSH20 0xFFFFFFFFFFFFFFFFFFFFFFFFFFFFFFFFFFFFFFFF AND PUSH20 0xFFFFFFFFFFFFFFFFFFFFFFFFFFFFFFFFFFFFFFFF AND DUP2 MSTORE PUSH1 0x20 ADD SWAP1 DUP2 MSTORE PUSH1 0x20 ADD PUSH0 KECCAK256 SWAP1 POP PUSH0 DUP2 PUSH1 0x1 ADD SLOAD GT PUSH2 0xA3E JUMPI PUSH1 0x40 MLOAD PUSH32 0x8C379A000000000000000000000000000000000000000000000000000000000 DUP2 MSTORE PUSH1 0x4 ADD PUSH2 0xA35 SWAP1 PUSH2 0x1DDF JUMP JUMPDEST PUSH1 0x40 MLOAD DUP1 SWAP2 SUB SWAP1 REVERT JUMPDEST PUSH0 PUSH1 0x3 PUSH0 CALLER PUSH20 0xFFFFFFFFFFFFFFFFFFFFFFFFFFFFFFFFFFFFFFFF AND PUSH20 0xFFFFFFFFFFFFFFFFFFFFFFFFFFFFFFFFFFFFFFFF AND DUP2 MSTORE PUSH1 0x20 ADD SWAP1 DUP2 MSTORE PUSH1 0x20 ADD PUSH0 KECCAK256 SWAP1 POP PUSH0 DUP2 PUSH1 0x2 ADD SLOAD DUP3 PUSH1 0x1 ADD SLOAD DUP4 PUSH0 ADD SLOAD PUSH2 0xA97 SWAP2 SWAP1 PUSH2 0x1D3B JUMP JUMPDEST PUSH2 0xAA1 SWAP2 SWAP1 PUSH2 0x1D3B JUMP JUMPDEST SWAP1 POP PUSH0 DUP1 PUSH0 PUSH2 0xABF DUP5 DUP8 PUSH0 ADD PUSH0 SWAP1 SLOAD SWAP1 PUSH2 0x100 EXP SWAP1 DIV PUSH1 0xFF AND PUSH2 0x1293 JUMP JUMPDEST SWAP3 POP SWAP3 POP SWAP3 POP PUSH2 0xAD2 CALLER DUP7 DUP6 DUP6 DUP6 PUSH2 0x1552 JUMP JUMPDEST TIMESTAMP DUP7 PUSH1 0x2 ADD DUP2 SWAP1 SSTORE POP CALLER PUSH20 0xFFFFFFFFFFFFFFFFFFFFFFFFFFFFFFFFFFFFFFFF AND PUSH32 0x1427D1942829759938581CE754FD0F7F116BFB7A4B77F80F0CB32CD62C2138C7 DUP6 PUSH1 0x40 MLOAD PUSH2 0xB21 SWAP2 SWAP1 PUSH2 0x1B57 JUMP JUMPDEST PUSH1 0x40 MLOAD DUP1 SWAP2 SUB SWAP1 LOG2 POP POP POP POP POP POP PUSH2 0xB37 PUSH2 0x128A JUMP JUMPDEST JUMP JUMPDEST PUSH1 0x4 DUP1 PUSH0 ADD SLOAD SWAP1 DUP1 PUSH1 0x1 ADD SLOAD SWAP1 DUP1 PUSH1 0x2 ADD SLOAD SWAP1 DUP1 PUSH1 0x3 ADD SLOAD SWAP1 POP DUP5 JUMP JUMPDEST PUSH0 DUP1 PUSH0 SWAP1 SLOAD SWAP1 PUSH2 0x100 EXP SWAP1 DIV PUSH20 0xFFFFFFFFFFFFFFFFFFFFFFFFFFFFFFFFFFFFFFFF AND SWAP1 POP SWAP1 JUMP JUMPDEST PUSH2 0xB85 PUSH2 0x140A JUMP JUMPDEST DUP3 PUSH1 0x4 PUSH0 ADD DUP2 SWAP1 SSTORE POP DUP2 PUSH1 0x4 PUSH1 0x1 ADD DUP2 SWAP1 SSTORE POP DUP1 PUSH1 0x4 PUSH1 0x2 ADD DUP2 SWAP1 SSTORE POP TIMESTAMP PUSH1 0x4 PUSH1 0x3 ADD DUP2 SWAP1 SSTORE POP PUSH32 0xEB5E818D5254A980EAE621CCDCF791EB702D2F526CAF4D0833B622E27964D549 DUP4 DUP4 DUP4 PUSH1 0x40 MLOAD PUSH2 0xBDF SWAP4 SWAP3 SWAP2 SWAP1 PUSH2 0x1AA8 JUMP JUMPDEST PUSH1 0x40 MLOAD DUP1 SWAP2 SUB SWAP1 LOG1 POP POP POP JUMP JUMPDEST PUSH2 0x1F4 DUP2 JUMP JUMPDEST PUSH2 0xBFA PUSH2 0x140A JUMP JUMPDEST PUSH0 DUP4 DUP4 PUSH1 0x40 MLOAD PUSH1 0x20 ADD PUSH2 0xC0E SWAP3 SWAP2 SWAP1 PUSH2 0x1E39 JUMP JUMPDEST PUSH1 0x40 MLOAD PUSH1 0x20 DUP2 DUP4 SUB SUB DUP2 MSTORE SWAP1 PUSH1 0x40 MSTORE DUP1 MLOAD SWAP1 PUSH1 0x20 ADD KECCAK256 SWAP1 POP PUSH1 0x40 MLOAD PUSH1 0x20 ADD PUSH2 0xC35 SWAP1 PUSH2 0x1E9B JUMP JUMPDEST PUSH1 0x40 MLOAD PUSH1 0x20 DUP2 DUP4 SUB SUB DUP2 MSTORE SWAP1 PUSH1 0x40 MSTORE DUP1 MLOAD SWAP1 PUSH1 0x20 ADD KECCAK256 DUP2 SUB PUSH2 0xC96 JUMPI DUP2 PUSH1 0x8 PUSH0 PUSH2 0x100 EXP DUP2 SLOAD DUP2 PUSH20 0xFFFFFFFFFFFFFFFFFFFFFFFFFFFFFFFFFFFFFFFF MUL NOT AND SWAP1 DUP4 PUSH20 0xFFFFFFFFFFFFFFFFFFFFFFFFFFFFFFFFFFFFFFFF AND MUL OR SWAP1 SSTORE POP PUSH2 0xDB3 JUMP JUMPDEST PUSH1 0x40 MLOAD PUSH1 0x20 ADD PUSH2 0xCA5 SWAP1 PUSH2 0x1EF9 JUMP JUMPDEST PUSH1 0x40 MLOAD PUSH1 0x20 DUP2 DUP4 SUB SUB DUP2 MSTORE SWAP1 PUSH1 0x40 MSTORE DUP1 MLOAD SWAP1 PUSH1 0x20 ADD KECCAK256 DUP2 SUB PUSH2 0xD06 JUMPI DUP2 PUSH1 0x9 PUSH0 PUSH2 0x100 EXP DUP2 SLOAD DUP2 PUSH20 0xFFFFFFFFFFFFFFFFFFFFFFFFFFFFFFFFFFFFFFFF MUL NOT AND SWAP1 DUP4 PUSH20 0xFFFFFFFFFFFFFFFFFFFFFFFFFFFFFFFFFFFFFFFF AND MUL OR SWAP1 SSTORE POP PUSH2 0xDB2 JUMP JUMPDEST PUSH1 0x40 MLOAD PUSH1 0x20 ADD PUSH2 0xD15 SWAP1 PUSH2 0x1F57 JUMP JUMPDEST PUSH1 0x40 MLOAD PUSH1 0x20 DUP2 DUP4 SUB SUB DUP2 MSTORE SWAP1 PUSH1 0x40 MSTORE DUP1 MLOAD SWAP1 PUSH1 0x20 ADD KECCAK256 DUP2 SUB PUSH2 0xD76 JUMPI DUP2 PUSH1 0xA PUSH0 PUSH2 0x100 EXP DUP2 SLOAD DUP2 PUSH20 0xFFFFFFFFFFFFFFFFFFFFFFFFFFFFFFFFFFFFFFFF MUL NOT AND SWAP1 DUP4 PUSH20 0xFFFFFFFFFFFFFFFFFFFFFFFFFFFFFFFFFFFFFFFF AND MUL OR SWAP1 SSTORE POP PUSH2 0xDB1 JUMP JUMPDEST PUSH1 0x40 MLOAD PUSH32 0x8C379A000000000000000000000000000000000000000000000000000000000 DUP2 MSTORE PUSH1 0x4 ADD PUSH2 0xDA8 SWAP1 PUSH2 0x1FB5 JUMP JUMPDEST PUSH1 0x40 MLOAD DUP1 SWAP2 SUB SWAP1 REVERT JUMPDEST JUMPDEST JUMPDEST PUSH32 0x50DF56C33B3BD3DAC7A2DB51A3F7C8BDAABF78A57FF1FAB3A72992006A77E69E DUP5 DUP5 DUP5 PUSH1 0x40 MLOAD PUSH2 0xDE6 SWAP4 SWAP3 SWAP2 SWAP1 PUSH2 0x200F JUMP JUMPDEST PUSH1 0x40 MLOAD DUP1 SWAP2 SUB SWAP1 LOG1 POP POP POP POP JUMP JUMPDEST PUSH2 0xDFC PUSH2 0x1068 JUMP JUMPDEST PUSH0 PUSH1 0x3 PUSH0 CALLER PUSH20 0xFFFFFFFFFFFFFFFFFFFFFFFFFFFFFFFFFFFFFFFF AND PUSH20 0xFFFFFFFFFFFFFFFFFFFFFFFFFFFFFFFFFFFFFFFF AND DUP2 MSTORE PUSH1 0x20 ADD SWAP1 DUP2 MSTORE PUSH1 0x20 ADD PUSH0 KECCAK256 SWAP1 POP PUSH0 PUSH1 0x2 PUSH0 CALLER PUSH20 0xFFFFFFFFFFFFFFFFFFFFFFFFFFFFFFFFFFFFFFFF AND PUSH20 0xFFFFFFFFFFFFFFFFFFFFFFFFFFFFFFFFFFFFFFFF AND DUP2 MSTORE PUSH1 0x20 ADD SWAP1 DUP2 MSTORE PUSH1 0x20 ADD PUSH0 KECCAK256 SWAP1 POP PUSH0 DUP1 DUP4 PUSH0 ADD SLOAD GT ISZERO PUSH2 0xEAA JUMPI PUSH2 0xE94 DUP4 PUSH0 ADD SLOAD PUSH2 0x166D JUMP JUMPDEST DUP2 PUSH2 0xE9F SWAP2 SWAP1 PUSH2 0x1D3B JUMP JUMPDEST SWAP1 POP PUSH0 DUP4 PUSH0 ADD DUP2 SWAP1 SSTORE POP JUMPDEST PUSH0 DUP4 PUSH1 0x1 ADD SLOAD GT ISZERO PUSH2 0xEDA JUMPI PUSH2 0xEC3 DUP4 PUSH1 0x1 ADD SLOAD PUSH2 0x16B1 JUMP JUMPDEST DUP2 PUSH2 0xECE SWAP2 SWAP1 PUSH2 0x1D3B JUMP JUMPDEST SWAP1 POP PUSH0 DUP4 PUSH1 0x1 ADD DUP2 SWAP1 SSTORE POP JUMPDEST PUSH0 DUP4 PUSH1 0x2 ADD SLOAD GT ISZERO PUSH2 0xF0A JUMPI PUSH2 0xEF3 DUP4 PUSH1 0x2 ADD SLOAD PUSH2 0x16F6 JUMP JUMPDEST DUP2 PUSH2 0xEFE SWAP2 SWAP1 PUSH2 0x1D3B JUMP JUMPDEST SWAP1 POP PUSH0 DUP4 PUSH1 0x2 ADD DUP2 SWAP1 SSTORE POP JUMPDEST PUSH0 DUP3 PUSH1 0x1 ADD DUP2 SWAP1 SSTORE POP PUSH0 SELFBALANCE SWAP1 POP PUSH0 DUP2 DUP4 GT PUSH2 0xF25 JUMPI DUP3 PUSH2 0xF27 JUMP JUMPDEST DUP2 JUMPDEST SWAP1 POP PUSH0 DUP2 GT ISZERO PUSH2 0xFC4 JUMPI CALLER PUSH20 0xFFFFFFFFFFFFFFFFFFFFFFFFFFFFFFFFFFFFFFFF AND PUSH2 0x8FC DUP3 SWAP1 DUP2 ISZERO MUL SWAP1 PUSH1 0x40 MLOAD PUSH0 PUSH1 0x40 MLOAD DUP1 DUP4 SUB DUP2 DUP6 DUP9 DUP9 CALL SWAP4 POP POP POP POP ISZERO DUP1 ISZERO PUSH2 0xF74 JUMPI RETURNDATASIZE PUSH0 DUP1 RETURNDATACOPY RETURNDATASIZE PUSH0 REVERT JUMPDEST POP CALLER PUSH20 0xFFFFFFFFFFFFFFFFFFFFFFFFFFFFFFFFFFFFFFFF AND PUSH32 0x7084F5476618D8E60B11EF0D7D3F06914655ADB8793E28FF7F018D4C76D505D5 DUP3 PUSH1 0x40 MLOAD PUSH2 0xFBB SWAP2 SWAP1 PUSH2 0x1B57 JUMP JUMPDEST PUSH1 0x40 MLOAD DUP1 SWAP2 SUB SWAP1 LOG2 JUMPDEST POP POP POP POP POP PUSH2 0xFD1 PUSH2 0x128A JUMP JUMPDEST JUMP JUMPDEST PUSH7 0x2386F26FC10000 DUP2 JUMP JUMPDEST PUSH2 0x2710 DUP2 JUMP JUMPDEST PUSH2 0xFEC PUSH2 0x140A JUMP JUMPDEST PUSH0 PUSH20 0xFFFFFFFFFFFFFFFFFFFFFFFFFFFFFFFFFFFFFFFF AND DUP2 PUSH20 0xFFFFFFFFFFFFFFFFFFFFFFFFFFFFFFFFFFFFFFFF AND SUB PUSH2 0x105C JUMPI PUSH0 PUSH1 0x40 MLOAD PUSH32 0x1E4FBDF700000000000000000000000000000000000000000000000000000000 DUP2 MSTORE PUSH1 0x4 ADD PUSH2 0x1053 SWAP2 SWAP1 PUSH2 0x183A JUMP JUMPDEST PUSH1 0x40 MLOAD DUP1 SWAP2 SUB SWAP1 REVERT JUMPDEST PUSH2 0x1065 DUP2 PUSH2 0x1491 JUMP JUMPDEST POP JUMP JUMPDEST PUSH1 0x2 PUSH1 0x1 SLOAD SUB PUSH2 0x10A4 JUMPI PUSH1 0x40 MLOAD PUSH32 0x3EE5AEB500000000000000000000000000000000000000000000000000000000 DUP2 MSTORE PUSH1 0x4 ADD PUSH1 0x40 MLOAD DUP1 SWAP2 SUB SWAP1 REVERT JUMPDEST PUSH1 0x2 PUSH1 0x1 DUP2 SWAP1 SSTORE POP JUMP JUMPDEST PUSH0 PUSH1 0x3 PUSH0 DUP6 PUSH20 0xFFFFFFFFFFFFFFFFFFFFFFFFFFFFFFFFFFFFFFFF AND PUSH20 0xFFFFFFFFFFFFFFFFFFFFFFFFFFFFFFFFFFFFFFFF AND DUP2 MSTORE PUSH1 0x20 ADD SWAP1 DUP2 MSTORE PUSH1 0x20 ADD PUSH0 KECCAK256 SWAP1 POP PUSH0 DUP1 PUSH0 PUSH1 0x21 DUP6 PUSH1 0xFF AND GT PUSH2 0x113E JUMPI PUSH2 0x2710 PUSH2 0x1B58 DUP8 PUSH2 0x110D SWAP2 SWAP1 PUSH2 0x203F JUMP JUMPDEST PUSH2 0x1117 SWAP2 SWAP1 PUSH2 0x20AD JUMP JUMPDEST SWAP3 POP PUSH2 0x2710 PUSH2 0xBB8 DUP8 PUSH2 0x112A SWAP2 SWAP1 PUSH2 0x203F JUMP JUMPDEST PUSH2 0x1134 SWAP2 SWAP1 PUSH2 0x20AD JUMP JUMPDEST SWAP2 POP PUSH0 SWAP1 POP PUSH2 0x11FE JUMP JUMPDEST PUSH1 0x42 DUP6 PUSH1 0xFF AND GT PUSH2 0x11A5 JUMPI PUSH2 0x2710 PUSH2 0xFA0 DUP8 PUSH2 0x115A SWAP2 SWAP1 PUSH2 0x203F JUMP JUMPDEST PUSH2 0x1164 SWAP2 SWAP1 PUSH2 0x20AD JUMP JUMPDEST SWAP3 POP PUSH2 0x2710 PUSH2 0xFA0 DUP8 PUSH2 0x1177 SWAP2 SWAP1 PUSH2 0x203F JUMP JUMPDEST PUSH2 0x1181 SWAP2 SWAP1 PUSH2 0x20AD JUMP JUMPDEST SWAP2 POP PUSH2 0x2710 PUSH2 0x7D0 DUP8 PUSH2 0x1194 SWAP2 SWAP1 PUSH2 0x203F JUMP JUMPDEST PUSH2 0x119E SWAP2 SWAP1 PUSH2 0x20AD JUMP JUMPDEST SWAP1 POP PUSH2 0x11FD JUMP JUMPDEST PUSH2 0x2710 PUSH2 0x7D0 DUP8 PUSH2 0x11B6 SWAP2 SWAP1 PUSH2 0x203F JUMP JUMPDEST PUSH2 0x11C0 SWAP2 SWAP1 PUSH2 0x20AD JUMP JUMPDEST SWAP3 POP PUSH2 0x2710 PUSH2 0xBB8 DUP8 PUSH2 0x11D3 SWAP2 SWAP1 PUSH2 0x203F JUMP JUMPDEST PUSH2 0x11DD SWAP2 SWAP1 PUSH2 0x20AD JUMP JUMPDEST SWAP2 POP PUSH2 0x2710 PUSH2 0x1388 DUP8 PUSH2 0x11F0 SWAP2 SWAP1 PUSH2 0x203F JUMP JUMPDEST PUSH2 0x11FA SWAP2 SWAP1 PUSH2 0x20AD JUMP JUMPDEST SWAP1 POP JUMPDEST JUMPDEST DUP3 DUP5 PUSH0 ADD PUSH0 DUP3 DUP3 SLOAD PUSH2 0x1210 SWAP2 SWAP1 PUSH2 0x1D3B JUMP JUMPDEST SWAP3 POP POP DUP2 SWAP1 SSTORE POP DUP2 DUP5 PUSH1 0x1 ADD PUSH0 DUP3 DUP3 SLOAD PUSH2 0x122A SWAP2 SWAP1 PUSH2 0x1D3B JUMP JUMPDEST SWAP3 POP POP DUP2 SWAP1 SSTORE POP DUP1 DUP5 PUSH1 0x2 ADD PUSH0 DUP3 DUP3 SLOAD PUSH2 0x1244 SWAP2 SWAP1 PUSH2 0x1D3B JUMP JUMPDEST SWAP3 POP POP DUP2 SWAP1 SSTORE POP PUSH0 DUP4 GT ISZERO PUSH2 0x125D JUMPI PUSH2 0x125C DUP4 PUSH2 0x173B JUMP JUMPDEST JUMPDEST PUSH0 DUP3 GT ISZERO PUSH2 0x126F JUMPI PUSH2 0x126E DUP3 PUSH2 0x173E JUMP JUMPDEST JUMPDEST PUSH0 DUP2 GT ISZERO PUSH2 0x1281 JUMPI PUSH2 0x1280 DUP2 PUSH2 0x1741 JUMP JUMPDEST JUMPDEST POP POP POP POP POP POP POP JUMP JUMPDEST PUSH1 0x1 DUP1 DUP2 SWAP1 SSTORE POP JUMP JUMPDEST PUSH0 DUP1 PUSH0 PUSH1 0x21 DUP5 PUSH1 0xFF AND GT PUSH2 0x12E3 JUMPI PUSH2 0x2710 PUSH2 0x1B58 DUP7 PUSH2 0x12B2 SWAP2 SWAP1 PUSH2 0x203F JUMP JUMPDEST PUSH2 0x12BC SWAP2 SWAP1 PUSH2 0x20AD JUMP JUMPDEST SWAP3 POP PUSH2 0x2710 PUSH2 0xBB8 DUP7 PUSH2 0x12CF SWAP2 SWAP1 PUSH2 0x203F JUMP JUMPDEST PUSH2 0x12D9 SWAP2 SWAP1 PUSH2 0x20AD JUMP JUMPDEST SWAP2 POP PUSH0 SWAP1 POP PUSH2 0x13A3 JUMP JUMPDEST PUSH1 0x42 DUP5 PUSH1 0xFF AND GT PUSH2 0x134A JUMPI PUSH2 0x2710 PUSH2 0xFA0 DUP7 PUSH2 0x12FF SWAP2 SWAP1 PUSH2 0x203F JUMP JUMPDEST PUSH2 0x1309 SWAP2 SWAP1 PUSH2 0x20AD JUMP JUMPDEST SWAP3 POP PUSH2 0x2710 PUSH2 0xFA0 DUP7 PUSH2 0x131C SWAP2 SWAP1 PUSH2 0x203F JUMP JUMPDEST PUSH2 0x1326 SWAP2 SWAP1 PUSH2 0x20AD JUMP JUMPDEST SWAP2 POP PUSH2 0x2710 PUSH2 0x7D0 DUP7 PUSH2 0x1339 SWAP2 SWAP1 PUSH2 0x203F JUMP JUMPDEST PUSH2 0x1343 SWAP2 SWAP1 PUSH2 0x20AD JUMP JUMPDEST SWAP1 POP PUSH2 0x13A2 JUMP JUMPDEST PUSH2 0x2710 PUSH2 0x7D0 DUP7 PUSH2 0x135B SWAP2 SWAP1 PUSH2 0x203F JUMP JUMPDEST PUSH2 0x1365 SWAP2 SWAP1 PUSH2 0x20AD JUMP JUMPDEST SWAP3 POP PUSH2 0x2710 PUSH2 0xBB8 DUP7 PUSH2 0x1378 SWAP2 SWAP1 PUSH2 0x203F JUMP JUMPDEST PUSH2 0x1382 SWAP2 SWAP1 PUSH2 0x20AD JUMP JUMPDEST SWAP2 POP PUSH2 0x2710 PUSH2 0x1388 DUP7 PUSH2 0x1395 SWAP2 SWAP1 PUSH2 0x203F JUMP JUMPDEST PUSH2 0x139F SWAP2 SWAP1 PUSH2 0x20AD JUMP JUMPDEST SWAP1 POP JUMPDEST JUMPDEST SWAP3 POP SWAP3 POP SWAP3 JUMP JUMPDEST PUSH0 DUP1 DUP6 DUP8 PUSH0 ADD MLOAD GT PUSH2 0x13CA JUMPI DUP7 PUSH0 ADD MLOAD DUP7 PUSH2 0x13C5 SWAP2 SWAP1 PUSH2 0x20DD JUMP JUMPDEST PUSH2 0x13DA JUMP JUMPDEST DUP6 DUP8 PUSH0 ADD MLOAD PUSH2 0x13D9 SWAP2 SWAP1 PUSH2 0x20DD JUMP JUMPDEST JUMPDEST SWAP1 POP PUSH0 PUSH2 0x2710 PUSH2 0x1F4 DUP6 PUSH2 0x13EE SWAP2 SWAP1 PUSH2 0x203F JUMP JUMPDEST PUSH2 0x13F8 SWAP2 SWAP1 PUSH2 0x20AD JUMP JUMPDEST SWAP1 POP DUP1 DUP3 GT SWAP3 POP POP POP SWAP6 SWAP5 POP POP POP POP POP JUMP JUMPDEST PUSH2 0x1412 PUSH2 0x1744 JUMP JUMPDEST PUSH20 0xFFFFFFFFFFFFFFFFFFFFFFFFFFFFFFFFFFFFFFFF AND PUSH2 0x1430 PUSH2 0xB56 JUMP JUMPDEST PUSH20 0xFFFFFFFFFFFFFFFFFFFFFFFFFFFFFFFFFFFFFFFF AND EQ PUSH2 0x148F JUMPI PUSH2 0x1453 PUSH2 0x1744 JUMP JUMPDEST PUSH1 0x40 MLOAD PUSH32 0x118CDAA700000000000000000000000000000000000000000000000000000000 DUP2 MSTORE PUSH1 0x4 ADD PUSH2 0x1486 SWAP2 SWAP1 PUSH2 0x183A JUMP JUMPDEST PUSH1 0x40 MLOAD DUP1 SWAP2 SUB SWAP1 REVERT JUMPDEST JUMP JUMPDEST PUSH0 DUP1 PUSH0 SWAP1 SLOAD SWAP1 PUSH2 0x100 EXP SWAP1 DIV PUSH20 0xFFFFFFFFFFFFFFFFFFFFFFFFFFFFFFFFFFFFFFFF AND SWAP1 POP DUP2 PUSH0 DUP1 PUSH2 0x100 EXP DUP2 SLOAD DUP2 PUSH20 0xFFFFFFFFFFFFFFFFFFFFFFFFFFFFFFFFFFFFFFFF MUL NOT AND SWAP1 DUP4 PUSH20 0xFFFFFFFFFFFFFFFFFFFFFFFFFFFFFFFFFFFFFFFF AND MUL OR SWAP1 SSTORE POP DUP2 PUSH20 0xFFFFFFFFFFFFFFFFFFFFFFFFFFFFFFFFFFFFFFFF AND DUP2 PUSH20 0xFFFFFFFFFFFFFFFFFFFFFFFFFFFFFFFFFFFFFFFF AND PUSH32 0x8BE0079C531659141344CD1FD0A4F28419497F9722A3DAAFE3B4186F6B6457E0 PUSH1 0x40 MLOAD PUSH1 0x40 MLOAD DUP1 SWAP2 SUB SWAP1 LOG3 POP POP JUMP JUMPDEST PUSH0 DUP5 PUSH0 ADD SLOAD DUP5 PUSH2 0x1562 SWAP2 SWAP1 PUSH2 0x2119 JUMP JUMPDEST SWAP1 POP PUSH0 DUP6 PUSH1 0x1 ADD SLOAD DUP5 PUSH2 0x1575 SWAP2 SWAP1 PUSH2 0x2119 JUMP JUMPDEST SWAP1 POP PUSH0 DUP7 PUSH1 0x2 ADD SLOAD DUP5 PUSH2 0x1588 SWAP2 SWAP1 PUSH2 0x2119 JUMP JUMPDEST SWAP1 POP PUSH0 DUP1 DUP5 SLT ISZERO PUSH2 0x15B8 JUMPI PUSH0 DUP5 PUSH2 0x159E SWAP1 PUSH2 0x2159 JUMP JUMPDEST SWAP1 POP PUSH2 0x15A9 DUP2 PUSH2 0x166D JUMP JUMPDEST DUP3 PUSH2 0x15B4 SWAP2 SWAP1 PUSH2 0x1D3B JUMP JUMPDEST SWAP2 POP POP JUMPDEST PUSH0 DUP4 SLT ISZERO PUSH2 0x15E5 JUMPI PUSH0 DUP4 PUSH2 0x15CB SWAP1 PUSH2 0x2159 JUMP JUMPDEST SWAP1 POP PUSH2 0x15D6 DUP2 PUSH2 0x16B1 JUMP JUMPDEST DUP3 PUSH2 0x15E1 SWAP2 SWAP1 PUSH2 0x1D3B JUMP JUMPDEST SWAP2 POP POP JUMPDEST PUSH0 DUP3 SLT ISZERO PUSH2 0x1612 JUMPI PUSH0 DUP3 PUSH2 0x15F8 SWAP1 PUSH2 0x2159 JUMP JUMPDEST SWAP1 POP PUSH2 0x1603 DUP2 PUSH2 0x16F6 JUMP JUMPDEST DUP3 PUSH2 0x160E SWAP2 SWAP1 PUSH2 0x1D3B JUMP JUMPDEST SWAP2 POP POP JUMPDEST PUSH0 DUP5 SGT ISZERO PUSH2 0x1624 JUMPI PUSH2 0x1623 DUP5 PUSH2 0x173B JUMP JUMPDEST JUMPDEST PUSH0 DUP4 SGT ISZERO PUSH2 0x1636 JUMPI PUSH2 0x1635 DUP4 PUSH2 0x173E JUMP JUMPDEST JUMPDEST PUSH0 DUP3 SGT ISZERO PUSH2 0x1648 JUMPI PUSH2 0x1647 DUP3 PUSH2 0x1741 JUMP JUMPDEST JUMPDEST DUP7 DUP9 PUSH0 ADD DUP2 SWAP1 SSTORE POP DUP6 DUP9 PUSH1 0x1 ADD DUP2 SWAP1 SSTORE POP DUP5 DUP9 PUSH1 0x2 ADD DUP2 SWAP1 SSTORE POP POP POP POP POP POP POP POP POP POP JUMP JUMPDEST PUSH0 DUP1 PUSH2 0x2710 PUSH2 0x16D PUSH1 0x4 PUSH0 ADD SLOAD PUSH2 0x1684 SWAP2 SWAP1 PUSH2 0x20AD JUMP JUMPDEST PUSH2 0x2710 PUSH2 0x1691 SWAP2 SWAP1 PUSH2 0x1D3B JUMP JUMPDEST DUP5 PUSH2 0x169C SWAP2 SWAP1 PUSH2 0x203F JUMP JUMPDEST PUSH2 0x16A6 SWAP2 SWAP1 PUSH2 0x20AD JUMP JUMPDEST SWAP1 POP DUP1 SWAP2 POP POP SWAP2 SWAP1 POP JUMP JUMPDEST PUSH0 DUP1 PUSH2 0x2710 PUSH2 0x16D PUSH1 0x4 PUSH1 0x1 ADD SLOAD PUSH2 0x16C9 SWAP2 SWAP1 PUSH2 0x20AD JUMP JUMPDEST PUSH2 0x2710 PUSH2 0x16D6 SWAP2 SWAP1 PUSH2 0x1D3B JUMP JUMPDEST DUP5 PUSH2 0x16E1 SWAP2 SWAP1 PUSH2 0x203F JUMP JUMPDEST PUSH2 0x16EB SWAP2 SWAP1 PUSH2 0x20AD JUMP JUMPDEST SWAP1 POP DUP1 SWAP2 POP POP SWAP2 SWAP1 POP JUMP JUMPDEST PUSH0 DUP1 PUSH2 0x2710 PUSH2 0x16D PUSH1 0x4 PUSH1 0x2 ADD SLOAD PUSH2 0x170E SWAP2 SWAP1 PUSH2 0x20AD JUMP JUMPDEST PUSH2 0x2710 PUSH2 0x171B SWAP2 SWAP1 PUSH2 0x1D3B JUMP JUMPDEST DUP5 PUSH2 0x1726 SWAP2 SWAP1 PUSH2 0x203F JUMP JUMPDEST PUSH2 0x1730 SWAP2 SWAP1 PUSH2 0x20AD JUMP JUMPDEST SWAP1 POP DUP1 SWAP2 POP POP SWAP2 SWAP1 POP JUMP JUMPDEST POP JUMP JUMPDEST POP JUMP JUMPDEST POP JUMP JUMPDEST PUSH0 CALLER SWAP1 POP SWAP1 JUMP JUMPDEST PUSH1 0x40 MLOAD DUP1 PUSH1 0x80 ADD PUSH1 0x40 MSTORE DUP1 PUSH0 PUSH1 0xFF AND DUP2 MSTORE PUSH1 0x20 ADD PUSH0 DUP2 MSTORE PUSH1 0x20 ADD PUSH0 DUP2 MSTORE PUSH1 0x20 ADD PUSH0 ISZERO ISZERO DUP2 MSTORE POP SWAP1 JUMP JUMPDEST PUSH1 0x40 MLOAD DUP1 PUSH1 0x60 ADD PUSH1 0x40 MSTORE DUP1 PUSH0 DUP2 MSTORE PUSH1 0x20 ADD PUSH0 DUP2 MSTORE PUSH1 0x20 ADD PUSH0 DUP2 MSTORE POP SWAP1 JUMP JUMPDEST PUSH0 DUP1 REVERT JUMPDEST PUSH0 DUP1 REVERT JUMPDEST PUSH0 PUSH1 0xFF DUP3 AND SWAP1 POP SWAP2 SWAP1 POP JUMP JUMPDEST PUSH2 0x17AF DUP2 PUSH2 0x179A JUMP JUMPDEST DUP2 EQ PUSH2 0x17B9 JUMPI PUSH0 DUP1 REVERT JUMPDEST POP JUMP JUMPDEST PUSH0 DUP2 CALLDATALOAD SWAP1 POP PUSH2 0x17CA DUP2 PUSH2 0x17A6 JUMP JUMPDEST SWAP3 SWAP2 POP POP JUMP JUMPDEST PUSH0 PUSH1 0x20 DUP3 DUP5 SUB SLT ISZERO PUSH2 0x17E5 JUMPI PUSH2 0x17E4 PUSH2 0x1792 JUMP JUMPDEST JUMPDEST PUSH0 PUSH2 0x17F2 DUP5 DUP3 DUP6 ADD PUSH2 0x17BC JUMP JUMPDEST SWAP2 POP POP SWAP3 SWAP2 POP POP JUMP JUMPDEST PUSH0 PUSH20 0xFFFFFFFFFFFFFFFFFFFFFFFFFFFFFFFFFFFFFFFF DUP3 AND SWAP1 POP SWAP2 SWAP1 POP JUMP JUMPDEST PUSH0 PUSH2 0x1824 DUP3 PUSH2 0x17FB JUMP JUMPDEST SWAP1 POP SWAP2 SWAP1 POP JUMP JUMPDEST PUSH2 0x1834 DUP2 PUSH2 0x181A JUMP JUMPDEST DUP3 MSTORE POP POP JUMP JUMPDEST PUSH0 PUSH1 0x20 DUP3 ADD SWAP1 POP PUSH2 0x184D PUSH0 DUP4 ADD DUP5 PUSH2 0x182B JUMP JUMPDEST SWAP3 SWAP2 POP POP JUMP JUMPDEST PUSH2 0x185C DUP2 PUSH2 0x181A JUMP JUMPDEST DUP2 EQ PUSH2 0x1866 JUMPI PUSH0 DUP1 REVERT JUMPDEST POP JUMP JUMPDEST PUSH0 DUP2 CALLDATALOAD SWAP1 POP PUSH2 0x1877 DUP2 PUSH2 0x1853 JUMP JUMPDEST SWAP3 SWAP2 POP POP JUMP JUMPDEST PUSH0 PUSH1 0x20 DUP3 DUP5 SUB SLT ISZERO PUSH2 0x1892 JUMPI PUSH2 0x1891 PUSH2 0x1792 JUMP JUMPDEST JUMPDEST PUSH0 PUSH2 0x189F DUP5 DUP3 DUP6 ADD PUSH2 0x1869 JUMP JUMPDEST SWAP2 POP POP SWAP3 SWAP2 POP POP JUMP JUMPDEST PUSH2 0x18B1 DUP2 PUSH2 0x179A JUMP JUMPDEST DUP3 MSTORE POP POP JUMP JUMPDEST PUSH0 DUP2 SWAP1 POP SWAP2 SWAP1 POP JUMP JUMPDEST PUSH2 0x18C9 DUP2 PUSH2 0x18B7 JUMP JUMPDEST DUP3 MSTORE POP POP JUMP JUMPDEST PUSH0 DUP2 ISZERO ISZERO SWAP1 POP SWAP2 SWAP1 POP JUMP JUMPDEST PUSH2 0x18E3 DUP2 PUSH2 0x18CF JUMP JUMPDEST DUP3 MSTORE POP POP JUMP JUMPDEST PUSH1 0x80 DUP3 ADD PUSH0 DUP3 ADD MLOAD PUSH2 0x18FD PUSH0 DUP6 ADD DUP3 PUSH2 0x18A8 JUMP JUMPDEST POP PUSH1 0x20 DUP3 ADD MLOAD PUSH2 0x1910 PUSH1 0x20 DUP6 ADD DUP3 PUSH2 0x18C0 JUMP JUMPDEST POP PUSH1 0x40 DUP3 ADD MLOAD PUSH2 0x1923 PUSH1 0x40 DUP6 ADD DUP3 PUSH2 0x18C0 JUMP JUMPDEST POP PUSH1 0x60 DUP3 ADD MLOAD PUSH2 0x1936 PUSH1 0x60 DUP6 ADD DUP3 PUSH2 0x18DA JUMP JUMPDEST POP POP POP POP JUMP JUMPDEST PUSH1 0x60 DUP3 ADD PUSH0 DUP3 ADD MLOAD PUSH2 0x1950 PUSH0 DUP6 ADD DUP3 PUSH2 0x18C0 JUMP JUMPDEST POP PUSH1 0x20 DUP3 ADD MLOAD PUSH2 0x1963 PUSH1 0x20 DUP6 ADD DUP3 PUSH2 0x18C0 JUMP JUMPDEST POP PUSH1 0x40 DUP3 ADD MLOAD PUSH2 0x1976 PUSH1 0x40 DUP6 ADD DUP3 PUSH2 0x18C0 JUMP JUMPDEST POP POP POP POP JUMP JUMPDEST PUSH2 0x1985 DUP2 PUSH2 0x18B7 JUMP JUMPDEST DUP3 MSTORE POP POP JUMP JUMPDEST PUSH0 PUSH2 0x100 DUP3 ADD SWAP1 POP PUSH2 0x199F PUSH0 DUP4 ADD DUP7 PUSH2 0x18E9 JUMP JUMPDEST PUSH2 0x19AC PUSH1 0x80 DUP4 ADD DUP6 PUSH2 0x193C JUMP JUMPDEST PUSH2 0x19B9 PUSH1 0xE0 DUP4 ADD DUP5 PUSH2 0x197C JUMP JUMPDEST SWAP5 SWAP4 POP POP POP POP JUMP JUMPDEST PUSH0 PUSH1 0x80 DUP3 ADD SWAP1 POP PUSH2 0x19D4 PUSH0 DUP4 ADD DUP8 PUSH2 0x197C JUMP JUMPDEST PUSH2 0x19E1 PUSH1 0x20 DUP4 ADD DUP7 PUSH2 0x197C JUMP JUMPDEST PUSH2 0x19EE PUSH1 0x40 DUP4 ADD DUP6 PUSH2 0x197C JUMP JUMPDEST PUSH2 0x19FB PUSH1 0x60 DUP4 ADD DUP5 PUSH2 0x197C JUMP JUMPDEST SWAP6 SWAP5 POP POP POP POP POP JUMP JUMPDEST PUSH2 0x1A0D DUP2 PUSH2 0x18CF JUMP JUMPDEST DUP3 MSTORE POP POP JUMP JUMPDEST PUSH0 PUSH1 0x80 DUP3 ADD SWAP1 POP PUSH2 0x1A26 PUSH0 DUP4 ADD DUP8 PUSH2 0x1A04 JUMP JUMPDEST PUSH2 0x1A33 PUSH1 0x20 DUP4 ADD DUP7 PUSH2 0x197C JUMP JUMPDEST PUSH2 0x1A40 PUSH1 0x40 DUP4 ADD DUP6 PUSH2 0x197C JUMP JUMPDEST PUSH2 0x1A4D PUSH1 0x60 DUP4 ADD DUP5 PUSH2 0x197C JUMP JUMPDEST SWAP6 SWAP5 POP POP POP POP POP JUMP JUMPDEST PUSH2 0x1A5F DUP2 PUSH2 0x179A JUMP JUMPDEST DUP3 MSTORE POP POP JUMP JUMPDEST PUSH0 PUSH1 0x80 DUP3 ADD SWAP1 POP PUSH2 0x1A78 PUSH0 DUP4 ADD DUP8 PUSH2 0x1A56 JUMP JUMPDEST PUSH2 0x1A85 PUSH1 0x20 DUP4 ADD DUP7 PUSH2 0x197C JUMP JUMPDEST PUSH2 0x1A92 PUSH1 0x40 DUP4 ADD DUP6 PUSH2 0x197C JUMP JUMPDEST PUSH2 0x1A9F PUSH1 0x60 DUP4 ADD DUP5 PUSH2 0x1A04 JUMP JUMPDEST SWAP6 SWAP5 POP POP POP POP POP JUMP JUMPDEST PUSH0 PUSH1 0x60 DUP3 ADD SWAP1 POP PUSH2 0x1ABB PUSH0 DUP4 ADD DUP7 PUSH2 0x197C JUMP JUMPDEST PUSH2 0x1AC8 PUSH1 0x20 DUP4 ADD DUP6 PUSH2 0x197C JUMP JUMPDEST PUSH2 0x1AD5 PUSH1 0x40 DUP4 ADD DUP5 PUSH2 0x197C JUMP JUMPDEST SWAP5 SWAP4 POP POP POP POP JUMP JUMPDEST PUSH2 0x1AE6 DUP2 PUSH2 0x18B7 JUMP JUMPDEST DUP2 EQ PUSH2 0x1AF0 JUMPI PUSH0 DUP1 REVERT JUMPDEST POP JUMP JUMPDEST PUSH0 DUP2 CALLDATALOAD SWAP1 POP PUSH2 0x1B01 DUP2 PUSH2 0x1ADD JUMP JUMPDEST SWAP3 SWAP2 POP POP JUMP JUMPDEST PUSH0 DUP1 PUSH0 PUSH1 0x60 DUP5 DUP7 SUB SLT ISZERO PUSH2 0x1B1E JUMPI PUSH2 0x1B1D PUSH2 0x1792 JUMP JUMPDEST JUMPDEST PUSH0 PUSH2 0x1B2B DUP7 DUP3 DUP8 ADD PUSH2 0x1AF3 JUMP JUMPDEST SWAP4 POP POP PUSH1 0x20 PUSH2 0x1B3C DUP7 DUP3 DUP8 ADD PUSH2 0x1AF3 JUMP JUMPDEST SWAP3 POP POP PUSH1 0x40 PUSH2 0x1B4D DUP7 DUP3 DUP8 ADD PUSH2 0x1AF3 JUMP JUMPDEST SWAP2 POP POP SWAP3 POP SWAP3 POP SWAP3 JUMP JUMPDEST PUSH0 PUSH1 0x20 DUP3 ADD SWAP1 POP PUSH2 0x1B6A PUSH0 DUP4 ADD DUP5 PUSH2 0x197C JUMP JUMPDEST SWAP3 SWAP2 POP POP JUMP JUMPDEST PUSH0 DUP1 REVERT JUMPDEST PUSH0 DUP1 REVERT JUMPDEST PUSH0 DUP1 REVERT JUMPDEST PUSH0 DUP1 DUP4 PUSH1 0x1F DUP5 ADD SLT PUSH2 0x1B91 JUMPI PUSH2 0x1B90 PUSH2 0x1B70 JUMP JUMPDEST JUMPDEST DUP3 CALLDATALOAD SWAP1 POP PUSH8 0xFFFFFFFFFFFFFFFF DUP2 GT ISZERO PUSH2 0x1BAE JUMPI PUSH2 0x1BAD PUSH2 0x1B74 JUMP JUMPDEST JUMPDEST PUSH1 0x20 DUP4 ADD SWAP2 POP DUP4 PUSH1 0x1 DUP3 MUL DUP4 ADD GT ISZERO PUSH2 0x1BCA JUMPI PUSH2 0x1BC9 PUSH2 0x1B78 JUMP JUMPDEST JUMPDEST SWAP3 POP SWAP3 SWAP1 POP JUMP JUMPDEST PUSH0 DUP1 PUSH0 PUSH1 0x40 DUP5 DUP7 SUB SLT ISZERO PUSH2 0x1BE8 JUMPI PUSH2 0x1BE7 PUSH2 0x1792 JUMP JUMPDEST JUMPDEST PUSH0 DUP5 ADD CALLDATALOAD PUSH8 0xFFFFFFFFFFFFFFFF DUP2 GT ISZERO PUSH2 0x1C05 JUMPI PUSH2 0x1C04 PUSH2 0x1796 JUMP JUMPDEST JUMPDEST PUSH2 0x1C11 DUP7 DUP3 DUP8 ADD PUSH2 0x1B7C JUMP JUMPDEST SWAP4 POP SWAP4 POP POP PUSH1 0x20 PUSH2 0x1C24 DUP7 DUP3 DUP8 ADD PUSH2 0x1869 JUMP JUMPDEST SWAP2 POP POP SWAP3 POP SWAP3 POP SWAP3 JUMP JUMPDEST PUSH0 DUP3 DUP3 MSTORE PUSH1 0x20 DUP3 ADD SWAP1 POP SWAP3 SWAP2 POP POP JUMP JUMPDEST PUSH32 0x4465706F73697420746F6F20736D616C6C000000000000000000000000000000 PUSH0 DUP3 ADD MSTORE POP JUMP JUMPDEST PUSH0 PUSH2 0x1C72 PUSH1 0x11 DUP4 PUSH2 0x1C2E JUMP JUMPDEST SWAP2 POP PUSH2 0x1C7D DUP3 PUSH2 0x1C3E JUMP JUMPDEST PUSH1 0x20 DUP3 ADD SWAP1 POP SWAP2 SWAP1 POP JUMP JUMPDEST PUSH0 PUSH1 0x20 DUP3 ADD SWAP1 POP DUP2 DUP2 SUB PUSH0 DUP4 ADD MSTORE PUSH2 0x1C9F DUP2 PUSH2 0x1C66 JUMP JUMPDEST SWAP1 POP SWAP2 SWAP1 POP JUMP JUMPDEST PUSH32 0x496E76616C6964207269736B2073636F72650000000000000000000000000000 PUSH0 DUP3 ADD MSTORE POP JUMP JUMPDEST PUSH0 PUSH2 0x1CDA PUSH1 0x12 DUP4 PUSH2 0x1C2E JUMP JUMPDEST SWAP2 POP PUSH2 0x1CE5 DUP3 PUSH2 0x1CA6 JUMP JUMPDEST PUSH1 0x20 DUP3 ADD SWAP1 POP SWAP2 SWAP1 POP JUMP JUMPDEST PUSH0 PUSH1 0x20 DUP3 ADD SWAP1 POP DUP2 DUP2 SUB PUSH0 DUP4 ADD MSTORE PUSH2 0x1D07 DUP2 PUSH2 0x1CCE JUMP JUMPDEST SWAP1 POP SWAP2 SWAP1 POP JUMP JUMPDEST PUSH32 0x4E487B7100000000000000000000000000000000000000000000000000000000 PUSH0 MSTORE PUSH1 0x11 PUSH1 0x4 MSTORE PUSH1 0x24 PUSH0 REVERT JUMPDEST PUSH0 PUSH2 0x1D45 DUP3 PUSH2 0x18B7 JUMP JUMPDEST SWAP2 POP PUSH2 0x1D50 DUP4 PUSH2 0x18B7 JUMP JUMPDEST SWAP3 POP DUP3 DUP3 ADD SWAP1 POP DUP1 DUP3 GT ISZERO PUSH2 0x1D68 JUMPI PUSH2 0x1D67 PUSH2 0x1D0E JUMP JUMPDEST JUMPDEST SWAP3 SWAP2 POP POP JUMP JUMPDEST PUSH0 PUSH1 0x40 DUP3 ADD SWAP1 POP PUSH2 0x1D81 PUSH0 DUP4 ADD DUP6 PUSH2 0x197C JUMP JUMPDEST PUSH2 0x1D8E PUSH1 0x20 DUP4 ADD DUP5 PUSH2 0x1A56 JUMP JUMPDEST SWAP4 SWAP3 POP POP POP JUMP JUMPDEST PUSH32 0x4E6F206465706F7369747320746F20726562616C616E63650000000000000000 PUSH0 DUP3 ADD MSTORE POP JUMP JUMPDEST PUSH0 PUSH2 0x1DC9 PUSH1 0x18 DUP4 PUSH2 0x1C2E JUMP JUMPDEST SWAP2 POP PUSH2 0x1DD4 DUP3 PUSH2 0x1D95 JUMP JUMPDEST PUSH1 0x20 DUP3 ADD SWAP1 POP SWAP2 SWAP1 POP JUMP JUMPDEST PUSH0 PUSH1 0x20 DUP3 ADD SWAP1 POP DUP2 DUP2 SUB PUSH0 DUP4 ADD MSTORE PUSH2 0x1DF6 DUP2 PUSH2 0x1DBD JUMP JUMPDEST SWAP1 POP SWAP2 SWAP1 POP JUMP JUMPDEST PUSH0 DUP2 SWAP1 POP SWAP3 SWAP2 POP POP JUMP JUMPDEST DUP3 DUP2 DUP4 CALLDATACOPY PUSH0 DUP4 DUP4 ADD MSTORE POP POP POP JUMP JUMPDEST PUSH0 PUSH2 0x1E20 DUP4 DUP6 PUSH2 0x1DFD JUMP JUMPDEST SWAP4 POP PUSH2 0x1E2D DUP4 DUP6 DUP5 PUSH2 0x1E07 JUMP JUMPDEST DUP3 DUP5 ADD SWAP1 POP SWAP4 SWAP3 POP POP POP JUMP JUMPDEST PUSH0 PUSH2 0x1E45 DUP3 DUP5 DUP7 PUSH2 0x1E15 JUMP JUMPDEST SWAP2 POP DUP2 SWAP1 POP SWAP4 SWAP3 POP POP POP JUMP JUMPDEST PUSH32 0x7472616465726A6F650000000000000000000000000000000000000000000000 PUSH0 DUP3 ADD MSTORE POP JUMP JUMPDEST PUSH0 PUSH2 0x1E85 PUSH1 0x9 DUP4 PUSH2 0x1DFD JUMP JUMPDEST SWAP2 POP PUSH2 0x1E90 DUP3 PUSH2 0x1E51 JUMP JUMPDEST PUSH1 0x9 DUP3 ADD SWAP1 POP SWAP2 SWAP1 POP JUMP JUMPDEST PUSH0 PUSH2 0x1EA5 DUP3 PUSH2 0x1E79 JUMP JUMPDEST SWAP2 POP DUP2 SWAP1 POP SWAP2 SWAP1 POP JUMP JUMPDEST PUSH32 0x62656E7169000000000000000000000000000000000000000000000000000000 PUSH0 DUP3 ADD MSTORE POP JUMP JUMPDEST PUSH0 PUSH2 0x1EE3 PUSH1 0x5 DUP4 PUSH2 0x1DFD JUMP JUMPDEST SWAP2 POP PUSH2 0x1EEE DUP3 PUSH2 0x1EAF JUMP JUMPDEST PUSH1 0x5 DUP3 ADD SWAP1 POP SWAP2 SWAP1 POP JUMP JUMPDEST PUSH0 PUSH2 0x1F03 DUP3 PUSH2 0x1ED7 JUMP JUMPDEST SWAP2 POP DUP2 SWAP1 POP SWAP2 SWAP1 POP JUMP JUMPDEST PUSH32 0x7969656C6479616B000000000000000000000000000000000000000000000000 PUSH0 DUP3 ADD MSTORE POP JUMP JUMPDEST PUSH0 PUSH2 0x1F41 PUSH1 0x8 DUP4 PUSH2 0x1DFD JUMP JUMPDEST SWAP2 POP PUSH2 0x1F4C DUP3 PUSH2 0x1F0D JUMP JUMPDEST PUSH1 0x8 DUP3 ADD SWAP1 POP SWAP2 SWAP1 POP JUMP JUMPDEST PUSH0 PUSH2 0x1F61 DUP3 PUSH2 0x1F35 JUMP JUMPDEST SWAP2 POP DUP2 SWAP1 POP SWAP2 SWAP1 POP JUMP JUMPDEST PUSH32 0x496E76616C69642070726F746F636F6C00000000000000000000000000000000 PUSH0 DUP3 ADD MSTORE POP JUMP JUMPDEST PUSH0 PUSH2 0x1F9F PUSH1 0x10 DUP4 PUSH2 0x1C2E JUMP JUMPDEST SWAP2 POP PUSH2 0x1FAA DUP3 PUSH2 0x1F6B JUMP JUMPDEST PUSH1 0x20 DUP3 ADD SWAP1 POP SWAP2 SWAP1 POP JUMP JUMPDEST PUSH0 PUSH1 0x20 DUP3 ADD SWAP1 POP DUP2 DUP2 SUB PUSH0 DUP4 ADD MSTORE PUSH2 0x1FCC DUP2 PUSH2 0x1F93 JUMP JUMPDEST SWAP1 POP SWAP2 SWAP1 POP JUMP JUMPDEST PUSH0 PUSH1 0x1F NOT PUSH1 0x1F DUP4 ADD AND SWAP1 POP SWAP2 SWAP1 POP JUMP JUMPDEST PUSH0 PUSH2 0x1FEE DUP4 DUP6 PUSH2 0x1C2E JUMP JUMPDEST SWAP4 POP PUSH2 0x1FFB DUP4 DUP6 DUP5 PUSH2 0x1E07 JUMP JUMPDEST PUSH2 0x2004 DUP4 PUSH2 0x1FD3 JUMP JUMPDEST DUP5 ADD SWAP1 POP SWAP4 SWAP3 POP POP POP JUMP JUMPDEST PUSH0 PUSH1 0x40 DUP3 ADD SWAP1 POP DUP2 DUP2 SUB PUSH0 DUP4 ADD MSTORE PUSH2 0x2028 DUP2 DUP6 DUP8 PUSH2 0x1FE3 JUMP JUMPDEST SWAP1 POP PUSH2 0x2037 PUSH1 0x20 DUP4 ADD DUP5 PUSH2 0x182B JUMP JUMPDEST SWAP5 SWAP4 POP POP POP POP JUMP JUMPDEST PUSH0 PUSH2 0x2049 DUP3 PUSH2 0x18B7 JUMP JUMPDEST SWAP2 POP PUSH2 0x2054 DUP4 PUSH2 0x18B7 JUMP JUMPDEST SWAP3 POP DUP3 DUP3 MUL PUSH2 0x2062 DUP2 PUSH2 0x18B7 JUMP JUMPDEST SWAP2 POP DUP3 DUP3 DIV DUP5 EQ DUP4 ISZERO OR PUSH2 0x2079 JUMPI PUSH2 0x2078 PUSH2 0x1D0E JUMP JUMPDEST JUMPDEST POP SWAP3 SWAP2 POP POP JUMP JUMPDEST PUSH32 0x4E487B7100000000000000000000000000000000000000000000000000000000 PUSH0 MSTORE PUSH1 0x12 PUSH1 0x4 MSTORE PUSH1 0x24 PUSH0 REVERT JUMPDEST PUSH0 PUSH2 0x20B7 DUP3 PUSH2 0x18B7 JUMP JUMPDEST SWAP2 POP PUSH2 0x20C2 DUP4 PUSH2 0x18B7 JUMP JUMPDEST SWAP3 POP DUP3 PUSH2 0x20D2 JUMPI PUSH2 0x20D1 PUSH2 0x2080 JUMP JUMPDEST JUMPDEST DUP3 DUP3 DIV SWAP1 POP SWAP3 SWAP2 POP POP JUMP JUMPDEST PUSH0 PUSH2 0x20E7 DUP3 PUSH2 0x18B7 JUMP JUMPDEST SWAP2 POP PUSH2 0x20F2 DUP4 PUSH2 0x18B7 JUMP JUMPDEST SWAP3 POP DUP3 DUP3 SUB SWAP1 POP DUP2 DUP2 GT ISZERO PUSH2 0x210A JUMPI PUSH2 0x2109 PUSH2 0x1D0E JUMP JUMPDEST JUMPDEST SWAP3 SWAP2 POP POP JUMP JUMPDEST PUSH0 DUP2 SWAP1 POP SWAP2 SWAP1 POP JUMP JUMPDEST PUSH0 PUSH2 0x2123 DUP3 PUSH2 0x2110 JUMP JUMPDEST SWAP2 POP PUSH2 0x212E DUP4 PUSH2 0x2110 JUMP JUMPDEST SWAP3 POP DUP3 DUP3 SUB SWAP1 POP DUP2 DUP2 SLT PUSH0 DUP5 SLT AND DUP3 DUP3 SGT PUSH0 DUP6 SLT ISZERO AND OR ISZERO PUSH2 0x2153 JUMPI PUSH2 0x2152 PUSH2 0x1D0E JUMP JUMPDEST JUMPDEST SWAP3 SWAP2 POP POP JUMP JUMPDEST PUSH0 PUSH2 0x2163 DUP3 PUSH2 0x2110 JUMP JUMPDEST SWAP2 POP PUSH32 0x8000000000000000000000000000000000000000000000000000000000000000 DUP3 SUB PUSH2 0x2195 JUMPI PUSH2 0x2194 PUSH2 0x1D0E JUMP JUMPDEST JUMPDEST DUP2 PUSH0 SUB SWAP1 POP SWAP2 SWAP1 POP JUMP INVALID LOG2 PUSH5 0x6970667358 0x22 SLT KECCAK256 0x4A 0x5C DUP11 LOG1 PC SUB 0x5C 0xCA EXTCODECOPY PUSH19 0x94780A69FFCE4D89A1998C0E19F6F1A3562C2 SELFBALANCE PUSH10 0x164736F6C6343000817 STOP CALLER "
				},
				"gasEstimates": {
					"creation": {
						"codeDepositCost": "1732200",
						"executionCost": "infinite",
						"totalCost": "infinite"
					},
					"external": {
						"BASIS_POINTS()": "413",
						"MIN_DEPOSIT()": "391",
						"REBALANCE_THRESHOLD()": "436",
						"benqiComptroller()": "2553",
						"currentYields()": "infinite",
						"emergencyWithdraw()": "infinite",
						"getCurrentYields()": "infinite",
						"getRebalanceRecommendation(address)": "infinite",
						"getUserPortfolio(address)": "infinite",
						"optimizeYield(uint8)": "infinite",
						"owner()": "2582",
						"rebalance()": "infinite",
						"renounceOwnership()": "infinite",
						"traderJoeRouter()": "2531",
						"transferOwnership(address)": "infinite",
						"updateProtocolAddress(string,address)": "infinite",
						"updateYields(uint256,uint256,uint256)": "infinite",
						"userAllocations(address)": "infinite",
						"userProfiles(address)": "infinite",
						"yieldYakFarm()": "2554"
					},
					"internal": {
						"_allocateFunds(address,uint256,uint8)": "infinite",
						"_calculateOptimalAllocation(uint256,uint8)": "infinite",
						"_depositToBenqi(uint256)": "11",
						"_depositToTraderJoe(uint256)": "11",
						"_depositToYieldYak(uint256)": "11",
						"_executeRebalance(address,struct YieldOptimizer.ProtocolAllocation storage pointer,uint256,uint256,uint256)": "infinite",
						"_shouldRebalance(struct YieldOptimizer.ProtocolAllocation memory,uint256,uint256,uint256,uint256)": "infinite",
						"_withdrawFromBenqi(uint256)": "infinite",
						"_withdrawFromTraderJoe(uint256)": "infinite",
						"_withdrawFromYieldYak(uint256)": "infinite"
					}
				},
				"methodIdentifiers": {
					"BASIS_POINTS()": "e1f1c4a7",
					"MIN_DEPOSIT()": "e1e158a5",
					"REBALANCE_THRESHOLD()": "c85b967d",
					"benqiComptroller()": "324be9ef",
					"currentYields()": "8ccbe9f5",
					"emergencyWithdraw()": "db2e21bc",
					"getCurrentYields()": "22a16952",
					"getRebalanceRecommendation(address)": "2ab8895f",
					"getUserPortfolio(address)": "1edb27e9",
					"optimizeYield(uint8)": "00349f3a",
					"owner()": "8da5cb5b",
					"rebalance()": "7d7c2a1c",
					"renounceOwnership()": "715018a6",
					"traderJoeRouter()": "2faff427",
					"transferOwnership(address)": "f2fde38b",
					"updateProtocolAddress(string,address)": "d076e8b4",
					"updateYields(uint256,uint256,uint256)": "99e32287",
					"userAllocations(address)": "4c0c87ff",
					"userProfiles(address)": "332d56d7",
					"yieldYakFarm()": "071a8ef5"
				}
			},
			"storageLayout": {
				"storage": [
					{
						"astId": 8,
						"contract": "contracts/src/YieldOptimizer.sol:YieldOptimizer",
						"label": "_owner",
						"offset": 0,
						"slot": "0",
						"type": "t_address"
					},
					{
						"astId": 820,
						"contract": "contracts/src/YieldOptimizer.sol:YieldOptimizer",
						"label": "_status",
						"offset": 0,
						"slot": "1",
						"type": "t_uint256"
					},
					{
						"astId": 937,
						"contract": "contracts/src/YieldOptimizer.sol:YieldOptimizer",
						"label": "userProfiles",
						"offset": 0,
						"slot": "2",
						"type": "t_mapping(t_address,t_struct(UserProfile)916_storage)"
					},
					{
						"astId": 942,
						"contract": "contracts/src/YieldOptimizer.sol:YieldOptimizer",
						"label": "userAllocations",
						"offset": 0,
						"slot": "3",
						"type": "t_mapping(t_address,t_struct(ProtocolAllocation)923_storage)"
					},
					{
						"astId": 945,
						"contract": "contracts/src/YieldOptimizer.sol:YieldOptimizer",
						"label": "currentYields",
						"offset": 0,
						"slot": "4",
						"type": "t_struct(YieldData)932_storage"
					},
					{
						"astId": 947,
						"contract": "contracts/src/YieldOptimizer.sol:YieldOptimizer",
						"label": "traderJoeRouter",
						"offset": 0,
						"slot": "8",
						"type": "t_address"
					},
					{
						"astId": 949,
						"contract": "contracts/src/YieldOptimizer.sol:YieldOptimizer",
						"label": "benqiComptroller",
						"offset": 0,
						"slot": "9",
						"type": "t_address"
					},
					{
						"astId": 951,
						"contract": "contracts/src/YieldOptimizer.sol:YieldOptimizer",
						"label": "yieldYakFarm",
						"offset": 0,
						"slot": "10",
						"type": "t_address"
					}
				],
				"types": {
					"t_address": {
						"encoding": "inplace",
						"label": "address",
						"numberOfBytes": "20"
					},
					"t_bool": {
						"encoding": "inplace",
						"label": "bool",
						"numberOfBytes": "1"
					},
					"t_mapping(t_address,t_struct(ProtocolAllocation)923_storage)": {
						"encoding": "mapping",
						"key": "t_address",
						"label": "mapping(address => struct YieldOptimizer.ProtocolAllocation)",
						"numberOfBytes": "32",
						"value": "t_struct(ProtocolAllocation)923_storage"
					},
					"t_mapping(t_address,t_struct(UserProfile)916_storage)": {
						"encoding": "mapping",
						"key": "t_address",
						"label": "mapping(address => struct YieldOptimizer.UserProfile)",
						"numberOfBytes": "32",
						"value": "t_struct(UserProfile)916_storage"
					},
					"t_struct(ProtocolAllocation)923_storage": {
						"encoding": "inplace",
						"label": "struct YieldOptimizer.ProtocolAllocation",
						"members": [
							{
								"astId": 918,
								"contract": "contracts/src/YieldOptimizer.sol:YieldOptimizer",
								"label": "benqiAmount",
								"offset": 0,
								"slot": "0",
								"type": "t_uint256"
							},
							{
								"astId": 920,
								"contract": "contracts/src/YieldOptimizer.sol:YieldOptimizer",
								"label": "traderJoeAmount",
								"offset": 0,
								"slot": "1",
								"type": "t_uint256"
							},
							{
								"astId": 922,
								"contract": "contracts/src/YieldOptimizer.sol:YieldOptimizer",
								"label": "yieldYakAmount",
								"offset": 0,
								"slot": "2",
								"type": "t_uint256"
							}
						],
						"numberOfBytes": "96"
					},
					"t_struct(UserProfile)916_storage": {
						"encoding": "inplace",
						"label": "struct YieldOptimizer.UserProfile",
						"members": [
							{
								"astId": 909,
								"contract": "contracts/src/YieldOptimizer.sol:YieldOptimizer",
								"label": "riskScore",
								"offset": 0,
								"slot": "0",
								"type": "t_uint8"
							},
							{
								"astId": 911,
								"contract": "contracts/src/YieldOptimizer.sol:YieldOptimizer",
								"label": "totalDeposited",
								"offset": 0,
								"slot": "1",
								"type": "t_uint256"
							},
							{
								"astId": 913,
								"contract": "contracts/src/YieldOptimizer.sol:YieldOptimizer",
								"label": "lastRebalance",
								"offset": 0,
								"slot": "2",
								"type": "t_uint256"
							},
							{
								"astId": 915,
								"contract": "contracts/src/YieldOptimizer.sol:YieldOptimizer",
								"label": "autoRebalance",
								"offset": 0,
								"slot": "3",
								"type": "t_bool"
							}
						],
						"numberOfBytes": "128"
					},
					"t_struct(YieldData)932_storage": {
						"encoding": "inplace",
						"label": "struct YieldOptimizer.YieldData",
						"members": [
							{
								"astId": 925,
								"contract": "contracts/src/YieldOptimizer.sol:YieldOptimizer",
								"label": "benqiAPY",
								"offset": 0,
								"slot": "0",
								"type": "t_uint256"
							},
							{
								"astId": 927,
								"contract": "contracts/src/YieldOptimizer.sol:YieldOptimizer",
								"label": "traderJoeAPY",
								"offset": 0,
								"slot": "1",
								"type": "t_uint256"
							},
							{
								"astId": 929,
								"contract": "contracts/src/YieldOptimizer.sol:YieldOptimizer",
								"label": "yieldYakAPY",
								"offset": 0,
								"slot": "2",
								"type": "t_uint256"
							},
							{
								"astId": 931,
								"contract": "contracts/src/YieldOptimizer.sol:YieldOptimizer",
								"label": "lastUpdated",
								"offset": 0,
								"slot": "3",
								"type": "t_uint256"
							}
						],
						"numberOfBytes": "128"
					},
					"t_uint256": {
						"encoding": "inplace",
						"label": "uint256",
						"numberOfBytes": "32"
					},
					"t_uint8": {
						"encoding": "inplace",
						"label": "uint8",
						"numberOfBytes": "1"
					}
				}
			},
			"userdoc": {
				"kind": "user",
				"methods": {},
				"version": 1
			}
		}
	}
}