{
	"data": {
		"bytecode": {
			"linkReferences": {},
			"object": "608060405234801562000010575f80fd5b50335f73ffffffffffffffffffffffffffffffffffffffff168173ffffffffffffffffffffffffffffffffffffffff160362000085575f6040517f1e4fbdf70000000000000000000000000000000000000000000000000000000081526004016200007c9190620001fa565b60405180910390fd5b6200009681620000f660201b60201c565b506001808190555060405180608001604052806101f4815260200161032081526020016104b081526020014281525060045f820151815f015560208201518160010155604082015181600201556060820151816003015590505062000215565b5f805f9054906101000a900473ffffffffffffffffffffffffffffffffffffffff169050815f806101000a81548173ffffffffffffffffffffffffffffffffffffffff021916908373ffffffffffffffffffffffffffffffffffffffff1602179055508173ffffffffffffffffffffffffffffffffffffffff168173ffffffffffffffffffffffffffffffffffffffff167f8be0079c531659141344cd1fd0a4f28419497f9722a3daafe3b4186f6b6457e060405160405180910390a35050565b5f73ffffffffffffffffffffffffffffffffffffffff82169050919050565b5f620001e282620001b7565b9050919050565b620001f481620001d6565b82525050565b5f6020820190506200020f5f830184620001e9565b92915050565b6121d580620002235f395ff3fe60806040526004361061011d575f3560e01c80637d7c2a1c1161009f578063d076e8b411610063578063d076e8b4146103b7578063db2e21bc146103df578063e1e158a5146103f5578063e1f1c4a71461041f578063f2fde38b146104495761011d565b80637d7c2a1c146102f85780638ccbe9f51461030e5780638da5cb5b1461033b57806399e3228714610365578063c85b967d1461038d5761011d565b80632faff427116100e65780632faff42714610211578063324be9ef1461023b578063332d56d7146102655780634c0c87ff146102a4578063715018a6146102e25761011d565b8062349f3a14610121578063071a8ef51461013d5780631edb27e91461016757806322a16952146101a55780632ab8895f146101d2575b5f80fd5b61013b600480360381019061013691906117d0565b610471565b005b348015610148575f80fd5b506101516105ef565b60405161015e919061183a565b60405180910390f35b348015610172575f80fd5b5061018d6004803603810190610188919061187d565b610614565b60405161019c9392919061198b565b60405180910390f35b3480156101b0575f80fd5b506101b961074a565b6040516101c994939291906119c1565b60405180910390f35b3480156101dd575f80fd5b506101f860048036038101906101f3919061187d565b610773565b6040516102089493929190611a13565b60405180910390f35b34801561021c575f80fd5b506102256108e9565b604051610232919061183a565b60405180910390f35b348015610246575f80fd5b5061024f61090e565b60405161025c919061183a565b60405180910390f35b348015610270575f80fd5b5061028b6004803603810190610286919061187d565b610933565b60405161029b9493929190611a65565b60405180910390f35b3480156102af575f80fd5b506102ca60048036038101906102c5919061187d565b610977565b6040516102d993929190611aa8565b60405180910390f35b3480156102ed575f80fd5b506102f661099d565b005b348015610303575f80fd5b5061030c6109b0565b005b348015610319575f80fd5b50610322610b39565b60405161033294939291906119c1565b60405180910390f35b348015610346575f80fd5b5061034f610b56565b60405161035c919061183a565b60405180910390f35b348015610370575f80fd5b5061038b60048036038101906103869190611b07565b610b7d565b005b348015610398575f80fd5b506103a1610bec565b6040516103ae9190611b57565b60405180910390f35b3480156103c2575f80fd5b506103dd60048036038101906103d89190611bd1565b610bf2565b005b3480156103ea575f80fd5b506103f3610df4565b005b348015610400575f80fd5b50610409610fd3565b6040516104169190611b57565b60405180910390f35b34801561042a575f80fd5b50610433610fde565b6040516104409190611b57565b60405180910390f35b348015610454575f80fd5b5061046f600480360381019061046a919061187d565b610fe4565b005b610479611068565b662386f26fc100003410156104c3576040517f08c379a00000000000000000000000000000000000000000000000000000000081526004016104ba90611c88565b60405180910390fd5b60648160ff16111561050a576040517f08c379a000000000000000000000000000000000000000000000000000000000815260040161050190611cf0565b60405180910390fd5b5f60025f3373ffffffffffffffffffffffffffffffffffffffff1673ffffffffffffffffffffffffffffffffffffffff1681526020019081526020015f20905081815f015f6101000a81548160ff021916908360ff16021790555034816001015f8282546105789190611d3b565b925050819055504281600201819055506105933334846110ae565b3373ffffffffffffffffffffffffffffffffffffffff167f0ffa6b713fe8ff42bd695a98451844fdf6abd6dd3999ab520f344f84aff7d2a034846040516105db929190611d6e565b60405180910390a2506105ec61128a565b50565b600a5f9054906101000a900473ffffffffffffffffffffffffffffffffffffffff1681565b61061c61174b565b610624611774565b5f60025f8573ffffffffffffffffffffffffffffffffffffffff1673ffffffffffffffffffffffffffffffffffffffff1681526020019081526020015f206040518060800160405290815f82015f9054906101000a900460ff1660ff1660ff1681526020016001820154815260200160028201548152602001600382015f9054906101000a900460ff161515151581525050925060035f8573ffffffffffffffffffffffffffffffffffffffff1673ffffffffffffffffffffffffffffffffffffffff1681526020019081526020015f206040518060600160405290815f820154815260200160018201548152602001600282015481525050915081604001518260200151835f01516107379190611d3b565b6107419190611d3b565b90509193909250565b5f805f8060045f0154600460010154600460020154600460030154935093509350935090919293565b5f805f805f60025f8773ffffffffffffffffffffffffffffffffffffffff1673ffffffffffffffffffffffffffffffffffffffff1681526020019081526020015f206040518060800160405290815f82015f9054906101000a900460ff1660ff1660ff1681526020016001820154815260200160028201548152602001600382015f9054906101000a900460ff16151515158152505090505f60035f8873ffffffffffffffffffffffffffffffffffffffff1673ffffffffffffffffffffffffffffffffffffffff1681526020019081526020015f206040518060600160405290815f82015481526020016001820154815260200160028201548152505090505f826020015103610891575f805f80955095509550955050506108e2565b5f81604001518260200151835f01516108aa9190611d3b565b6108b49190611d3b565b90506108c381845f0151611293565b8096508197508298505050506108dc82878787856113aa565b96505050505b9193509193565b60085f9054906101000a900473ffffffffffffffffffffffffffffffffffffffff1681565b60095f9054906101000a900473ffffffffffffffffffffffffffffffffffffffff1681565b6002602052805f5260405f205f91509050805f015f9054906101000a900460ff1690806001015490806002015490806003015f9054906101000a900460ff16905084565b6003602052805f5260405f205f91509050805f0154908060010154908060020154905083565b6109a561140a565b6109ae5f611491565b565b6109b8611068565b5f60025f3373ffffffffffffffffffffffffffffffffffffffff1673ffffffffffffffffffffffffffffffffffffffff1681526020019081526020015f2090505f816001015411610a3e576040517f08c379a0000000000000000000000000000000000000000000000000000000008152600401610a3590611ddf565b60405180910390fd5b5f60035f3373ffffffffffffffffffffffffffffffffffffffff1673ffffffffffffffffffffffffffffffffffffffff1681526020019081526020015f2090505f81600201548260010154835f0154610a979190611d3b565b610aa19190611d3b565b90505f805f610abf84875f015f9054906101000a900460ff16611293565b925092509250610ad23386858585611552565b4286600201819055503373ffffffffffffffffffffffffffffffffffffffff167f1427d1942829759938581ce754fd0f7f116bfb7a4b77f80f0cb32cd62c2138c785604051610b219190611b57565b60405180910390a2505050505050610b3761128a565b565b6004805f0154908060010154908060020154908060030154905084565b5f805f9054906101000a900473ffffffffffffffffffffffffffffffffffffffff16905090565b610b8561140a565b8260045f01819055508160046001018190555080600460020181905550426004600301819055507feb5e818d5254a980eae621ccdcf791eb702d2f526caf4d0833b622e27964d549838383604051610bdf93929190611aa8565b60405180910390a1505050565b6101f481565b610bfa61140a565b5f8383604051602001610c0e929190611e39565b604051602081830303815290604052805190602001209050604051602001610c3590611e9b565b604051602081830303815290604052805190602001208103610c96578160085f6101000a81548173ffffffffffffffffffffffffffffffffffffffff021916908373ffffffffffffffffffffffffffffffffffffffff160217905550610db3565b604051602001610ca590611ef9565b604051602081830303815290604052805190602001208103610d06578160095f6101000a81548173ffffffffffffffffffffffffffffffffffffffff021916908373ffffffffffffffffffffffffffffffffffffffff160217905550610db2565b604051602001610d1590611f57565b604051602081830303815290604052805190602001208103610d765781600a5f6101000a81548173ffffffffffffffffffffffffffffffffffffffff021916908373ffffffffffffffffffffffffffffffffffffffff160217905550610db1565b6040517f08c379a0000000000000000000000000000000000000000000000000000000008152600401610da890611fb5565b60405180910390fd5b5b5b7f50df56c33b3bd3dac7a2db51a3f7c8bdaabf78a57ff1fab3a72992006a77e69e848484604051610de69392919061200f565b60405180910390a150505050565b610dfc611068565b5f60035f3373ffffffffffffffffffffffffffffffffffffffff1673ffffffffffffffffffffffffffffffffffffffff1681526020019081526020015f2090505f60025f3373ffffffffffffffffffffffffffffffffffffffff1673ffffffffffffffffffffffffffffffffffffffff1681526020019081526020015f2090505f80835f01541115610eaa57610e94835f015461166d565b81610e9f9190611d3b565b90505f835f01819055505b5f83600101541115610eda57610ec383600101546116b1565b81610ece9190611d3b565b90505f83600101819055505b5f83600201541115610f0a57610ef383600201546116f6565b81610efe9190611d3b565b90505f83600201819055505b5f82600101819055505f4790505f818311610f255782610f27565b815b90505f811115610fc4573373ffffffffffffffffffffffffffffffffffffffff166108fc8290811502906040515f60405180830381858888f19350505050158015610f74573d5f803e3d5ffd5b503373ffffffffffffffffffffffffffffffffffffffff167f7084f5476618d8e60b11ef0d7d3f06914655adb8793e28ff7f018d4c76d505d582604051610fbb9190611b57565b60405180910390a25b5050505050610fd161128a565b565b662386f26fc1000081565b61271081565b610fec61140a565b5f73ffffffffffffffffffffffffffffffffffffffff168173ffffffffffffffffffffffffffffffffffffffff160361105c575f6040517f1e4fbdf7000000000000000000000000000000000000000000000000000000008152600401611053919061183a565b60405180910390fd5b61106581611491565b50565b6002600154036110a4576040517f3ee5aeb500000000000000000000000000000000000000000000000000000000815260040160405180910390fd5b6002600181905550565b5f60035f8573ffffffffffffffffffffffffffffffffffffffff1673ffffffffffffffffffffffffffffffffffffffff1681526020019081526020015f2090505f805f60218560ff161161113e57612710611b588761110d919061203f565b61111791906120ad565b9250612710610bb88761112a919061203f565b61113491906120ad565b91505f90506111fe565b60428560ff16116111a557612710610fa08761115a919061203f565b61116491906120ad565b9250612710610fa087611177919061203f565b61118191906120ad565b91506127106107d087611194919061203f565b61119e91906120ad565b90506111fd565b6127106107d0876111b6919061203f565b6111c091906120ad565b9250612710610bb8876111d3919061203f565b6111dd91906120ad565b9150612710611388876111f0919061203f565b6111fa91906120ad565b90505b5b82845f015f8282546112109190611d3b565b9250508190555081846001015f82825461122a9190611d3b565b9250508190555080846002015f8282546112449190611d3b565b925050819055505f83111561125d5761125c8361173b565b5b5f82111561126f5761126e8261173e565b5b5f8111156112815761128081611741565b5b50505050505050565b60018081905550565b5f805f60218460ff16116112e357612710611b58866112b2919061203f565b6112bc91906120ad565b9250612710610bb8866112cf919061203f565b6112d991906120ad565b91505f90506113a3565b60428460ff161161134a57612710610fa0866112ff919061203f565b61130991906120ad565b9250612710610fa08661131c919061203f565b61132691906120ad565b91506127106107d086611339919061203f565b61134391906120ad565b90506113a2565b6127106107d08661135b919061203f565b61136591906120ad565b9250612710610bb886611378919061203f565b61138291906120ad565b915061271061138886611395919061203f565b61139f91906120ad565b90505b5b9250925092565b5f8085875f0151116113ca57865f0151866113c591906120dd565b6113da565b85875f01516113d991906120dd565b5b90505f6127106101f4856113ee919061203f565b6113f891906120ad565b90508082119250505095945050505050565b611412611744565b73ffffffffffffffffffffffffffffffffffffffff16611430610b56565b73ffffffffffffffffffffffffffffffffffffffff161461148f57611453611744565b6040517f118cdaa7000000000000000000000000000000000000000000000000000000008152600401611486919061183a565b60405180910390fd5b565b5f805f9054906101000a900473ffffffffffffffffffffffffffffffffffffffff169050815f806101000a81548173ffffffffffffffffffffffffffffffffffffffff021916908373ffffffffffffffffffffffffffffffffffffffff1602179055508173ffffffffffffffffffffffffffffffffffffffff168173ffffffffffffffffffffffffffffffffffffffff167f8be0079c531659141344cd1fd0a4f28419497f9722a3daafe3b4186f6b6457e060405160405180910390a35050565b5f845f0154846115629190612119565b90505f8560010154846115759190612119565b90505f8660020154846115889190612119565b90505f808412156115b8575f8461159e90612159565b90506115a98161166d565b826115b49190611d3b565b9150505b5f8312156115e5575f836115cb90612159565b90506115d6816116b1565b826115e19190611d3b565b9150505b5f821215611612575f826115f890612159565b9050611603816116f6565b8261160e9190611d3b565b9150505b5f841315611624576116238461173b565b5b5f831315611636576116358361173e565b5b5f8213156116485761164782611741565b5b86885f0181905550858860010181905550848860020181905550505050505050505050565b5f8061271061016d60045f015461168491906120ad565b6127106116919190611d3b565b8461169c919061203f565b6116a691906120ad565b905080915050919050565b5f8061271061016d6004600101546116c991906120ad565b6127106116d69190611d3b565b846116e1919061203f565b6116eb91906120ad565b905080915050919050565b5f8061271061016d60046002015461170e91906120ad565b61271061171b9190611d3b565b84611726919061203f565b61173091906120ad565b905080915050919050565b50565b50565b50565b5f33905090565b60405180608001604052805f60ff1681526020015f81526020015f81526020015f151581525090565b60405180606001604052805f81526020015f81526020015f81525090565b5f80fd5b5f80fd5b5f60ff82169050919050565b6117af8161179a565b81146117b9575f80fd5b50565b5f813590506117ca816117a6565b92915050565b5f602082840312156117e5576117e4611792565b5b5f6117f2848285016117bc565b91505092915050565b5f73ffffffffffffffffffffffffffffffffffffffff82169050919050565b5f611824826117fb565b9050919050565b6118348161181a565b82525050565b5f60208201905061184d5f83018461182b565b92915050565b61185c8161181a565b8114611866575f80fd5b50565b5f8135905061187781611853565b92915050565b5f6020828403121561189257611891611792565b5b5f61189f84828501611869565b91505092915050565b6118b18161179a565b82525050565b5f819050919050565b6118c9816118b7565b82525050565b5f8115159050919050565b6118e3816118cf565b82525050565b608082015f8201516118fd5f8501826118a8565b50602082015161191060208501826118c0565b50604082015161192360408501826118c0565b50606082015161193660608501826118da565b50505050565b606082015f8201516119505f8501826118c0565b50602082015161196360208501826118c0565b50604082015161197660408501826118c0565b50505050565b611985816118b7565b82525050565b5f6101008201905061199f5f8301866118e9565b6119ac608083018561193c565b6119b960e083018461197c565b949350505050565b5f6080820190506119d45f83018761197c565b6119e1602083018661197c565b6119ee604083018561197c565b6119fb606083018461197c565b95945050505050565b611a0d816118cf565b82525050565b5f608082019050611a265f830187611a04565b611a33602083018661197c565b611a40604083018561197c565b611a4d606083018461197c565b95945050505050565b611a5f8161179a565b82525050565b5f608082019050611a785f830187611a56565b611a85602083018661197c565b611a92604083018561197c565b611a9f6060830184611a04565b95945050505050565b5f606082019050611abb5f83018661197c565b611ac8602083018561197c565b611ad5604083018461197c565b949350505050565b611ae6816118b7565b8114611af0575f80fd5b50565b5f81359050611b0181611add565b92915050565b5f805f60608486031215611b1e57611b1d611792565b5b5f611b2b86828701611af3565b9350506020611b3c86828701611af3565b9250506040611b4d86828701611af3565b9150509250925092565b5f602082019050611b6a5f83018461197c565b92915050565b5f80fd5b5f80fd5b5f80fd5b5f8083601f840112611b9157611b90611b70565b5b8235905067ffffffffffffffff811115611bae57611bad611b74565b5b602083019150836001820283011115611bca57611bc9611b78565b5b9250929050565b5f805f60408486031215611be857611be7611792565b5b5f84013567ffffffffffffffff811115611c0557611c04611796565b5b611c1186828701611b7c565b93509350506020611c2486828701611869565b9150509250925092565b5f82825260208201905092915050565b7f4465706f73697420746f6f20736d616c6c0000000000000000000000000000005f82015250565b5f611c72601183611c2e565b9150611c7d82611c3e565b602082019050919050565b5f6020820190508181035f830152611c9f81611c66565b9050919050565b7f496e76616c6964207269736b2073636f726500000000000000000000000000005f82015250565b5f611cda601283611c2e565b9150611ce582611ca6565b602082019050919050565b5f6020820190508181035f830152611d0781611cce565b9050919050565b7f4e487b71000000000000000000000000000000000000000000000000000000005f52601160045260245ffd5b5f611d45826118b7565b9150611d50836118b7565b9250828201905080821115611d6857611d67611d0e565b5b92915050565b5f604082019050611d815f83018561197c565b611d8e6020830184611a56565b9392505050565b7f4e6f206465706f7369747320746f20726562616c616e636500000000000000005f82015250565b5f611dc9601883611c2e565b9150611dd482611d95565b602082019050919050565b5f6020820190508181035f830152611df681611dbd565b9050919050565b5f81905092915050565b828183375f83830152505050565b5f611e208385611dfd565b9350611e2d838584611e07565b82840190509392505050565b5f611e45828486611e15565b91508190509392505050565b7f7472616465726a6f6500000000000000000000000000000000000000000000005f82015250565b5f611e85600983611dfd565b9150611e9082611e51565b600982019050919050565b5f611ea582611e79565b9150819050919050565b7f62656e71690000000000000000000000000000000000000000000000000000005f82015250565b5f611ee3600583611dfd565b9150611eee82611eaf565b600582019050919050565b5f611f0382611ed7565b9150819050919050565b7f7969656c6479616b0000000000000000000000000000000000000000000000005f82015250565b5f611f41600883611dfd565b9150611f4c82611f0d565b600882019050919050565b5f611f6182611f35565b9150819050919050565b7f496e76616c69642070726f746f636f6c000000000000000000000000000000005f82015250565b5f611f9f601083611c2e565b9150611faa82611f6b565b602082019050919050565b5f6020820190508181035f830152611fcc81611f93565b9050919050565b5f601f19601f8301169050919050565b5f611fee8385611c2e565b9350611ffb838584611e07565b61200483611fd3565b840190509392505050565b5f6040820190508181035f830152612028818587611fe3565b9050612037602083018461182b565b949350505050565b5f612049826118b7565b9150612054836118b7565b9250828202612062816118b7565b9150828204841483151761207957612078611d0e565b5b5092915050565b7f4e487b71000000000000000000000000000000000000000000000000000000005f52601260045260245ffd5b5f6120b7826118b7565b91506120c2836118b7565b9250826120d2576120d1612080565b5b828204905092915050565b5f6120e7826118b7565b91506120f2836118b7565b925082820390508181111561210a57612109611d0e565b5b92915050565b5f819050919050565b5f61212382612110565b915061212e83612110565b925082820390508181125f8412168282135f85121516171561215357612152611d0e565b5b92915050565b5f61216382612110565b91507f8000000000000000000000000000000000000000000000000000000000000000820361219557612194611d0e565b5b815f03905091905056fea26469706673582212204a5c8aa158035cca3c72094780a69ffce4d89a1998c0e19f6f1a3562c247690164736f6c63430008170033",
			"opcodes": "PUSH1 0x80 PUSH1 0x40 MSTORE CALLVALUE DUP1 ISZERO PUSH3 0x10 JUMPI PUSH0 DUP1 REVERT JUMPDEST POP CALLER PUSH0 PUSH20 0xFFFFFFFFFFFFFFFFFFFFFFFFFFFFFFFFFFFFFFFF AND DUP2 PUSH20 0xFFFFFFFFFFFFFFFFFFFFFFFFFFFFFFFFFFFFFFFF AND SUB PUSH3 0x85 JUMPI PUSH0 PUSH1 0x40 MLOAD PUSH32 0x1E4FBDF700000000000000000000000000000000000000000000000000000000 DUP2 MSTORE PUSH1 0x4 ADD PUSH3 0x7C SWAP2 SWAP1 PUSH3 0x1FA JUMP JUMPDEST PUSH1 0x40 MLOAD DUP1 SWAP2 SUB SWAP1 REVERT JUMPDEST PUSH3 0x96 DUP2 PUSH3 0xF6 PUSH1 0x20 SHL PUSH1 0x20 SHR JUMP JUMPDEST POP PUSH1 0x1 DUP1 DUP2 SWAP1 SSTORE POP PUSH1 0x40 MLOAD DUP1 PUSH1 0x80 ADD PUSH1 0x40 MSTORE DUP1 PUSH2 0x1F4 DUP2 MSTORE PUSH1 0x20 ADD PUSH2 0x320 DUP2 MSTORE PUSH1 0x20 ADD PUSH2 0x4B0 DUP2 MSTORE PUSH1 0x20 ADD TIMESTAMP DUP2 MSTORE POP PUSH1 0x4 PUSH0 DUP3 ADD MLOAD DUP2 PUSH0 ADD SSTORE PUSH1 0x20 DUP3 ADD MLOAD DUP2 PUSH1 0x1 ADD SSTORE PUSH1 0x40 DUP3 ADD MLOAD DUP2 PUSH1 0x2 ADD SSTORE PUSH1 0x60 DUP3 ADD MLOAD DUP2 PUSH1 0x3 ADD SSTORE SWAP1 POP POP PUSH3 0x215 JUMP JUMPDEST PUSH0 DUP1 PUSH0 SWAP1 SLOAD SWAP1 PUSH2 0x100 EXP SWAP1 DIV PUSH20 0xFFFFFFFFFFFFFFFFFFFFFFFFFFFFFFFFFFFFFFFF AND SWAP1 POP DUP2 PUSH0 DUP1 PUSH2 0x100 EXP DUP2 SLOAD DUP2 PUSH20 0xFFFFFFFFFFFFFFFFFFFFFFFFFFFFFFFFFFFFFFFF MUL NOT AND SWAP1 DUP4 PUSH20 0xFFFFFFFFFFFFFFFFFFFFFFFFFFFFFFFFFFFFFFFF AND MUL OR SWAP1 SSTORE POP DUP2 PUSH20 0xFFFFFFFFFFFFFFFFFFFFFFFFFFFFFFFFFFFFFFFF AND DUP2 PUSH20 0xFFFFFFFFFFFFFFFFFFFFFFFFFFFFFFFFFFFFFFFF AND PUSH32 0x8BE0079C531659141344CD1FD0A4F28419497F9722A3DAAFE3B4186F6B6457E0 PUSH1 0x40 MLOAD PUSH1 0x40 MLOAD DUP1 SWAP2 SUB SWAP1 LOG3 POP POP JUMP JUMPDEST PUSH0 PUSH20 0xFFFFFFFFFFFFFFFFFFFFFFFFFFFFFFFFFFFFFFFF DUP3 AND SWAP1 POP SWAP2 SWAP1 POP JUMP JUMPDEST PUSH0 PUSH3 0x1E2 DUP3 PUSH3 0x1B7 JUMP JUMPDEST SWAP1 POP SWAP2 SWAP1 POP JUMP JUMPDEST PUSH3 0x1F4 DUP2 PUSH3 0x1D6 JUMP JUMPDEST DUP3 MSTORE POP POP JUMP JUMPDEST PUSH0 PUSH1 0x20 DUP3 ADD SWAP1 POP PUSH3 0x20F PUSH0 DUP4 ADD DUP5 PUSH3 0x1E9 JUMP JUMPDEST SWAP3 SWAP2 POP POP JUMP JUMPDEST PUSH2 0x21D5 DUP1 PUSH3 0x223 PUSH0 CODECOPY PUSH0 RETURN INVALID PUSH1 0x80 PUSH1 0x40 MSTORE PUSH1 0x4 CALLDATASIZE LT PUSH2 0x11D JUMPI PUSH0 CALLDATALOAD PUSH1 0xE0 SHR DUP1 PUSH4 0x7D7C2A1C GT PUSH2 0x9F JUMPI DUP1 PUSH4 0xD076E8B4 GT PUSH2 0x63 JUMPI DUP1 PUSH4 0xD076E8B4 EQ PUSH2 0x3B7 JUMPI DUP1 PUSH4 0xDB2E21BC EQ PUSH2 0x3DF JUMPI DUP1 PUSH4 0xE1E158A5 EQ PUSH2 0x3F5 JUMPI DUP1 PUSH4 0xE1F1C4A7 EQ PUSH2 0x41F JUMPI DUP1 PUSH4 0xF2FDE38B EQ PUSH2 0x449 JUMPI PUSH2 0x11D JUMP JUMPDEST DUP1 PUSH4 0x7D7C2A1C EQ PUSH2 0x2F8 JUMPI DUP1 PUSH4 0x8CCBE9F5 EQ PUSH2 0x30E JUMPI DUP1 PUSH4 0x8DA5CB5B EQ PUSH2 0x33B JUMPI DUP1 PUSH4 0x99E32287 EQ PUSH2 0x365 JUMPI DUP1 PUSH4 0xC85B967D EQ PUSH2 0x38D JUMPI PUSH2 0x11D JUMP JUMPDEST DUP1 PUSH4 0x2FAFF427 GT PUSH2 0xE6 JUMPI DUP1 PUSH4 0x2FAFF427 EQ PUSH2 0x211 JUMPI DUP1 PUSH4 0x324BE9EF EQ PUSH2 0x23B JUMPI DUP1 PUSH4 0x332D56D7 EQ PUSH2 0x265 JUMPI DUP1 PUSH4 0x4C0C87FF EQ PUSH2 0x2A4 JUMPI DUP1 PUSH4 0x715018A6 EQ PUSH2 0x2E2 JUMPI PUSH2 0x11D JUMP JUMPDEST DUP1 PUSH3 0x349F3A EQ PUSH2 0x121 JUMPI DUP1 PUSH4 0x71A8EF5 EQ PUSH2 0x13D JUMPI DUP1 PUSH4 0x1EDB27E9 EQ PUSH2 0x167 JUMPI DUP1 PUSH4 0x22A16952 EQ PUSH2 0x1A5 JUMPI DUP1 PUSH4 0x2AB8895F EQ PUSH2 0x1D2 JUMPI JUMPDEST PUSH0 DUP1 REVERT JUMPDEST PUSH2 0x13B PUSH1 0x4 DUP1 CALLDATASIZE SUB DUP2 ADD SWAP1 PUSH2 0x136 SWAP2 SWAP1 PUSH2 0x17D0 JUMP JUMPDEST PUSH2 0x471 JUMP JUMPDEST STOP JUMPDEST CALLVALUE DUP1 ISZERO PUSH2 0x148 JUMPI PUSH0 DUP1 REVERT JUMPDEST POP PUSH2 0x151 PUSH2 0x5EF JUMP JUMPDEST PUSH1 0x40 MLOAD PUSH2 0x15E SWAP2 SWAP1 PUSH2 0x183A JUMP JUMPDEST PUSH1 0x40 MLOAD DUP1 SWAP2 SUB SWAP1 RETURN JUMPDEST CALLVALUE DUP1 ISZERO PUSH2 0x172 JUMPI PUSH0 DUP1 REVERT JUMPDEST POP PUSH2 0x18D PUSH1 0x4 DUP1 CALLDATASIZE SUB DUP2 ADD SWAP1 PUSH2 0x188 SWAP2 SWAP1 PUSH2 0x187D JUMP JUMPDEST PUSH2 0x614 JUMP JUMPDEST PUSH1 0x40 MLOAD PUSH2 0x19C SWAP4 SWAP3 SWAP2 SWAP1 PUSH2 0x198B JUMP JUMPDEST PUSH1 0x40 MLOAD DUP1 SWAP2 SUB SWAP1 RETURN JUMPDEST CALLVALUE DUP1 ISZERO PUSH2 0x1B0 JUMPI PUSH0 DUP1 REVERT JUMPDEST POP PUSH2 0x1B9 PUSH2 0x74A JUMP JUMPDEST PUSH1 0x40 MLOAD PUSH2 0x1C9 SWAP5 SWAP4 SWAP3 SWAP2 SWAP1 PUSH2 0x19C1 JUMP JUMPDEST PUSH1 0x40 MLOAD DUP1 SWAP2 SUB SWAP1 RETURN JUMPDEST CALLVALUE DUP1 ISZERO PUSH2 0x1DD JUMPI PUSH0 DUP1 REVERT JUMPDEST POP PUSH2 0x1F8 PUSH1 0x4 DUP1 CALLDATASIZE SUB DUP2 ADD SWAP1 PUSH2 0x1F3 SWAP2 SWAP1 PUSH2 0x187D JUMP JUMPDEST PUSH2 0x773 JUMP JUMPDEST PUSH1 0x40 MLOAD PUSH2 0x208 SWAP5 SWAP4 SWAP3 SWAP2 SWAP1 PUSH2 0x1A13 JUMP JUMPDEST PUSH1 0x40 MLOAD DUP1 SWAP2 SUB SWAP1 RETURN JUMPDEST CALLVALUE DUP1 ISZERO PUSH2 0x21C JUMPI PUSH0 DUP1 REVERT JUMPDEST POP PUSH2 0x225 PUSH2 0x8E9 JUMP JUMPDEST PUSH1 0x40 MLOAD PUSH2 0x232 SWAP2 SWAP1 PUSH2 0x183A JUMP JUMPDEST PUSH1 0x40 MLOAD DUP1 SWAP2 SUB SWAP1 RETURN JUMPDEST CALLVALUE DUP1 ISZERO PUSH2 0x246 JUMPI PUSH0 DUP1 REVERT JUMPDEST POP PUSH2 0x24F PUSH2 0x90E JUMP JUMPDEST PUSH1 0x40 MLOAD PUSH2 0x25C SWAP2 SWAP1 PUSH2 0x183A JUMP JUMPDEST PUSH1 0x40 MLOAD DUP1 SWAP2 SUB SWAP1 RETURN JUMPDEST CALLVALUE DUP1 ISZERO PUSH2 0x270 JUMPI PUSH0 DUP1 REVERT JUMPDEST POP PUSH2 0x28B PUSH1 0x4 DUP1 CALLDATASIZE SUB DUP2 ADD SWAP1 PUSH2 0x286 SWAP2 SWAP1 PUSH2 0x187D JUMP JUMPDEST PUSH2 0x933 JUMP JUMPDEST PUSH1 0x40 MLOAD PUSH2 0x29B SWAP5 SWAP4 SWAP3 SWAP2 SWAP1 PUSH2 0x1A65 JUMP JUMPDEST PUSH1 0x40 MLOAD DUP1 SWAP2 SUB SWAP1 RETURN JUMPDEST CALLVALUE DUP1 ISZERO PUSH2 0x2AF JUMPI PUSH0 DUP1 REVERT JUMPDEST POP PUSH2 0x2CA PUSH1 0x4 DUP1 CALLDATASIZE SUB DUP2 ADD SWAP1 PUSH2 0x2C5 SWAP2 SWAP1 PUSH2 0x187D JUMP JUMPDEST PUSH2 0x977 JUMP JUMPDEST PUSH1 0x40 MLOAD PUSH2 0x2D9 SWAP4 SWAP3 SWAP2 SWAP1 PUSH2 0x1AA8 JUMP JUMPDEST PUSH1 0x40 MLOAD DUP1 SWAP2 SUB SWAP1 RETURN JUMPDEST CALLVALUE DUP1 ISZERO PUSH2 0x2ED JUMPI PUSH0 DUP1 REVERT JUMPDEST POP PUSH2 0x2F6 PUSH2 0x99D JUMP JUMPDEST STOP JUMPDEST CALLVALUE DUP1 ISZERO PUSH2 0x303 JUMPI PUSH0 DUP1 REVERT JUMPDEST POP PUSH2 0x30C PUSH2 0x9B0 JUMP JUMPDEST STOP JUMPDEST CALLVALUE DUP1 ISZERO PUSH2 0x319 JUMPI PUSH0 DUP1 REVERT JUMPDEST POP PUSH2 0x322 PUSH2 0xB39 JUMP JUMPDEST PUSH1 0x40 MLOAD PUSH2 0x332 SWAP5 SWAP4 SWAP3 SWAP2 SWAP1 PUSH2 0x19C1 JUMP JUMPDEST PUSH1 0x40 MLOAD DUP1 SWAP2 SUB SWAP1 RETURN JUMPDEST CALLVALUE DUP1 ISZERO PUSH2 0x346 JUMPI PUSH0 DUP1 REVERT JUMPDEST POP PUSH2 0x34F PUSH2 0xB56 JUMP JUMPDEST PUSH1 0x40 MLOAD PUSH2 0x35C SWAP2 SWAP1 PUSH2 0x183A JUMP JUMPDEST PUSH1 0x40 MLOAD DUP1 SWAP2 SUB SWAP1 RETURN JUMPDEST CALLVALUE DUP1 ISZERO PUSH2 0x370 JUMPI PUSH0 DUP1 REVERT JUMPDEST POP PUSH2 0x38B PUSH1 0x4 DUP1 CALLDATASIZE SUB DUP2 ADD SWAP1 PUSH2 0x386 SWAP2 SWAP1 PUSH2 0x1B07 JUMP JUMPDEST PUSH2 0xB7D JUMP JUMPDEST STOP JUMPDEST CALLVALUE DUP1 ISZERO PUSH2 0x398 JUMPI PUSH0 DUP1 REVERT JUMPDEST POP PUSH2 0x3A1 PUSH2 0xBEC JUMP JUMPDEST PUSH1 0x40 MLOAD PUSH2 0x3AE SWAP2 SWAP1 PUSH2 0x1B57 JUMP JUMPDEST PUSH1 0x40 MLOAD DUP1 SWAP2 SUB SWAP1 RETURN JUMPDEST CALLVALUE DUP1 ISZERO PUSH2 0x3C2 JUMPI PUSH0 DUP1 REVERT JUMPDEST POP PUSH2 0x3DD PUSH1 0x4 DUP1 CALLDATASIZE SUB DUP2 ADD SWAP1 PUSH2 0x3D8 SWAP2 SWAP1 PUSH2 0x1BD1 JUMP JUMPDEST PUSH2 0xBF2 JUMP JUMPDEST STOP JUMPDEST CALLVALUE DUP1 ISZERO PUSH2 0x3EA JUMPI PUSH0 DUP1 REVERT JUMPDEST POP PUSH2 0x3F3 PUSH2 0xDF4 JUMP JUMPDEST STOP JUMPDEST CALLVALUE DUP1 ISZERO PUSH2 0x400 JUMPI PUSH0 DUP1 REVERT JUMPDEST POP PUSH2 0x409 PUSH2 0xFD3 JUMP JUMPDEST PUSH1 0x40 MLOAD PUSH2 0x416 SWAP2 SWAP1 PUSH2 0x1B57 JUMP JUMPDEST PUSH1 0x40 MLOAD DUP1 SWAP2 SUB SWAP1 RETURN JUMPDEST CALLVALUE DUP1 ISZERO PUSH2 0x42A JUMPI PUSH0 DUP1 REVERT JUMPDEST POP PUSH2 0x433 PUSH2 0xFDE JUMP JUMPDEST PUSH1 0x40 MLOAD PUSH2 0x440 SWAP2 SWAP1 PUSH2 0x1B57 JUMP JUMPDEST PUSH1 0x40 MLOAD DUP1 SWAP2 SUB SWAP1 RETURN JUMPDEST CALLVALUE DUP1 ISZERO PUSH2 0x454 JUMPI PUSH0 DUP1 REVERT JUMPDEST POP PUSH2 0x46F PUSH1 0x4 DUP1 CALLDATASIZE SUB DUP2 ADD SWAP1 PUSH2 0x46A SWAP2 SWAP1 PUSH2 0x187D JUMP JUMPDEST PUSH2 0xFE4 JUMP JUMPDEST STOP JUMPDEST PUSH2 0x479 PUSH2 0x1068 JUMP JUMPDEST PUSH7 0x2386F26FC10000 CALLVALUE LT ISZERO PUSH2 0x4C3 JUMPI PUSH1 0x40 MLOAD PUSH32 0x8C379A000000000000000000000000000000000000000000000000000000000 DUP2 MSTORE PUSH1 0x4 ADD PUSH2 0x4BA SWAP1 PUSH2 0x1C88 JUMP JUMPDEST PUSH1 0x40 MLOAD DUP1 SWAP2 SUB SWAP1 REVERT JUMPDEST PUSH1 0x64 DUP2 PUSH1 0xFF AND GT ISZERO PUSH2 0x50A JUMPI PUSH1 0x40 MLOAD PUSH32 0x8C379A000000000000000000000000000000000000000000000000000000000 DUP2 MSTORE PUSH1 0x4 ADD PUSH2 0x501 SWAP1 PUSH2 0x1CF0 JUMP JUMPDEST PUSH1 0x40 MLOAD DUP1 SWAP2 SUB SWAP1 REVERT JUMPDEST PUSH0 PUSH1 0x2 PUSH0 CALLER PUSH20 0xFFFFFFFFFFFFFFFFFFFFFFFFFFFFFFFFFFFFFFFF AND PUSH20 0xFFFFFFFFFFFFFFFFFFFFFFFFFFFFFFFFFFFFFFFF AND DUP2 MSTORE PUSH1 0x20 ADD SWAP1 DUP2 MSTORE PUSH1 0x20 ADD PUSH0 KECCAK256 SWAP1 POP DUP2 DUP2 PUSH0 ADD PUSH0 PUSH2 0x100 EXP DUP2 SLOAD DUP2 PUSH1 0xFF MUL NOT AND SWAP1 DUP4 PUSH1 0xFF AND MUL OR SWAP1 SSTORE POP CALLVALUE DUP2 PUSH1 0x1 ADD PUSH0 DUP3 DUP3 SLOAD PUSH2 0x578 SWAP2 SWAP1 PUSH2 0x1D3B JUMP JUMPDEST SWAP3 POP POP DUP2 SWAP1 SSTORE POP TIMESTAMP DUP2 PUSH1 0x2 ADD DUP2 SWAP1 SSTORE POP PUSH2 0x593 CALLER CALLVALUE DUP5 PUSH2 0x10AE JUMP JUMPDEST CALLER PUSH20 0xFFFFFFFFFFFFFFFFFFFFFFFFFFFFFFFFFFFFFFFF AND PUSH32 0xFFA6B713FE8FF42BD695A98451844FDF6ABD6DD3999AB520F344F84AFF7D2A0 CALLVALUE DUP5 PUSH1 0x40 MLOAD PUSH2 0x5DB SWAP3 SWAP2 SWAP1 PUSH2 0x1D6E JUMP JUMPDEST PUSH1 0x40 MLOAD DUP1 SWAP2 SUB SWAP1 LOG2 POP PUSH2 0x5EC PUSH2 0x128A JUMP JUMPDEST POP JUMP JUMPDEST PUSH1 0xA PUSH0 SWAP1 SLOAD SWAP1 PUSH2 0x100 EXP SWAP1 DIV PUSH20 0xFFFFFFFFFFFFFFFFFFFFFFFFFFFFFFFFFFFFFFFF AND DUP2 JUMP JUMPDEST PUSH2 0x61C PUSH2 0x174B JUMP JUMPDEST PUSH2 0x624 PUSH2 0x1774 JUMP JUMPDEST PUSH0 PUSH1 0x2 PUSH0 DUP6 PUSH20 0xFFFFFFFFFFFFFFFFFFFFFFFFFFFFFFFFFFFFFFFF AND PUSH20 0xFFFFFFFFFFFFFFFFFFFFFFFFFFFFFFFFFFFFFFFF AND DUP2 MSTORE PUSH1 0x20 ADD SWAP1 DUP2 MSTORE PUSH1 0x20 ADD PUSH0 KECCAK256 PUSH1 0x40 MLOAD DUP1 PUSH1 0x80 ADD PUSH1 0x40 MSTORE SWAP1 DUP2 PUSH0 DUP3 ADD PUSH0 SWAP1 SLOAD SWAP1 PUSH2 0x100 EXP SWAP1 DIV PUSH1 0xFF AND PUSH1 0xFF AND PUSH1 0xFF AND DUP2 MSTORE PUSH1 0x20 ADD PUSH1 0x1 DUP3 ADD SLOAD DUP2 MSTORE PUSH1 0x20 ADD PUSH1 0x2 DUP3 ADD SLOAD DUP2 MSTORE PUSH1 0x20 ADD PUSH1 0x3 DUP3 ADD PUSH0 SWAP1 SLOAD SWAP1 PUSH2 0x100 EXP SWAP1 DIV PUSH1 0xFF AND ISZERO ISZERO ISZERO ISZERO DUP2 MSTORE POP POP SWAP3 POP PUSH1 0x3 PUSH0 DUP6 PUSH20 0xFFFFFFFFFFFFFFFFFFFFFFFFFFFFFFFFFFFFFFFF AND PUSH20 0xFFFFFFFFFFFFFFFFFFFFFFFFFFFFFFFFFFFFFFFF AND DUP2 MSTORE PUSH1 0x20 ADD SWAP1 DUP2 MSTORE PUSH1 0x20 ADD PUSH0 KECCAK256 PUSH1 0x40 MLOAD DUP1 PUSH1 0x60 ADD PUSH1 0x40 MSTORE SWAP1 DUP2 PUSH0 DUP3 ADD SLOAD DUP2 MSTORE PUSH1 0x20 ADD PUSH1 0x1 DUP3 ADD SLOAD DUP2 MSTORE PUSH1 0x20 ADD PUSH1 0x2 DUP3 ADD SLOAD DUP2 MSTORE POP POP SWAP2 POP DUP2 PUSH1 0x40 ADD MLOAD DUP3 PUSH1 0x20 ADD MLOAD DUP4 PUSH0 ADD MLOAD PUSH2 0x737 SWAP2 SWAP1 PUSH2 0x1D3B JUMP JUMPDEST PUSH2 0x741 SWAP2 SWAP1 PUSH2 0x1D3B JUMP JUMPDEST SWAP1 POP SWAP2 SWAP4 SWAP1 SWAP3 POP JUMP JUMPDEST PUSH0 DUP1 PUSH0 DUP1 PUSH1 0x4 PUSH0 ADD SLOAD PUSH1 0x4 PUSH1 0x1 ADD SLOAD PUSH1 0x4 PUSH1 0x2 ADD SLOAD PUSH1 0x4 PUSH1 0x3 ADD SLOAD SWAP4 POP SWAP4 POP SWAP4 POP SWAP4 POP SWAP1 SWAP2 SWAP3 SWAP4 JUMP JUMPDEST PUSH0 DUP1 PUSH0 DUP1 PUSH0 PUSH1 0x2 PUSH0 DUP8 PUSH20 0xFFFFFFFFFFFFFFFFFFFFFFFFFFFFFFFFFFFFFFFF AND PUSH20 0xFFFFFFFFFFFFFFFFFFFFFFFFFFFFFFFFFFFFFFFF AND DUP2 MSTORE PUSH1 0x20 ADD SWAP1 DUP2 MSTORE PUSH1 0x20 ADD PUSH0 KECCAK256 PUSH1 0x40 MLOAD DUP1 PUSH1 0x80 ADD PUSH1 0x40 MSTORE SWAP1 DUP2 PUSH0 DUP3 ADD PUSH0 SWAP1 SLOAD SWAP1 PUSH2 0x100 EXP SWAP1 DIV PUSH1 0xFF AND PUSH1 0xFF AND PUSH1 0xFF AND DUP2 MSTORE PUSH1 0x20 ADD PUSH1 0x1 DUP3 ADD SLOAD DUP2 MSTORE PUSH1 0x20 ADD PUSH1 0x2 DUP3 ADD SLOAD DUP2 MSTORE PUSH1 0x20 ADD PUSH1 0x3 DUP3 ADD PUSH0 SWAP1 SLOAD SWAP1 PUSH2 0x100 EXP SWAP1 DIV PUSH1 0xFF AND ISZERO ISZERO ISZERO ISZERO DUP2 MSTORE POP POP SWAP1 POP PUSH0 PUSH1 0x3 PUSH0 DUP9 PUSH20 0xFFFFFFFFFFFFFFFFFFFFFFFFFFFFFFFFFFFFFFFF AND PUSH20 0xFFFFFFFFFFFFFFFFFFFFFFFFFFFFFFFFFFFFFFFF AND DUP2 MSTORE PUSH1 0x20 ADD SWAP1 DUP2 MSTORE PUSH1 0x20 ADD PUSH0 KECCAK256 PUSH1 0x40 MLOAD DUP1 PUSH1 0x60 ADD PUSH1 0x40 MSTORE SWAP1 DUP2 PUSH0 DUP3 ADD SLOAD DUP2 MSTORE PUSH1 0x20 ADD PUSH1 0x1 DUP3 ADD SLOAD DUP2 MSTORE PUSH1 0x20 ADD PUSH1 0x2 DUP3 ADD SLOAD DUP2 MSTORE POP POP SWAP1 POP PUSH0 DUP3 PUSH1 0x20 ADD MLOAD SUB PUSH2 0x891 JUMPI PUSH0 DUP1 PUSH0 DUP1 SWAP6 POP SWAP6 POP SWAP6 POP SWAP6 POP POP POP PUSH2 0x8E2 JUMP JUMPDEST PUSH0 DUP2 PUSH1 0x40 ADD MLOAD DUP3 PUSH1 0x20 ADD MLOAD DUP4 PUSH0 ADD MLOAD PUSH2 0x8AA SWAP2 SWAP1 PUSH2 0x1D3B JUMP JUMPDEST PUSH2 0x8B4 SWAP2 SWAP1 PUSH2 0x1D3B JUMP JUMPDEST SWAP1 POP PUSH2 0x8C3 DUP2 DUP5 PUSH0 ADD MLOAD PUSH2 0x1293 JUMP JUMPDEST DUP1 SWAP7 POP DUP2 SWAP8 POP DUP3 SWAP9 POP POP POP POP PUSH2 0x8DC DUP3 DUP8 DUP8 DUP8 DUP6 PUSH2 0x13AA JUMP JUMPDEST SWAP7 POP POP POP POP JUMPDEST SWAP2 SWAP4 POP SWAP2 SWAP4 JUMP JUMPDEST PUSH1 0x8 PUSH0 SWAP1 SLOAD SWAP1 PUSH2 0x100 EXP SWAP1 DIV PUSH20 0xFFFFFFFFFFFFFFFFFFFFFFFFFFFFFFFFFFFFFFFF AND DUP2 JUMP JUMPDEST PUSH1 0x9 PUSH0 SWAP1 SLOAD SWAP1 PUSH2 0x100 EXP SWAP1 DIV PUSH20 0xFFFFFFFFFFFFFFFFFFFFFFFFFFFFFFFFFFFFFFFF AND DUP2 JUMP JUMPDEST PUSH1 0x2 PUSH1 0x20 MSTORE DUP1 PUSH0 MSTORE PUSH1 0x40 PUSH0 KECCAK256 PUSH0 SWAP2 POP SWAP1 POP DUP1 PUSH0 ADD PUSH0 SWAP1 SLOAD SWAP1 PUSH2 0x100 EXP SWAP1 DIV PUSH1 0xFF AND SWAP1 DUP1 PUSH1 0x1 ADD SLOAD SWAP1 DUP1 PUSH1 0x2 ADD SLOAD SWAP1 DUP1 PUSH1 0x3 ADD PUSH0 SWAP1 SLOAD SWAP1 PUSH2 0x100 EXP SWAP1 DIV PUSH1 0xFF AND SWAP1 POP DUP5 JUMP JUMPDEST PUSH1 0x3 PUSH1 0x20 MSTORE DUP1 PUSH0 MSTORE PUSH1 0x40 PUSH0 KECCAK256 PUSH0 SWAP2 POP SWAP1 POP DUP1 PUSH0 ADD SLOAD SWAP1 DUP1 PUSH1 0x1 ADD SLOAD SWAP1 DUP1 PUSH1 0x2 ADD SLOAD SWAP1 POP DUP4 JUMP JUMPDEST PUSH2 0x9A5 PUSH2 0x140A JUMP JUMPDEST PUSH2 0x9AE PUSH0 PUSH2 0x1491 JUMP JUMPDEST JUMP JUMPDEST PUSH2 0x9B8 PUSH2 0x1068 JUMP JUMPDEST PUSH0 PUSH1 0x2 PUSH0 CALLER PUSH20 0xFFFFFFFFFFFFFFFFFFFFFFFFFFFFFFFFFFFFFFFF AND PUSH20 0xFFFFFFFFFFFFFFFFFFFFFFFFFFFFFFFFFFFFFFFF AND DUP2 MSTORE PUSH1 0x20 ADD SWAP1 DUP2 MSTORE PUSH1 0x20 ADD PUSH0 KECCAK256 SWAP1 POP PUSH0 DUP2 PUSH1 0x1 ADD SLOAD GT PUSH2 0xA3E JUMPI PUSH1 0x40 MLOAD PUSH32 0x8C379A000000000000000000000000000000000000000000000000000000000 DUP2 MSTORE PUSH1 0x4 ADD PUSH2 0xA35 SWAP1 PUSH2 0x1DDF JUMP JUMPDEST PUSH1 0x40 MLOAD DUP1 SWAP2 SUB SWAP1 REVERT JUMPDEST PUSH0 PUSH1 0x3 PUSH0 CALLER PUSH20 0xFFFFFFFFFFFFFFFFFFFFFFFFFFFFFFFFFFFFFFFF AND PUSH20 0xFFFFFFFFFFFFFFFFFFFFFFFFFFFFFFFFFFFFFFFF AND DUP2 MSTORE PUSH1 0x20 ADD SWAP1 DUP2 MSTORE PUSH1 0x20 ADD PUSH0 KECCAK256 SWAP1 POP PUSH0 DUP2 PUSH1 0x2 ADD SLOAD DUP3 PUSH1 0x1 ADD SLOAD DUP4 PUSH0 ADD SLOAD PUSH2 0xA97 SWAP2 SWAP1 PUSH2 0x1D3B JUMP JUMPDEST PUSH2 0xAA1 SWAP2 SWAP1 PUSH2 0x1D3B JUMP JUMPDEST SWAP1 POP PUSH0 DUP1 PUSH0 PUSH2 0xABF DUP5 DUP8 PUSH0 ADD PUSH0 SWAP1 SLOAD SWAP1 PUSH2 0x100 EXP SWAP1 DIV PUSH1 0xFF AND PUSH2 0x1293 JUMP JUMPDEST SWAP3 POP SWAP3 POP SWAP3 POP PUSH2 0xAD2 CALLER DUP7 DUP6 DUP6 DUP6 PUSH2 0x1552 JUMP JUMPDEST TIMESTAMP DUP7 PUSH1 0x2 ADD DUP2 SWAP1 SSTORE POP CALLER PUSH20 0xFFFFFFFFFFFFFFFFFFFFFFFFFFFFFFFFFFFFFFFF AND PUSH32 0x1427D1942829759938581CE754FD0F7F116BFB7A4B77F80F0CB32CD62C2138C7 DUP6 PUSH1 0x40 MLOAD PUSH2 0xB21 SWAP2 SWAP1 PUSH2 0x1B57 JUMP JUMPDEST PUSH1 0x40 MLOAD DUP1 SWAP2 SUB SWAP1 LOG2 POP POP POP POP POP POP PUSH2 0xB37 PUSH2 0x128A JUMP JUMPDEST JUMP JUMPDEST PUSH1 0x4 DUP1 PUSH0 ADD SLOAD SWAP1 DUP1 PUSH1 0x1 ADD SLOAD SWAP1 DUP1 PUSH1 0x2 ADD SLOAD SWAP1 DUP1 PUSH1 0x3 ADD SLOAD SWAP1 POP DUP5 JUMP JUMPDEST PUSH0 DUP1 PUSH0 SWAP1 SLOAD SWAP1 PUSH2 0x100 EXP SWAP1 DIV PUSH20 0xFFFFFFFFFFFFFFFFFFFFFFFFFFFFFFFFFFFFFFFF AND SWAP1 POP SWAP1 JUMP JUMPDEST PUSH2 0xB85 PUSH2 0x140A JUMP JUMPDEST DUP3 PUSH1 0x4 PUSH0 ADD DUP2 SWAP1 SSTORE POP DUP2 PUSH1 0x4 PUSH1 0x1 ADD DUP2 SWAP1 SSTORE POP DUP1 PUSH1 0x4 PUSH1 0x2 ADD DUP2 SWAP1 SSTORE POP TIMESTAMP PUSH1 0x4 PUSH1 0x3 ADD DUP2 SWAP1 SSTORE POP PUSH32 0xEB5E818D5254A980EAE621CCDCF791EB702D2F526CAF4D0833B622E27964D549 DUP4 DUP4 DUP4 PUSH1 0x40 MLOAD PUSH2 0xBDF SWAP4 SWAP3 SWAP2 SWAP1 PUSH2 0x1AA8 JUMP JUMPDEST PUSH1 0x40 MLOAD DUP1 SWAP2 SUB SWAP1 LOG1 POP POP POP JUMP JUMPDEST PUSH2 0x1F4 DUP2 JUMP JUMPDEST PUSH2 0xBFA PUSH2 0x140A JUMP JUMPDEST PUSH0 DUP4 DUP4 PUSH1 0x40 MLOAD PUSH1 0x20 ADD PUSH2 0xC0E SWAP3 SWAP2 SWAP1 PUSH2 0x1E39 JUMP JUMPDEST PUSH1 0x40 MLOAD PUSH1 0x20 DUP2 DUP4 SUB SUB DUP2 MSTORE SWAP1 PUSH1 0x40 MSTORE DUP1 MLOAD SWAP1 PUSH1 0x20 ADD KECCAK256 SWAP1 POP PUSH1 0x40 MLOAD PUSH1 0x20 ADD PUSH2 0xC35 SWAP1 PUSH2 0x1E9B JUMP JUMPDEST PUSH1 0x40 MLOAD PUSH1 0x20 DUP2 DUP4 SUB SUB DUP2 MSTORE SWAP1 PUSH1 0x40 MSTORE DUP1 MLOAD SWAP1 PUSH1 0x20 ADD KECCAK256 DUP2 SUB PUSH2 0xC96 JUMPI DUP2 PUSH1 0x8 PUSH0 PUSH2 0x100 EXP DUP2 SLOAD DUP2 PUSH20 0xFFFFFFFFFFFFFFFFFFFFFFFFFFFFFFFFFFFFFFFF MUL NOT AND SWAP1 DUP4 PUSH20 0xFFFFFFFFFFFFFFFFFFFFFFFFFFFFFFFFFFFFFFFF AND MUL OR SWAP1 SSTORE POP PUSH2 0xDB3 JUMP JUMPDEST PUSH1 0x40 MLOAD PUSH1 0x20 ADD PUSH2 0xCA5 SWAP1 PUSH2 0x1EF9 JUMP JUMPDEST PUSH1 0x40 MLOAD PUSH1 0x20 DUP2 DUP4 SUB SUB DUP2 MSTORE SWAP1 PUSH1 0x40 MSTORE DUP1 MLOAD SWAP1 PUSH1 0x20 ADD KECCAK256 DUP2 SUB PUSH2 0xD06 JUMPI DUP2 PUSH1 0x9 PUSH0 PUSH2 0x100 EXP DUP2 SLOAD DUP2 PUSH20 0xFFFFFFFFFFFFFFFFFFFFFFFFFFFFFFFFFFFFFFFF MUL NOT AND SWAP1 DUP4 PUSH20 0xFFFFFFFFFFFFFFFFFFFFFFFFFFFFFFFFFFFFFFFF AND MUL OR SWAP1 SSTORE POP PUSH2 0xDB2 JUMP JUMPDEST PUSH1 0x40 MLOAD PUSH1 0x20 ADD PUSH2 0xD15 SWAP1 PUSH2 0x1F57 JUMP JUMPDEST PUSH1 0x40 MLOAD PUSH1 0x20 DUP2 DUP4 SUB SUB DUP2 MSTORE SWAP1 PUSH1 0x40 MSTORE DUP1 MLOAD SWAP1 PUSH1 0x20 ADD KECCAK256 DUP2 SUB PUSH2 0xD76 JUMPI DUP2 PUSH1 0xA PUSH0 PUSH2 0x100 EXP DUP2 SLOAD DUP2 PUSH20 0xFFFFFFFFFFFFFFFFFFFFFFFFFFFFFFFFFFFFFFFF MUL NOT AND SWAP1 DUP4 PUSH20 0xFFFFFFFFFFFFFFFFFFFFFFFFFFFFFFFFFFFFFFFF AND MUL OR SWAP1 SSTORE POP PUSH2 0xDB1 JUMP JUMPDEST PUSH1 0x40 MLOAD PUSH32 0x8C379A000000000000000000000000000000000000000000000000000000000 DUP2 MSTORE PUSH1 0x4 ADD PUSH2 0xDA8 SWAP1 PUSH2 0x1FB5 JUMP JUMPDEST PUSH1 0x40 MLOAD DUP1 SWAP2 SUB SWAP1 REVERT JUMPDEST JUMPDEST JUMPDEST PUSH32 0x50DF56C33B3BD3DAC7A2DB51A3F7C8BDAABF78A57FF1FAB3A72992006A77E69E DUP5 DUP5 DUP5 PUSH1 0x40 MLOAD PUSH2 0xDE6 SWAP4 SWAP3 SWAP2 SWAP1 PUSH2 0x200F JUMP JUMPDEST PUSH1 0x40 MLOAD DUP1 SWAP2 SUB SWAP1 LOG1 POP POP POP POP JUMP JUMPDEST PUSH2 0xDFC PUSH2 0x1068 JUMP JUMPDEST PUSH0 PUSH1 0x3 PUSH0 CALLER PUSH20 0xFFFFFFFFFFFFFFFFFFFFFFFFFFFFFFFFFFFFFFFF AND PUSH20 0xFFFFFFFFFFFFFFFFFFFFFFFFFFFFFFFFFFFFFFFF AND DUP2 MSTORE PUSH1 0x20 ADD SWAP1 DUP2 MSTORE PUSH1 0x20 ADD PUSH0 KECCAK256 SWAP1 POP PUSH0 PUSH1 0x2 PUSH0 CALLER PUSH20 0xFFFFFFFFFFFFFFFFFFFFFFFFFFFFFFFFFFFFFFFF AND PUSH20 0xFFFFFFFFFFFFFFFFFFFFFFFFFFFFFFFFFFFFFFFF AND DUP2 MSTORE PUSH1 0x20 ADD SWAP1 DUP2 MSTORE PUSH1 0x20 ADD PUSH0 KECCAK256 SWAP1 POP PUSH0 DUP1 DUP4 PUSH0 ADD SLOAD GT ISZERO PUSH2 0xEAA JUMPI PUSH2 0xE94 DUP4 PUSH0 ADD SLOAD PUSH2 0x166D JUMP JUMPDEST DUP2 PUSH2 0xE9F SWAP2 SWAP1 PUSH2 0x1D3B JUMP JUMPDEST SWAP1 POP PUSH0 DUP4 PUSH0 ADD DUP2 SWAP1 SSTORE POP JUMPDEST PUSH0 DUP4 PUSH1 0x1 ADD SLOAD GT ISZERO PUSH2 0xEDA JUMPI PUSH2 0xEC3 DUP4 PUSH1 0x1 ADD SLOAD PUSH2 0x16B1 JUMP JUMPDEST DUP2 PUSH2 0xECE SWAP2 SWAP1 PUSH2 0x1D3B JUMP JUMPDEST SWAP1 POP PUSH0 DUP4 PUSH1 0x1 ADD DUP2 SWAP1 SSTORE POP JUMPDEST PUSH0 DUP4 PUSH1 0x2 ADD SLOAD GT ISZERO PUSH2 0xF0A JUMPI PUSH2 0xEF3 DUP4 PUSH1 0x2 ADD SLOAD PUSH2 0x16F6 JUMP JUMPDEST DUP2 PUSH2 0xEFE SWAP2 SWAP1 PUSH2 0x1D3B JUMP JUMPDEST SWAP1 POP PUSH0 DUP4 PUSH1 0x2 ADD DUP2 SWAP1 SSTORE POP JUMPDEST PUSH0 DUP3 PUSH1 0x1 ADD DUP2 SWAP1 SSTORE POP PUSH0 SELFBALANCE SWAP1 POP PUSH0 DUP2 DUP4 GT PUSH2 0xF25 JUMPI DUP3 PUSH2 0xF27 JUMP JUMPDEST DUP2 JUMPDEST SWAP1 POP PUSH0 DUP2 GT ISZERO PUSH2 0xFC4 JUMPI CALLER PUSH20 0xFFFFFFFFFFFFFFFFFFFFFFFFFFFFFFFFFFFFFFFF AND PUSH2 0x8FC DUP3 SWAP1 DUP2 ISZERO MUL SWAP1 PUSH1 0x40 MLOAD PUSH0 PUSH1 0x40 MLOAD DUP1 DUP4 SUB DUP2 DUP6 DUP9 DUP9 CALL SWAP4 POP POP POP POP ISZERO DUP1 ISZERO PUSH2 0xF74 JUMPI RETURNDATASIZE PUSH0 DUP1 RETURNDATACOPY RETURNDATASIZE PUSH0 REVERT JUMPDEST POP CALLER PUSH20 0xFFFFFFFFFFFFFFFFFFFFFFFFFFFFFFFFFFFFFFFF AND PUSH32 0x7084F5476618D8E60B11EF0D7D3F06914655ADB8793E28FF7F018D4C76D505D5 DUP3 PUSH1 0x40 MLOAD PUSH2 0xFBB SWAP2 SWAP1 PUSH2 0x1B57 JUMP JUMPDEST PUSH1 0x40 MLOAD DUP1 SWAP2 SUB SWAP1 LOG2 JUMPDEST POP POP POP POP POP PUSH2 0xFD1 PUSH2 0x128A JUMP JUMPDEST JUMP JUMPDEST PUSH7 0x2386F26FC10000 DUP2 JUMP JUMPDEST PUSH2 0x2710 DUP2 JUMP JUMPDEST PUSH2 0xFEC PUSH2 0x140A JUMP JUMPDEST PUSH0 PUSH20 0xFFFFFFFFFFFFFFFFFFFFFFFFFFFFFFFFFFFFFFFF AND DUP2 PUSH20 0xFFFFFFFFFFFFFFFFFFFFFFFFFFFFFFFFFFFFFFFF AND SUB PUSH2 0x105C JUMPI PUSH0 PUSH1 0x40 MLOAD PUSH32 0x1E4FBDF700000000000000000000000000000000000000000000000000000000 DUP2 MSTORE PUSH1 0x4 ADD PUSH2 0x1053 SWAP2 SWAP1 PUSH2 0x183A JUMP JUMPDEST PUSH1 0x40 MLOAD DUP1 SWAP2 SUB SWAP1 REVERT JUMPDEST PUSH2 0x1065 DUP2 PUSH2 0x1491 JUMP JUMPDEST POP JUMP JUMPDEST PUSH1 0x2 PUSH1 0x1 SLOAD SUB PUSH2 0x10A4 JUMPI PUSH1 0x40 MLOAD PUSH32 0x3EE5AEB500000000000000000000000000000000000000000000000000000000 DUP2 MSTORE PUSH1 0x4 ADD PUSH1 0x40 MLOAD DUP1 SWAP2 SUB SWAP1 REVERT JUMPDEST PUSH1 0x2 PUSH1 0x1 DUP2 SWAP1 SSTORE POP JUMP JUMPDEST PUSH0 PUSH1 0x3 PUSH0 DUP6 PUSH20 0xFFFFFFFFFFFFFFFFFFFFFFFFFFFFFFFFFFFFFFFF AND PUSH20 0xFFFFFFFFFFFFFFFFFFFFFFFFFFFFFFFFFFFFFFFF AND DUP2 MSTORE PUSH1 0x20 ADD SWAP1 DUP2 MSTORE PUSH1 0x20 ADD PUSH0 KECCAK256 SWAP1 POP PUSH0 DUP1 PUSH0 PUSH1 0x21 DUP6 PUSH1 0xFF AND GT PUSH2 0x113E JUMPI PUSH2 0x2710 PUSH2 0x1B58 DUP8 PUSH2 0x110D SWAP2 SWAP1 PUSH2 0x203F JUMP JUMPDEST PUSH2 0x1117 SWAP2 SWAP1 PUSH2 0x20AD JUMP JUMPDEST SWAP3 POP PUSH2 0x2710 PUSH2 0xBB8 DUP8 PUSH2 0x112A SWAP2 SWAP1 PUSH2 0x203F JUMP JUMPDEST PUSH2 0x1134 SWAP2 SWAP1 PUSH2 0x20AD JUMP JUMPDEST SWAP2 POP PUSH0 SWAP1 POP PUSH2 0x11FE JUMP JUMPDEST PUSH1 0x42 DUP6 PUSH1 0xFF AND GT PUSH2 0x11A5 JUMPI PUSH2 0x2710 PUSH2 0xFA0 DUP8 PUSH2 0x115A SWAP2 SWAP1 PUSH2 0x203F JUMP JUMPDEST PUSH2 0x1164 SWAP2 SWAP1 PUSH2 0x20AD JUMP JUMPDEST SWAP3 POP PUSH2 0x2710 PUSH2 0xFA0 DUP8 PUSH2 0x1177 SWAP2 SWAP1 PUSH2 0x203F JUMP JUMPDEST PUSH2 0x1181 SWAP2 SWAP1 PUSH2 0x20AD JUMP JUMPDEST SWAP2 POP PUSH2 0x2710 PUSH2 0x7D0 DUP8 PUSH2 0x1194 SWAP2 SWAP1 PUSH2 0x203F JUMP JUMPDEST PUSH2 0x119E SWAP2 SWAP1 PUSH2 0x20AD JUMP JUMPDEST SWAP1 POP PUSH2 0x11FD JUMP JUMPDEST PUSH2 0x2710 PUSH2 0x7D0 DUP8 PUSH2 0x11B6 SWAP2 SWAP1 PUSH2 0x203F JUMP JUMPDEST PUSH2 0x11C0 SWAP2 SWAP1 PUSH2 0x20AD JUMP JUMPDEST SWAP3 POP PUSH2 0x2710 PUSH2 0xBB8 DUP8 PUSH2 0x11D3 SWAP2 SWAP1 PUSH2 0x203F JUMP JUMPDEST PUSH2 0x11DD SWAP2 SWAP1 PUSH2 0x20AD JUMP JUMPDEST SWAP2 POP PUSH2 0x2710 PUSH2 0x1388 DUP8 PUSH2 0x11F0 SWAP2 SWAP1 PUSH2 0x203F JUMP JUMPDEST PUSH2 0x11FA SWAP2 SWAP1 PUSH2 0x20AD JUMP JUMPDEST SWAP1 POP JUMPDEST JUMPDEST DUP3 DUP5 PUSH0 ADD PUSH0 DUP3 DUP3 SLOAD PUSH2 0x1210 SWAP2 SWAP1 PUSH2 0x1D3B JUMP JUMPDEST SWAP3 POP POP DUP2 SWAP1 SSTORE POP DUP2 DUP5 PUSH1 0x1 ADD PUSH0 DUP3 DUP3 SLOAD PUSH2 0x122A SWAP2 SWAP1 PUSH2 0x1D3B JUMP JUMPDEST SWAP3 POP POP DUP2 SWAP1 SSTORE POP DUP1 DUP5 PUSH1 0x2 ADD PUSH0 DUP3 DUP3 SLOAD PUSH2 0x1244 SWAP2 SWAP1 PUSH2 0x1D3B JUMP JUMPDEST SWAP3 POP POP DUP2 SWAP1 SSTORE POP PUSH0 DUP4 GT ISZERO PUSH2 0x125D JUMPI PUSH2 0x125C DUP4 PUSH2 0x173B JUMP JUMPDEST JUMPDEST PUSH0 DUP3 GT ISZERO PUSH2 0x126F JUMPI PUSH2 0x126E DUP3 PUSH2 0x173E JUMP JUMPDEST JUMPDEST PUSH0 DUP2 GT ISZERO PUSH2 0x1281 JUMPI PUSH2 0x1280 DUP2 PUSH2 0x1741 JUMP JUMPDEST JUMPDEST POP POP POP POP POP POP POP JUMP JUMPDEST PUSH1 0x1 DUP1 DUP2 SWAP1 SSTORE POP JUMP JUMPDEST PUSH0 DUP1 PUSH0 PUSH1 0x21 DUP5 PUSH1 0xFF AND GT PUSH2 0x12E3 JUMPI PUSH2 0x2710 PUSH2 0x1B58 DUP7 PUSH2 0x12B2 SWAP2 SWAP1 PUSH2 0x203F JUMP JUMPDEST PUSH2 0x12BC SWAP2 SWAP1 PUSH2 0x20AD JUMP JUMPDEST SWAP3 POP PUSH2 0x2710 PUSH2 0xBB8 DUP7 PUSH2 0x12CF SWAP2 SWAP1 PUSH2 0x203F JUMP JUMPDEST PUSH2 0x12D9 SWAP2 SWAP1 PUSH2 0x20AD JUMP JUMPDEST SWAP2 POP PUSH0 SWAP1 POP PUSH2 0x13A3 JUMP JUMPDEST PUSH1 0x42 DUP5 PUSH1 0xFF AND GT PUSH2 0x134A JUMPI PUSH2 0x2710 PUSH2 0xFA0 DUP7 PUSH2 0x12FF SWAP2 SWAP1 PUSH2 0x203F JUMP JUMPDEST PUSH2 0x1309 SWAP2 SWAP1 PUSH2 0x20AD JUMP JUMPDEST SWAP3 POP PUSH2 0x2710 PUSH2 0xFA0 DUP7 PUSH2 0x131C SWAP2 SWAP1 PUSH2 0x203F JUMP JUMPDEST PUSH2 0x1326 SWAP2 SWAP1 PUSH2 0x20AD JUMP JUMPDEST SWAP2 POP PUSH2 0x2710 PUSH2 0x7D0 DUP7 PUSH2 0x1339 SWAP2 SWAP1 PUSH2 0x203F JUMP JUMPDEST PUSH2 0x1343 SWAP2 SWAP1 PUSH2 0x20AD JUMP JUMPDEST SWAP1 POP PUSH2 0x13A2 JUMP JUMPDEST PUSH2 0x2710 PUSH2 0x7D0 DUP7 PUSH2 0x135B SWAP2 SWAP1 PUSH2 0x203F JUMP JUMPDEST PUSH2 0x1365 SWAP2 SWAP1 PUSH2 0x20AD JUMP JUMPDEST SWAP3 POP PUSH2 0x2710 PUSH2 0xBB8 DUP7 PUSH2 0x1378 SWAP2 SWAP1 PUSH2 0x203F JUMP JUMPDEST PUSH2 0x1382 SWAP2 SWAP1 PUSH2 0x20AD JUMP JUMPDEST SWAP2 POP PUSH2 0x2710 PUSH2 0x1388 DUP7 PUSH2 0x1395 SWAP2 SWAP1 PUSH2 0x203F JUMP JUMPDEST PUSH2 0x139F SWAP2 SWAP1 PUSH2 0x20AD JUMP JUMPDEST SWAP1 POP JUMPDEST JUMPDEST SWAP3 POP SWAP3 POP SWAP3 JUMP JUMPDEST PUSH0 DUP1 DUP6 DUP8 PUSH0 ADD MLOAD GT PUSH2 0x13CA JUMPI DUP7 PUSH0 ADD MLOAD DUP7 PUSH2 0x13C5 SWAP2 SWAP1 PUSH2 0x20DD JUMP JUMPDEST PUSH2 0x13DA JUMP JUMPDEST DUP6 DUP8 PUSH0 ADD MLOAD PUSH2 0x13D9 SWAP2 SWAP1 PUSH2 0x20DD JUMP JUMPDEST JUMPDEST SWAP1 POP PUSH0 PUSH2 0x2710 PUSH2 0x1F4 DUP6 PUSH2 0x13EE SWAP2 SWAP1 PUSH2 0x203F JUMP JUMPDEST PUSH2 0x13F8 SWAP2 SWAP1 PUSH2 0x20AD JUMP JUMPDEST SWAP1 POP DUP1 DUP3 GT SWAP3 POP POP POP SWAP6 SWAP5 POP POP POP POP POP JUMP JUMPDEST PUSH2 0x1412 PUSH2 0x1744 JUMP JUMPDEST PUSH20 0xFFFFFFFFFFFFFFFFFFFFFFFFFFFFFFFFFFFFFFFF AND PUSH2 0x1430 PUSH2 0xB56 JUMP JUMPDEST PUSH20 0xFFFFFFFFFFFFFFFFFFFFFFFFFFFFFFFFFFFFFFFF AND EQ PUSH2 0x148F JUMPI PUSH2 0x1453 PUSH2 0x1744 JUMP JUMPDEST PUSH1 0x40 MLOAD PUSH32 0x118CDAA700000000000000000000000000000000000000000000000000000000 DUP2 MSTORE PUSH1 0x4 ADD PUSH2 0x1486 SWAP2 SWAP1 PUSH2 0x183A JUMP JUMPDEST PUSH1 0x40 MLOAD DUP1 SWAP2 SUB SWAP1 REVERT JUMPDEST JUMP JUMPDEST PUSH0 DUP1 PUSH0 SWAP1 SLOAD SWAP1 PUSH2 0x100 EXP SWAP1 DIV PUSH20 0xFFFFFFFFFFFFFFFFFFFFFFFFFFFFFFFFFFFFFFFF AND SWAP1 POP DUP2 PUSH0 DUP1 PUSH2 0x100 EXP DUP2 SLOAD DUP2 PUSH20 0xFFFFFFFFFFFFFFFFFFFFFFFFFFFFFFFFFFFFFFFF MUL NOT AND SWAP1 DUP4 PUSH20 0xFFFFFFFFFFFFFFFFFFFFFFFFFFFFFFFFFFFFFFFF AND MUL OR SWAP1 SSTORE POP DUP2 PUSH20 0xFFFFFFFFFFFFFFFFFFFFFFFFFFFFFFFFFFFFFFFF AND DUP2 PUSH20 0xFFFFFFFFFFFFFFFFFFFFFFFFFFFFFFFFFFFFFFFF AND PUSH32 0x8BE0079C531659141344CD1FD0A4F28419497F9722A3DAAFE3B4186F6B6457E0 PUSH1 0x40 MLOAD PUSH1 0x40 MLOAD DUP1 SWAP2 SUB SWAP1 LOG3 POP POP JUMP JUMPDEST PUSH0 DUP5 PUSH0 ADD SLOAD DUP5 PUSH2 0x1562 SWAP2 SWAP1 PUSH2 0x2119 JUMP JUMPDEST SWAP1 POP PUSH0 DUP6 PUSH1 0x1 ADD SLOAD DUP5 PUSH2 0x1575 SWAP2 SWAP1 PUSH2 0x2119 JUMP JUMPDEST SWAP1 POP PUSH0 DUP7 PUSH1 0x2 ADD SLOAD DUP5 PUSH2 0x1588 SWAP2 SWAP1 PUSH2 0x2119 JUMP JUMPDEST SWAP1 POP PUSH0 DUP1 DUP5 SLT ISZERO PUSH2 0x15B8 JUMPI PUSH0 DUP5 PUSH2 0x159E SWAP1 PUSH2 0x2159 JUMP JUMPDEST SWAP1 POP PUSH2 0x15A9 DUP2 PUSH2 0x166D JUMP JUMPDEST DUP3 PUSH2 0x15B4 SWAP2 SWAP1 PUSH2 0x1D3B JUMP JUMPDEST SWAP2 POP POP JUMPDEST PUSH0 DUP4 SLT ISZERO PUSH2 0x15E5 JUMPI PUSH0 DUP4 PUSH2 0x15CB SWAP1 PUSH2 0x2159 JUMP JUMPDEST SWAP1 POP PUSH2 0x15D6 DUP2 PUSH2 0x16B1 JUMP JUMPDEST DUP3 PUSH2 0x15E1 SWAP2 SWAP1 PUSH2 0x1D3B JUMP JUMPDEST SWAP2 POP POP JUMPDEST PUSH0 DUP3 SLT ISZERO PUSH2 0x1612 JUMPI PUSH0 DUP3 PUSH2 0x15F8 SWAP1 PUSH2 0x2159 JUMP JUMPDEST SWAP1 POP PUSH2 0x1603 DUP2 PUSH2 0x16F6 JUMP JUMPDEST DUP3 PUSH2 0x160E SWAP2 SWAP1 PUSH2 0x1D3B JUMP JUMPDEST SWAP2 POP POP JUMPDEST PUSH0 DUP5 SGT ISZERO PUSH2 0x1624 JUMPI PUSH2 0x1623 DUP5 PUSH2 0x173B JUMP JUMPDEST JUMPDEST PUSH0 DUP4 SGT ISZERO PUSH2 0x1636 JUMPI PUSH2 0x1635 DUP4 PUSH2 0x173E JUMP JUMPDEST JUMPDEST PUSH0 DUP3 SGT ISZERO PUSH2 0x1648 JUMPI PUSH2 0x1647 DUP3 PUSH2 0x1741 JUMP JUMPDEST JUMPDEST DUP7 DUP9 PUSH0 ADD DUP2 SWAP1 SSTORE POP DUP6 DUP9 PUSH1 0x1 ADD DUP2 SWAP1 SSTORE POP DUP5 DUP9 PUSH1 0x2 ADD DUP2 SWAP1 SSTORE POP POP POP POP POP POP POP POP POP POP JUMP JUMPDEST PUSH0 DUP1 PUSH2 0x2710 PUSH2 0x16D PUSH1 0x4 PUSH0 ADD SLOAD PUSH2 0x1684 SWAP2 SWAP1 PUSH2 0x20AD JUMP JUMPDEST PUSH2 0x2710 PUSH2 0x1691 SWAP2 SWAP1 PUSH2 0x1D3B JUMP JUMPDEST DUP5 PUSH2 0x169C SWAP2 SWAP1 PUSH2 0x203F JUMP JUMPDEST PUSH2 0x16A6 SWAP2 SWAP1 PUSH2 0x20AD JUMP JUMPDEST SWAP1 POP DUP1 SWAP2 POP POP SWAP2 SWAP1 POP JUMP JUMPDEST PUSH0 DUP1 PUSH2 0x2710 PUSH2 0x16D PUSH1 0x4 PUSH1 0x1 ADD SLOAD PUSH2 0x16C9 SWAP2 SWAP1 PUSH2 0x20AD JUMP JUMPDEST PUSH2 0x2710 PUSH2 0x16D6 SWAP2 SWAP1 PUSH2 0x1D3B JUMP JUMPDEST DUP5 PUSH2 0x16E1 SWAP2 SWAP1 PUSH2 0x203F JUMP JUMPDEST PUSH2 0x16EB SWAP2 SWAP1 PUSH2 0x20AD JUMP JUMPDEST SWAP1 POP DUP1 SWAP2 POP POP SWAP2 SWAP1 POP JUMP JUMPDEST PUSH0 DUP1 PUSH2 0x2710 PUSH2 0x16D PUSH1 0x4 PUSH1 0x2 ADD SLOAD PUSH2 0x170E SWAP2 SWAP1 PUSH2 0x20AD JUMP JUMPDEST PUSH2 0x2710 PUSH2 0x171B SWAP2 SWAP1 PUSH2 0x1D3B JUMP JUMPDEST DUP5 PUSH2 0x1726 SWAP2 SWAP1 PUSH2 0x203F JUMP JUMPDEST PUSH2 0x1730 SWAP2 SWAP1 PUSH2 0x20AD JUMP JUMPDEST SWAP1 POP DUP1 SWAP2 POP POP SWAP2 SWAP1 POP JUMP JUMPDEST POP JUMP JUMPDEST POP JUMP JUMPDEST POP JUMP JUMPDEST PUSH0 CALLER SWAP1 POP SWAP1 JUMP JUMPDEST PUSH1 0x40 MLOAD DUP1 PUSH1 0x80 ADD PUSH1 0x40 MSTORE DUP1 PUSH0 PUSH1 0xFF AND DUP2 MSTORE PUSH1 0x20 ADD PUSH0 DUP2 MSTORE PUSH1 0x20 ADD PUSH0 DUP2 MSTORE PUSH1 0x20 ADD PUSH0 ISZERO ISZERO DUP2 MSTORE POP SWAP1 JUMP JUMPDEST PUSH1 0x40 MLOAD DUP1 PUSH1 0x60 ADD PUSH1 0x40 MSTORE DUP1 PUSH0 DUP2 MSTORE PUSH1 0x20 ADD PUSH0 DUP2 MSTORE PUSH1 0x20 ADD PUSH0 DUP2 MSTORE POP SWAP1 JUMP JUMPDEST PUSH0 DUP1 REVERT JUMPDEST PUSH0 DUP1 REVERT JUMPDEST PUSH0 PUSH1 0xFF DUP3 AND SWAP1 POP SWAP2 SWAP1 POP JUMP JUMPDEST PUSH2 0x17AF DUP2 PUSH2 0x179A JUMP JUMPDEST DUP2 EQ PUSH2 0x17B9 JUMPI PUSH0 DUP1 REVERT JUMPDEST POP JUMP JUMPDEST PUSH0 DUP2 CALLDATALOAD SWAP1 POP PUSH2 0x17CA DUP2 PUSH2 0x17A6 JUMP JUMPDEST SWAP3 SWAP2 POP POP JUMP JUMPDEST PUSH0 PUSH1 0x20 DUP3 DUP5 SUB SLT ISZERO PUSH2 0x17E5 JUMPI PUSH2 0x17E4 PUSH2 0x1792 JUMP JUMPDEST JUMPDEST PUSH0 PUSH2 0x17F2 DUP5 DUP3 DUP6 ADD PUSH2 0x17BC JUMP JUMPDEST SWAP2 POP POP SWAP3 SWAP2 POP POP JUMP JUMPDEST PUSH0 PUSH20 0xFFFFFFFFFFFFFFFFFFFFFFFFFFFFFFFFFFFFFFFF DUP3 AND SWAP1 POP SWAP2 SWAP1 POP JUMP JUMPDEST PUSH0 PUSH2 0x1824 DUP3 PUSH2 0x17FB JUMP JUMPDEST SWAP1 POP SWAP2 SWAP1 POP JUMP JUMPDEST PUSH2 0x1834 DUP2 PUSH2 0x181A JUMP JUMPDEST DUP3 MSTORE POP POP JUMP JUMPDEST PUSH0 PUSH1 0x20 DUP3 ADD SWAP1 POP PUSH2 0x184D PUSH0 DUP4 ADD DUP5 PUSH2 0x182B JUMP JUMPDEST SWAP3 SWAP2 POP POP JUMP JUMPDEST PUSH2 0x185C DUP2 PUSH2 0x181A JUMP JUMPDEST DUP2 EQ PUSH2 0x1866 JUMPI PUSH0 DUP1 REVERT JUMPDEST POP JUMP JUMPDEST PUSH0 DUP2 CALLDATALOAD SWAP1 POP PUSH2 0x1877 DUP2 PUSH2 0x1853 JUMP JUMPDEST SWAP3 SWAP2 POP POP JUMP JUMPDEST PUSH0 PUSH1 0x20 DUP3 DUP5 SUB SLT ISZERO PUSH2 0x1892 JUMPI PUSH2 0x1891 PUSH2 0x1792 JUMP JUMPDEST JUMPDEST PUSH0 PUSH2 0x189F DUP5 DUP3 DUP6 ADD PUSH2 0x1869 JUMP JUMPDEST SWAP2 POP POP SWAP3 SWAP2 POP POP JUMP JUMPDEST PUSH2 0x18B1 DUP2 PUSH2 0x179A JUMP JUMPDEST DUP3 MSTORE POP POP JUMP JUMPDEST PUSH0 DUP2 SWAP1 POP SWAP2 SWAP1 POP JUMP JUMPDEST PUSH2 0x18C9 DUP2 PUSH2 0x18B7 JUMP JUMPDEST DUP3 MSTORE POP POP JUMP JUMPDEST PUSH0 DUP2 ISZERO ISZERO SWAP1 POP SWAP2 SWAP1 POP JUMP JUMPDEST PUSH2 0x18E3 DUP2 PUSH2 0x18CF JUMP JUMPDEST DUP3 MSTORE POP POP JUMP JUMPDEST PUSH1 0x80 DUP3 ADD PUSH0 DUP3 ADD MLOAD PUSH2 0x18FD PUSH0 DUP6 ADD DUP3 PUSH2 0x18A8 JUMP JUMPDEST POP PUSH1 0x20 DUP3 ADD MLOAD PUSH2 0x1910 PUSH1 0x20 DUP6 ADD DUP3 PUSH2 0x18C0 JUMP JUMPDEST POP PUSH1 0x40 DUP3 ADD MLOAD PUSH2 0x1923 PUSH1 0x40 DUP6 ADD DUP3 PUSH2 0x18C0 JUMP JUMPDEST POP PUSH1 0x60 DUP3 ADD MLOAD PUSH2 0x1936 PUSH1 0x60 DUP6 ADD DUP3 PUSH2 0x18DA JUMP JUMPDEST POP POP POP POP JUMP JUMPDEST PUSH1 0x60 DUP3 ADD PUSH0 DUP3 ADD MLOAD PUSH2 0x1950 PUSH0 DUP6 ADD DUP3 PUSH2 0x18C0 JUMP JUMPDEST POP PUSH1 0x20 DUP3 ADD MLOAD PUSH2 0x1963 PUSH1 0x20 DUP6 ADD DUP3 PUSH2 0x18C0 JUMP JUMPDEST POP PUSH1 0x40 DUP3 ADD MLOAD PUSH2 0x1976 PUSH1 0x40 DUP6 ADD DUP3 PUSH2 0x18C0 JUMP JUMPDEST POP POP POP POP JUMP JUMPDEST PUSH2 0x1985 DUP2 PUSH2 0x18B7 JUMP JUMPDEST DUP3 MSTORE POP POP JUMP JUMPDEST PUSH0 PUSH2 0x100 DUP3 ADD SWAP1 POP PUSH2 0x199F PUSH0 DUP4 ADD DUP7 PUSH2 0x18E9 JUMP JUMPDEST PUSH2 0x19AC PUSH1 0x80 DUP4 ADD DUP6 PUSH2 0x193C JUMP JUMPDEST PUSH2 0x19B9 PUSH1 0xE0 DUP4 ADD DUP5 PUSH2 0x197C JUMP JUMPDEST SWAP5 SWAP4 POP POP POP POP JUMP JUMPDEST PUSH0 PUSH1 0x80 DUP3 ADD SWAP1 POP PUSH2 0x19D4 PUSH0 DUP4 ADD DUP8 PUSH2 0x197C JUMP JUMPDEST PUSH2 0x19E1 PUSH1 0x20 DUP4 ADD DUP7 PUSH2 0x197C JUMP JUMPDEST PUSH2 0x19EE PUSH1 0x40 DUP4 ADD DUP6 PUSH2 0x197C JUMP JUMPDEST PUSH2 0x19FB PUSH1 0x60 DUP4 ADD DUP5 PUSH2 0x197C JUMP JUMPDEST SWAP6 SWAP5 POP POP POP POP POP JUMP JUMPDEST PUSH2 0x1A0D DUP2 PUSH2 0x18CF JUMP JUMPDEST DUP3 MSTORE POP POP JUMP JUMPDEST PUSH0 PUSH1 0x80 DUP3 ADD SWAP1 POP PUSH2 0x1A26 PUSH0 DUP4 ADD DUP8 PUSH2 0x1A04 JUMP JUMPDEST PUSH2 0x1A33 PUSH1 0x20 DUP4 ADD DUP7 PUSH2 0x197C JUMP JUMPDEST PUSH2 0x1A40 PUSH1 0x40 DUP4 ADD DUP6 PUSH2 0x197C JUMP JUMPDEST PUSH2 0x1A4D PUSH1 0x60 DUP4 ADD DUP5 PUSH2 0x197C JUMP JUMPDEST SWAP6 SWAP5 POP POP POP POP POP JUMP JUMPDEST PUSH2 0x1A5F DUP2 PUSH2 0x179A JUMP JUMPDEST DUP3 MSTORE POP POP JUMP JUMPDEST PUSH0 PUSH1 0x80 DUP3 ADD SWAP1 POP PUSH2 0x1A78 PUSH0 DUP4 ADD DUP8 PUSH2 0x1A56 JUMP JUMPDEST PUSH2 0x1A85 PUSH1 0x20 DUP4 ADD DUP7 PUSH2 0x197C JUMP JUMPDEST PUSH2 0x1A92 PUSH1 0x40 DUP4 ADD DUP6 PUSH2 0x197C JUMP JUMPDEST PUSH2 0x1A9F PUSH1 0x60 DUP4 ADD DUP5 PUSH2 0x1A04 JUMP JUMPDEST SWAP6 SWAP5 POP POP POP POP POP JUMP JUMPDEST PUSH0 PUSH1 0x60 DUP3 ADD SWAP1 POP PUSH2 0x1ABB PUSH0 DUP4 ADD DUP7 PUSH2 0x197C JUMP JUMPDEST PUSH2 0x1AC8 PUSH1 0x20 DUP4 ADD DUP6 PUSH2 0x197C JUMP JUMPDEST PUSH2 0x1AD5 PUSH1 0x40 DUP4 ADD DUP5 PUSH2 0x197C JUMP JUMPDEST SWAP5 SWAP4 POP POP POP POP JUMP JUMPDEST PUSH2 0x1AE6 DUP2 PUSH2 0x18B7 JUMP JUMPDEST DUP2 EQ PUSH2 0x1AF0 JUMPI PUSH0 DUP1 REVERT JUMPDEST POP JUMP JUMPDEST PUSH0 DUP2 CALLDATALOAD SWAP1 POP PUSH2 0x1B01 DUP2 PUSH2 0x1ADD JUMP JUMPDEST SWAP3 SWAP2 POP POP JUMP JUMPDEST PUSH0 DUP1 PUSH0 PUSH1 0x60 DUP5 DUP7 SUB SLT ISZERO PUSH2 0x1B1E JUMPI PUSH2 0x1B1D PUSH2 0x1792 JUMP JUMPDEST JUMPDEST PUSH0 PUSH2 0x1B2B DUP7 DUP3 DUP8 ADD PUSH2 0x1AF3 JUMP JUMPDEST SWAP4 POP POP PUSH1 0x20 PUSH2 0x1B3C DUP7 DUP3 DUP8 ADD PUSH2 0x1AF3 JUMP JUMPDEST SWAP3 POP POP PUSH1 0x40 PUSH2 0x1B4D DUP7 DUP3 DUP8 ADD PUSH2 0x1AF3 JUMP JUMPDEST SWAP2 POP POP SWAP3 POP SWAP3 POP SWAP3 JUMP JUMPDEST PUSH0 PUSH1 0x20 DUP3 ADD SWAP1 POP PUSH2 0x1B6A PUSH0 DUP4 ADD DUP5 PUSH2 0x197C JUMP JUMPDEST SWAP3 SWAP2 POP POP JUMP JUMPDEST PUSH0 DUP1 REVERT JUMPDEST PUSH0 DUP1 REVERT JUMPDEST PUSH0 DUP1 REVERT JUMPDEST PUSH0 DUP1 DUP4 PUSH1 0x1F DUP5 ADD SLT PUSH2 0x1B91 JUMPI PUSH2 0x1B90 PUSH2 0x1B70 JUMP JUMPDEST JUMPDEST DUP3 CALLDATALOAD SWAP1 POP PUSH8 0xFFFFFFFFFFFFFFFF DUP2 GT ISZERO PUSH2 0x1BAE JUMPI PUSH2 0x1BAD PUSH2 0x1B74 JUMP JUMPDEST JUMPDEST PUSH1 0x20 DUP4 ADD SWAP2 POP DUP4 PUSH1 0x1 DUP3 MUL DUP4 ADD GT ISZERO PUSH2 0x1BCA JUMPI PUSH2 0x1BC9 PUSH2 0x1B78 JUMP JUMPDEST JUMPDEST SWAP3 POP SWAP3 SWAP1 POP JUMP JUMPDEST PUSH0 DUP1 PUSH0 PUSH1 0x40 DUP5 DUP7 SUB SLT ISZERO PUSH2 0x1BE8 JUMPI PUSH2 0x1BE7 PUSH2 0x1792 JUMP JUMPDEST JUMPDEST PUSH0 DUP5 ADD CALLDATALOAD PUSH8 0xFFFFFFFFFFFFFFFF DUP2 GT ISZERO PUSH2 0x1C05 JUMPI PUSH2 0x1C04 PUSH2 0x1796 JUMP JUMPDEST JUMPDEST PUSH2 0x1C11 DUP7 DUP3 DUP8 ADD PUSH2 0x1B7C JUMP JUMPDEST SWAP4 POP SWAP4 POP POP PUSH1 0x20 PUSH2 0x1C24 DUP7 DUP3 DUP8 ADD PUSH2 0x1869 JUMP JUMPDEST SWAP2 POP POP SWAP3 POP SWAP3 POP SWAP3 JUMP JUMPDEST PUSH0 DUP3 DUP3 MSTORE PUSH1 0x20 DUP3 ADD SWAP1 POP SWAP3 SWAP2 POP POP JUMP JUMPDEST PUSH32 0x4465706F73697420746F6F20736D616C6C000000000000000000000000000000 PUSH0 DUP3 ADD MSTORE POP JUMP JUMPDEST PUSH0 PUSH2 0x1C72 PUSH1 0x11 DUP4 PUSH2 0x1C2E JUMP JUMPDEST SWAP2 POP PUSH2 0x1C7D DUP3 PUSH2 0x1C3E JUMP JUMPDEST PUSH1 0x20 DUP3 ADD SWAP1 POP SWAP2 SWAP1 POP JUMP JUMPDEST PUSH0 PUSH1 0x20 DUP3 ADD SWAP1 POP DUP2 DUP2 SUB PUSH0 DUP4 ADD MSTORE PUSH2 0x1C9F DUP2 PUSH2 0x1C66 JUMP JUMPDEST SWAP1 POP SWAP2 SWAP1 POP JUMP JUMPDEST PUSH32 0x496E76616C6964207269736B2073636F72650000000000000000000000000000 PUSH0 DUP3 ADD MSTORE POP JUMP JUMPDEST PUSH0 PUSH2 0x1CDA PUSH1 0x12 DUP4 PUSH2 0x1C2E JUMP JUMPDEST SWAP2 POP PUSH2 0x1CE5 DUP3 PUSH2 0x1CA6 JUMP JUMPDEST PUSH1 0x20 DUP3 ADD SWAP1 POP SWAP2 SWAP1 POP JUMP JUMPDEST PUSH0 PUSH1 0x20 DUP3 ADD SWAP1 POP DUP2 DUP2 SUB PUSH0 DUP4 ADD MSTORE PUSH2 0x1D07 DUP2 PUSH2 0x1CCE JUMP JUMPDEST SWAP1 POP SWAP2 SWAP1 POP JUMP JUMPDEST PUSH32 0x4E487B7100000000000000000000000000000000000000000000000000000000 PUSH0 MSTORE PUSH1 0x11 PUSH1 0x4 MSTORE PUSH1 0x24 PUSH0 REVERT JUMPDEST PUSH0 PUSH2 0x1D45 DUP3 PUSH2 0x18B7 JUMP JUMPDEST SWAP2 POP PUSH2 0x1D50 DUP4 PUSH2 0x18B7 JUMP JUMPDEST SWAP3 POP DUP3 DUP3 ADD SWAP1 POP DUP1 DUP3 GT ISZERO PUSH2 0x1D68 JUMPI PUSH2 0x1D67 PUSH2 0x1D0E JUMP JUMPDEST JUMPDEST SWAP3 SWAP2 POP POP JUMP JUMPDEST PUSH0 PUSH1 0x40 DUP3 ADD SWAP1 POP PUSH2 0x1D81 PUSH0 DUP4 ADD DUP6 PUSH2 0x197C JUMP JUMPDEST PUSH2 0x1D8E PUSH1 0x20 DUP4 ADD DUP5 PUSH2 0x1A56 JUMP JUMPDEST SWAP4 SWAP3 POP POP POP JUMP JUMPDEST PUSH32 0x4E6F206465706F7369747320746F20726562616C616E63650000000000000000 PUSH0 DUP3 ADD MSTORE POP JUMP JUMPDEST PUSH0 PUSH2 0x1DC9 PUSH1 0x18 DUP4 PUSH2 0x1C2E JUMP JUMPDEST SWAP2 POP PUSH2 0x1DD4 DUP3 PUSH2 0x1D95 JUMP JUMPDEST PUSH1 0x20 DUP3 ADD SWAP1 POP SWAP2 SWAP1 POP JUMP JUMPDEST PUSH0 PUSH1 0x20 DUP3 ADD SWAP1 POP DUP2 DUP2 SUB PUSH0 DUP4 ADD MSTORE PUSH2 0x1DF6 DUP2 PUSH2 0x1DBD JUMP JUMPDEST SWAP1 POP SWAP2 SWAP1 POP JUMP JUMPDEST PUSH0 DUP2 SWAP1 POP SWAP3 SWAP2 POP POP JUMP JUMPDEST DUP3 DUP2 DUP4 CALLDATACOPY PUSH0 DUP4 DUP4 ADD MSTORE POP POP POP JUMP JUMPDEST PUSH0 PUSH2 0x1E20 DUP4 DUP6 PUSH2 0x1DFD JUMP JUMPDEST SWAP4 POP PUSH2 0x1E2D DUP4 DUP6 DUP5 PUSH2 0x1E07 JUMP JUMPDEST DUP3 DUP5 ADD SWAP1 POP SWAP4 SWAP3 POP POP POP JUMP JUMPDEST PUSH0 PUSH2 0x1E45 DUP3 DUP5 DUP7 PUSH2 0x1E15 JUMP JUMPDEST SWAP2 POP DUP2 SWAP1 POP SWAP4 SWAP3 POP POP POP JUMP JUMPDEST PUSH32 0x7472616465726A6F650000000000000000000000000000000000000000000000 PUSH0 DUP3 ADD MSTORE POP JUMP JUMPDEST PUSH0 PUSH2 0x1E85 PUSH1 0x9 DUP4 PUSH2 0x1DFD JUMP JUMPDEST SWAP2 POP PUSH2 0x1E90 DUP3 PUSH2 0x1E51 JUMP JUMPDEST PUSH1 0x9 DUP3 ADD SWAP1 POP SWAP2 SWAP1 POP JUMP JUMPDEST PUSH0 PUSH2 0x1EA5 DUP3 PUSH2 0x1E79 JUMP JUMPDEST SWAP2 POP DUP2 SWAP1 POP SWAP2 SWAP1 POP JUMP JUMPDEST PUSH32 0x62656E7169000000000000000000000000000000000000000000000000000000 PUSH0 DUP3 ADD MSTORE POP JUMP JUMPDEST PUSH0 PUSH2 0x1EE3 PUSH1 0x5 DUP4 PUSH2 0x1DFD JUMP JUMPDEST SWAP2 POP PUSH2 0x1EEE DUP3 PUSH2 0x1EAF JUMP JUMPDEST PUSH1 0x5 DUP3 ADD SWAP1 POP SWAP2 SWAP1 POP JUMP JUMPDEST PUSH0 PUSH2 0x1F03 DUP3 PUSH2 0x1ED7 JUMP JUMPDEST SWAP2 POP DUP2 SWAP1 POP SWAP2 SWAP1 POP JUMP JUMPDEST PUSH32 0x7969656C6479616B000000000000000000000000000000000000000000000000 PUSH0 DUP3 ADD MSTORE POP JUMP JUMPDEST PUSH0 PUSH2 0x1F41 PUSH1 0x8 DUP4 PUSH2 0x1DFD JUMP JUMPDEST SWAP2 POP PUSH2 0x1F4C DUP3 PUSH2 0x1F0D JUMP JUMPDEST PUSH1 0x8 DUP3 ADD SWAP1 POP SWAP2 SWAP1 POP JUMP JUMPDEST PUSH0 PUSH2 0x1F61 DUP3 PUSH2 0x1F35 JUMP JUMPDEST SWAP2 POP DUP2 SWAP1 POP SWAP2 SWAP1 POP JUMP JUMPDEST PUSH32 0x496E76616C69642070726F746F636F6C00000000000000000000000000000000 PUSH0 DUP3 ADD MSTORE POP JUMP JUMPDEST PUSH0 PUSH2 0x1F9F PUSH1 0x10 DUP4 PUSH2 0x1C2E JUMP JUMPDEST SWAP2 POP PUSH2 0x1FAA DUP3 PUSH2 0x1F6B JUMP JUMPDEST PUSH1 0x20 DUP3 ADD SWAP1 POP SWAP2 SWAP1 POP JUMP JUMPDEST PUSH0 PUSH1 0x20 DUP3 ADD SWAP1 POP DUP2 DUP2 SUB PUSH0 DUP4 ADD MSTORE PUSH2 0x1FCC DUP2 PUSH2 0x1F93 JUMP JUMPDEST SWAP1 POP SWAP2 SWAP1 POP JUMP JUMPDEST PUSH0 PUSH1 0x1F NOT PUSH1 0x1F DUP4 ADD AND SWAP1 POP SWAP2 SWAP1 POP JUMP JUMPDEST PUSH0 PUSH2 0x1FEE DUP4 DUP6 PUSH2 0x1C2E JUMP JUMPDEST SWAP4 POP PUSH2 0x1FFB DUP4 DUP6 DUP5 PUSH2 0x1E07 JUMP JUMPDEST PUSH2 0x2004 DUP4 PUSH2 0x1FD3 JUMP JUMPDEST DUP5 ADD SWAP1 POP SWAP4 SWAP3 POP POP POP JUMP JUMPDEST PUSH0 PUSH1 0x40 DUP3 ADD SWAP1 POP DUP2 DUP2 SUB PUSH0 DUP4 ADD MSTORE PUSH2 0x2028 DUP2 DUP6 DUP8 PUSH2 0x1FE3 JUMP JUMPDEST SWAP1 POP PUSH2 0x2037 PUSH1 0x20 DUP4 ADD DUP5 PUSH2 0x182B JUMP JUMPDEST SWAP5 SWAP4 POP POP POP POP JUMP JUMPDEST PUSH0 PUSH2 0x2049 DUP3 PUSH2 0x18B7 JUMP JUMPDEST SWAP2 POP PUSH2 0x2054 DUP4 PUSH2 0x18B7 JUMP JUMPDEST SWAP3 POP DUP3 DUP3 MUL PUSH2 0x2062 DUP2 PUSH2 0x18B7 JUMP JUMPDEST SWAP2 POP DUP3 DUP3 DIV DUP5 EQ DUP4 ISZERO OR PUSH2 0x2079 JUMPI PUSH2 0x2078 PUSH2 0x1D0E JUMP JUMPDEST JUMPDEST POP SWAP3 SWAP2 POP POP JUMP JUMPDEST PUSH32 0x4E487B7100000000000000000000000000000000000000000000000000000000 PUSH0 MSTORE PUSH1 0x12 PUSH1 0x4 MSTORE PUSH1 0x24 PUSH0 REVERT JUMPDEST PUSH0 PUSH2 0x20B7 DUP3 PUSH2 0x18B7 JUMP JUMPDEST SWAP2 POP PUSH2 0x20C2 DUP4 PUSH2 0x18B7 JUMP JUMPDEST SWAP3 POP DUP3 PUSH2 0x20D2 JUMPI PUSH2 0x20D1 PUSH2 0x2080 JUMP JUMPDEST JUMPDEST DUP3 DUP3 DIV SWAP1 POP SWAP3 SWAP2 POP POP JUMP JUMPDEST PUSH0 PUSH2 0x20E7 DUP3 PUSH2 0x18B7 JUMP JUMPDEST SWAP2 POP PUSH2 0x20F2 DUP4 PUSH2 0x18B7 JUMP JUMPDEST SWAP3 POP DUP3 DUP3 SUB SWAP1 POP DUP2 DUP2 GT ISZERO PUSH2 0x210A JUMPI PUSH2 0x2109 PUSH2 0x1D0E JUMP JUMPDEST JUMPDEST SWAP3 SWAP2 POP POP JUMP JUMPDEST PUSH0 DUP2 SWAP1 POP SWAP2 SWAP1 POP JUMP JUMPDEST PUSH0 PUSH2 0x2123 DUP3 PUSH2 0x2110 JUMP JUMPDEST SWAP2 POP PUSH2 0x212E DUP4 PUSH2 0x2110 JUMP JUMPDEST SWAP3 POP DUP3 DUP3 SUB SWAP1 POP DUP2 DUP2 SLT PUSH0 DUP5 SLT AND DUP3 DUP3 SGT PUSH0 DUP6 SLT ISZERO AND OR ISZERO PUSH2 0x2153 JUMPI PUSH2 0x2152 PUSH2 0x1D0E JUMP JUMPDEST JUMPDEST SWAP3 SWAP2 POP POP JUMP JUMPDEST PUSH0 PUSH2 0x2163 DUP3 PUSH2 0x2110 JUMP JUMPDEST SWAP2 POP PUSH32 0x8000000000000000000000000000000000000000000000000000000000000000 DUP3 SUB PUSH2 0x2195 JUMPI PUSH2 0x2194 PUSH2 0x1D0E JUMP JUMPDEST JUMPDEST DUP2 PUSH0 SUB SWAP1 POP SWAP2 SWAP1 POP JUMP INVALID LOG2 PUSH5 0x6970667358 0x22 SLT KECCAK256 0x4A 0x5C DUP11 LOG1 PC SUB 0x5C 0xCA EXTCODECOPY PUSH19 0x94780A69FFCE4D89A1998C0E19F6F1A3562C2 SELFBALANCE PUSH10 0x164736F6C6343000817 STOP CALLER "
		},
		"gasEstimates": {
			"creation": {
				"codeDepositCost": "1732200",
				"executionCost": "infinite",
				"totalCost": "infinite"
			},
			"external": {
				"BASIS_POINTS()": "413",
				"MIN_DEPOSIT()": "391",
				"REBALANCE_THRESHOLD()": "436",
				"benqiComptroller()": "2553",
				"currentYields()": "infinite",
				"emergencyWithdraw()": "infinite",
				"getCurrentYields()": "infinite",
				"getRebalanceRecommendation(address)": "infinite",
				"getUserPortfolio(address)": "infinite",
				"optimizeYield(uint8)": "infinite",
				"owner()": "2582",
				"rebalance()": "infinite",
				"renounceOwnership()": "infinite",
				"traderJoeRouter()": "2531",
				"transferOwnership(address)": "infinite",
				"updateProtocolAddress(string,address)": "infinite",
				"updateYields(uint256,uint256,uint256)": "infinite",
				"userAllocations(address)": "infinite",
				"userProfiles(address)": "infinite",
				"yieldYakFarm()": "2554"
			},
			"internal": {
				"_allocateFunds(address,uint256,uint8)": "infinite",
				"_calculateOptimalAllocation(uint256,uint8)": "infinite",
				"_depositToBenqi(uint256)": "11",
				"_depositToTraderJoe(uint256)": "11",
				"_depositToYieldYak(uint256)": "11",
				"_executeRebalance(address,struct YieldOptimizer.ProtocolAllocation storage pointer,uint256,uint256,uint256)": "infinite",
				"_shouldRebalance(struct YieldOptimizer.ProtocolAllocation memory,uint256,uint256,uint256,uint256)": "infinite",
				"_withdrawFromBenqi(uint256)": "infinite",
				"_withdrawFromTraderJoe(uint256)": "infinite",
				"_withdrawFromYieldYak(uint256)": "infinite"
			}
		},
		"methodIdentifiers": {
			"BASIS_POINTS()": "e1f1c4a7",
			"MIN_DEPOSIT()": "e1e158a5",
			"REBALANCE_THRESHOLD()": "c85b967d",
			"benqiComptroller()": "324be9ef",
			"currentYields()": "8ccbe9f5",
			"emergencyWithdraw()": "db2e21bc",
			"getCurrentYields()": "22a16952",
			"getRebalanceRecommendation(address)": "2ab8895f",
			"getUserPortfolio(address)": "1edb27e9",
			"optimizeYield(uint8)": "00349f3a",
			"owner()": "8da5cb5b",
			"rebalance()": "7d7c2a1c",
			"renounceOwnership()": "715018a6",
			"traderJoeRouter()": "2faff427",
			"transferOwnership(address)": "f2fde38b",
			"updateProtocolAddress(string,address)": "d076e8b4",
			"updateYields(uint256,uint256,uint256)": "99e32287",
			"userAllocations(address)": "4c0c87ff",
			"userProfiles(address)": "332d56d7",
			"yieldYakFarm()": "071a8ef5"
		}
	},
	"abi": [
		{
			"inputs": [],
			"stateMutability": "nonpayable",
			"type": "constructor"
		},
		{
			"inputs": [
				{
					"internalType": "address",
					"name": "owner",
					"type": "address"
				}
			],
			"name": "OwnableInvalidOwner",
			"type": "error"
		},
		{
			"inputs": [
				{
					"internalType": "address",
					"name": "account",
					"type": "address"
				}
			],
			"name": "OwnableUnauthorizedAccount",
			"type": "error"
		},
		{
			"inputs": [],
			"name": "ReentrancyGuardReentrantCall",
			"type": "error"
		},
		{
			"anonymous": false,
			"inputs": [
				{
					"indexed": true,
					"internalType": "address",
					"name": "previousOwner",
					"type": "address"
				},
				{
					"indexed": true,
					"internalType": "address",
					"name": "newOwner",
					"type": "address"
				}
			],
			"name": "OwnershipTransferred",
			"type": "event"
		},
		{
			"anonymous": false,
			"inputs": [
				{
					"indexed": false,
					"internalType": "string",
					"name": "protocol",
					"type": "string"
				},
				{
					"indexed": false,
					"internalType": "address",
					"name": "newAddress",
					"type": "address"
				}
			],
			"name": "ProtocolAddressUpdated",
			"type": "event"
		},
		{
			"anonymous": false,
			"inputs": [
				{
					"indexed": true,
					"internalType": "address",
					"name": "user",
					"type": "address"
				},
				{
					"indexed": false,
					"internalType": "uint256",
					"name": "totalValue",
					"type": "uint256"
				}
			],
			"name": "Rebalanced",
			"type": "event"
		},
		{
			"anonymous": false,
			"inputs": [
				{
					"indexed": true,
					"internalType": "address",
					"name": "user",
					"type": "address"
				},
				{
					"indexed": false,
					"internalType": "uint256",
					"name": "amount",
					"type": "uint256"
				}
			],
			"name": "Withdrawn",
			"type": "event"
		},
		{
			"anonymous": false,
			"inputs": [
				{
					"indexed": true,
					"internalType": "address",
					"name": "user",
					"type": "address"
				},
				{
					"indexed": false,
					"internalType": "uint256",
					"name": "amount",
					"type": "uint256"
				},
				{
					"indexed": false,
					"internalType": "uint8",
					"name": "riskScore",
					"type": "uint8"
				}
			],
			"name": "YieldOptimized",
			"type": "event"
		},
		{
			"anonymous": false,
			"inputs": [
				{
					"indexed": false,
					"internalType": "uint256",
					"name": "benqiAPY",
					"type": "uint256"
				},
				{
					"indexed": false,
					"internalType": "uint256",
					"name": "traderJoeAPY",
					"type": "uint256"
				},
				{
					"indexed": false,
					"internalType": "uint256",
					"name": "yieldYakAPY",
					"type": "uint256"
				}
			],
			"name": "YieldsUpdated",
			"type": "event"
		},
		{
			"inputs": [],
			"name": "BASIS_POINTS",
			"outputs": [
				{
					"internalType": "uint256",
					"name": "",
					"type": "uint256"
				}
			],
			"stateMutability": "view",
			"type": "function"
		},
		{
			"inputs": [],
			"name": "MIN_DEPOSIT",
			"outputs": [
				{
					"internalType": "uint256",
					"name": "",
					"type": "uint256"
				}
			],
			"stateMutability": "view",
			"type": "function"
		},
		{
			"inputs": [],
			"name": "REBALANCE_THRESHOLD",
			"outputs": [
				{
					"internalType": "uint256",
					"name": "",
					"type": "uint256"
				}
			],
			"stateMutability": "view",
			"type": "function"
		},
		{
			"inputs": [],
			"name": "benqiComptroller",
			"outputs": [
				{
					"internalType": "address",
					"name": "",
					"type": "address"
				}
			],
			"stateMutability": "view",
			"type": "function"
		},
		{
			"inputs": [],
			"name": "currentYields",
			"outputs": [
				{
					"internalType": "uint256",
					"name": "benqiAPY",
					"type": "uint256"
				},
				{
					"internalType": "uint256",
					"name": "traderJoeAPY",
					"type": "uint256"
				},
				{
					"internalType": "uint256",
					"name": "yieldYakAPY",
					"type": "uint256"
				},
				{
					"internalType": "uint256",
					"name": "lastUpdated",
					"type": "uint256"
				}
			],
			"stateMutability": "view",
			"type": "function"
		},
		{
			"inputs": [],
			"name": "emergencyWithdraw",
			"outputs": [],
			"stateMutability": "nonpayable",
			"type": "function"
		},
		{
			"inputs": [],
			"name": "getCurrentYields",
			"outputs": [
				{
					"internalType": "uint256",
					"name": "benqiAPY",
					"type": "uint256"
				},
				{
					"internalType": "uint256",
					"name": "traderJoeAPY",
					"type": "uint256"
				},
				{
					"internalType": "uint256",
					"name": "yieldYakAPY",
					"type": "uint256"
				},
				{
					"internalType": "uint256",
					"name": "lastUpdated",
					"type": "uint256"
				}
			],
			"stateMutability": "view",
			"type": "function"
		},
		{
			"inputs": [
				{
					"internalType": "address",
					"name": "user",
					"type": "address"
				}
			],
			"name": "getRebalanceRecommendation",
			"outputs": [
				{
					"internalType": "bool",
					"name": "shouldRebalance",
					"type": "bool"
				},
				{
					"internalType": "uint256",
					"name": "newBenqiAllocation",
					"type": "uint256"
				},
				{
					"internalType": "uint256",
					"name": "newTraderJoeAllocation",
					"type": "uint256"
				},
				{
					"internalType": "uint256",
					"name": "newYieldYakAllocation",
					"type": "uint256"
				}
			],
			"stateMutability": "view",
			"type": "function"
		},
		{
			"inputs": [
				{
					"internalType": "address",
					"name": "user",
					"type": "address"
				}
			],
			"name": "getUserPortfolio",
			"outputs": [
				{
					"components": [
						{
							"internalType": "uint8",
							"name": "riskScore",
							"type": "uint8"
						},
						{
							"internalType": "uint256",
							"name": "totalDeposited",
							"type": "uint256"
						},
						{
							"internalType": "uint256",
							"name": "lastRebalance",
							"type": "uint256"
						},
						{
							"internalType": "bool",
							"name": "autoRebalance",
							"type": "bool"
						}
					],
					"internalType": "struct YieldOptimizer.UserProfile",
					"name": "profile",
					"type": "tuple"
				},
				{
					"components": [
						{
							"internalType": "uint256",
							"name": "benqiAmount",
							"type": "uint256"
						},
						{
							"internalType": "uint256",
							"name": "traderJoeAmount",
							"type": "uint256"
						},
						{
							"internalType": "uint256",
							"name": "yieldYakAmount",
							"type": "uint256"
						}
					],
					"internalType": "struct YieldOptimizer.ProtocolAllocation",
					"name": "allocation",
					"type": "tuple"
				},
				{
					"internalType": "uint256",
					"name": "estimatedValue",
					"type": "uint256"
				}
			],
			"stateMutability": "view",
			"type": "function"
		},
		{
			"inputs": [
				{
					"internalType": "uint8",
					"name": "_riskScore",
					"type": "uint8"
				}
			],
			"name": "optimizeYield",
			"outputs": [],
			"stateMutability": "payable",
			"type": "function"
		},
		{
			"inputs": [],
			"name": "owner",
			"outputs": [
				{
					"internalType": "address",
					"name": "",
					"type": "address"
				}
			],
			"stateMutability": "view",
			"type": "function"
		},
		{
			"inputs": [],
			"name": "rebalance",
			"outputs": [],
			"stateMutability": "nonpayable",
			"type": "function"
		},
		{
			"inputs": [],
			"name": "renounceOwnership",
			"outputs": [],
			"stateMutability": "nonpayable",
			"type": "function"
		},
		{
			"inputs": [],
			"name": "traderJoeRouter",
			"outputs": [
				{
					"internalType": "address",
					"name": "",
					"type": "address"
				}
			],
			"stateMutability": "view",
			"type": "function"
		},
		{
			"inputs": [
				{
					"internalType": "address",
					"name": "newOwner",
					"type": "address"
				}
			],
			"name": "transferOwnership",
			"outputs": [],
			"stateMutability": "nonpayable",
			"type": "function"
		},
		{
			"inputs": [
				{
					"internalType": "string",
					"name": "protocol",
					"type": "string"
				},
				{
					"internalType": "address",
					"name": "newAddress",
					"type": "address"
				}
			],
			"name": "updateProtocolAddress",
			"outputs": [],
			"stateMutability": "nonpayable",
			"type": "function"
		},
		{
			"inputs": [
				{
					"internalType": "uint256",
					"name": "_benqiAPY",
					"type": "uint256"
				},
				{
					"internalType": "uint256",
					"name": "_traderJoeAPY",
					"type": "uint256"
				},
				{
					"internalType": "uint256",
					"name": "_yieldYakAPY",
					"type": "uint256"
				}
			],
			"name": "updateYields",
			"outputs": [],
			"stateMutability": "nonpayable",
			"type": "function"
		},
		{
			"inputs": [
				{
					"internalType": "address",
					"name": "",
					"type": "address"
				}
			],
			"name": "userAllocations",
			"outputs": [
				{
					"internalType": "uint256",
					"name": "benqiAmount",
					"type": "uint256"
				},
				{
					"internalType": "uint256",
					"name": "traderJoeAmount",
					"type": "uint256"
				},
				{
					"internalType": "uint256",
					"name": "yieldYakAmount",
					"type": "uint256"
				}
			],
			"stateMutability": "view",
			"type": "function"
		},
		{
			"inputs": [
				{
					"internalType": "address",
					"name": "",
					"type": "address"
				}
			],
			"name": "userProfiles",
			"outputs": [
				{
					"internalType": "uint8",
					"name": "riskScore",
					"type": "uint8"
				},
				{
					"internalType": "uint256",
					"name": "totalDeposited",
					"type": "uint256"
				},
				{
					"internalType": "uint256",
					"name": "lastRebalance",
					"type": "uint256"
				},
				{
					"internalType": "bool",
					"name": "autoRebalance",
					"type": "bool"
				}
			],
			"stateMutability": "view",
			"type": "function"
		},
		{
			"inputs": [],
			"name": "yieldYakFarm",
			"outputs": [
				{
					"internalType": "address",
					"name": "",
					"type": "address"
				}
			],
			"stateMutability": "view",
			"type": "function"
		}
	]
}